:02000002D0002C
:1040000000400D00D4920D00000006000D000501D7
:0840100004019A080000000001
:04401800188B0D00F4
:1040200009480A49884208B505D0094A824202D0A7
:10403000121A04F087FC0748074A0021121A04F0FC
:104040008FFC014808BD00BF10E403202C920D0036
:1040500090E4032090E40320F1E7032070B5074EBD
:10406000074C03F067FCA41BA4080025A54200D15F
:1040700070BD56F8043B98470135F7E7EC910D0009
:1040800014920D0000F0BEB908B500F00BFABDE8BF
:10409000084003F007BC01F0F7BE01F0F5BE01F0E7
:1040A000FBBE0078B0FA80F040097047012303702E
:1040B0007047000010B5034B0360044600F088FF12
:1040C000204610BDF48D0D0010B50446FFF7F2FF39
:1040D0002046102103F05AFD204610BDF8B5037D9F
:1040E00005460F4616468BB10368DB6883B19A8894
:1040F000012A06D09B68F9E79B684BB19A88012A90
:10410000FAD12BB19A89BA42F6D19E732846F8BDEE
:104110000A49102003F03CFD044668B1102200213A
:1041200004F01EFC064B23600123A3802B69A360CF
:10413000A781A6732C61E9E72875E7E790910D0048
:10414000100003000EB410B58DB00FAA016852F82C
:10415000044B039200232020CDE90403CDE9004263
:104160001E2004AA01F07EFD0DB0BDE8104003B092
:104170007047000008B50A4802F037FD094841F2CF
:10418000CC03C380084B8360002141F2720383811A
:1041900001F0CEFD054902460548FFF7D3FF08BDF3
:1041A000A5E50320E0E40320260252032C8B0D003A
:1041B00068E603200000000010B50F202DED028BF3
:1041C00003F052FC4FF47A7001F0D2FE0F2003F09E
:1041D0004BFC04464FF47A7001F0CAFE204603F00F
:1041E00031FE2BA3D3E9002303F096FE04F04EF931
:1041F000DFED1F7A07EE100A67EE277A17EE900AB6
:1042000003F032FE1B4B002203F0CEFC00221A4BBF
:1042100003F082FE04F03AF9184B186008EE100A19
:1042200003F022FE164B002203F076FE154B00220F
:1042300003F09CFF144B002203F0B8FC04F026F9B5
:10424000FBEE047A114BB4EEE78AF1EE10FA186037
:104250000BD4F3EE0E7AB4EEE78AF1EE10FAD4BF87
:1042600001200020BDEC028B10BD0020FAE700BF4A
:10427000000080390000E03F00005940FCE50320C9
:1042800000002240000014400000404000E60320EF
:104290006666666666660A4010B5074C01F072FBFA
:1042A0002368C01AB0F57A7F04D301F06BFB20605D
:1042B000012010BD0020FCE7B4E4032030B5044623
:1042C00085B00D46FFF7E8FF10B901F045FDF9E7AD
:1042D000FFF7E2FF0E4B2A681B788DF8003021684B
:1042E0003C2302A802F014F8039C7CB16368013BF4
:1042F00063605BB9236820469B689847A368013BCD
:10430000A3601BB923682046DB68984705B030BD21
:10431000B0E403207FB504460D461E468AB101462F
:10432000684602F044FE0B49684602F0A2FE2946A8
:1043300002F093FE01680848FFF704FF684602F0A8
:10434000ABFD1EB129462046FFF7B8FF012004B09F
:1043500070BD00BF458B0D0068E6032030B585B009
:104360000D4600226946009201F084FCB0B9009C21
:104370000CB1236923B90A4A00210A2001F062FC2A
:104380000023ADF806300C23ADF80430042303936A
:104390000295236901AA01212046984705B030BD46
:1043A00075590D0038B503681446DD680123A84728
:1043B000204638BD70B50F4D0F4A00241121284604
:1043C0001470FFF7EFFF0D4A092128461470FFF71C
:1043D000E9FF0B4A0126102128461670FFF7E2FF7D
:1043E0003146052003F027FB21460520BDE870403B
:1043F00003F021BB48E50320A4E50320E8E5032002
:1044000024E6032007B503F0C9F94FF4E13103F0C6
:10441000B9F9FFF7AFFE0021042003F0FBFA0021F9
:10442000082003F0F7FA0121072003F0F3FA012135
:10443000052003F0EFFA0121052003F0FCFA00212A
:10444000052003F0F8FA0121062003F0E3FA002129
:10445000132003F0DFFA0021132003F0ECFA02F03E
:1044600057FFF1EE047A30EE670A02F02FFF0A4898
:1044700001F0F0F8094800F0C1FD0023009308495D
:104480004FF0FF330122082002F04CFA03B05DF830
:1044900004EBFFF78FBF00BFCCE5032048E5032006
:1044A000B5430D002DE9F041994C9A4894B001F0C4
:1044B000D7F92378023B062B00F2AA80DFE813F03D
:1044C00007007E00AB00D9006A015E03800301F0A3
:1044D00053FC914E054600284ED090490AA802F0A0
:1044E00026FD8F490EA802F022FD002301220EA90D
:1044F0000AA8FFF70FFF0EA802F0CEFC0AA802F0F0
:10450000CBFC884B1B78C3B187490AA802F00FFD8A
:1045100086490EA802F00BFD01231A460EA90AA82F
:10452000FFF7F8FE0EA802F0B7FC0AA802F0B4FCF0
:1045300001F028FA3060032369E07D4F7D4D7E480D
:1045400001233A46092100F063FD01237A482A46F7
:10455000112100F05DFD3B782BB173490AA802F0F0
:10456000E6FC7649D5E72B78002BE1D06E490AA806
:1045700002F0DDFC7249CCE701F0F6FB01F002FA33
:104580003368C01A6F4B984242D964490AA802F0B6
:10459000CEFC6D490EA802F0CAFC2B4601220EA9E2
:1045A0000AA8FFF7B7FE0EA802F076FC0AA802F0F0
:1045B00073FC01F0E7F93060072328E0564D01F065
:1045C000E1F92B68C01AB0F57A7F21D35F490AA8B8
:1045D00002F0ADFC5E490EA802F0A9FC0023012206
:1045E0000EA90AA8FFF796FE0EA802F055FC0AA82D
:1045F00002F052FC574B01221A60574B00221A60FE
:10460000564B00221A6001F0BDF904232860237084
:1046100014B0BDE8F081102003F026FA4E4D504A48
:10462000504E10602A68034613444A4A2B601368B0
:10463000591C1160326893421BDD64234A4A4B497E
:10464000009312680968002301F086FC484B326829
:1046500018602B6893FBF2F307EE903A3F4BF8EEAD
:10466000E77AC3ED007A01F08DF92B4B1860052332
:104670002370294D01F086F92A68801AB0F57A7FF7
:10468000C6D3FFF799FD3B4E00283CD096ED000ABB
:1046900002210EA802F0B0FC37480EA902F092FCED
:1046A0000EA802F0F9FB35490AA802F040FC344993
:1046B0000EA802F03CFC01231A460EA90AA8FFF737
:1046C00029FE0EA802F0E8FB0AA802F0E5FB2D483F
:1046D00002F007FB2C490AA802F029FC2B490EA87E
:1046E00002F025FC002301220EA90AA8FFF712FE02
:1046F0000EA802F0D1FB0AA802F0CEFB01F042F9AD
:104700000623286083E722491B4802F063FCCAE7BE
:1047100018E40320CCE50320F8E50320488B0D00C6
:10472000518B0D0024E60320648B0D00718B0D006E
:10473000E8E50320A4E5032048E50320838B0D0072
:104740008F8B0D00E09304009B8B0D00B68B0D004A
:10475000CA8B0D00F0E50320F4E50320ECE503200F
:10476000B8E4032014E4032010E40320A0E50320B0
:1047700004E50320FCE5032004E60320DB8B0D00A9
:10478000E18B0D00A5E50320F28B0D00FD8B0D00E4
:10479000D98B0D0003F002F8B84B1D68002D0646BA
:1047A00080F2E5812D2102F0DBFA69420A223046CF
:1047B000B34F02F0E4FA304602F0D5FA02F0EEFF11
:1047C0003D68002D064680F2D4812D2102F0C8FA02
:1047D00069420A22304602F0D2FA304602F0C3FAA9
:1047E000A849A948A94DAA4E02F0F4FBA949AA4834
:1047F00002F0F0FBA9490EA802F099FBA84B18683B
:1048000003F032FB02460B460AA8A64902F046FC1A
:104810000AA90EA802F021FCA34902F02AFC9E4935
:1048200002F01BFCA14902F024FC0146A04802F062
:10483000AFFB0AA802F030FB0EA802F02DFB924954
:104840000AA802F0B4FB9A490EA802F0B0FB0123BB
:104850001A460EA90AA8FFF75DFD0EA802F01CFB80
:104860000AA802F019FB9349874802F0B3FB92496A
:10487000894802F0AFFB89490EA802F058FB3A685C
:104880008E490AA802F00AFC0AA90EA802F0E5FB6C
:10489000854902F0EEFB804902F0DFFB834902F01C
:1048A000E8FB0146824802F073FB0AA802F0F4FA22
:1048B0000EA802F0F1FA74490AA802F078FB7C49CC
:1048C0000EA802F074FB0EA90AA8FFF7F7FC0EA8C9
:1048D00002F0E2FA0AA802F0DFFA0EA91820FFF7A8
:1048E0003DFD0028A8BF0E9828600EA90720FFF7FD
:1048F00035FD2B68724A002823EAE373A8BF0E989F
:1049000052F8231030606F4802F064FB33686E4A3F
:104910006E4823EAE37352F8231002F05BFB0EA902
:104920000320FFF71BFD002840F02581BDF838303B
:1049300000EE103ABBEECC0A02210EA802F05CFB9E
:104940000EA9634802F03EFB0EA802F0A5FA6148EA
:1049500001F0FAFE02210EA802F04EFB0EA95E48FD
:1049600002F030FB0EA802F097FA5A4801F008FF57
:1049700002210EA802F040FB0EA9584802F022FBCB
:104980000EA802F089FA56490AA802F0D0FA4D4959
:104990000EA802F00CFB01231A460EA90AA8FFF785
:1049A000B9FC0EA802F078FA0AA802F075FA4D498F
:1049B0000AA802F0BCFA45490EA802F0F8FA012351
:1049C0001A460EA90AA8FFF7A5FC0EA802F064FA81
:1049D0000AA802F061FA44490AA802F0A8FA3C4980
:1049E0000EA802F0E4FA01231A460EA90AA8FFF75E
:1049F00091FC0EA802F050FA0AA802F04DFA3B49C9
:104A00000AA802F094FA34490EA802F0D0FA012361
:104A10001A460EA90AA8FFF77DFC0EA802F03CFA80
:104A20000AA802F039FA32490AA802F080FA2B49A2
:104A30000EA802F0BCFA01231A460EA90AA8FFF735
:104A400069FC0EA802F028FA0AA802F025FA294902
:104A50000D4802F0BFFA28490F4802F0BBFA0F498F
:104A60000EA802F064FA1C490EA802F0F6FA0E49EC
:104A700002F0FFFA084902F0F0FA3FE0B8E4032040
:104A800004E50320118C0D0038E50320C8E5032060
:104A9000DCE40320288C0D0028E50320458C0D0064
:104AA000ECE50320528C0D00578C0D00668C0D0038
:104AB00018E50320698C0D008B8C0D00428B0D00D6
:104AC000708E0D00B8E50320888E0D00A8E5032048
:104AD000CCE4032058E50320A0E4032090E4032065
:104AE000A88C0D00B68C0D00C48C0D00D38C0D006D
:104AF000E18C0D00ED8C0D00058D0D00A94902F033
:104B0000B8FA0146A84802F043FA0EA802F0C4F928
:104B1000A6490AA802F04BFAA3490EA802F047FAE8
:104B20000EA90AA8FFF7CAFB0EA802F0B5F90AA859
:104B300002F0B2F99E490AA802F0F9F99D490EA8BF
:104B400002F0F5F9002301220EA90AA8FFF7E2FB03
:104B50000EA802F0A1F90AA802F09EF90021072090
:104B600002F069FF00F00EFF934B186024E5294620
:104B70001CE629462DE6BFEE000ADDE68E4D00F06C
:104B800001FF2B68C01A8D4B98427FF641AD8C49CE
:104B90000AA802F0CCF98B490EA802F0C8F900234C
:104BA00001220EA90AA8FFF7B5FB0EA802F074F9BE
:104BB0000AA802F071F900F0E5FE0823286026E556
:104BC000814B1D78002D40F031817D49DFF8208236
:104BD0007E4F0AA802F0ABF97D490EA802F0A7F9B2
:104BE0002B4601220EA90AA8FFF794FB0EA802F09B
:104BF00053F90AA802F050F942461121754888F885
:104C00000050FFF7CFFB3A46092172483D70FFF78D
:104C1000C9FB714A6F4815701021FFF7C3FB0FAB3A
:104C200001220E9313216D4B0F930EA8CDE9115560
:104C3000ADF841508DF843508DF84C208DF8402050
:104C4000FFF74CFA037D0646EBB10368DB682BB136
:104C50009A88042A00F00F819B68F8E760491020C9
:104C600002F096FF0546002800F003811022002183
:104C700003F076FE594B2B600423AB803369AB60A5
:104C8000584BEB6035610EA903A802F065FA0021CC
:104C9000132002F0D0FE039B2BB39D88012D22D15F
:104CA0009B895149132B06A840F0AA8002F03FF9D6
:104CB0004E490AA802F03BF92A4600230AA906A891
:104CC000FFF728FB0AA802F0E7F806A802F0E4F8CC
:104CD0002946072002F0AFFE454A88F8005011210E
:104CE0003C48FFF75FFB039BB3B19B88042B13D1B8
:104CF0003D4906A802F01BF93E490AA802F017F93F
:104D0000002301220AA906A8FFF704FB0AA802F063
:104D1000C3F806A802F0C0F8039BB3B19B880E2B22
:104D200013D1314906A802F002F933490AA802F06A
:104D3000FEF8002301220AA906A8FFF7EBFA0AA849
:104D400002F0AAF806A802F0A7F8039B0BB19B8813
:104D50009BB9254906A802F0EAF828490AA802F0FA
:104D6000E6F8002301220AA906A8FFF7D3FA0AA849
:104D700002F092F806A802F08FF800F003FE0E4B46
:104D8000186003980223237008B101F085F8129887
:104D900000283FF43DAC84680C2102F0F7FE204669
:104DA000F6E700BF668C0D0018E5032038E5032008
:104DB000038C0D00228D0D00F8E50320BFD4010007
:104DC000E68D0D00398D0D0000E50320E8E5032098
:104DD000488D0D0048E5032024E603201000030061
:104DE00090910D0040771B00648B0D00598D0D00D4
:104DF000A4E50320818D0D009C8D0D00BB8D0D0061
:104E000002F095F81D490AA802F091F82A460AA96D
:104E1000002306A8FFF77EFA0AA802F03DF806A8CC
:104E200002F03AF8164A3D70092159E7154D00F095
:104E3000A9FD2B68C01A42F20F7398427FF6E8ABC7
:104E400011490AA802F073F810490EA802F06FF891
:104E5000002301220EA90AA8FFF75CFA0EA802F0AF
:104E60001BF80AA802F018F800F08CFD2860FFF784
:104E700062BB307507E7064ADA6004E76D8D0D0006
:104E8000E8E50320F8E50320E68D0D00DA8D0D003E
:104E900040771B0038B5354B354C01201870002188
:104EA00000F00AFF02F02AFE0146324800F0DAFA6A
:104EB00002F024FE4FF4005201460023204600F089
:104EC00093F82D4B23602D492D482E4C02F02FF8DE
:104ED0002A492D4802F02BF828492C4802F027F8DF
:104EE00026492B4802F023F821462A4802F01FF8F1
:104EF0002146294802F01BF82146284802F017F8FD
:104F00002146274802F013F82146264802F00FF800
:104F10002146254802F00BF82146244802F007F804
:104F20002146234802F003F82146224801F0FFFF02
:104F30002146214801F0FBFF0021204801F04DFEF1
:104F40001F4B20252A461846002103F009FD0021A9
:104F500045711C4801F0AAFB21461B4801F0E7FF00
:104F600021461A48BDE8384001F0E1BFB0E4032013
:104F700048E50320CCE50320F48D0D00D98B0D000E
:104F8000BCE40320B0910D0008E5032004E60320F3
:104F900014E6032090E5032080E5032060E503206C
:104FA00070E5032038E5032028E5032018E50320F9
:104FB000B8E50320A8E50320CCE40320A5E5032001
:104FC000E0E4032058E50320A0E4032090E403205C
:104FD000704710B51021044602F0D8FD204610BDE0
:104FE0000368C9B29B68184730B5034DC0E9022376
:104FF000C0E9005130BD00BFAC8E0D00406801F02B
:1050000027BC10B50446006801F081FC204610BDA5
:105010002DE9F7430446406801900D4616461F46A9
:1050200001F06CFCA7B1E168606841F0500101F04B
:1050300042FC290A6068FFF7D3FF29466068FFF742
:10504000CFFF6068002101F051FC48B1002400E06E
:10505000012401A8FFF7D5FF204603B0BDE8F08387
:10506000202F217B6068B84628BF4FF0200801231D
:10507000424641F0500101F008FC02F03FFD036898
:105080001B6998474045E1DB06EB080902F036FD55
:1050900003685B69984706F8010B4E45F6D1454415
:1050A000A7EB0807BEE72DE9F74F044640680190DB
:1050B0000E4690461D4601F021FC4FF00109B9F162
:1050C000000F2AD04DB3E168606841F0500101F053
:1050D000F2FB310A6068FFF783FF60683146FFF733
:1050E0007FFFA5F11E0A4746A6EB080B606817F87C
:1050F000011B0368013D9B68984755450BEB07066C
:10510000B84601D0002DF1D16068012101F0EEFB1D
:105110000028D7D04FF00009D1E701A8FFF771FFB1
:10512000484603B0BDE8F08F2DE9F0438BB00E4642
:1051300015468046406801901C4601F0DFFBAE42F8
:1051400029D2264425448CB11E2C2746D8F800309D
:1051500028BF1E27F61BD3F8089002AA3B4631460B
:105160004046ED1BC84748B9002400E0012401A8CF
:10517000FFF747FF20460BB0BDE8F083D8F80030BA
:1051800002AAD3F80C9029463B464046C84700285F
:10519000EAD0E41BD7E7E9D9002CE7D0D8F80030F3
:1051A0001E2C274628BF1E27D3F8089002AA3B468C
:1051B00031464046C8470028D6D0D8F8003002AA69
:1051C000D3F80C9029463B464046C8470028CBD030
:1051D0003E443D44E41BDFE7402070470020704719
:1051E00080207047FF2070477047704770477047B6
:1051F00010B51421044602F0C9FC204610BD10B5BC
:105200000821044602F0C2FC204610BD10B508215A
:10521000044602F0BBFC204610BD10B51C2104461C
:1052200002F0B4FC204610BD2DE9FF410368DB68A5
:105230000446984710220146684603F091FB236814
:1052400020469B689847002507462846BD420ED257
:105250007E1B2368102E28BF1026D3F818806A46BC
:10526000334629462046C04708B13544EEE704B02E
:10527000BDE8F0814FF48073438140F20113C360B5
:10528000002303827047000008B5064B0360064BFD
:10529000436040F20473038100234374FFF7EAFF85
:1052A00008BD00BF8C8F0D000001020303090A2214
:1052B00000F00F0002FB0300704708B5807AFFF78B
:1052C000F5FF00F5FA6008BDC07A00F01F00FFF797
:1052D000EDBF007B00F03F00FFF7E8BF08B5817B22
:1052E0004A060DD501F01F00FFF7E0FF8B0603D53E
:1052F0000C2800D00C3008BD0C2808BF0020FAE7AD
:10530000BDE8084001F03F00FFF7D0BFC07B00F0D0
:105310007F00FFF7CBBF007C00F07F00FFF7C6BF28
:1053200010B58AB024220446002101A803F018FB1E
:105330002046FFF7C2FFA0F26C7006902046FFF7F0
:10534000C3FF013805902046FFF7C3FF04902046B5
:10535000FFF7C4FF03902046FFF7D8FF02902046D6
:10536000FFF7D9FF019001A800F0EEFD0AB010BDD3
:105370000A2190FBF1F292FBF1F301FB13231B01D5
:10538000DBB201FB12001843C0B27047642310B5B2
:10539000044691FBF3F000FB1310FFF7E9FFA07246
:1053A00010BD10B504460846FFF7E2FFE07210BDDD
:1053B00010B504460846FFF7DBFF237B23F03F03CD
:1053C0001843207310BD10B50446481CFFF7D0FFEA
:1053D000637B23F007031843607310BD10B50446C8
:1053E0000846FFF7C5FFA07310BD10B50446084678
:1053F000FFF7BEFFE07310BD10B504460846FFF787
:10540000B7FF237C23F07F031843207410BD37B50A
:1054100004466846CDE9002303F082FA0546416957
:105420002046FFF7B3FF296920460131FFF7B9FF96
:10543000E9682046FFF7BCFFA9692046FFF7C3FFD4
:10544000A9682046FFF7CAFF69682046FFF7CDFF2D
:1054500029683B29A8BF3B212046FFF7CDFF03B0B9
:1054600030BD0000054A0061C0E90021044A8260A5
:10547000044AC260044A806142617047C08F0D00D7
:1054800000000103688F0D009C8F0D002DE9F84F7F
:1054900004460F469046994600260A9B9E4231D20A
:1054A0006068394601F003FA08EB06016068FFF70F
:1054B00097FD6068002101F019FA0546D0B90A9BF2
:1054C00060689A1B202A4FF0010328BF202239462A
:1054D00001F0DBF909EB060B05460BEB000ADA4598
:1054E00006D0606803685B6998470BF8010BF6E724
:1054F0002E44D2E7024604490448FEF723FE28461C
:10550000BDE8F88F0025FAE7C08E0D0028E60320DD
:105510002DE9F34101EB03081E4603689B6805462D
:105520000C461746984780450DD820346868009689
:105530003B46E2B26F21FFF7A9FFB0FA80F04009C5
:1055400002B0BDE8F0810020FAE72DE9F34101EB5C
:1055500003081E4603689B6804460D461746984795
:1055600080450CD8606800963B46EAB25721FFF7A9
:105570008DFFB0FA80F0400902B0BDE8F081002054
:10558000FAE77FB51E1E0CBF0723062300931446BF
:1055900002AB0A466F21FFF779FF0546A8B99DF8CF
:1055A000083023749DF80930E3739DF80A30A37323
:1055B0009DF80B3063739DF80C3023739DF80D300C
:1055C000E3722EB99DF80E30A372284604B070BD68
:1055D00001F0DCFFFFF7CCFEA072F6E71FB5012358
:1055E0000A4600936F2103ABFFF750FF20B99DF8E7
:1055F0000C0005B05DF804FB0020FAE708B50321B4
:10560000FFF7ECFFC0F3401008BD38B500230C468F
:105610000A4619460546FFF7B4FF30B9A37A23B10D
:105620002846BDE83840FFF7E9BF002038BD7FB508
:10563000024601A8FFF728FE01A91046FFF7E5FF83
:1056400028B101A8FFF76CFE07B05DF804FB00204D
:105650000146F9E7D0B5044686B0406801F0F8F895
:1056600001F066FFE8B9E37A9B071AD52046FFF7F9
:10567000DEFF06460F4656EA070312D001F05EFE33
:105680000A4B0B491B68009332463B4602A801F0C7
:105690000DFF0848029A0849FEF754FD02A801F0E0
:1056A000FBFB0123237206B0D0BD00BF1CE4032026
:1056B00094E6032028E60320DA8E0D002DE9F84F4A
:1056C0000646884691469A4600250A9B9D4229D265
:1056D0007068414601F0EBF8706809EB0501FFF7CF
:1056E0007FFC0A9B5F1B1F2F28BF1F270AEB0504A7
:1056F00007EB040B706814F8011B0268926890476E
:10570000A345F7D17068012101F0F0F8044638B1E3
:10571000024605490548FEF715FD2046BDE8F88F0D
:105720003D44D2E70024F8E7EF8E0D0028E6032081
:105730002DE9F34101EB03081E4603689B6805460B
:105740000C461746984780450DD820346868009667
:105750003B46E2B26F21FFF7B1FFB0FA80F040099B
:1057600002B0BDE8F0810020FAE71FB5137C8DF888
:105770000830D37B8DF80930937B8DF80A30537B4A
:105780008DF80B30137B8DF80C30D37A8DF80D30FB
:10579000937A8DF80E30072300930A4602AB6F21EF
:1057A000FFF78CFF05B05DF804FB10B588B0044628
:1057B00003A80193FFF768FD019B03A8FFF727FEED
:1057C0009DF81C30A27A63F07F038DF81C309DF8A1
:1057D00019306AB143F0080303AA002120468DF86E
:1057E0001930FFF7C2FFB0FA80F0400908B010BDD1
:1057F00003F0F703F0E70000F0B587B0054601F0CD
:1058000097FE0446E8B101F0B0FEC717024606460F
:105810003B462846FFF7C9FF0C4B0D491B68009318
:1058200032463B46044602A801F040FE0948029A6F
:105830000949FEF787FC02A801F02EFB204607B0BD
:10584000F0BD06490348FEF77DFCF7E71CE40320A2
:1058500094E6032028E603200A8F0D00208F0D0018
:1058600037B5457A04469DB901F062FE80B1002249
:10587000002369462846CDE9002300F095FA38B1A7
:10588000E37ADB0702D52046FFF7B6FF01236372F8
:1058900003B030BD38B5044632256068572101F0A9
:1058A00006F86068012101F021F808B1013DF4D14A
:1058B00038BD00002DE9F04104460F46164602EBC4
:1058C0000308B04520D06068572100F0F0FF39464A
:1058D0006068FFF785FB606816F8011B03689B682A
:1058E00098476068012101F001F80137054638B199
:1058F000024606490648FEF725FC2846BDE8F08129
:105900002046FFF7C7FFDCE70025F6E7358F0D00DF
:1059100028E60320F7B5CF181E46036801929B685E
:1059200004460D46984787420AD8019A6068334674
:10593000E9B2FFF7BFFFB0FA80F0400903B0F0BD55
:105940000020FBE7014B024A1A60704728E603205B
:10595000568F0D0008B5024B1B685B6C019308BDA8
:105960004802030008B5024B1B685B68019308BD41
:105970001802030008B5024B1B68DB68019308BDE1
:105980001802030008B5024B1B685B69019308BD50
:105990001802030008B5024B1B689B6D019308BDFC
:1059A0001802030008B5024B1B685B6E019308BD2B
:1059B0001802030008B5024B1B689B6E019308BDDB
:1059C0001802030008B5024B1B685B68019308BD11
:1059D0002C02030008B5024B1B689B68019308BDAD
:1059E0002C02030008B5024B1B68DB68019308BD5D
:1059F0002C02030008B5024B1B681B69019308BD0C
:105A00002C02030008B5024B1B689B69019308BD7B
:105A10002C02030008B5024B1B68DB69019308BD2B
:105A20002C02030008B5024B1B681B6B019308BDD9
:105A30002C02030008B5024B1B68DB68019308BD0C
:105A40002802030008B5024B1B689B69019308BD3F
:105A50002802030008B5024B1B68DB69019308BDEF
:105A60002802030008B5024B1B681B6A019308BD9E
:105A70002802030008B5024B1B685B6A019308BD4E
:105A80002802030008B5024B1B689B6A019308BDFE
:105A90002802030008B5024B1B68DB6A019308BDAE
:105AA0002802030008B5024B1B681B6B019308BD5D
:105AB0002802030008B5024B1B685B6B019308BD0D
:105AC0002802030008B5024B1B681B6C019308BD3C
:105AD0002802030008B5024B1B689B6C019308BDAC
:105AE0002802030008B5024B1B68DB6C019308BD5C
:105AF0002802030008B5024B1B681B6D019308BD0B
:105B00002802030008B5024B1B685B69019308BDBE
:105B10006402030008B5024B1B689B68019308BD33
:105B20006802030008B5024B1B68DB68019308BDDF
:105B30006802030008B5024B1B68DB69019308BDCE
:105B40003002030008B5024B1B681B6A019308BDB5
:105B50003002030008B5024B1B681B68019308BDA7
:105B60003C02030008B5024B1B68DB68019308BDCB
:105B70003C02030008B5024B1B681B69019308BD7A
:105B80003C02030008B5024B1B685B69019308BD2A
:105B90003C02030008B5024B1B689B69019308BDDA
:105BA0003C02030008B5024B1B68DB69019308BD8A
:105BB0003C02030008B5024B1B681B6A019308BD39
:105BC0003C02030008B5024B1B689B6A019308BDA9
:105BD0003C02030008B5024B1B681B68019308BD1B
:105BE0004C02030008B5024B1B685B68019308BDBB
:105BF0004C02030008B5024B1B681B69019308BDEA
:105C00004C02030008B5024B1B685B69019308BD99
:105C10004C02030008B5024B1B689B69019308BD49
:105C20004C02030008B5024B1B68DB69019308BDF9
:105C30004C02030008B5024B1B681B6A019308BDA8
:105C40004C02030008B5024B1B685B6B019308BD57
:105C50006002030008B5024B1B681B6D019308BD71
:105C60006002030008B5024B1B685B6D019308BD21
:105C70006002030008B5034B1B68D3F8983001930A
:105C800008BD00006002030008B5024B1B681B68DA
:105C9000019308BD2002030008B5024B1B685B6836
:105CA000019308BD2002030008B5024B1B685B6925
:105CB000019308BD2002030008B5024B1B68DB6A94
:105CC000019308BD2002030008B5024B1B68DB6C82
:105CD000019308BD2002030008B5024B1B685B6DF1
:105CE000019308BD2002030008B5024B1B689B6DA1
:105CF000019308BD2002030008B5024B1B68DB6D51
:105D0000019308BD2002030008B5034B1B68D3F8BC
:105D10008830019308BD00002002030008B5034B42
:105D20001B68D3F89430019308BD000020020300E3
:105D300008B5034B1B68D3F8A830019308BD0000D9
:105D40002002030008B5034B1B68D3F8AC30019365
:105D500008BD00002002030008B5024B1B689B68C9
:105D6000019308BD4402030008B5024B1B68DB68C1
:105D7000019308BD4402030008B5024B1B685B6930
:105D8000019308BD4402030008B5024B1B681B6A5F
:105D9000019308BD4402030008B5024B1B681B6B4E
:105DA000019308BD4402030008B5024B1B685B6BFE
:105DB000019308BD4402030008B5024B1B68DB6B6E
:105DC000019308BD4402030008B5024B1B685B68E1
:105DD000019308BD4002030008B5024B1B689B6895
:105DE000019308BD4002030008B5024B1B68DB6845
:105DF000019308BD4002030008B5024B1B681B69F4
:105E0000019308BD4002030008B5024B1B685B69A3
:105E1000019308BD4002030008B5024B1B689B6953
:105E2000019308BD4002030008B5024B1B68DB6903
:105E3000019308BD4002030008B5024B1B681B6AB2
:105E4000019308BD4002030008B5024B1B681B6BA1
:105E5000019308BD4002030008B5024B1B685B6B51
:105E6000019308BD4002030008B5024B1B681B6C80
:105E7000019308BD4002030008B5024B1B685B6C30
:105E8000019308BD4002030008B5024B1B681B6864
:105E9000019308BD1C02030008B5024B1B685B6838
:105EA000019308BD1C02030008B5024B1B689B68E8
:105EB000019308BD1C02030008B5024B1B681B6957
:105EC000019308BD1C02030008B5024B1B68DB6987
:105ED000019308BD1C02030008B5024B1B685B6AF6
:105EE000019308BD1C02030008B5024B1B68DB6A66
:105EF000019308BD1C02030008B5024B1B681B6B15
:105F0000019308BD1C02030008B5024B1B685B6CC3
:105F1000019308BD1C02030008B5024B1B689B6C73
:105F2000019308BD1C02030008B5024B1B68DB6C23
:105F3000019308BD1C02030008B5024B1B681B6DD2
:105F4000019308BD1C02030008B5024B1B685B6D82
:105F5000019308BD1C0203008A4210B507D0029CC1
:105F6000401AE41A6043521A90FBF2F0184410BD34
:105F70000021FFF799BE10B5836804460BB901F004
:105F80000BFEC3689847A3681BB103222146204635
:105F9000984720461021BDE8104001F0F7BD10B52C
:105FA000036804469B689847A368013BA3602BB92C
:105FB00023682046DB68BDE81040184710BD0B6819
:105FC000036013B15A6801325A60704710B5044635
:105FD000006828B14368013B43600BB9FFF7DFFF5E
:105FE000204610BD024800230360FFF7B3BC00BF8A
:105FF0002CE60320002240681146FFF7FDBE002278
:1060000040681146FFF718BF002240681146FFF7AD
:1060100023BF40680022FFF717BF4068002281F0CD
:106020000101FFF701BF002340681A461946FFF738
:10603000F3BE002340681A461946FFF7E5BE00226A
:1060400040681146FFF7C8BE406800220221FFF7F2
:10605000CBBE002340681A46FFF7B6BE084B10B50A
:10606000282422461846002102F07AFC054B0480C1
:106070004FF0FF32426004225A60034A1A6010BD9A
:1060800038E6032030E60320D08F0D007047002053
:10609000704710B51021044601F078FD204610BD70
:1060A00008B5FFF7F6FF08BD10B58368044613B1C5
:1060B000032201469847204610BD30B500224FF616
:1060C0009C74026084808D888C800C68858004605C
:1060D0000A6030BD10B504460068FFF7DDFE2046BB
:1060E00010BD38B5C468F4B12378022B03D104F194
:1060F0000C00FFF7EFFF656835B12846FFF7D4FFC6
:106100001021284601F042FDA56835B12846FFF769
:10611000CBFF1021284601F039FD20461421BDE8AF
:10612000384001F033BD38BD73B50E46044656F80D
:10613000043B00930D4601A83146FFF740FF019A4A
:10614000009B6260236001A8002301930093FFF786
:106150003DFF3046FFF73AFF2846082101F016FDC3
:10616000204602B070BD13B50B460246D0E90001CF
:106170006C4684E8030093E8030082E8030094E897
:10618000030083E8030002B010BD826810B50AB9AD
:1061900001F002FDBDE81040C368184708B500686B
:1061A00000F11001FFF7F1FF08BD826810B50AB9D0
:1061B00001F0F2FCBDE81040C368184708B500685C
:1061C00000F11001FFF7F1FF08BD000038B5002312
:1061D0000446036010200D46FDF75DFF28B1012342
:1061E000C0E90133024B0360C5602060204638BD22
:1061F0000C900D0038B5002383608B6804460D4673
:106200002BB102229847EB68E360AB68A36020469D
:1062100038BD0000F0B589B004686846FFF74DFF4F
:106220004FF00203D4E84F2F002A03D1C4E8413FC6
:106230000029F7D125D104F10C0569462846FFF75E
:106240003CFFBFF35B8F01236370002004F1080360
:10625000BFF35B8F53E8006F43E80002002AF9D1D7
:10626000BFF35B8F6EB1FFF72FFD78B12946304643
:10627000FFF78BFF3046FFF717FF1021304601F084
:1062800085FC6846FFF726FF09B0F0BD314602A83D
:10629000FFF7B0FFE068B4F9105008B102F09EFBC0
:1062A00006901020ADF81C50FDF7F5FE0546E8B14C
:1062B000002787601820FDF7EEFE044688B10146EE
:1062C000876002A8FFF74FFF049BA268A360059BAD
:1062D000049206A9E268E36004F110000592FFF75A
:1062E000ECFE084BEB60084B2C60AB6006A8FFF798
:1062F000F1FE02A8FFF7D8FE002229460348FFF767
:10630000EBFCB7E79D610D0035640D00775F0D0074
:106310002DE9F0478AB005469DF848900C4617468F
:106320009846FFF729FD07AE824638BB4FF62E731D
:10633000059005A93046ADF81830FFF7BEFE1420D1
:10634000FDF7A9FE044648B1022303700123C0E90A
:1063500001AA437031460C30FFF7AFFE28462146B4
:1063600040F8044BFFF732FF3046FFF7B3FE05A8B5
:10637000FFF7B0FE28460AB0BDE8F0870C234FF0C7
:10638000000A1420CDE908AA0793FDF784FE014610
:1063900028B1C0E901AA80F800A080F801A004A8F3
:1063A0000391FFF713FF224B08930820FDF773FEBC
:1063B000824628B1039B40F8043B04A9FFF7FFFD88
:1063C00000965FFA89F3424639462046CDF824A06C
:1063D000FFF7DAFCB8B9039B5B7803F0FF0293B9CF
:1063E0004FF69C7305A903A80592ADF81830FFF786
:1063F00011FF05A8FFF76EFE05A80999FFF794FEA7
:1064000006A8FFF7E3FD039B059304A906A8FFF781
:10641000D6FD059B069A2B606A60002306A80693AA
:106420000593FFF7D3FD04A8FFF7D0FDA2E700BF57
:10643000F9640D00022AF8B5054607D0032A18D0E2
:10644000012A01D10B6803600020F8BD18200E68F6
:10645000FDF721FE044650B13146FFF7CBFE30690F
:10646000B6F9147008B102F0B9FA2061A7822C6065
:10647000EAE70468002CE7D004F11000FFF72AFED9
:106480002046FFF711FE1821204601F07FFBDBE7D5
:1064900038B5002383608B6804460D462BB1022279
:1064A0009847EB68E360AB68A360204638BD022ADA
:1064B00070B5044607D0032A12D0012A01D10B6817
:1064C0000360002070BD14200E68FDF7E4FD054652
:1064D00020B13146FFF7DCFF337C2B742560F0E7F9
:1064E0000468002CEDD02046FFF7DEFD1421204685
:1064F00001F04CFBE5E70000F0B589B004460D461D
:1065000001A81146FFF710FEA4B124B21DB1284620
:1065100002F064FA054601A803A90395ADF81040FE
:10652000FFF778FE03A8FFF7D5FD02A8FFF74EFDA1
:1065300009B0F0BD019D0123D5E84F2F002A03D1FA
:10654000C5E8413F0029F7D1EFD12B73BFF35B8F33
:106550006B702B1DBFF35B8F53E8006F43E8004265
:10656000002AF9D1BFF35B8F002EDED02046FFF763
:10657000ABFB074660B105F10C013046FFF715FE95
:106580003046FFF791FD1021304601F0FFFACCE7CD
:10659000314603A8FFF77CFF2B7B8DF81C301020C1
:1065A000FDF779FD0546D0B187601420FDF773FD36
:1065B000044678B18760014603A8FFF7D4FD059B28
:1065C000A268A360069B0592E268E3609DF81C3018
:1065D00006922374064BEB60064B2C60AB6003A85D
:1065E000FFF762FD002229460348FFF775FBC7E766
:1065F000BD610D00AF640D00775F0D0000224068A3
:106600001146FFF719BC002240681146FFF724BC71
:1066100040680022FFF718BC4068002281F00101A9
:10662000FFF702BC002340681A461946FFF7F4BB87
:10663000002340681A461946FFF7E6BB002240686F
:106640001146FFF7D9BB002240681146FFF7C4BBD3
:10665000406800220221FFF7C7BB002340681A46AA
:10666000FFF7B2BB024B03225A60024A1A6070471E
:1066700060E6032028900D00090941EA001107EEA9
:10668000901AB8EEE70ADFED027A80EE270A70472B
:1066900000004844006800F031B910B504460160BC
:1066A00002710AB1FFF7F6FF204610BD13B504468C
:1066B000019101F047FA019A01462046FFF7EDFFEC
:1066C000204602B010BD006800F021B92DE9FF415D
:1066D00004460D4617461E46FFF7DCFF36238DF8AD
:1066E00000300023206801934FF001080A23694617
:1066F00003938DF8088000F0E1F8206803682946CC
:106700009B6898472068414600F0F0F8054640B184
:106710006FF09F052046FFF7D6FF284604B0BDE87E
:10672000F081022320680193694600F097F802285F
:10673000EED1206803685B69984738702068036869
:106740005B6998473070E5E707B500238DF80630A0
:106750008DF807300DF106020DF107030221FFF756
:10676000B5FF40B99DF807109DF8060003B05DF82D
:1067700004EBFFF781BFBFEE000A03B05DF804FB36
:1067800007B500238DF806308DF807300DF10602AD
:106790000DF107030421FFF799FFB0B99DF8070039
:1067A00001F050FB0A4B002201F0B6FB01F06EFE37
:1067B0009DF8063000EE103A07EE900AB8EEC00AD7
:1067C00037EE800A03B05DF804FBBFEE000AF9E77C
:1067D0000000703F7047F8B5064615460C468F1806
:1067E000BC4206D0336814F8011B9B6830469847BA
:1067F000F6E72846F8BD007C0022FFF733B9007C9D
:106800000021FFF737B9007C0021FFF73BB9007C7E
:106810000021FFF73FB9007C0021FFF743B910B515
:106820001421044601F0B2F9204610BD10B54FF412
:106830007A73044608460021C4E90113034B236020
:1068400020741146FFF73EF9204610BD64900D00FC
:106850000023007C1A461946FFF7ECB87FB50022EA
:106860001423CDE90122ADF804300B788DF80830FF
:106870004B680393CB680493007C0B7A059301A9C2
:10688000FFF738F907B05DF804FB1FB5003B8DF842
:1068900000104FF06401039118BF01236946019273
:1068A0008DF80830FFF7DAFF05B05DF804FB007CD7
:1068B0000022FFF7C7B8C9B2FFF7F9BF7FB50023C1
:1068C000CDE901334A6803921423CA68ADF8043055
:1068D0000B7804920A7A0592007C8DF8083001AAA0
:1068E0001946FFF7AFF807B05DF804FB007C002203
:1068F000FFF7B0B8007C0021FFF7DCB808B5002135
:10690000007CFFF7E7F8B0FA80F0400908BD08B551
:106910000021007CFFF7E6F8B0FA80F0400908BDDE
:10692000004700002DE9FF4100241D460F46904618
:106930000646FFF76FF8A5424FF00403ADF80D408F
:106940008DF80C308DF80F40A2BF9DF828308DF8DF
:106950000E3003AC0749009443463A463046A8BF80
:106960008DF80D50FFF74EF8B0FA80F0400904B0F2
:10697000BDE8F08121690D00704710B5182104466B
:1069800001F004F9204610BDF0B5037D062B8DB053
:106990000E4600F104074FF0000412D000F1080584
:1069A00015F8011D0A22304600F0E9F9AF4204440F
:1069B00019D0002CF4D02E21304600F0D1F9044437
:1069C000EEE72F236A4639460A208DF80040FFF78C
:1069D00099F8684602F01FF833680246DB6869469A
:1069E00030469847044620460DB0F0BD10B5054B23
:1069F0000446112240F8043B002101F0B1FF20467B
:106A000010BD00BF8C900D000346074A10B543F837
:106A1000042B01F1100251F8044B43F8044B91424E
:106A2000F9D10A781A7010BD8C900D0010B59DF840
:106A3000084044EA032343EA024242EA0161042394
:106A40004160037510BD13B5CB7800938B784A78FD
:106A50000978FFF7EBFF02B010BD0000014B024ABE
:106A60001A60704768E6032098900D000023406884
:106A70001A46FFF7A9B9406800220221FFF7B4B90E
:106A8000002240681146FFF7A7B90022406811466E
:106A9000FFF7B2B9002340681A461946FFF7B4B9A8
:106AA000002340681A461946FFF7B6B9406800212E
:106AB000FFF7DAB940680021FFF7DEB9406800222D
:106AC00081F00101FFF7B0B940680022FFF7BCB9BF
:106AD000002240681146FFF7BFB900224068114606
:106AE000FFF7AAB92DE9F043002495B016460D46EC
:106AF0000746FFF77BFF214618220EA8009401F0FD
:106B00002FFF4023CDE90C3421466B460CAA3046BA
:106B1000FFF708F80446002846D1024601216868BC
:106B2000FFF76AF90221804622466868FFF764F998
:106B3000009E81462146002E36D0002934D173684C
:106B4000022B03D00A2B0BD0F669F4E7B8F1000F43
:106B500004D0716938460431FFF775FF4146F3E709
:106B6000B9F1000F01D14946EEE77469102201A87E
:106B700001F0F6FE06238DF8143001AD04F1080390
:106B80001834186859682A4603C20833A3421546C8
:106B9000F7D101A906A807ADFFF736FF0FCD3C1DC1
:106BA0000FC42B682370DEE70098FEF7B3FF38466A
:106BB00015B0BDE8F0830000024B034A1A600022C2
:106BC0005A6070476CE60320A4900D0008B500F0F1
:106BD000B9FFBDE80840FFF791BE10B5044601704B
:106BE00009B1FFF7F3FF204610BD08B500F0AAFF7A
:106BF000FFF780FE18B900F0A5FFFFF729FE00F0AF
:106C0000A1FFBDE80840FFF775BE08B500F09AFF88
:106C1000BDE80840FFF77BBE10B504460068FFF7EB
:106C2000F4FF204610BD30B587B00D460190FFF748
:106C3000CDFF6B238DF808300023012403930A2332
:106C400005938DF8104000F07DFF02A9FFF736FE96
:106C500000F078FF036829469B68984700F072FFB0
:106C60002146FFF743FE039400F06CFF02A9FFF7F3
:106C7000F5FD00F067FF03685B699847044601A8CB
:106C8000FFF7CAFFE0B207B030BD70B586B014465A
:106C90000D460190FFF79AFF6B238DF80830002313
:106CA000039301260A2305938DF8106000F04AFF34
:106CB00002A9FFF703FE00F045FF036829469B6821
:106CC000984700F03FFF036821469B68984700F013
:106CD00039FF3146FFF70AFE01A8FFF79DFF06B016
:106CE00070BD13B504460190FFF770FF01212046E7
:106CF000FFF799FF00F0CF0040F01002012120467D
:106D0000FFF7C3FF01A8FFF787FF012002B010BD06
:106D1000F8B506460D468F180024BD420CD03368E6
:106D200015F8011B9B6830469847031E01DB1C4485
:106D3000F3E7002C08BF1C462046F8BD13B50446F7
:106D4000084659B1019101F066FE23680199DB689C
:106D50000246204602B0BDE81040184702B010BD00
:106D600003689B68184738B50D210546FFF7F8FF03
:106D70000A2104462846FFF7F3FF204438BD30B50A
:106D80008BB000238DF82430012A98BF0A2209AC69
:106D90000D46B1FBF2F101FB125303F0FF03092B87
:106DA00094BF30333733DBB2AA4204F8013DEFD948
:106DB0002146FFF7C3FF0BB030BD0000014B00229E
:106DC0009A60704774E6032010B5044608462170A7
:106DD000FEF7B0FE00236360204610BD2DE9F047AA
:106DE00057EC106B80460C4610EE100A0022002370
:106DF000394601F003FB28B107F100431F462D235C
:106E000004F8013B00234FF001090A22D9B288455A
:106E100003D902FB09F90133F8E7484601F012F8FB
:106E200032463B4601F078F806460F4601F0CAFBB1
:106E300005468A4601F03AF802460B463046394686
:106E400000F0B2FE134B002201F0ECFA10B1013554
:106E50004AF1000A4A462846D317514601F066FB1C
:106E60000123154621460A2200F0CFFCB8F1000F9D
:106E70000DD0204601F0CFFD2E23211823540A22E5
:106E8000434628460131BDE8F04700F0BEBCBDE8EE
:106E9000F08700BF0000E03F10B504460068FEF731
:106EA000FBFF204610BD10B50446006808B1FEF790
:106EB000F3FF0023C4E90133236010BD38B5044655
:106EC0000D4600680131FEF7EFFF10B1C4E900057F
:106ED000012038BD10B50368044623B143688B42D6
:106EE00001D3012010BD2046FFF7E8FF0028F9D0AC
:106EF000A368002BF5D122681370F2E737B50D4671
:106F0000114601920446FFF7E5FF019A28B9204691
:106F1000FFF7C9FF204603B030BDA26029462068B4
:106F200001F010FD2268A3680021D154F2E700238C
:106F300013B5C0E9003304468360037341B10846CA
:106F4000019101F068FD019902462046FFF7D6FF46
:106F5000204602B010BD38B5054600680C4668B141
:106F60006A688B689A4207D3096801F02FFDA3680D
:106F7000AB600023A36038BDFEF78EFF23682B6053
:106F800063686B60A368AB600023C4E90033F1E77A
:106F9000884210B5044605D00B682BB18A681946A3
:106FA000FFF7ACFF204610BDFFF77DFFFAE710B5F5
:106FB00000230446C0E9003383600373FFF7E8FF52
:106FC000204610BD884210B5044601D0FFF7C3FF2C
:106FD000204610BD13B5044659B10846019101F091
:106FE0001AFD019902462046FFF788FF204602B0AD
:106FF00010BDFFF758FFF9E730B5044600238BB00A
:10700000C4E90033A360237310EE100ACDB200F080
:107010002BFF41EC100B01A92846FFF7DFFE01A969
:107020002046FFF7D7FF20460BB030BD70B50546B0
:107030000E4609B9002070BD6AB184681444214627
:10704000FFF748FF0028F5D02868AB6831461844A0
:1070500001F0BCFCAC600120EDE710B58A6809685E
:107060000446FFF7E3FF10B92046FFF71CFF204658
:1070700010BD13B5044629B92046FFF714FF20467A
:1070800002B010BD0846019101F0C5FC019902460D
:107090002046FFF7CBFF0028EED0F0E70EB470B526
:1070A00087B00BAD044655F8042B01922B46052101
:1070B00004A80395FEF710FF0B4906462046FFF78C
:1070C00036FF31462046FFF705FF206830B1019AB0
:1070D00003952B46711CFEF7FFFEA060204607B00B
:1070E000BDE8704003B07047B0910D0010B5044684
:1070F000006818B1FEF7D0FE0023236010BD38B53C
:10710000B1F9043083800B460D4653F8062FC0F8C2
:1071100006209B8843810446FFF7E8FF2B6813B1E4
:10712000236000232B60204638BD000038B50C4694
:107130000546FFF7DBFF44B12088FEF7A5FE286077
:1071400028B12288214601F0FDFB002038BD01480E
:10715000FCE700BFFCFEFFFFF0B52D4D0B7D0446A4
:107160008BB00846AF1D002B38D00B681B79002B65
:1071700034D00022274B049302A904300292ADF8C8
:107180000C208DF80E20FEF7DDFDDDF80E30C5F881
:10719000063000B2BDF81230ADF80C00A88002999C
:1071A000BB802846FFF7C2FF02A8FFF79FFF00231E
:1071B0002360A380A37123814FF6FF736381B5F928
:1071C0000430A3803B68C4F80630BB88296863811B
:1071D0002046FFF7ABFF20460BB0F0BD0026202372
:1071E000CDE902360C4B00930C49334602AA3220FB
:1071F000FEF730FD074B049302A94FF6F2630448F3
:1072000002968DF80E60ADF80C30FFF778FFCBE7F3
:1072100084E603200000FFFFDF900D00D8900D00F2
:10722000054B02221A60054B054A9A60002018603F
:1072300098809871FEF730BD90E6032084E6032025
:107240000000FFFF2DE9F041154ADFF86080D2E928
:107250000032C01842EB0101124AD2E90032C618CE
:1072600041EB0207D8E90023BB4208BFB2428CB011
:1072700013D003A96846CDE90067FEF755FE089BC9
:10728000094D03F26C7303AC08930FCC0FC50FCC00
:107290000FC5C8E9006723682B600CB0BDE8F0811A
:1072A000C8E60320C0E603209CE60320D0E60320C6
:1072B00008B50020FEF770FD28B1FEF75DFD80F0F7
:1072C0000100C0B208BD0120FCE70000FAEE087A18
:1072D000B4EEE70AF1EE10FA08B511D4F2EE0C7A2A
:1072E000B4EEE70AF1EE10FA0ADCDFED067A60EEA2
:1072F000277A17EE900A01F031F9034BC3E9000138
:1073000008BD00BF00006145C8E603200000000082
:1073100008B5094BD3E9000100F0D0FD04A3D3E97F
:10732000002300F023FF01F0B1F800EE100A08BDC1
:10733000000000000020AC4020E403201FB50246FE
:107340000B4668460021CDE90023CDE90211FEF786
:1073500031FB024610B90146FEF7CEFC05B05DF8E0
:1073600004FB000030B504461848D0E9001052185C
:1073700040EB03031648D0E90010521893B040EBDD
:107380000303CDE9002324220DEB0200002101F0CC
:10739000E7FA002509A96846FEF7C6FD1622294628
:1073A00003A8029501F0DCFA02A909A801F08CFA01
:1073B00002A801F030FB12AB184402A900F8415CAE
:1073C0002046FFF7B4FD204613B030BDC8E60320C9
:1073D000C0E603202DE9F04FA5B00746884614A863
:1073E00011463F221D4601F01EFB002314A88DF814
:1073F0008F3001F010FB04465DBB2A4903A801F061
:10740000E5FA14AE002504F1FF3BAB4536D9B14691
:1074100005F1010A19F8013B252B17D173787A2B56
:1074200014D103A801F0F7FA14AB04462818184445
:10743000ABEB0502B11C01F085FA224603A93046E8
:1074400001F080FA14A801F0E6FA04464E465546CB
:10745000D9E73C2195FBF1F3002BB8BF5B42B3FBAE
:10746000F1F201FB123300930F4A4FF461631021D4
:1074700003A895FBF3F3FEF727FDC2E700212E22B8
:1074800008A8079101F06CFA434614AA322107A814
:10749000FEF742FD07A93846FFF749FD384625B0FB
:1074A000BDE8F08F06910D0008910D00F0B58DB08C
:1074B000CDE90023129D044615B9194B1D682DB165
:1074C000184B2846196801F077FA38B9DDE900232E
:1074D0002046FFF747FF20460DB0F0BD124E009941
:1074E000124FD6E900325B18019941EB0202D7E94D
:1074F00000011B1841EB0202CDE9003200212422D9
:1075000003A801F02DFA03A96846FEF70DFD3268C5
:107510003B6803A9134420462A46FFF75BFFDAE7DE
:1075200098E603201CE40320C8E60320C0E60320FD
:1075300010B50020FEF72EFA0446A0B9FEF7A4FB12
:10754000012810D12046FEF7CFFB60B9FFF7B0FE4F
:1075500010B9FEF701FCF9E7FFF7AAFEBDE81040FD
:107560000020FEF717BA204610BD1FB5FFF7E0FF59
:1075700010220021684601F0F3F900216846FEF769
:1075800011FA009805B05DF804FB000008B5FFF79C
:10759000ECFFC117FFF756FE014B586908BD00BF4D
:1075A0009CE60320024B1A68024B1A60704700BF2A
:1075B0001CE4032098E6032070474174704770472D
:1075C00008B5007CFEF7FEFA20EAE07008BD08B5B9
:1075D000007CFEF7CFFA20EAE07008BD08B5007C19
:1075E000FEF7D8FA40EAE07008BD08B5007CFEF767
:1075F000C9FA40EAE07008BD007CFEF7D3BA37B59F
:10760000457C04462DB1207C03B0BDE83040FEF738
:10761000A9BA007C0191FEF7D5FA00280199F2DCA5
:10762000284603B030BD10B51421044600F0AEFA70
:10763000204610BD10B54FF0000C04460846114618
:107640004FF47A72C4E901C2044A22600122207414
:1076500062741A46FEF77EFA204610BD38910D007E
:10766000F7B51A4C26684EB98420FCF714FD054680
:1076700018B18422314601F073F92560144D2F684A
:107680004FB98420FCF707FD064618B1842239461D
:1076900001F066F92E600F4E3178BFF35B8F11F069
:1076A000010110D130460191FCF7FBFC019950B16A
:1076B0002B6822680848FFF7BDFF3046FCF7F6FC50
:1076C000064801F027F9044803B0F0BDDCE60320CA
:1076D000E0E60320D8E60320E4E60320BF750D00B2
:1076E000417470477047704708B50021007CFEF771
:1076F00091FA40EAE07008BD08B50121007CFEF770
:1077000089FA40EAE07008BD08B5007CFEF77AFA15
:1077100020EAE07008BD08B5007CFEF76BFA20EAAD
:10772000E07008BD13B50446007C0191FEF76AFACB
:107730000028019901DC607C20B1207CFEF772FA00
:1077400020EAE07002B010BD007CFEF773BA10B5FD
:107750001421044600F01AFA204610BD10B54FF46B
:107760007A73044608460021C4E90113044B2360E0
:107770000123207463741146FEF72CFA204610BDD5
:1077800068910D00007C0022FEF72CBA10B514227F
:107790000446002101F0E4F8204610BD10B50F4C5E
:1077A00088B003A8FFF7F2FF2178BFF35B8F11F0D9
:1077B00001010FD120460191FCF773FC019948B1FA
:1077C00003AA0748FFF7CAFF2046FCF76FFC0548ED
:1077D00001F0A0F8024808B010BD00BFF8E6032091
:1077E000FCE60320E5760D0010B5044601F013F920
:1077F000013823182046834206D90278197800F808
:10780000011B03F80129F6E710BD70B50C46911E67
:107810002229054622D820466DB1B5FBF2F602FBBF
:107820001655E9B2092D94BF30315731C9B200F86D
:10783000011B3546F0E7024623443021934202D92A
:1078400002F8011BFAE71A1A834238BF002200230C
:1078500083542046FFF7C8FF204670BD0020FCE798
:10786000014B1860704700BF28E4032008B50B4B9C
:1078700043B1FFF793FF03681B699847002801DDB8
:10788000AFF30080064B43B1FFF7EAFE03681B69C4
:107890009847002801DDAFF3008008BD000000001C
:1078A0000000000008B5FFF7E1FFFEF76BF8014BA1
:1078B000186008BD24E703200548064A064908B5B4
:1078C000121A01F03FF8054B054A1A6008BD00BFC7
:1078D00000F4032004F4032028920D0000F4032098
:1078E0001E1C279A07B5002300931A466FF07701F4
:1078F000FEF714FA03B05DF804FB000007B54388F7
:107900000A2B08D0502B0BD1094B1B684BB103B08D
:107910005DF804EB1847FFF7E5FF03B05DF804FBE3
:10792000002300931A466FF07701FEF7F7F9F4E7AA
:1079300014E7032010B512480021FEF7E5FA114BB9
:107940001A68114B9A42114B0CBF012200221A7087
:1079500001D0FFF7B1FFFEF705F8044601F008F883
:107960000B4B13B12046AFF3008000210848FEF70F
:1079700023FABDE8104007480021FEF7C5B900BF53
:1079800061780D0000F403201E1C279A10E70320E5
:1079900000000000FD780D00232813B502D9002057
:1079A00002B010BDA0F10B03022B1AD8174C21789E
:1079B000BFF35B8F11F001010BD120460191FCF761
:1079C00070FB019928B11248FFF7FEF92046FCF739
:1079D0006DFB0F4B1878FEF7B5F80028DFD10120BA
:1079E000DEE7012809D800F089F80021007CFEF7C5
:1079F00061F880F00100C0B2D2E709380128EED862
:107A0000FFF72EFE007CFEF7D5F8F2E718E703201B
:107A10001CE70320232838B504460D460AD8FF2961
:107A200008D0FFF7B9FF28B129462046BDE8384005
:107A3000FDF7D0BF38BD38B504460D46FDF7D2FF7F
:107A4000FF2810D0062804D84D2323FA00F0C307DE
:107A500009D42046FFF7A0FF28B129462046BDE8FB
:107A60003840FDF7C7BF38BD0D2810B504469CBF90
:107A70000E34A4B22046FFF78FFF50B103212046F9
:107A8000FDF7A0FF032804D12046BDE81040FDF714
:107A9000C9BF002010BD70477047000038B50023F3
:107AA0002025438014230446038085600561064930
:107AB000284600F06FF804496060284600F06AF834
:107AC000E060204638BD00BF90910D0038B500231E
:107AD0002025438014230446038085600561064900
:107AE000284600F057F804496060284600F052F834
:107AF000E060204638BD00BF90910D0030B50E4DBE
:107B00002978BFF35B8F11F0010487B011D12846AB
:107B1000FCF7C7FA68B101A8FFF7C0FF01AA214628
:107B20000648FEF783FE2846FCF7C0FA044800F03A
:107B3000F1FE024807B030BD28E7032030E70320FC
:107B4000977A0D0010B50E4C2378BFF35B8FDB07DF
:107B500086B011D42046FCF7A4FA68B101A8FFF75B
:107B6000B5FF01AA01210748FEF760FE2046FCF799
:107B70009DFA054800F0CEFE024806B010BD00BFD9
:107B80002CE7032044E70320997A0D00FCF787BA1D
:107B9000FCF781BAFCF781BA08B5FEF7A5F9000039
:107BA00081F0004102E000BF83F0004330B54FEAAE
:107BB00041044FEA430594EA050F08BF90EA020F1B
:107BC0001FBF54EA000C55EA020C7FEA645C7FEAAE
:107BD000655C00F0E2804FEA5454D4EB5555B8BFD1
:107BE0006D420CDD2C4480EA020281EA030382EA42
:107BF000000083EA010180EA020281EA0303362DD4
:107C000088BF30BD11F0004F4FEA01314FF4801CA6
:107C10004CEA113102D0404261EB410113F0004FB8
:107C20004FEA03334CEA133302D0524263EB43036F
:107C300094EA050F00F0A780A4F10104D5F1200E0D
:107C40000DDB02FA0EFC22FA05F2801841F1000168
:107C500003FA0EF2801843FA05F359410EE0A5F13C
:107C600020050EF1200E012A03FA0EFC28BF4CF06D
:107C7000020C43FA05F3C01851EBE37101F0004523
:107C800007D54FF0000EDCF1000C7EEB00006EEB30
:107C90000101B1F5801F1BD3B1F5001F0CD34908BA
:107CA0005FEA30004FEA3C0C04F101044FEA445211
:107CB00012F5800F80F09A80BCF1004F08BF5FEA98
:107CC000500C50F1000041EB045141EA050130BD78
:107CD0005FEA4C0C404141EB0101013C28BFB1F58A
:107CE000801FE9D291F0000F04BF01460020B1FAD5
:107CF00081F308BF2033A3F10B03B3F120020CDAA8
:107D00000C3208DD02F1140CC2F10C0201FA0CF085
:107D100021FA02F10CE002F11402D8BFC2F1200CEA
:107D200001FA02F120FA0CFCDCBF41EA0C019040A0
:107D3000E41AA2BF01EB0451294330BD6FEA0404E9
:107D40001F3C1CDA0C340EDC04F11404C4F12002D4
:107D500020FA04F001FA02F340EA030021FA04F3E6
:107D600045EA030130BDC4F10C04C4F1200220FA3D
:107D700002F001FA04F340EA0300294630BD21FA7B
:107D800004F0294630BD94F0000F83F4801306BF41
:107D900081F480110134013D4EE77FEA645C18BF35
:107DA0007FEA655C29D094EA050F08BF90EA020FCC
:107DB00005D054EA000C04BF1946104630BD91EAC4
:107DC000030F1EBF0021002030BD5FEA545C05D1C7
:107DD0004000494128BF41F0004130BD14F5800406
:107DE0003CBF01F5801130BD01F0004545F0FE417A
:107DF00041F470014FF0000030BD7FEA645C1ABFAF
:107E0000194610467FEA655C1CBF0B46024650EAE5
:107E1000013406BF52EA033591EA030F41F4002111
:107E200030BD00BF90F0000F04BF0021704730B597
:107E30004FF4806404F132044FF000054FF000016C
:107E400050E700BF90F0000F04BF0021704730B52D
:107E50004FF4806404F1320410F0004548BF404202
:107E60004FF000013EE700BF42004FEAE2014FEA57
:107E700031014FEA02701FBF12F07F4393F07F4F32
:107E800081F06051704732F07F4208BF704793F035
:107E90007F4F04BF41F40021704730B54FF4607448
:107EA00001F0004521F000411CE700BF50EA01024B
:107EB00008BF704730B54FF000050AE050EA0102F4
:107EC00008BF704730B511F0004502D5404261EB64
:107ED00041014FF4806404F132045FEA915C3FF4A5
:107EE000D8AE4FF003025FEADC0C18BF03325FEA42
:107EF000DC0C18BF033202EBDC02C2F1200300FAF3
:107F000003FC20FA02F001FA03FE40EA0E0021FA17
:107F100002F11444BDE600BF70B54FF0FF0C4CF405
:107F2000E06C1CEA11541DBF1CEA135594EA0C0FB7
:107F300095EA0C0F00F0DEF82C4481EA030621EAF2
:107F40004C5123EA4C5350EA013518BF52EA03352D
:107F500041F4801143F4801338D0A0FB02CE4FF0DF
:107F60000005E1FB02E506F00042E0FB03E54FF00F
:107F70000006E1FB03569CF0000F18BF4EF0010E07
:107F8000A4F1FF04B6F5007F64F5407404D25FEA03
:107F90004E0E6D4146EB060642EAC62141EA5551B6
:107FA0004FEAC52040EA5E504FEACE2EB4F1FD0CF8
:107FB00088BFBCF5E06F1ED8BEF1004F08BF5FEA76
:107FC000500E50F1000041EB045170BD06F0004628
:107FD00046EA010140EA020081EA0301B4EB5C04D5
:107FE000C2BFD4EB0C0541EA045170BD41F48011CD
:107FF0004FF0000E013C00F3AB8014F1360FDEBFF2
:10800000002001F0004170BDC4F10004203C35DACD
:108010000C341BDC04F11404C4F1200500FA05F350
:1080200020FA04F001FA05F240EA020001F00042F1
:1080300021F0004110EBD37021FA04F642EB060167
:108040005EEA430E08BF20EAD37070BDC4F10C0491
:10805000C4F1200500FA04F320FA05F001FA04F255
:1080600040EA020001F0004110EBD37041F1000141
:108070005EEA430E08BF20EAD37070BDC4F120054C
:1080800000FA05F24EEA020E20FA04F301FA05F2B4
:1080900043EA020321FA04F001F0004121FA04F25C
:1080A00020EA020000EBD3705EEA430E08BF20EA2C
:1080B000D37070BD94F0000F0FD101F00046400066
:1080C00041EB010111F4801F08BF013CF7D041EAE8
:1080D000060195F0000F18BF704703F000465200EC
:1080E00043EB030313F4801F08BF013DF7D043EABD
:1080F0000603704794EA0C0F0CEA135518BF95EA73
:108100000C0F0CD050EA410618BF52EA4306D1D1F9
:1081100081EA030101F000414FF0000070BD50EA18
:10812000410606BF1046194652EA430619D094EAA2
:108130000C0F02D150EA013613D195EA0C0F05D18C
:1081400052EA03361CBF104619460AD181EA0301E0
:1081500001F0004141F0FE4141F470014FF0000098
:1081600070BD41F0FE4141F4780170BD70B54FF033
:10817000FF0C4CF4E06C1CEA11541DBF1CEA1355B3
:1081800094EA0C0F95EA0C0F00F0A7F8A4EB050495
:1081900081EA030E52EA03354FEA013100F088808C
:1081A0004FEA03334FF0805545EA131343EA126355
:1081B0004FEA022245EA111545EA10654FEA00260A
:1081C0000EF000419D4208BF964244F1FD0404F5C3
:1081D000407402D25B084FEA3202B61A65EB03051F
:1081E0005B084FEA32024FF480104FF4002CB6EBDC
:1081F000020E75EB030E22BFB61A754640EA0C005C
:108200005B084FEA3202B6EB020E75EB030E22BF9B
:10821000B61A754640EA5C005B084FEA3202B6EBDC
:10822000020E75EB030E22BFB61A754640EA9C009B
:108230005B084FEA3202B6EB020E75EB030E22BF6B
:10824000B61A754640EADC0055EA060E18D04FEA29
:10825000051545EA16754FEA06164FEAC30343EAC9
:1082600052734FEAC2025FEA1C1CC0D111F4801F96
:108270000BD141EA00014FF000004FF0004CB6E78F
:1082800011F4801F04BF01430020B4F1FD0C88BF2E
:10829000BCF5E06F3FF6AFAEB5EB030C04BFB6EB39
:1082A000020C5FEA500C50F1000041EB045170BD2C
:1082B0000EF0004E4EEA113114EB5C04C2BFD4EB59
:1082C0000C0541EA045170BD41F480114FF0000EDD
:1082D000013C90E645EA060E8DE60CEA135594EA59
:1082E0000C0F08BF95EA0C0F3FF43BAF94EA0C0F5C
:1082F0000AD150EA01347FF434AF95EA0C0F7FF4D1
:1083000025AF104619462CE795EA0C0F06D152EA24
:1083100003353FF4FDAE1046194622E750EA410608
:1083200018BF52EA43067FF4C5AE50EA41047FF419
:108330000DAF52EA43057FF4EBAE12E74FF0FF3C7E
:1083400006E000BF4FF0010C02E000BF4FF0010C4F
:108350004DF804CD4FEA410C7FEA6C5C4FEA430CC8
:1083600018BF7FEA6C5C1BD001B050EA410C0CBF17
:1083700052EA430C91EA030F02BF90EA020F002079
:10838000704710F1000F91EA030F58BF994208BFE0
:1083900090422CBFD8176FEAE37040F0010070479D
:1083A0004FEA410C7FEA6C5C02D150EA013C07D1F4
:1083B0004FEA430C7FEA6C5CD6D152EA033CD3D03F
:1083C0005DF8040B704700BF8446104662468C4639
:1083D0001946634600E000BF01B5FFF7B7FF00286C
:1083E00048BF10F1000F01BD4DF808EDFFF7F4FF95
:1083F0000CBF012000205DF808FB00BF4DF808ED20
:10840000FFF7EAFF34BF012000205DF808FB00BF42
:108410004DF808EDFFF7E0FF94BF012000205DF864
:1084200008FB00BF4DF808EDFFF7CEFF94BF012019
:1084300000205DF808FB00BF4DF808EDFFF7C4FF12
:1084400034BF012000205DF808FB00BF4A0011D2B4
:1084500012F5001211D20DD56FF47873B3EB62529E
:108460000ED44FEAC12343F0004343EA505323FAAA
:1084700002F070474FF00000704750EA013002D11F
:108480004FF0FF3070474FF0000070474FEA410255
:10849000B2F1E04324BFB3F5001CDCF1FE5C0DD962
:1084A00001F0004C4FEAC0024CEA5070B2F1004FAC
:1084B00040EB830008BF20F00100704711F0804FAF
:1084C00021D113F13872BCBF01F00040704741F474
:1084D00080114FEA5252C2F11802C2F1200C10FA78
:1084E0000CF320FA02F018BF40F001004FEAC1235C
:1084F0004FEAD32303FA0CFC40EA0C0023FA02F300
:108500004FEA4303CCE77FEA625307D150EA0133D5
:108510001EBF4FF0FE4040F44000704701F00040A5
:1085200040F0FE4040F40000704700BF53B94AB924
:10853000002908BF00281CBF4FF0FF314FF0FF306B
:1085400000F0C0B9ADF1080C6DE904CE00F058F8A8
:10855000DDF804E0DDE9022304B0704707EE900A7D
:10856000F5EEC07AF1EE10FA01D400F00BB8F1EE9E
:10857000677A08B517EE900A00F004F8404261EB04
:10858000410108BDD0B5FFF76FFC0C4B0022064639
:108590000F46FFF7C1FCFFF759FF0446FFF742FC07
:1085A000074B0022FFF7B8FC02460B46304639461F
:1085B000FFF7FAFAFFF74AFF2146D0BD0000F03D71
:1085C0000000F041D0B50C4B002206460F46FFF7E5
:1085D000A3FCFFF73BFF0446FFF724FC074B0022F8
:1085E000FFF79AFC02460B4630463946FFF7DCFAA5
:1085F000FFF72CFF2146D0BD0000F03D0000F04108
:108600002DE9F047089D04468C46002B40F08380FE
:108610008A42174647D9B2FA82F242B1C2F120002B
:1086200024FA00F09140974040EA010C94404FEA50
:108630001748230CBCFBF8F61FFA87FE08FB16C18F
:1086400043EA014306FB0EF1994209D9FB1806F1F2
:10865000FF3080F01981994240F21681023E3B447E
:108660005B1AA4B2B3FBF8F008FB103344EA0344EE
:1086700000FB0EFEA64509D93C1900F1FF3380F03E
:108680000581A64540F2028102383C4440EA06409A
:10869000A4EB0E0400261DB1D4400023C5E900431D
:1086A0003146BDE8F08702B9FFDEB2FA82F2002A55
:1086B00050D1CB1B4FEA174E1FFA87F80126B3FBA8
:1086C000FEFC210C0EFB1C3341EA034108FB0CF3BA
:1086D0008B4207D979180CF1FF3002D28B4200F29D
:1086E000E9808446C91AA3B2B1FBFEF00EFB10115B
:1086F00043EA014408FB00F8A04507D93C1900F102
:10870000FF3302D2A04500F2D9801846A4EB08043A
:1087100040EA0C40BFE78B4209D9002D00F0B18040
:108720000026C5E9000130463146BDE8F087B3FABE
:1087300083F6002E4AD18B4202D3824200F2B880E7
:10874000841A61EB030101208C46002DA8D0C5E9F5
:10875000004CA5E7C2F1200320FA03F6974001FA86
:1087600002F04FEA174ED9403043030CB1FBFEF63E
:108770001FFA87F80EFB161143EA014306FB08F1C6
:10878000994204FA02F409D9FB1806F1FF3C80F083
:108790008D80994240F28A80023E3B445B1A81B24E
:1087A000B3FBFEF00EFB103341EA034100FB08F37C
:1087B0008B4207D9791800F1FF3C73D28B4271D9F3
:1087C00002383944CB1A40EA064678E7C6F1200C55
:1087D00003FA06F422FA0CF31C4320FA0CF701FA10
:1087E00006F34FEA144E21FA0CF11F433B0CB1FB88
:1087F000FEF91FFA84F80EFB191143EA014109FB47
:1088000008FA8A4502FA06F200FA06F308D9611856
:1088100009F1FF3048D28A4546D9A9F1020921441D
:10882000A1EB0A01BFB2B1FBFEF00EFB101147EA4B
:10883000014700FB08F8B84507D9E71900F1FF31F7
:108840002ED2B8452CD90238274440EA0940A7EB7C
:108850000807A0FB02894F45C64649461AD317D0E0
:108860005DB1B3EB0E0267EB010707FA0CFCF240B7
:108870004CEA0202F740C5E9002700263146BDE870
:10888000F0872E4628460BE70646E9E61846FDE641
:108890004345E5D2B8EB020E69EB04010138DFE78E
:1088A0000846D2E760468DE78146B9E7664675E738
:1088B00030464AE7ACF1020C394413E702383C4435
:1088C00024E700BF704700BF10B50C46416903693B
:1088D000826986B001F26C7104910168039141686C
:1088E000029181680191C1680091074903EB43033C
:1088F0000B44064902EB42020A4420460449FDF7B4
:10890000DBFA204606B010BDC6910D00B1910D00F6
:1089100091910D00002301461A46184600F096B8C2
:1089200038B5074B1D68EB6B04461BB92420FDF7D7
:10893000ABFAE863E96B2046BDE83840FDF7FCBAC6
:1089400028E403200A44914200F1FF3300D170472C
:1089500010B511F8014B03F8014F9142F9D110BD48
:1089600002440346934200D1704703F8011BF9E724
:1089700038B50D4B1D68AB6B04467BB91820FDF76D
:1089800083FA0A4A0A4BA863C0E90023094B8360B3
:108990000B23838101220023C0E90423AB6B002257
:1089A0001C615A6138BD00BF28E403200E33CDABF3
:1089B00034126DE6ECDE050010F8012B11F8013BD6
:1089C000012A28BF9A42F7D0D01A7047034611F8FF
:1089D000012B03F8012B002AF9D17047024B014605
:1089E000186800F003B800BF28E4032037B5044638
:1089F00008460D4600F00FF8421C11462046019231
:108A0000FDF77AFA044618B1019A2946FFF79AFF52
:108A1000204603B030BD034613F8012B002AFBD1DA
:108A2000181A0138704710B50139034632B111F8F0
:108A3000014F03F8014B013A002CF7D11A440021F1
:108A4000934200D110BD03F8011BF9E72DE9F8436B
:108A5000DFF8B8800646D8F800001F460D4691465C
:108A600000F056F8254B1C6834B9254C1C60254B8A
:108A700013B11B68C4F8883063681F2B07DDD8F872
:108A8000000000F047F84FF0FF30BDE8F8834EB328
:108A9000D4F8880088B91C4B23B9D8F8000000F03E
:108AA00038F8F0E74FF48470FDF7EEF90028F4D0C1
:108AB0000023C0E94033C4F88800636840F823907D
:108AC00001229A4000EB8301D0F800311343022EBB
:108AD000C0F80031C1F8807002BFD0F804311A43E9
:108AE000C0F804216368D8F800005A1C02336260A1
:108AF00044F8235000F00EF80020C6E7E4E7032016
:108B000058E7032000000000895E0D008CE403207C
:108B1000704770477047000021400D005D400D0018
:108B200085400D0089400D00000000007365745001
:108B30006F776572436F6E66696775726174696F8E
:108B40006E3D2564003A20005041525449434C4543
:108B5000005041525449434C4520434F4E4E4543EB
:108B600054454400534C45455020524553554C54B0
:108B700000576F6B652042792057617463646864A5
:108B80006F6700576F6B652042792052544300573E
:108B90006F6B652042792050495200504152544930
:108BA000434C45204641494C454420544F20434FB7
:108BB0004E4E4543540053414D504C494E475F572C
:108BC0004149545F53544154450053544152542039
:108BD00053414D504C494E47003000504F5745527D
:108BE00000454E4241424C45204348415247494E80
:108BF00047005055424C495348494E470053544151
:108C00005254205055424C4953485F5354415445A7
:108C10000047617264656E2D4C6164792D42756701
:108C20002D30342D436170003663556F6E7158736B
:108C30004C6368666E38743546365573557278469F
:108C400035387145007B202276616C7565223A20AB
:108C50002200252E326600222C202266656564499A
:108C600044223A202200227D0047617264656E2D05
:108C70004C6164792D4275672D30342D4361702D20
:108C800050657263656E74616765006E3865706308
:108C9000507343466B736239555759746758746FF4
:108CA00065344B6A686B7600506F77657220736F1E
:108CB00075726365730042617474657279207374B0
:108CC00061746500426174746572792063686172D1
:108CD00067650042617474657279205643656C6CF7
:108CE000004261747465727920536F43004761726A
:108CF00064656E2D4C6164792D4275672D30342D7D
:108D00004241545400556A6B72486739367534785D
:108D1000527654347545436373454E767754716883
:108D20007500535441525420534C4545505F5741B0
:108D300049545F535441544500474F494E472054CE
:108D40004F20534C45455000534C454550205354FB
:108D50004F5020534C45455000576F6B652042796A
:108D60002042595F4750494F2050495200576F6B7E
:108D7000652042792042595F4750494F2052544361
:108D800000534C45455020524553554C54202D20FE
:108D9000576F6B652042595F52544300534C454511
:108DA0005020524553554C54202D20576F6B652051
:108DB00042595F4E4554574F524B00534C45455016
:108DC00020524553554C54202D20576F6B6520423F
:108DD0007920554E4B4E4F574E00534C4545502031
:108DE00054494D454420534C454550000000000077
:108DF00000000000B5400D00C9400D0011500D00ED
:108E0000A7500D0029510D00756E6B6E6F776E00C7
:108E100076696E0075736220686F73740075736293
:108E2000206164617074657200757362206F74678D
:108E30000062617474657279006E6F74206368619A
:108E40007267696E67006368617267656400646970
:108E5000736368617267696E67006661756C740040
:108E6000646973636F6E6E6563746564000000000F
:108E7000088E0D00108E0D00148E0D001D8E0D003D
:108E8000298E0D00318E0D00088E0D00398E0D00DB
:108E90003D8E0D00468E0D004E8E0D005A8E0D003B
:108EA000608E0D000000000000000000D14F0D009A
:108EB000D34F0D0011500D00A7500D0029510D008A
:108EC00064657669636552656164206661696C6595
:108ED0006420737461743D25640073657420546963
:108EE0006D652066726F6D205254432025730064B7
:108EF00065766963655772697465206661696C653A
:108F00006420737461743D25640073657420525449
:108F1000432066726F6D20636C6F7564202573004B
:108F2000636C6F75642074696D65206E6F74207654
:108F3000616C69640064657669636557726974651C
:108F4000454550524F4D206661696C6564207374CD
:108F500061743D2564006170702E727463000000BE
:108F60000000000000000000E9510D00FF510D005D
:108F7000D9510D00DD510D0029520D0011550D0084
:108F800031570D000000000000000000ED510D0001
:108F9000F1510D000000000000000000EB510D0039
:108FA0000D520D00E1510D00E5510D0029520D004B
:108FB0004B550D0015590D00000000000000000089
:108FC000EF510D001B520D000000000000000000DA
:108FD00053600D0049600D003F600D00F55F0D000E
:108FE00033600D0027600D00AD6A0D00B56A0D00FD
:108FF0001B600D0013600D0009600D00FF5F0D0088
:10900000E56A0D0000000000000000008D600D000A
:1090100093600D00E3600D00A1600D008F600D00F6
:1090200000000000000000005B660D0051660D00AE
:1090300047660D003D660D0031660D0025660D008A
:10904000AD6A0D00B56A0D0019660D0011660D00C0
:1090500007660D00FD650D00E56A0D0000000000CB
:1090600000000000D5670D001F680D00F7670D00B8
:10907000D7670D00FF670D0007680D000F680D0032
:1090800017680D00000000000000000089690D0055
:1090900079690D007B690D006170700000000000AF
:1090A000000000006D6A0D00776A0D00816A0D00F6
:1090B0008B6A0D00956A0D00A16A0D00AD6A0D0066
:1090C000B56A0D00BD6A0D00C96A0D00D16A0D00B8
:1090D000DB6A0D00E56A0D00776972696E670053FF
:1090E000797374656D20736C65657020636F6E664F
:1090F000696775726174696F6E20697320696E7635
:10910000616C69642E005A00252B3033643A253097
:1091100032750025592D256D2D25645425483A2595
:109120004D3A2553257A0061736374696D650000BB
:109130000000000000000000B9750D0027760D004A
:10914000FF750D00116D0D00CF750D00EB750D0055
:10915000DD750D00F9750D00BB750D00C1750D00B5
:109160000000000000000000E7760D004F770D00C2
:1091700025770D00116D0D0017770D00E9760D00B4
:10918000F9760D0049770D0009770D00E1760D00A5
:1091900000252E337320252E337325336420252E8E
:1091A00032643A252E32643A252E32642025640A30
:1091B0000053756E4D6F6E547565576564546875D0
:1091C0004672695361744A616E4665624D617241CF
:1091D00070724D61794A756E4A756C417567536559
:1091E000704F63744E6F764465630000954E0D00BA
:1091F00045590D00E55F0D005D600D0065660D00D1
:109200005D6A0D00B96B0D00BD6D0D0021720D0082
:10921000A5750D0000000000000000000000000027
:08922000E0F3FF7F01000000F4
:049228000000000042
:10922C0004100000E80300000200000027910D006C
:10923C00100E0000000000002CE4032000000000D1
:10924C000000000000000000000000000000000012
:10925C000000000000000000000000000000000002
:10926C0000000000000000000000000000000000F2
:10927C0000000000000000000000000000000000E2
:10928C0000000000000000000000000000000000D2
:10929C00000000000000000000000000E9E70320CF
:1092AC00FFFFFFFF00000102030405060708090A7F
:1092BC000B0C0D0E0F101112131415161718191A7A
:0892CC001B1C1D1E1F202800C1
:0492D4007856341282
:04000003D0004020C9
:00000001FF
