:02000002D0002C
:1040000000400D00DC580D00000006000E00050108
:084010000401EB0500000000B3
:044018003C550D0006
:10401C0009480A49884208B505D0094A824202D0AB
:10402C00121A01F041FA0748074A0021121A01F04E
:10403C0046FA014808BD00BF40E4032044580D0077
:10404C00B0E40320B0E40320F0E7032070B500F0E7
:10405C00D3FF074C074BE41AA40800251E46A542C3
:10406C0004D056F8253098470135F8E770BD00BFED
:10407C0034580D0000580D0000F088B808B500F059
:10408C00EDF8BDE8084000F079BF00F0C7BA00F0C9
:10409C00CDBA00F0CBBA0078B0FA80F04009704786
:1040AC00012303707047000008B500F023F9014BA1
:1040BC00186008BDBCE403202DE9F84F2E4D0024F8
:1040CC0020272646A846DFF8B8B02888DFF8B49039
:1040DC00DFF8B4A0012100F0F1FF0021BBF80000D3
:1040EC0000F0FDFF0021288800F0F9FF002128884E
:1040FC0000F0E4FF00F0FEF80121C9F80000CAF856
:10410C000000BBF8000000F0EAFFB8F8000000F077
:10411C00FFFF0028F9D0DAF80030D9F800209342DC
:10412C0082BF9B1AF6180134013FCCD10CB196FB1F
:10413C00F4F412490B68042293FBF2F21A449442F1
:10414C0005DAE21A082092FBF0F213440B6000F03F
:10415C00C9FE002C054604DA2D2100F041FD614218
:10416C0000E021460A22284600F049FD284600F0CE
:10417C003AFD2046BDE8F88F40E40320C4E4032058
:10418C0044E40320C0E40320BCE4032007B5012170
:10419C00072000F093FF0E4B0121188800F08EFFD2
:1041AC000C4B0D4918880023012200934FF0FF336C
:1041BC0000F0ECFAFFF780FF084B186000F092FE5D
:1041CC004FF4165103B05DF804EB00F07FBE00BF56
:1041DC0044E4032040E40320B5400D00C4E4032074
:1041EC0070B5FFF769FF174B174E1860174B1B681C
:1041FC00042493FBF4F41C44154BA0421A68D4BF5E
:10420C0000240124A2421D4602D000F07BF830604D
:10421C002C6000F077F833680E4A323398421168FC
:10422C000D4B88BF1C6021B91868003018BF0120E5
:10423C0004E01968002914BF002002201B681360D9
:10424C0070BD00BFC8E40320D0E40320C4E4032005
:10425C00B8E40320B4E40320D4E4032010B500F048
:10426C0051F80A4B1A68143282421C460DD2FFF7E1
:10427C00B7FF0128014602D0022803D100210720F4
:10428C0000F02DFF00F03EF8206010BDCCE40320C0
:10429C0000F040B808B5024B1B689B68019308BD41
:1042AC004802030008B5024B1B681B69019308BD4B
:1042BC004802030008B5024B1B685B69019308BDFB
:1042CC004802030008B5024B1B685B6C019308BDE8
:1042DC004802030008B5024B1B689B6C019308BD98
:1042EC004802030008B5024B1B685B68019308BDCC
:1042FC001802030008B5024B1B681B69019308BD2B
:10430C001802030008B5024B1B685B69019308BDDA
:10431C001802030008B5024B1B681B68019308BD0B
:10432C002C02030008B5024B1B689B68019308BD67
:10433C002C02030008B5024B1B68DB68019308BD17
:10434C002C02030008B5024B1B681B69019308BDC6
:10435C002C02030008B5024B1B685B69019308BD76
:10436C002C02030008B5024B1B689B69019308BD26
:10437C002C02030008B5024B1B68DB69019308BDD6
:10438C002C02030008B5024B1B681B6A019308BD85
:10439C002802030008B5024B1B685B6A019308BD39
:1043AC002802030008B5024B1B689B6A019308BDE9
:1043BC002802030008B5024B1B68DB6A019308BD99
:1043CC002802030008B5024B1B681B6B019308BD48
:1043DC002802030008B5024B1B685B6B019308BDF8
:1043EC002802030008B5024B1B681B6C019308BD27
:1043FC002802030008B5024B1B685B69019308BDDA
:10440C006402030008B5024B1B689B68019308BD4E
:10441C006802030008B5024B1B68DB68019308BDFA
:10442C006802030008B5024B1B68DB69019308BDE9
:10443C003002030008B5024B1B681B6A019308BDD0
:10444C003002030008B5024B1B681B68019308BDC2
:10445C003C02030008B5024B1B68DB68019308BDE6
:10446C003C02030008B5024B1B681B69019308BD95
:10447C003C02030008B5024B1B685B69019308BD45
:10448C003C02030008B5024B1B689B69019308BDF5
:10449C003C02030008B5024B1B68DB69019308BDA5
:1044AC003C02030008B5024B1B681B6A019308BD54
:1044BC003C02030008B5024B1B689B6A019308BDC4
:1044CC003C02030008B5024B1B681B68019308BD36
:1044DC004C02030008B5024B1B685B68019308BDD6
:1044EC004C02030008B5024B1B681B69019308BD05
:1044FC004C02030008B5024B1B685B69019308BDB5
:10450C004C02030008B5024B1B689B69019308BD64
:10451C004C02030008B5024B1B68DB69019308BD14
:10452C004C02030008B5024B1B681B6A019308BDC3
:10453C004C02030008B5024B1B685B68019308BD75
:10454C002002030008B5034B1B68D3F88830019395
:10455C0008BD00002002030008B5034B1B68D3F80C
:10456C009430019308BD00002002030008B5024BF3
:10457C001B68DB6B019308BD4402030008B5024BBA
:10458C001B685B68019308BD4002030008B5024B31
:10459C001B689B68019308BD4002030008B5024BE1
:1045AC001B68DB68019308BD4002030008B5024B91
:1045BC001B681B69019308BD4002030008B5024B40
:1045CC001B685B69019308BD4002030008B5024BF0
:1045DC001B689B69019308BD4002030008B5024BA0
:1045EC001B68DB69019308BD4002030008B5024B50
:1045FC001B681B6A019308BD4002030008B5024BFF
:10460C001B681B6B019308BD4002030008B5024BED
:10461C001B685B6B019308BD4002030008B5024B9D
:10462C001B681B68019308BD1C02030008B5024BF4
:10463C001B685B68019308BD1C02030010B504469F
:10464C00006808B1FFF746FE204610BD10B5064CB9
:10465C00002320462360FFF735FE2046034A044919
:10466C00BDE8104000F0A8BDD8E40320B0E403205E
:10467C0049460D0010B58368044613B10322014668
:10468C009847204610BD002211464068FFF7AEBF88
:10469C00002211464068FFF7B9BF00224068FFF7BF
:1046AC00ADBF002281F001014068FFF797BF0023E6
:1046BC001A4619464068FFF789BF00231A46194667
:1046CC004068FFF77BBF002211464068FFF76EBFC2
:1046DC00002211464068FFF759BF002202214068B2
:1046EC00FFF75CBF00231A464068FFF747BF000086
:1046FC00024B03225A60024A1A607047DCE4032022
:10470C0058550D007047F8B5064615460C468F18DF
:10471C00BC4206D0336814F8011B9B68304698479E
:10472C00F6E72846F8BD0022007CFFF72BBE0021DF
:10473C00007CFFF72FBE0021007CFFF733BE002169
:10474C00007CFFF737BE0021007CFFF73BBE10B5A5
:10475C001421044600F035FD204610BD10B504466A
:10476C00002363604FF47A73A360044B21740846F2
:10477C0023601146FFF736FE204610BD8C550D0008
:10478C000021007CFFF726BE00470000F0B585B085
:10479C001C460E4617460546FFF7ECFD00208442EA
:1047AC004FF0040303908DF80C30A5BF9DF8283012
:1047BC008DF80E30034603AB009332463B46064958
:1047CC00A8BF8DF80D402846FFF7CCFDB0FA80F05D
:1047DC00400905B0F0BD00BF95470D00704710B5FE
:1047EC001821044600F0EDFC204610BDF0B5037D09
:1047FC00062B8DB00E4600F104074FF0000402D0DA
:10480C0000F1080518E00CAD394605F8304D2F23A2
:10481C002A460A20FFF7EEFD284600F081FE336899
:10482C000246DB682946304698470FE024B12E211A
:10483C00304600F0D5F9044415F8011D0A22304623
:10484C0000F0DDF9BD420444F0D120460DB0F0BDBE
:10485C0010B5054B0446112240F8043B002100F032
:10486C002EFE204610BD00BFB4550D000346074A6E
:10487C0010B543F8042B01F1100251F8044B43F826
:10488C00044B9142F9D10A781A7010BDB4550D0041
:10489C0010B59DF8084044EA032343EA024242EA79
:1048AC00016104234160037510BD37B50D788B7819
:1048BC004A78C97800912946FFF7EAFF03B030BD6A
:1048CC00014B024A1A607047E4E4032033560D0092
:1048DC00002211464068FFF789BE0022114640684D
:1048EC00FFF794BE00224068FFF788BE002281F0DB
:1048FC0001014068FFF772BE00231A46012140688F
:10490C00FFF764BE00231A4619464068FFF756BEEF
:10491C00002211464068FFF749BE0022114640684C
:10492C00FFF734BE002202214068FFF737BE002398
:10493C001A464068FFF722BE38B5054688B10468B0
:10494C004CB1A3681BB10322214620469847102185
:10495C00204600F036FC28461421BDE8384000F013
:10496C0030BC38BD10B103685B681847704710B590
:10497C0003680446BBB15868FFF78CFC78B9236810
:10498C005A7C12B95868FFF78DFC23685868FFF7FA
:10499C0091FC20680023236028B1FFF7CDFF20682D
:1049AC0008B1FFF7C9FF204610BD38B50446D0F852
:1049BC00C40108B1FFF76DFBD4F8C00108B1FFF7D3
:1049CC0089FCD4F8BC5135B12846FFF7D0FF04213F
:1049DC00284600F0F6FB206808B1FFF7C3FF20461D
:1049EC0038BD000010B5044B044640F8083BFFF7F7
:1049FC00DCFF204610BD00BFAC560D0038B50E4C88
:104A0C000E4B23600025022304F5E4706360A5605F
:104A1C00C4F8C451C4F8C851FFF754FC084BC4F88F
:104A2C00CC5184F8D05123602046064A0649BDE893
:104A3C00384000F0C1BB00BFE8E40320E0560D0095
:104A4C00AC560D00B0E40320F1490D0000231A46CA
:104A5C004068FFF793BD002202214068FFF79EBD1E
:104A6C00002211464068FFF791BD002211464068B4
:104A7C00FFF79CBD00231A4619464068FFF79EBD00
:104A8C0000231A4619464068FFF7A0BD002281F0AA
:104A9C0001014068FFF7A2BD00224068FFF7AEBDE0
:104AAC00002211464068FFF7B1BD00221146406854
:104ABC00FFF79CBD2DE9F043002495B016460D463A
:104ACC000746FFF7C5FE214620220CA8009400F0F3
:104ADC00F6FC40230C9321466B460CAA3046FFF79C
:104AEC0099FC0446002844D1024601216868FFF76E
:104AFC005DFD0221804622466868FFF757FD009E47
:104B0C0081462146002E34D0002932D17368022B05
:104B1C0002D00A2B09D02AE0B8F1000F27D0716916
:104B2C0038460431FFF7C1FE20E0B9F1000F1ED06A
:104B3C007469112201A800F0C2FC06238DF8143010
:104B4C0001AD04F108031834186859682A4603C2E9
:104B5C000833A3421546F7D101A906A807ADFFF704
:104B6C0085FE0FCD3C1D0FC42B6823700121F66907
:104B7C00C8E70098FFF746FC384615B0BDE8F0834F
:104B8C00024B034A1A6000225A607047BCE60320AD
:104B9C00E0560D00F8B506460D468F180024BD42B0
:104BAC000CD0336815F8011B9B68304698470028D9
:104BBC0001DB0444F3E7002C08BF04462046F8BD93
:104BCC0070B505460C46084649B100F0A9FC2B68A7
:104BDC00024621462846DB68BDE87040184770BD88
:104BEC0003689B68184738B50D210546FFF7F8FF99
:104BFC000A2104462846FFF7F3FF204438BD30B5A0
:104C0C008BB00B4600218DF82410012A98BF0A2284
:104C1C000DF12304B3FBF2F505FB123303F0FF0394
:104C2C00092B94BF30333733DBB2214604F80139FA
:104C3C002B46002DEED1FFF7C3FF0BB030BD10B5E6
:104C4C000446FFF717FD204610BD00000348044A38
:104C5C0004490023836000F0AFBA00BFC4E6032010
:104C6C00B0E403204B4C0D0010B50446017008460F
:104C7C00FFF7D8FB00236360204610BD0078FFF7D8
:104C8C00D9BB10B50446006818B1FFF7CFFC002360
:104C9C00236010BD10B50446FFF7F3FF204610BD8E
:104CAC0010B5094C00204FF6FF732060A080A07156
:104CBC0020816381FFF73EFC2046044A0449BDE88D
:104CCC00104000F079BA00BFD4E60320B0E4032012
:104CDC00A14C0D00024B1A68024B1A60704700BFC2
:104CEC0048E40320E0E6032070474174704708B5A0
:104CFC00007CFFF7DFFB20EAE07008BD08B5007C04
:104D0C00FFF7B0FB20EAE07008BD08B5007CFFF7A8
:104D1C00B9FB30EA200028BF4FF0FF3008BD08B5C2
:104D2C00007CFFF7A7FB30EA200028BF4FF0FF30D4
:104D3C0008BD007CFFF7AEBB10B51421044600F093
:104D4C0040FA204610BD70B5457C04460E4625B988
:104D5C00007CFFF7AFFB002805DD3146207CBDE869
:104D6C007040FFF777BB284670BD000010B50446B5
:104D7C0008461146002262604FF47A72A260054A1E
:104D8C0022600122207462741A46FFF75BFB2046F6
:104D9C0010BD00BF40570D00007CFFF783BB000027
:104DAC00F8B5194C25684DB98420FFF76EF9064605
:104DBC0018B18422294600F082FB2660134D2E6820
:104DCC004EB98420FFF761F9074618B184223146A9
:104DDC0000F075FB2F600E4F396811F0010611D1F0
:104DEC003846FFF758F968B122682B6809483146F4
:104DFC00FFF7BCFF3846FFF753F9074A0749054848
:104E0C0000F0DAF90348F8BD00E70320F8E60320C8
:104E1C00FCE60320E4E60320B0E40320F54C0D008F
:104E2C0041747047704708B50021007CFFF76AFB9E
:104E3C0030EA200028BF4FF0FF3008BD08B5012133
:104E4C00007CFFF75FFB30EA200028BF4FF0FF30FB
:104E5C0008BD08B5007CFFF74DFB20EAE07008BDEB
:104E6C0008B5007CFFF73EFB20EAE07008BD007C33
:104E7C00FFF758BB10B51421044600F0A2F92046E8
:104E8C0010BD38B50446007C0D46FFF733FB0028F7
:104E9C0001DC607C28B12946207CFFF73BFB20EA33
:104EAC00E07038BD10B50446002363604FF47A738C
:104EBC00A360054B236001230846217463741146DB
:104ECC00FFF700FB204610BD70570D000022007C40
:104EDC00FFF700BB10B514220446002100F0EFFAD6
:104EEC00204610BD30B50E4D87B001A8FFF7F2FF7C
:104EFC00296811F0010410D12846FFF7CCF860B1F5
:104F0C0001AA21460748FFF7CDFF2846FFF7C8F84E
:104F1C00054A0649034800F04FF9024807B030BD76
:104F2C0004E7032008E70320B0E40320314E0D0012
:104F3C0008B50F4B33B1FFF7D5FF03681B699847D2
:104F4C0000280DDC0B4B33B1FFF72AFF03681B69FC
:104F5C009847002807DC084B43B1AFF3008008BD2D
:104F6C00AFF30080EEE7AFF30080F4E708BD00BFBD
:104F7C0000000000000000000000000008B5FFF772
:104F8C00D7FFFFF7BFF9014B186008BD30E70320CE
:104F9C000248034A0349121A00F086BA00F40320AF
:104FAC0004F4032040580D0007B5002300931A4663
:104FBC006FF07701FFF7D0FA03B05DF804FB000047
:104FCC0007B543880A2B08D0502B09D1094B1B6815
:104FDC003BB103B05DF804EB1847FFF7E5FF06E0C3
:104FEC00002300931A466FF07701FFF7B5FA03B070
:104FFC005DF804FB1CE7032038B5104C104D2368FA
:10500C00AB42104B0CBF012200221A7002D0FFF7EA
:10501C00BFFF2560FFF766F9044600F059FA0A4B0A
:10502C0013B12046AFF3008000210748FFF79EFA2A
:10503C0000210648BDE83840FFF784BA00F403208D
:10504C001E1C279A20E7032000000000CD4F0D0006
:10505C0070B5184E316811F0010504460AD130467E
:10506C00FFF719F830B129461348FFF7FDFD30461C
:10507C00FFF716F81048FFF701FE28B1A4F10B0357
:10508C00022B01D8002070BD00F070F8FFF778FB00
:10509C0008B1012CF6D9FFF783FEFFF77DFE18B19E
:1050AC00A4F10903012BEDD91E2C8CBF002001208B
:1050BC0070BD00BF24E7032028E703201E2838B565
:1050CC0004460D460AD8FF2908D0FFF7C1FF28B1C6
:1050DC0029462046BDE83840FFF724B938BD38B51D
:1050EC0004460D46FFF726F9FF2810D0062804D8F1
:1050FC004D2323FA00F0C30709D42046FFF7A8FF7D
:10510C0028B129462046BDE83840FFF71BB938BD09
:10511C0010B50446FFF70EF90438C0B2012808D9BF
:10512C002046FFF795FF20B12046BDE81040FFF761
:10513C0011B9002010BD000070B5044614252A4694
:10514C00094E002100F0BBF9258020253146A560D1
:10515C002561284600F04FF831466060284600F083
:10516C004AF8E060204670BD98570D0030B50E4DE2
:10517C00296811F0010487B013D12846FEF78BFF84
:10518C0078B101A8FFF7D8FF01AA21460748FFF71D
:10519C00E5FA2846FEF784FF054A0649034800F065
:1051AC000BF8024807B030BD34E7032038E7032082
:1051BC00B0E4032011470D000B460146184600F0E1
:1051CC0065B9FEF764BF0000024B1868BFF35F8F30
:1051DC00704700BF4CE7032010B5002814BF0446ED
:1051EC0001242046FFF71AFA20B9FFF7EDFF08B1AA
:1051FC008047F6E710BDFFF7EFBF0000244B1A689D
:10520C00D0075CBF01221A60224B1A68D1075CBF21
:10521C0001221A60204B1A68D2075CBF01221A6067
:10522C001E4B1A68D0075CBF01221A601C4B1A680F
:10523C00D1075CBF01221A601A4B1A68D2075CBFF7
:10524C0001221A60184B1A68D0075CBF01221A6041
:10525C00164B1A68D1075CBF01221A60144B1A68EE
:10526C00D2075CBF01221A60124B1A68D0075CBFD0
:10527C0001221A60104B1A68D1075CBF01221A6018
:10528C000E4B1A68D2075CBF01221A60704700BF30
:10529C007CE7032078E7032074E7032070E7032002
:1052AC006CE7032068E7032064E7032060E7032032
:1052BC005CE7032058E7032054E7032050E7032062
:1052CC00184B1A68D1075CBF01221A60164B1A687A
:1052DC00D2075CBF01221A60144B1A68D0075CBF5E
:1052EC0001221A60124B1A68D1075CBF01221A60A6
:1052FC00104B1A68D2075CBF01221A600E4B1A6859
:10530C00D0075CBF01221A600C4B1A68D1075CBF36
:10531C0001221A600A4B1A68D2075CBF01221A607C
:10532C00704700BF9CE7032098E7032094E7032015
:10533C0090E703208CE7032088E7032084E7032011
:10534C0080E70320184B1A68D1075CBF01221A6052
:10535C00164B1A68D2075CBF01221A60144B1A68EC
:10536C00D0075CBF01221A60124B1A68D1075CBFD0
:10537C0001221A60104B1A68D2075CBF01221A6016
:10538C000E4B1A68D0075CBF01221A600C4B1A68CE
:10539C00D1075CBF01221A600A4B1A68D2075CBFA6
:1053AC0001221A60704700BFBCE70320B8E7032056
:1053BC00B4E70320B0E70320ACE70320A8E7032001
:1053CC00A4E70320A0E70320244B1A68D0075CBF96
:1053DC0001221A60224B1A68D1075CBF01221A60A5
:1053EC00204B1A68D2075CBF01221A601E4B1A6848
:1053FC00D0075CBF01221A601C4B1A68D1075CBF36
:10540C0001221A601A4B1A68D2075CBF01221A607B
:10541C00184B1A68D0075CBF01221A60164B1A6829
:10542C00D1075CBF01221A60144B1A68D2075CBF0B
:10543C0001221A60124B1A68D0075CBF01221A6055
:10544C00104B1A68D1075CBF01221A600E4B1A6808
:10545C00D2075CBF01221A60704700BFECE7032043
:10546C00E8E70320E4E70320E0E70320DCE7032080
:10547C00D8E70320D4E70320D0E70320CCE70320B0
:10548C00C8E70320C4E70320C0E7032010B5054C90
:10549C0013462CB10A4601460220AFF3008010BD22
:1054AC00204610BD0000000010B5431E0A44914276
:1054BC0004D011F8014B03F8014FF8E710BD02447A
:1054CC000346934202D003F8011BFAE77047000031
:1054DC0038B5124B1C68A36B0546D3B91820FFF7DF
:1054EC009DF843F20E33A06303804AF6CD3343801C
:1054FC0041F2342383804EF26D63C3804DF6EC632E
:10550C000381052343810B23838101220023C0E9FE
:10551C000423A36B00221D615A6138BDACE4032047
:10552C00034613F8012B002AFBD1181A01387047D7
:10553C001D400D0059400D0085400D0089400D00A7
:10554C00000000000000000000000000F1460D000B
:10555C00E7460D00DD460D00D3460D00C7460D0095
:10556C00BB460D00AF460D00A7460D009D460D0035
:10557C0093460D00C14A0D00000000000000000021
:10558C0011470D005B470D0033470D0013470D000D
:10559C003B470D0043470D004B470D0053470D0093
:1055AC000000000000000000F9470D00E9470D0065
:1055BC00EB470D00626175640053657269616C00A4
:1055CC0053657269616C3100747970650070617239
:1055DC00616D00636D6400696400686E64007374CF
:1055EC00726D0066696C74006C766C006164644862
:1055FC00616E646C65720072656D6F766548616E84
:10560C00646C657200656E756D48616E646C657274
:10561C0073004A534F4E53747265616D4C6F6748FB
:10562C00616E646C6572006170700025303130758C
:10563C0020005D20002564002C200028293A200041
:10564C00205B00636F6465203D2000256900646564
:10565C007461696C73203D20000D0A0066006C6E4D
:10566C0000666E00636F64650064657461696C004C
:10567C006E6F6E6500747261636500696E666F00B3
:10568C007761726E006572726F720070616E696321
:10569C0000616C6C000000000000000000000000C5
:1056AC003B490D0031490D0027490D001D490D00E6
:1056BC0011490D0005490D00F9480D00F1480D0088
:1056CC00E7480D00DD480D00C14A0D000000000048
:1056DC0000000000594A0D00634A0D006D4A0D0090
:1056EC00774A0D00814A0D008D4A0D00994A0D0034
:1056FC00A54A0D00AD4A0D00B74A0D00C14A0D0078
:10570C005A00252B3033643A253032750025592D3B
:10571C00256D2D25645425483A254D3A2553257A77
:10572C000061736374696D65000000000000000087
:10573C0000000000F54C0D00454D0D00534D0D00C3
:10574C00A14B0D00094D0D002B4D0D00174D0D00FB
:10575C003F4D0D00F74C0D00FB4C0D000000000000
:10576C0000000000314E0D00814E0D008F4E0D00DB
:10577C00A14B0D006D4E0D00334E0D00494E0D002A
:10578C007B4E0D005F4E0D002D4E0D0000000000F5
:10579C0000000000000000000000000000000000FD
:1057AC0000000000000000000000000000000000ED
:1057BC0000000000000000000000000000000000DD
:1057CC0000000000000000000000000000000000CD
:1057DC0000000000000000000000000000000000BD
:1057EC0000000000000000000000000000000000AD
:1057FC00430000009D420D0059460D00FD460D0072
:10580C00CD480D00094A0D008D4B0D00594C0D0073
:10581C00AD4C0D00E14C0D0009520D00CD520D00A8
:10582C0051530D00D5530D00000000000000000086
:04583C000000000068
:045840000000000064
:1058440003000000020000002D570D0000000000BE
:105854009C570D00BC570D00DC570D0000000000E4
:10586400000000000000000000000000FC570D00D4
:105874000000000000000000000000000000000024
:105884000000000000000000000000000000000014
:105894000000000000000000000000000000000004
:1058A4000000000000000000000000004CE40320A1
:1058B400FFFFFFFF00000102030405060708090AB1
:1058C4000B0C0D0E0F101112131415161718191AAC
:0858D4001B1C1D1E1F202800F3
:0458DC0078563412B4
:04000003D000401CCD
:00000001FF
