:02000002D0002C
:1040000000400D00B0570D00000006000D00050136
:0840100004019A080000000001
:04401800EC540D0057
:10401C0009480A49884208B505D0094A824202D0AB
:10402C00121A01F0B5F90748074A0021121A01F0DB
:10403C00BDF9014808BD00BFECE5032014570D0085
:10404C0060E6032060E60320EDE7032070B5074E21
:10405C00074C01F0BBF8A41BA4080025A54200D115
:10406C0070BD56F8043B98470135F7E7EC560D0048
:10407C0010570D0000F038B808B500F077F8BDE81F
:10408C00084001F05BB800F03BBC00F039BC00F01C
:10409C003FBC0078B0FA80F04009704701230370F0
:1040AC007047F8B50C1E074616460CDA0A2A0AD1D8
:1040BC002D2100F0A5FE61420546F2B2384600F013
:1040CC00B8FE2844F8BD21460025F6E7044B1978C4
:1040DC0081F001011970034B188801F0F8B800BF8A
:1040EC007CE60320ECE5032010B51A4B012118885F
:1040FC0001F0DCF801F01EF900F0EEFC00F0D6FF48
:10410C004FF4165100F0C6FF00F0D0FF03681B6996
:10411C00984710B900F084FBF6E700F0C7FF0E4992
:10412C0000F07DFE0D4800F000FA00F0BFFF0C49D6
:10413C0000F075FE00F0BAFF0446084800F01CFAC7
:10414C00084A0949002818BF11462046BDE810400E
:10415C0000F065BEECE5032038550D0060E6032049
:10416C0054550D0000550D001E550D002DE9F04362
:10417C00DFF8E880DFF8E890314C324D324E334FA7
:10418C00334885B043464A4621460295019600972E
:10419C0000F086F900F08AFF2E4900F02DFE00F0A9
:1041AC0085FFB4F900102C4C0A22FFF77AFF00F0BF
:1041BC007DFF214600F020FE00F078FF0A22B9F9BD
:1041CC000010FFF76EFF00F071FF214600F014FEA7
:1041DC0000F06CFF0A22B8F90010FFF762FF00F044
:1041EC0065FF214600F008FE00F060FF0A22B7F9D7
:1041FC000010FFF756FF00F059FF214600F0FCFDC0
:10420C0000F054FF0A22B6F90010FFF74AFF00F045
:10421C004DFF214600F0F0FD00F048FFB5F900100D
:10422C000A220446FFF73DFF204600F0ECFDFFF7A5
:10423C004DFF4FF47A7005B0BDE8F04300F078BB49
:10424C0070E603207AE6032078E6032076E6032066
:10425C0060E6032072550D0076550D0074E60320C0
:10426C0072E60320014800F001B900BF60E60320AC
:10427C002DE9F74F16469B46BDF8308007468A4617
:10428C0000F092F9202E33464FF00005A8BF2023F2
:10429C0081462C460193B5423AD201F04BF839468F
:1042AC0000F04CFC01F046F8036851469B689847B7
:1042BC0001F040F800F04AFC01F03CF8394600F0FF
:1042CC003DFC01F037F8721B202AA8BF2022D2B285
:1042DC00394600F030FC01F02DF803681B69984753
:1042EC0090B1B8F1000F09D101F024F803685B69B3
:1042FC0098470BF80400013464B2ECE700F054F971
:10430C00A0EB09004045EFD3019B1D44EDB2C2E781
:10431C00B8F1000F09D000F047F9A0EB09004045B7
:10432C0003D3B442B8BF4FF0FF34204603B0BDE80E
:10433C00F08F07B5009313460122FFF799FF03B0E6
:10434C005DF804FB37B514461D460DF10702BDF8A8
:10435C001C30FFF7EEFF60B1012202FA05F3611B7E
:10436C009DF807200131013B8B401340069A0B410D
:10437C00137003B030BDF8B5074615461C460E4603
:10438C0000F0D8FF394600F0D9FB00F0D3FF0368EA
:10439C0031469B6898472544AC4207D000F0CAFFD1
:1043AC00036814F8011B9B689847F5E700F0C2FFFF
:1043BC0000F0CCFBB0FA80F04009F8BD07B58DF8E1
:1043CC0007200DF107030122FFF7D5FF03B05DF8BD
:1043DC0004FB00002DE9F3411F460F4B90460124CE
:1043EC000DF107021B8805460E46FFF7A2FF04FAE3
:1043FC0008F252B29DF8074057B12243D2B231466F
:10440C0028468DF80720FFF7D9FF02B0BDE8F081F0
:10441C0024EA0202F3E700BFF0E50320F7B51F46DC
:10442C00114B16461B880DF1070204460D46FFF78B
:10443C0080FFB8B1012202FA07F3F11B9DF820208E
:10444C000131013B8B4002FA01F19DF80720C9B202
:10445C0022EA03020B401A43294620468DF8072016
:10446C00FFF7ACFF03B0F0BDF0E503206823037049
:10447C00704707B502230078009104221B21FFF737
:10448C00CDFF03B05DF804FB07B502230078009163
:10449C0004221C21FFF7C2FF03B05DF804FB0000EF
:1044AC00F7B51646174A1D4603460446128813F8FC
:1044BC00010B00920F460E223B21FFF7D9FE6278CA
:1044CC00A37843EA02233B80E278237943EA022370
:1044DC0033806279A37943EA02232B80627AA37A30
:1044EC0043EA0223089A1380E27A237B43EA0223ED
:1044FC00099A1380627BA37B43EA02230A9A1380F6
:10450C0003B0F0BDF0E503200B46007806226B21CA
:10451C00FFF760BF07B503230078009102226B21DF
:10452C00FFF77CFF03B05DF804FB10B501210446D6
:10453C00FFF7F0FF20460021FFF79BFF20460021EC
:10454C00FFF7A2FF20460021BDE81040FFF7DCBFBB
:10455C0013B50346074A0446128813F8010BCDE93C
:10456C00003206231A467521FFF7ECFE607802B084
:10457C0010BD00BFF0E5032008B5FFF7E9FFA0F17F
:10458C0034035842584108BD08B5024B1B685B6C9C
:10459C00019308BD4802030008B5024B1B685B6819
:1045AC00019308BD1802030008B5024B1B685B6938
:1045BC00019308BD1802030008B5024B1B689B68E9
:1045CC00019308BD2C02030008B5024B1B68DB6885
:1045DC00019308BD2C02030008B5024B1B681B6934
:1045EC00019308BD2C02030008B5024B1B68DB6865
:1045FC00019308BD2802030008B5024B1B689B6998
:10460C00019308BD2802030008B5024B1B68DB6947
:10461C00019308BD2802030008B5024B1B681B6AF6
:10462C00019308BD2802030008B5024B1B685B6AA6
:10463C00019308BD2802030008B5024B1B689B6A56
:10464C00019308BD2802030008B5024B1B68DB6A06
:10465C00019308BD2802030008B5024B1B681B6BB5
:10466C00019308BD2802030008B5024B1B685B6B65
:10467C00019308BD2802030008B5024B1B681B6C94
:10468C00019308BD2802030008B5024B1B681B6D83
:10469C00019308BD2802030008B5024B1B685B6937
:1046AC00019308BD6402030008B5024B1B689B68AC
:1046BC00019308BD6802030008B5024B1B68DB6858
:1046CC00019308BD6802030008B5024B1B68DB6947
:1046DC00019308BD3002030008B5024B1B681B6A2E
:1046EC00019308BD3002030008B5024B1B681B6820
:1046FC00019308BD3C02030008B5024B1B68DB6844
:10470C00019308BD3C02030008B5024B1B681B69F2
:10471C00019308BD3C02030008B5024B1B685B69A2
:10472C00019308BD3C02030008B5024B1B689B6952
:10473C00019308BD3C02030008B5024B1B68DB6902
:10474C00019308BD3C02030008B5024B1B681B6AB1
:10475C00019308BD3C02030008B5024B1B689B6A21
:10476C00019308BD3C02030008B5024B1B681B6893
:10477C00019308BD4C02030008B5024B1B685B6833
:10478C00019308BD4C02030008B5024B1B681B6962
:10479C00019308BD4C02030008B5024B1B685B6912
:1047AC00019308BD4C02030008B5024B1B689B69C2
:1047BC00019308BD4C02030008B5024B1B68DB6972
:1047CC00019308BD4C02030008B5024B1B681B6A21
:1047DC00019308BD4C02030008B5024B1B685B68D3
:1047EC00019308BD2002030008B5024B1B685B69EE
:1047FC00019308BD2002030008B5034B1B68D3F8D6
:10480C008830019308BD00002002030008B5034B5B
:10481C001B68D3F89430019308BD000020020300FC
:10482C0008B5024B1B689B68019308BD440203004A
:10483C0008B5024B1B68DB6B019308BD44020300F7
:10484C0008B5024B1B685B68019308BD400203006E
:10485C0008B5024B1B689B68019308BD400203001E
:10486C0008B5024B1B68DB68019308BD40020300CE
:10487C0008B5024B1B681B69019308BD400203007D
:10488C0008B5024B1B685B69019308BD400203002D
:10489C0008B5024B1B689B69019308BD40020300DD
:1048AC0008B5024B1B68DB69019308BD400203008D
:1048BC0008B5024B1B681B6A019308BD400203003C
:1048CC0008B5024B1B681B6B019308BD400203002B
:1048DC0008B5024B1B685B6B019308BD40020300DB
:1048EC0008B5024B1B681B6C019308BD400203000A
:1048FC0008B5024B1B685B6C019308BD40020300BA
:10490C0008B5024B1B681B68019308BD1C02030011
:10491C0008B5024B1B685B68019308BD1C020300C1
:10492C0008B5024B1B685B6C019308BD1C020300AD
:10493C000021FFF759BF0000024800230360FFF776
:10494C0023BE00BF80E60320002240681146FFF71B
:10495C008FBF002240681146FFF7AABF00224068B3
:10496C001146FFF7B5BF40680022FFF7A9BF4068AA
:10497C00002281F00101FFF793BF002340681A4623
:10498C001946FFF785BF002340681A461946FFF702
:10499C0077BF002240681146FFF75ABF40680022DB
:1049AC000221FFF75DBF002340681A46FFF748BF9E
:1049BC00084B10B5282422461846002100F0F6FCBE
:1049CC00054B04804FF0FF32426004225A60034AC8
:1049DC001A6010BD8CE6032084E6032080550D0080
:1049EC00002240681146FFF763BF00224068114661
:1049FC00FFF76EBF40680022FFF762BF40680022DD
:104A0C0081F00101FFF74CBF002340681A4619469C
:104A1C00FFF73EBF002340681A461946FFF730BF28
:104A2C00002240681146FFF723BF00224068114660
:104A3C00FFF70EBF406800220221FFF711BF0023D1
:104A4C0040681A46FFF7FCBE024B03225A60024A2A
:104A5C001A607047B4E60320BC550D007047F8B5DA
:104A6C00064615460C468F18BC4206D0336814F81F
:104A7C00011B9B6830469847F6E72846F8BD007C3A
:104A8C000022FFF7C9BD007C0021FFF7CDBD007CE3
:104A9C000021FFF7D1BD007C0021FFF7D5BD007CC4
:104AAC000021FFF7D9BD10B51421044600F066FCB7
:104ABC00204610BD10B54FF47A7304460846002109
:104ACC00C4E90113034B236020741146FFF7D4FD96
:104ADC00204610BDF8550D000023007C1A461946DF
:104AEC00FFF782BD7FB500221423CDE90122ADF87A
:104AFC0004300B788DF808304B680393CB68049323
:104B0C00007C0B7A059301A9FFF7BEFD07B05DF899
:104B1C0004FB1FB5003B8DF800104FF064010391AE
:104B2C0018BF0123694601928DF80830FFF7DAFFB0
:104B3C0005B05DF804FB0123FFF7EBBF007C0022FE
:104B4C00FFF75ABD007C0022FFF75EBD0121FFF785
:104B5C00F9BF704710B51821044600F00FFC204631
:104B6C0010BDF0B5037D062B8DB00E4600F1040789
:104B7C004FF0000412D000F1080515F8011D0A22AF
:104B8C00304600F056F9AF42044419D0002CF4D052
:104B9C002E21304600F034F90444EEE72F236A4608
:104BAC0039460A208DF80040FFF776FD684600F084
:104BBC0029FC33680246DB68694630469847044650
:104BCC0020460DB0F0BD000010B5054B0446112277
:104BDC0040F8043B002100F0E9FB204610BD00BF6B
:104BEC0020560D000346074A10B543F8042B01F17B
:104BFC00100251F8044B43F8044B9142F9D10A7856
:104C0C001A7010BD20560D0010B59DF8084044EAEE
:104C1C00032343EA024242EA016104234160037523
:104C2C0010BD13B5CB7800938B784A780978FFF7D1
:104C3C00EBFF02B010BD0000014B024A1A60704736
:104C4C00BCE603202C560D00002340681A46FFF7E3
:104C5C00F7BD406800220221FFF702BE0022406827
:104C6C001146FFF7F5BD002240681146FFF700BE64
:104C7C00002340681A461946FFF702BE002340681D
:104C8C001A461946FFF704BE40680021FFF728BEFC
:104C9C0040680021FFF72CBE4068002281F0010122
:104CAC00FFF7FEBD40680022FFF70ABE00224068F5
:104CBC001146FFF70DBE002240681146FFF7F8BD04
:104CCC002DE9F043002495B016460D460746FFF734
:104CDC007BFF214618220EA8009400F067FB4023AE
:104CEC00CDE90C3421466B460CAA3046FFF7E4FCA8
:104CFC000446002846D1024601216868FFF7B8FD3A
:104D0C000221804622466868FFF7B2FD009E81466C
:104D1C002146002E36D0002934D17368022B03D0E3
:104D2C000A2B0BD0F669F4E7B8F1000F04D07169C7
:104D3C0038460431FFF775FF4146F3E7B9F1000F30
:104D4C0001D14946EEE77469102201A800F02EFB50
:104D5C0006238DF8143001AD04F1080318341868DB
:104D6C0059682A4603C20833A3421546F7D101A954
:104D7C0006A807ADFFF736FF0FCD3C1D0FC42B68FF
:104D8C002370DEE70098FFF78FFC384615B0BDE8BE
:104D9C00F0830000024B034A1A6000225A607047ED
:104DAC00C0E6032038560D00F8B506460D468F18A0
:104DBC000024BD420CD0336815F8011B9B683046AB
:104DCC009847031E01DB1C44F3E7002C08BF1C466C
:104DDC002046F8BD13B50446084659B1019100F0C0
:104DEC0011FB23680199DB680246204602B0BDE83E
:104DFC001040184702B010BD08B5FFF7EBFF08BD17
:104E0C0003689B68184738B50D210546FFF7F8FF76
:104E1C000A2104462846FFF7F3FF204438BD38B575
:104E2C000546FFF7D7FF04462846FFF7ECFF204462
:104E3C0038BD30B58BB000238DF82430012A98BFD3
:104E4C000A2209AC0D46B1FBF2F101FB125303F03F
:104E5C00FF03092B94BF30333733DBB2AA4204F87B
:104E6C00013DEFD92146FFF7B5FF0BB030BD000077
:104E7C00014B00229A607047C8E6032010B5044627
:104E8C0008462170FFF720FC00236360204610BD0C
:104E9C00054B02221A60054B054A9A6000201860E7
:104EAC0098809871FFF798BCE4E60320D8E60320BD
:104EBC000000FFFF024B1A68024B1A60704700BFDC
:104ECC00F4E50320E8E6032070474174704770470F
:104EDC0008B5007CFFF740FC20EAE07008BD08B57F
:104EEC00007CFFF711FC20EAE07008BD08B5007CDF
:104EFC00FFF71AFC40EAE07008BD08B5007CFFF72C
:104F0C000BFC40EAE07008BD007CFFF715BC37B520
:104F1C00457C04462DB1207C03B0BDE83040FFF742
:104F2C00EBBB007C0191FFF717FC00280199F2DC28
:104F3C00284603B030BD10B51421044600F01EFA0B
:104F4C00204610BD10B54FF0000C04460846114623
:104F5C004FF47A72C4E901C2044A2260012220741F
:104F6C0062741A46FFF7C0FB204610BD90560D0028
:104F7C00F7B51A4C26684EB98420FFF784F805461D
:104F8C0018B18422314600F011FA2560144D2F68B7
:104F9C004FB98420FFF777F8064618B184223946BA
:104FAC0000F004FA2E600F4E3178BFF35B8F11F0D6
:104FBC00010110D130460191FFF76BF8019950B106
:104FCC002B6822680848FFF7BDFF3046FFF766F8EC
:104FDC00064800F0D7F9044803B0F0BDF0E6032012
:104FEC00F4E60320ECE60320F8E60320DB4E0D008C
:104FFC00417470477047704708B50021007CFFF77B
:10500C00D3FB40EAE07008BD08B50121007CFFF736
:10501C00CBFB40EAE07008BD08B5007CFFF7BCFB99
:10502C0020EAE07008BD08B5007CFFF7ADFB20EA74
:10503C00E07008BD13B50446007C0191FFF7ACFB92
:10504C000028019901DC607C20B1207CFFF7B4FBC7
:10505C0020EAE07002B010BD007CFFF7B5BB10B5C4
:10506C001421044600F08AF9204610BD10B54FF407
:10507C007A73044608460021C4E90113044B2360EB
:10508C000123207463741146FFF76EFB204610BD9C
:10509C00C0560D00007C0022FFF76EBB10B5142229
:1050AC000446002100F082F9204610BD10B50F4CCB
:1050BC0088B003A8FFF7F2FF2178BFF35B8F11F0E4
:1050CC0001010FD120460191FEF7E3FF019948B190
:1050DC0003AA0748FFF7CAFF2046FEF7DFFF054883
:1050EC0000F050F9024808B010BD00BF0CE70320D7
:1050FC0010E7032001500D00014B1860704700BFF2
:10510C00F8E5032008B50B4B43B1FFF7CFFF03685D
:10511C001B699847002801DDAFF30080064B43B1B3
:10512C00FFF726FF03681B699847002801DDAFF3E2
:10513C00008008BD000000000000000008B5FFF76B
:10514C00E1FFFFF731FA014B186008BD38E7032087
:10515C000548064A064908B5121A00F019F9054B1C
:10516C00054A1A6008BD00BF00F4032004F40320B4
:10517C0010570D0000F403201E1C279A07B50023BE
:10518C0000931A466FF07701FFF740FB03B05DF810
:10519C0004FB000007B543880A2B08D0502B0BD119
:1051AC00094B1B684BB103B05DF804EB1847FFF7D4
:1051BC00E5FF03B05DF804FB002300931A466FF083
:1051CC007701FFF723FBF4E728E7032010B512481B
:1051DC000021FFF7A5FB114B1A68114B9A42114B9A
:1051EC000CBF012200221A7001D0FFF7B1FFFFF7AC
:1051FC00D3F9044600F0E2F80B4B13B12046AFF3A1
:10520C00008000210848FFF713FBBDE81040074859
:10521C000021FFF7F1BA00BF05510D0000F4032087
:10522C001E1C279A24E7032000000000A1510D004A
:10523C00232813B502D9002002B010BDA0F10B0336
:10524C00022B1AD8174C2178BFF35B8F11F0010198
:10525C000BD120460191FEF71CFF019928B1124891
:10526C00FFF70CFE2046FEF719FF0F4B1878FFF7DF
:10527C0033FA0028DFD10120DEE7012809D800F03D
:10528C0059F80021007CFFF7EFF980F00100C0B263
:10529C00D2E709380128EED8FFF76AFE007CFFF749
:1052AC0053FAF2E72CE7032030E70320232838B524
:1052BC0004460D460AD8FF2908D0FFF7B9FF28B1DC
:1052CC0029462046BDE83840FFF776B938BD38B5D9
:1052DC0004460D46FFF778F9FF2810D0062804D8AD
:1052EC004D2323FA00F0C30709D42046FFF7A0FF93
:1052FC0028B129462046BDE83840FFF76DB938BDC6
:10530C007047000038B50023202543801423044641
:10531C000380856005610649284600F031F8044990
:10532C006060284600F02CF8E060204638BD00BFD5
:10533C00E8560D0030B50E4D2978BFF35B8F11F098
:10534C00010487B011D12846FEF7A3FE68B101A86D
:10535C00FFF7D8FF01AA21460648FFF7ABFB28460A
:10536C00FEF79CFE044800F00DF8024807B030BD73
:10537C003CE7032040E703200D530D00FEF787BEEA
:10538C00FEF783BE002301461A46184600F042B8C9
:10539C000A44914200F1FF3300D1704710B511F867
:1053AC00014B03F8014F9142F9D110BD0244034661
:1053BC00934200D1704703F8011BF9E738B50D4B48
:1053CC001D68AB6B04467BB91820FFF799FA0A4AA3
:1053DC000A4BA863C0E90023094B83600B2383812C
:1053EC0001220023C0E90423AB6B00221C615A612B
:1053FC0038BD00BFF8E503200E33CDAB34126DE69B
:10540C00ECDE0500034613F8012B002AFBD1181A19
:10541C00013870472DE9F843DFF8B8800646D8F814
:10542C0000001F460D46914600F056F8254B1C68AF
:10543C0034B9254C1C60254B13B11B68C4F888305B
:10544C0063681F2B07DDD8F8000000F047F84FF019
:10545C00FF30BDE8F8834EB3D4F8880088B91C4BF4
:10546C0023B9D8F8000000F038F8F0E74FF4847056
:10547C00FFF746FA0028F4D00023C0E94033C4F803
:10548C008800636840F8239001229A4000EB830166
:10549C00D0F800311343022EC0F80031C1F88070EF
:1054AC0002BFD0F804311A43C0F804216368D8F85D
:1054BC0000005A1C0233626044F8235000F00EF8CE
:1054CC000020C6E7E0E7032054E7032000000000BB
:1054DC000D490D005CE603207047704770470000D3
:1054EC001D400D0059400D0081400D0085400D0000
:1054FC00000000004D50553630353020636F6E6E15
:10550C00656374696F6E2073756363657373667519
:10551C006C004D50553630353020636F6E6E6563C0
:10552C0074696F6E206661696C656400496E69749C
:10553C0069616C697A696E672049324320646576CB
:10554C00696365732E2E2E0054657374696E672023
:10555C0064657669636520636F6E6E656374696FED
:10556C006E732E2E2E00612F673A0900000000008A
:10557C0000000000B3490D00A9490D009F490D0022
:10558C0055490D0093490D0087490D00954C0D00B0
:10559C009D4C0D007B490D0073490D0069490D00B0
:1055AC005F490D00CD4C0D00000000000000000014
:1055BC004B4A0D00414A0D00374A0D002D4A0D0093
:1055CC00214A0D00154A0D00954C0D009D4C0D0007
:1055DC00094A0D00014A0D00F7490D00ED490D0077
:1055EC00CD4C0D000000000000000000694A0D00C9
:1055FC00B34A0D008B4A0D006B4A0D00934A0D0007
:10560C009B4A0D00A34A0D00AB4A0D0000000000A0
:10561C00000000006F4B0D005F4B0D00614B0D0047
:10562C00617070000000000000000000554C0D007F
:10563C005F4C0D00694C0D00734C0D007D4C0D0042
:10564C00894C0D00954C0D009D4C0D00A54C0D008A
:10565C00B14C0D00B94C0D00C34C0D00CD4C0D00E0
:10566C0025592D256D2D25645425483A254D3A256F
:10567C0053257A0061736374696D65000000000046
:10568C0000000000D54E0D00434F0D001B4F0D00C8
:10569C00B54D0D00EB4E0D00074F0D00F94E0D00F2
:1056AC00154F0D00D74E0D00DD4E0D000000000013
:1056BC000000000003500D006B500D0041500D0018
:1056CC00B54D0D0033500D0005500D0015500D005B
:1056DC0065500D0025500D00FD4F0D000000000021
:1056EC0071420D0045490D00BD490D00554A0D0094
:1056FC00454C0D00A14D0D007D4E0D009D4E0D0035
:04570C00C14E0D007D
:045710000000000095
:1057140007000000E803000080560D00FCE50320AC
:105724000000000000000000000000000000000075
:105734000000000000000000000000000000000065
:105744000000000000000000000000000000000055
:105754000000000000000000000000000000000045
:105764000000000000000000000000000000000035
:105774000000000000000000000000000000000025
:04578400E5E7032032
:10578800FFFFFFFF00000102030405060708090ADE
:105798000B0C0D0E0F101112131415161718191AD9
:0857A8001B1C1D1E1F20280020
:0457B00078563412E1
:04000003D000401CCD
:00000001FF
