:02000002D0002C
:1040000000400D00E0930D00000006000D000501CA
:084010000401BD0B00000000DB
:044018002C8C0D00DF
:1040200009480A49884208B505D0094A824202D0A7
:10403000121A04F077FD0748074A0021121A04F00B
:104040007FFD014808BD00BFA8E403203C930D009C
:1040500024E5032028E50320F8E7032070B5074E88
:10406000074C03F045FDA41BA4080025A54200D180
:1040700070BD56F8043B98470135F7E700930D00F3
:1040800028930D0000F0BEB908B500F00BFABDE8AA
:10409000084003F0EFBC01F085BF01F083BF01F0E1
:1040A00089BF0078B0FA80F040097047012303709F
:1040B0007047000010B5034B0360044601F00EF892
:1040C000204610BD088F0D0010B50446FFF7F2FF23
:1040D0002046102103F043FE204610BDF8B5037DB5
:1040E00005460F4616468BB10368DB6883B19A8894
:1040F000012A06D09B68F9E79B684BB19A88012A90
:10410000FAD12BB19A89BA42F6D19E732846F8BDEE
:104110000A49102003F025FE044668B11022002150
:1041200004F00EFD064B23600123A3802B69A360DE
:10413000A781A6732C61E9E72875E7E7A4920D0033
:10414000100003000EB410B58DB00FAA016852F82C
:10415000044B039200232020CDE90403CDE9004263
:104160001E2004AA01F00CFE0DB0BDE8104003B003
:104170007047000008B50A4802F0EBFD094841F21B
:10418000CC03C380084B8360002141F2720383811A
:1041900001F05CFE054902460548FFF7D3FF08BD64
:1041A00041E603207CE5032026025203408C0D00EB
:1041B00004E703200000000010B50F202DED028B56
:1041C00003F030FD4FF47A7001F060FF0F2003F030
:1041D00029FD04464FF47A7001F058FF204603F0A1
:1041E00019FF2BA3D3E9002303F07EFF04F036FA76
:1041F000DFED1F7A07EE100A67EE277A17EE900AB6
:1042000003F01AFF1B4B002203F0B6FD00221A4BED
:1042100003F06AFF04F022FA184B186008EE100A47
:1042200003F00AFF164B002203F05EFF154B00223D
:1042300004F084F8144B002203F0A0FD04F00EFA01
:10424000FBEE047A114BB4EEE78AF1EE10FA186037
:104250000BD4F3EE0E7AB4EEE78AF1EE10FAD4BF87
:1042600001200020BDEC028B10BD0020FAE700BF4A
:10427000000080390000E03F0000594098E603202C
:104280000000224000001440000040409CE6032053
:104290006666666666660A4010B5074C01F000FC6B
:1042A0002368C01AB0F57A7F04D301F0F9FB2060CF
:1042B000012010BD0020FCE750E5032030B5044686
:1042C00085B00D46FFF7E8FF10B901F0D3FDF9E71F
:1042D000FFF7E2FF0E4B2A681B788DF8003021684B
:1042E0003C2302A802F0B6F8039C7CB16368013B52
:1042F00063605BB9236820469B689847A368013BCD
:10430000A3601BB923682046DB68984705B030BD21
:104310004CE503207FB504460D461E468AB1014692
:10432000684602F012FF0B49684602F070FF29460A
:1043300002F061FF01680848FFF704FF684602F0D9
:1043400079FE1EB129462046FFF7B8FF012004B0D0
:1043500070BD00BF598C0D0004E7032030B585B057
:104360000D4600226946009201F012FDB0B9009C92
:104370000CB1236923B90A4A00210A2001F0F0FC9C
:104380000023ADF806300C23ADF80430042303936A
:104390000295236901AA01212046984705B030BD46
:1043A000915A0D0038B503681446DD680123A8470B
:1043B000204638BD70B50F4D0F4A00241121284604
:1043C0001470FFF7EFFF0D4A092128461470FFF71C
:1043D000E9FF0B4A0126102128461670FFF7E2FF7D
:1043E0003146052003F005FC21460520BDE870405C
:1043F00003F0FFBBE4E5032040E6032084E603204E
:10440000C0E6032007B503F0ADFA4FF4E13103F045
:104410009DFAFFF7AFFE0021042003F0D9FB002135
:10442000082003F0D5FB0121072003F0D1FB012177
:10443000052003F0CDFB0121052003F0DAFB00216C
:10444000052003F0D6FB0121062003F0C1FB00216B
:10445000132003F0BDFB0021132003F0CAFB03F07F
:1044600037F8F1EE047A30EE670A03F00FF80A48E5
:1044700001F076F9094800F047FE0023009308494F
:104480004FF0FF330122082002F0F6FA03B05DF886
:1044900004EBFFF78FBF00BF68E60320E4E50320CD
:1044A000B5430D002DE9F041994C9A4894B001F0C4
:1044B0005DFA2378023B062B00F2AA80DFE813F0B6
:1044C00007007E00AB00D9006A015E03800301F0A3
:1044D000E1FC914E054600284ED090490AA802F012
:1044E000F4FD8F490EA802F0F0FD002301220EA971
:1044F0000AA8FFF70FFF0EA802F09CFD0AA802F021
:1045000099FD884B1B78C3B187490AA802F0DDFDED
:1045100086490EA802F0D9FD01231A460EA90AA861
:10452000FFF7F8FE0EA802F085FD0AA802F082FD52
:1045300001F0B6FA3060032369E07D4F7D4D7E487F
:1045400001233A46092100F0E9FD01237A482A4671
:10455000112100F0E3FD3B782BB173490AA802F06A
:10456000B4FD7649D5E72B78002BE1D06E490AA837
:1045700002F0ABFD7249CCE701F084FC01F090FA47
:104580003368C01A6F4B984242D964490AA802F0B6
:104590009CFD6D490EA802F098FD2B4601220EA944
:1045A0000AA8FFF7B7FE0EA802F044FD0AA802F021
:1045B00041FD01F075FA3060072328E0564D01F007
:1045C0006FFA2B68C01AB0F57A7F21D35F490AA829
:1045D00002F07BFD5E490EA802F077FD0023012268
:1045E0000EA90AA8FFF796FE0EA802F023FD0AA85E
:1045F00002F020FD574B01221A60574B00221A602F
:10460000564B00221A6001F04BFA042328602370F5
:1046100014B0BDE8F081102003F004FB4E4D504A69
:10462000504E10602A68034613444A4A2B601368B0
:10463000591C1160326893421BDD64234A4A4B497E
:10464000009312680968002301F014FD484B32689A
:1046500018602B6893FBF2F307EE903A3F4BF8EEAD
:10466000E77AC3ED007A01F01BFA2B4B18600523A3
:104670002370294D01F014FA2A68801AB0F57A7F68
:10468000C6D3FFF799FD3B4E00283CD096ED000ABB
:1046900002210EA802F07EFD37480EA902F060FD4F
:1046A0000EA802F0C7FC35490AA802F00EFD3449F5
:1046B0000EA802F00AFD01231A460EA90AA8FFF768
:1046C00029FE0EA802F0B6FC0AA802F0B3FC2D48A1
:1046D00002F0C3FB2C490AA802F0F7FC2B490EA8F4
:1046E00002F0F3FC002301220EA90AA8FFF712FE34
:1046F0000EA802F09FFC0AA802F09CFC01F0D0F981
:104700000623286083E722491B4802F031FDCAE7EF
:10471000B0E4032068E6032094E603205C8C0D00DF
:10472000658C0D00C0E60320788C0D00858C0D0093
:1047300084E6032040E60320E4E50320978C0D0087
:10474000A38C0D00E0930400AF8C0D00CA8C0D000B
:10475000DE8C0D008CE6032090E6032088E6032023
:1047600054E50320ACE40320A8E403203CE6032046
:10477000A0E5032098E60320A0E60320EF8C0D00BF
:10478000F58C0D0041E60320068D0D00118D0D0006
:10479000ED8C0D0003F0E6F8B84B1D68002D0646C1
:1047A00080F2E5812D2102F09BFB69420A2230460E
:1047B000B34F02F0A4FB304602F095FB03F0D2F8B1
:1047C0003D68002D064680F2D4812D2102F088FB41
:1047D00069420A22304602F092FB304602F083FB27
:1047E000A849A948A94DAA4E02F0C2FCA949AA4865
:1047F00002F0BEFCA9490EA802F067FCA84B18689D
:1048000003F01AFC02460B460AA8A64902F014FD62
:104810000AA90EA802F0EFFCA34902F0F8FC9E4999
:1048200002F0E9FCA14902F0F2FC0146A04802F0C6
:104830007DFC0AA802F0FEFB0EA802F0FBFB9249E9
:104840000AA802F082FC9A490EA802F07EFC01231D
:104850001A460EA90AA8FFF75DFD0EA802F0EAFBB2
:104860000AA802F0E7FB9349874802F081FC9249CD
:10487000894802F07DFC89490EA802F026FC3A68BE
:104880008E490AA802F0D8FC0AA90EA802F0B3FCCF
:10489000854902F0BCFC804902F0ADFC834902F07E
:1048A000B6FC0146824802F041FC0AA802F0C2FBB5
:1048B0000EA802F0BFFB74490AA802F046FC7C492E
:1048C0000EA802F042FC0EA90AA8FFF7F7FC0EA8FA
:1048D00002F0B0FB0AA802F0ADFB0EA91820FFF70A
:1048E0003DFD0028A8BF0E9828600EA90720FFF7FD
:1048F00035FD2B68724A002823EAE373A8BF0E989F
:1049000052F8231030606F4802F032FC33686E4A70
:104910006E4823EAE37352F8231002F029FC0EA933
:104920000320FFF71BFD002840F02581BDF838303B
:1049300000EE103ABBEECC0A02210EA802F02AFCCF
:104940000EA9634802F00CFC0EA802F073FB61484C
:1049500001F0A4FF02210EA802F01CFC0EA95E4883
:1049600002F0FEFB0EA802F065FB5A4801F0B2FF10
:1049700002210EA802F00EFC0EA9584802F0F0FB2E
:104980000EA802F057FB56490AA802F09EFB4D49BB
:104990000EA802F0DAFB01231A460EA90AA8FFF7B7
:1049A000B9FC0EA802F046FB0AA802F043FB4D49F1
:1049B0000AA802F08AFB45490EA802F0C6FB0123B3
:1049C0001A460EA90AA8FFF7A5FC0EA802F032FBB2
:1049D0000AA802F02FFB44490AA802F076FB3C49E2
:1049E0000EA802F0B2FB01231A460EA90AA8FFF78F
:1049F00091FC0EA802F01EFB0AA802F01BFB3B492B
:104A00000AA802F062FB34490EA802F09EFB0123C3
:104A10001A460EA90AA8FFF77DFC0EA802F00AFBB1
:104A20000AA802F007FB32490AA802F04EFB2B4904
:104A30000EA802F08AFB01231A460EA90AA8FFF766
:104A400069FC0EA802F0F6FA0AA802F0F3FA294966
:104A50000D4802F08DFB28490F4802F089FB0F49F1
:104A60000EA802F032FB1C490EA802F0C4FB0E494E
:104A700002F0CDFB084902F0BEFB3FE054E5032005
:104A8000A0E50320258D0D00D4E5032064E6032076
:104A900078E503203C8D0D00C4E50320598D0D0001
:104AA00088E60320668D0D006B8D0D007A8D0D005C
:104AB000B4E503207D8D0D009F8D0D00568C0D00FB
:104AC000848F0D0054E603209C8F0D0044E60320E4
:104AD00068E50320F4E503203CE503202CE50320F2
:104AE000BC8D0D00CA8D0D00D88D0D00E78D0D0019
:104AF000F58D0D00018E0D00198E0D00A94902F0F3
:104B000086FB0146A84802F011FB0EA802F092FABB
:104B1000A6490AA802F019FBA3490EA802F015FB4A
:104B20000EA90AA8FFF7CAFB0EA802F083FA0AA88A
:104B300002F080FA9E490AA802F0C7FA9D490EA821
:104B400002F0C3FA002301220EA90AA8FFF7E2FB34
:104B50000EA802F06FFA0AA802F06CFA00210720F2
:104B600003F047F800F09CFF934B186024E52946BA
:104B70001CE629462DE6BFEE000ADDE68E4D00F06C
:104B80008FFF2B68C01A8D4B98427FF641AD8C4940
:104B90000AA802F09AFA8B490EA802F096FA0023AE
:104BA00001220EA90AA8FFF7B5FB0EA802F042FAEF
:104BB0000AA802F03FFA00F073FF0823286026E5F8
:104BC000814B1D78002D40F031817D49DFF8208236
:104BD0007E4F0AA802F079FA7D490EA802F075FA14
:104BE0002B4601220EA90AA8FFF794FB0EA802F09B
:104BF00021FA0AA802F01EFA42461121754888F8E7
:104C00000050FFF7CFFB3A46092172483D70FFF78D
:104C1000C9FB714A6F4815701021FFF7C3FB0FAB3A
:104C200001220E9313216D4B0F930EA8CDE9115560
:104C3000ADF841508DF843508DF84C208DF8402050
:104C4000FFF74CFA037D0646EBB10368DB682BB136
:104C50009A88042A00F00F819B68F8E760491020C9
:104C600003F07FF80546002800F0038110220021A0
:104C700003F066FF594B2B600423AB803369AB60B4
:104C8000584BEB6035610EA903A802F039FB0021F7
:104C9000132002F0AEFF039B2BB39D88012D22D180
:104CA0009B895149132B06A840F0AA8002F00DFA07
:104CB0004E490AA802F009FA2A4600230AA906A8C2
:104CC000FFF728FB0AA802F0B5F906A802F0B2F92E
:104CD0002946072002F08DFF454A88F8005011212F
:104CE0003C48FFF75FFB039BB3B19B88042B13D1B8
:104CF0003D4906A802F0E9F93E490AA802F0E5F9A3
:104D0000002301220AA906A8FFF704FB0AA802F063
:104D100091F906A802F08EF9039BB3B19B880E2B84
:104D200013D1314906A802F0D0F933490AA802F09C
:104D3000CCF9002301220AA906A8FFF7EBFA0AA87A
:104D400002F078F906A802F075F9039B0BB19B8875
:104D50009BB9254906A802F0B8F928490AA802F02B
:104D6000B4F9002301220AA906A8FFF7D3FA0AA87A
:104D700002F060F906A802F05DF900F091FE0E4B1A
:104D8000186003980223237008B101F013F91298F8
:104D900000283FF43DAC84680C2102F0E0FF20467F
:104DA000F6E700BF7A8D0D00B4E50320D4E50320BB
:104DB000178D0D00368E0D0094E60320BFD4010040
:104DC000FA8E0D004D8E0D009CE5032084E6032035
:104DD0005C8E0D00E4E50320C0E603201000030014
:104DE000A4920D0040771B00788C0D006D8E0D0095
:104DF00040E60320958E0D00B08E0D00CF8E0D0085
:104E000002F063F91D490AA802F05FF92A460AA9CF
:104E1000002306A8FFF77EFA0AA802F00BF906A8FD
:104E200002F008F9164A3D70092159E7154D00F0C6
:104E300037FE2B68C01A42F20F7398427FF6E8AB38
:104E400011490AA802F041F910490EA802F03DF9F3
:104E5000002301220EA90AA8FFF75CFA0EA802F0AF
:104E6000E9F80AA802F0E6F800F01AFE2860FFF759
:104E700062BB307507E7064ADA6004E7818E0D00F1
:104E800084E6032094E60320FA8E0D00EE8E0D00DA
:104E900040771B00F8B5724B724D734C734E744FD4
:104EA00001201870002100F095FF02F003FF014679
:104EB000284600F05DFB22466E49284602F04AFF74
:104EC00002F0F8FE6C4D014600234FF400522846D4
:104ED00000F010F9694B2B6022466949284602F020
:104EE00039FF684D3146384602F0EFF83846664FD4
:104EF0002246294602F02EFF3146384602F0E5F8F8
:104F00003846624F2246294602F024FF3146384691
:104F100002F0DBF838465E4F2246294602F01AFFBF
:104F2000314638465B4E02F0D0F838465A4F22469A
:104F3000294602F00FFF3146384602F0C6F83846DF
:104F4000564F2246294602F005FF3146384602F008
:104F5000BCF83846524F2246294602F0FBFE314645
:104F6000384602F0B2F838464E4F2246294602F043
:104F7000F1FE3146384602F0A8F838464A4F22463C
:104F8000294602F0E7FE3146384602F09EF83846E0
:104F9000464F2246294602F0DDFE3146384602F0F1
:104FA00094F83846424F2246294602F0D3FE314655
:104FB000384602F08AF838463E4F2246294602F02B
:104FC000C9FE3146384602F080F838463A4F22464C
:104FD000294602F0BFFE3146384602F076F83846E0
:104FE000364F2246294602F0B5FE3146384602F0D9
:104FF0006CF83846324F2246294602F0ABFE0021BB
:10500000384601F09EFE22462E49384602F0A2FEA6
:105010002D4B202718463A46002103F091FD477199
:105020002A4F0021384601F0E3FB3846284F294932
:10503000224602F08FFE3146384602F046F83846E6
:10504000254F2246294602F085FE3146384602F0B9
:105050003CF8224629463846BDE8F84002F07ABEC0
:105060004CE5032068E6032028E50320ED8C0D00C5
:1050700058E50320FB520D00E4E50320088F0D00E6
:10508000B5400D0035700D00A4E50320A0E6032017
:10509000B0E60320C4920D002CE603201CE603209A
:1050A000FCE503200CE60320D4E50320C4E503203F
:1050B000B4E5032054E6032044E6032068E503201A
:1050C00041E60320816D0D007CE50320F4E503201B
:1050D0003CE5032011680D002CE50320704710B556
:1050E0001021044602F03BFE204610BD0368C9B201
:1050F0009B68184730B5034DC0E90223C0E9005151
:1051000030BD00BFC08F0D00406801F04BBC10B532
:105110000446006801F0A5FC204610BD2DE9F743C8
:105120000446406801900D4616461F4601F090FC6B
:10513000A7B1E168606841F0500101F066FC290AFE
:105140006068FFF7D3FF29466068FFF7CFFF60680C
:10515000002101F075FC48B1002400E0012401A801
:10516000FFF7D5FF204603B0BDE8F083202F217B59
:105170006068B84628BF4FF020080123424641F03E
:10518000500101F02CFC02F095FD03681B69984763
:105190004045E1DB06EB080902F08CFD03685B6922
:1051A000984706F8010B4E45F6D14544A7EB080792
:1051B000BEE72DE9F74F0446406801900E46904641
:1051C0001D4601F045FC4FF00109B9F1000F2AD04E
:1051D0004DB3E168606841F0500101F016FC310AFE
:1051E0006068FFF783FF60683146FFF77FFFA5F136
:1051F0001E0A4746A6EB080B606817F8011B0368F8
:10520000013D9B68984755450BEB0706B84601D012
:10521000002DF1D16068012101F012FC0028D7D0E7
:105220004FF00009D1E701A8FFF771FF484603B02E
:10523000BDE8F08F2DE9F0438BB00E461546804651
:10524000406801901C4601F003FCAE4229D226447E
:1052500025448CB11E2C2746D8F8003028BF1E27C5
:10526000F61BD3F8089002AA3B4631464046ED1B98
:10527000C84748B9002400E0012401A8FFF747FF10
:1052800020460BB0BDE8F083D8F8003002AAD3F86E
:105290000C9029463B464046C8470028EAD0E41B0C
:1052A000D7E7E9D9002CE7D0D8F800301E2C2746E4
:1052B00028BF1E27D3F8089002AA3B463146404635
:1052C000C8470028D6D0D8F8003002AAD3F80C90EE
:1052D00029463B464046C8470028CBD03E443D4483
:1052E000E41BDFE7402070470020704780207047B4
:1052F000FF207047704770477047704710B5142102
:10530000044602F02CFD204610BD10B508210446CD
:1053100002F025FD204610BD10B50821044602F01C
:105320001EFD204610BD10B51C21044602F017FDDD
:10533000204610BD2DE9FF410368DB68044698470D
:1053400010220146684603F0FBFB236820469B6859
:105350009847002507462846BD420ED27E1B23688B
:10536000102E28BF1026D3F818806A4633462946E7
:105370002046C04708B13544EEE704B0BDE8F081EF
:105380004FF48073438140F20113C3600023038212
:105390007047000008B5064B0360064B436040F2BF
:1053A0000473038100234374FFF7EAFF08BD00BFC5
:1053B000A0900D000001020303090A2200F00F0073
:1053C00002FB0300704708B5807AFFF7F5FF00F590
:1053D000FA6008BDC07A00F01F00FFF7EDBF007B48
:1053E00000F03F00FFF7E8BF08B5817B4A060DD506
:1053F00001F01F00FFF7E0FF8B0603D50C2800D05B
:105400000C3008BD0C2808BF0020FAE7BDE80840B2
:1054100001F03F00FFF7D0BFC07B00F07F00FFF737
:10542000CBBF007C00F07F00FFF7C6BF10B58AB08D
:1054300024220446002101A803F082FB2046FFF746
:10544000C2FFA0F26C7006902046FFF7C3FF013840
:1054500005902046FFF7C3FF04902046FFF7C4FFE6
:1054600003902046FFF7D8FF02902046FFF7D9FFB0
:10547000019001A800F0F6FD0AB010BD0A2190FBD2
:10548000F1F292FBF1F301FB13231B01DBB201FBF1
:1054900012001843C0B27047642310B5044691FB54
:1054A000F3F000FB1310FFF7E9FFA07210BD10B579
:1054B00004460846FFF7E2FFE07210BD10B504464F
:1054C0000846FFF7DBFF237B23F03F0318432073DD
:1054D00010BD10B50446481CFFF7D0FF637B23F0D6
:1054E00007031843607310BD10B504460846FFF764
:1054F000C5FFA07310BD10B504460846FFF7BEFFF8
:10550000E07310BD10B504460846FFF7B7FF237CD3
:1055100023F07F031843207410BD37B50446684656
:10552000CDE9002303F0ECFA054641692046FFF778
:10553000B3FF296920460131FFF7B9FFE96820462A
:10554000FFF7BCFFA9692046FFF7C3FFA968204603
:10555000FFF7CAFF69682046FFF7CDFF29683B299E
:10556000A8BF3B212046FFF7CDFF03B030BD0000B0
:10557000054A0061C0E90021044A8260044AC26011
:10558000044A806142617047D4900D00000001031D
:105590007C900D00B0900D002DE9F84F04460F46A9
:1055A0009046994600260A9B9E4231D26068394651
:1055B00001F027FA08EB06016068FFF797FD6068C5
:1055C000002101F03DFA0546D0B90A9B60689A1B9C
:1055D000202A4FF0010328BF2022394601F0FFF9AD
:1055E00009EB060B05460BEB000ADA4506D06068AE
:1055F00003685B6998470BF8010BF6E72E44D2E786
:10560000024604490448FEF79DFD2846BDE8F88F90
:105610000025FAE7D48F0D00C4E603202DE9F341FD
:1056200001EB03081E4603689B6805460C461746B7
:10563000984780450DD82034686800963B46E2B212
:105640006F21FFF7A9FFB0FA80F0400902B0BDE872
:10565000F0810020FAE72DE9F34101EB03081E4633
:1056600003689B6804460D461746984780450CD84A
:10567000606800963B46EAB25721FFF78DFFB0FA0B
:1056800080F0400902B0BDE8F0810020FAE77FB564
:105690001E1E0CBF072306230093144602AB0A46C6
:1056A0006F21FFF779FF0546A8B99DF808302374EC
:1056B0009DF80930E3739DF80A30A3739DF80B3011
:1056C00063739DF80C3023739DF80D30E3722EB98F
:1056D0009DF80E30A372284604B070BD02F036F873
:1056E000FFF7CCFEA072F6E71FB501230A46009330
:1056F0006F2103ABFFF750FF20B99DF80C0005B0F8
:105700005DF804FB0020FAE708B50321FFF7ECFF82
:10571000C0F3401008BD38B500230C460A461946B0
:105720000546FFF7B4FF30B9A37A23B12846BDE898
:105730003840FFF7E9BF002038BD7FB5024601A819
:10574000FFF728FE01A91046FFF7E5FF28B101A8E1
:10575000FFF76CFE07B05DF804FB00200146F9E797
:10576000D0B5044686B0406801F01CF901F0C0FFD6
:10577000E8B9E37A9B071AD52046FFF7DEFF064615
:105780000F4656EA070312D001F0B8FE0A4B0B4948
:105790001B68009332463B4602A801F067FF0848A9
:1057A000029A0849FEF7CEFC02A801F043FC01234F
:1057B000237206B0D0BD00BFB4E4032030E703205D
:1057C000C4E60320EE8F0D002DE9F84F064688460B
:1057D00091469A4600250A9B9D4229D2706841460F
:1057E00001F00FF9706809EB0501FFF77FFC0A9BD8
:1057F0005F1B1F2F28BF1F270AEB050407EB040BB5
:10580000706814F8011B026892689047A345F7D1AD
:105810007068012101F014F9044638B102460549C7
:105820000548FEF78FFC2046BDE8F88F3D44D2E7DF
:105830000024F8E703900D00C4E603202DE9F341AE
:1058400001EB03081E4603689B6805460C46174695
:10585000984780450DD82034686800963B46E2B2F0
:105860006F21FFF7B1FFB0FA80F0400902B0BDE848
:10587000F0810020FAE71FB5137C8DF80830D37B48
:105880008DF80930937B8DF80A30537B8DF80B30FF
:10589000137B8DF80C30D37A8DF80D30937A8DF818
:1058A0000E30072300930A4602AB6F21FFF78CFFEF
:1058B00005B05DF804FB10B588B0044603A8019359
:1058C000FFF768FD019B03A8FFF727FE9DF81C303A
:1058D000A27A63F07F038DF81C309DF819306AB10D
:1058E00043F0080303AA002120468DF81930FFF782
:1058F000C2FFB0FA80F0400908B010BD03F0F70312
:10590000F0E70000F0B587B0054601F0F1FE04466F
:10591000E8B101F00AFFC717024606463B46284693
:10592000FFF7C9FF0C4B0D491B68009332463B46FD
:10593000044602A801F09AFE0948029A0949FEF7B6
:1059400001FC02A801F076FB204607B0F0BD064935
:105950000348FEF7F7FBF7E7B4E4032030E7032042
:10596000C4E603201E900D0034900D0037B5457A33
:1059700004469DB901F0BCFE80B1002200236946B7
:105980002846CDE9002300F09DFA38B1E37ADB0721
:1059900002D52046FFF7B6FF0123637203B030BD86
:1059A00038B5044632256068572101F02AF860684E
:1059B000012101F045F808B1013DF4D138BD0000E6
:1059C0002DE9F04104460F46164602EB0308B045A8
:1059D00020D06068572101F014F839466068FFF75D
:1059E00085FB606816F8011B03689B689847606830
:1059F000012101F025F80137054638B10246064974
:105A00000648FEF79FFB2846BDE8F0812046FFF7D9
:105A1000C7FFDCE70025F6E749900D00C4E6032048
:105A2000F7B5CF181E46036801929B6804460D46E1
:105A3000984787420AD8019A60683346E9B2FFF76F
:105A4000BFFFB0FA80F0400903B0F0BD0020FBE7D3
:105A5000014B024A1A607047C4E603206A900D00A9
:105A600008B5024B1B685B6C019308BD480203003C
:105A700008B5024B1B689B6C019308BD48020300EC
:105A800008B5024B1B685B68019308BD1802030050
:105A900008B5024B1B68DB68019308BD18020300C0
:105AA00008B5024B1B685B69019308BD180203002F
:105AB00008B5024B1B689B6D019308BD18020300DB
:105AC00008B5024B1B685B6E019308BD180203000A
:105AD00008B5024B1B689B6E019308BD18020300BA
:105AE00008B5024B1B685B68019308BD2C020300DC
:105AF00008B5024B1B689B68019308BD2C0203008C
:105B000008B5024B1B68DB68019308BD2C0203003B
:105B100008B5024B1B681B69019308BD2C020300EA
:105B200008B5024B1B689B69019308BD2C0203005A
:105B300008B5024B1B68DB69019308BD2C0203000A
:105B400008B5024B1B681B6B019308BD2C020300B8
:105B500008B5024B1B68DB68019308BD28020300EF
:105B600008B5024B1B689B69019308BD280203001E
:105B700008B5024B1B68DB69019308BD28020300CE
:105B800008B5024B1B681B6A019308BD280203007D
:105B900008B5024B1B685B6A019308BD280203002D
:105BA00008B5024B1B689B6A019308BD28020300DD
:105BB00008B5024B1B68DB6A019308BD280203008D
:105BC00008B5024B1B681B6B019308BD280203003C
:105BD00008B5024B1B685B6B019308BD28020300EC
:105BE00008B5024B1B681B6C019308BD280203001B
:105BF00008B5024B1B689B6C019308BD280203008B
:105C000008B5024B1B68DB6C019308BD280203003A
:105C100008B5024B1B681B6D019308BD28020300E9
:105C200008B5024B1B685B69019308BD6402030061
:105C300008B5024B1B689B68019308BD680203000E
:105C400008B5024B1B68DB68019308BD68020300BE
:105C500008B5024B1B68DB69019308BD30020300E5
:105C600008B5024B1B681B6A019308BD3002030094
:105C700008B5024B1B681B68019308BD3C0203007A
:105C800008B5024B1B68DB68019308BD3C020300AA
:105C900008B5024B1B681B69019308BD3C02030059
:105CA00008B5024B1B685B69019308BD3C02030009
:105CB00008B5024B1B689B69019308BD3C020300B9
:105CC00008B5024B1B68DB69019308BD3C02030069
:105CD00008B5024B1B681B6A019308BD3C02030018
:105CE00008B5024B1B689B6A019308BD3C02030088
:105CF00008B5024B1B681B68019308BD4C020300EA
:105D000008B5024B1B685B68019308BD4C02030099
:105D100008B5024B1B681B69019308BD4C020300C8
:105D200008B5024B1B685B69019308BD4C02030078
:105D300008B5024B1B689B69019308BD4C02030028
:105D400008B5024B1B68DB69019308BD4C020300D8
:105D500008B5024B1B681B6A019308BD4C02030087
:105D600008B5024B1B685B6B019308BD6002030022
:105D700008B5024B1B681B6D019308BD6002030050
:105D800008B5024B1B685B6D019308BD6002030000
:105D900008B5034B1B68D3F89830019308BD000089
:105DA0006002030008B5024B1B681B68019308BD25
:105DB0002002030008B5024B1B685B68019308BD15
:105DC0002002030008B5024B1B685B69019308BD04
:105DD0002002030008B5024B1B68DB6A019308BD73
:105DE0002002030008B5024B1B68DB6C019308BD61
:105DF0002002030008B5024B1B685B6D019308BDD0
:105E00002002030008B5024B1B689B6D019308BD7F
:105E10002002030008B5024B1B68DB6D019308BD2F
:105E20002002030008B5034B1B68D3F888300193A8
:105E300008BD00002002030008B5034B1B68D3F81F
:105E40009430019308BD00002002030008B5034B05
:105E50001B68D3F8A830019308BD0000200203009E
:105E600008B5034B1B68D3F8AC30019308BD0000A4
:105E70002002030008B5024B1B689B68019308BD14
:105E80004402030008B5024B1B68DB68019308BDA0
:105E90004402030008B5024B1B685B69019308BD0F
:105EA0004402030008B5024B1B681B6A019308BD3E
:105EB0004402030008B5024B1B681B6B019308BD2D
:105EC0004402030008B5024B1B685B6B019308BDDD
:105ED0004402030008B5024B1B68DB6B019308BD4D
:105EE0004402030008B5024B1B685B68019308BDC0
:105EF0004002030008B5024B1B689B68019308BD74
:105F00004002030008B5024B1B68DB68019308BD23
:105F10004002030008B5024B1B681B69019308BDD2
:105F20004002030008B5024B1B685B69019308BD82
:105F30004002030008B5024B1B689B69019308BD32
:105F40004002030008B5024B1B68DB69019308BDE2
:105F50004002030008B5024B1B681B6A019308BD91
:105F60004002030008B5024B1B681B6B019308BD80
:105F70004002030008B5024B1B685B6B019308BD30
:105F80004002030008B5024B1B681B6C019308BD5F
:105F90004002030008B5024B1B685B6C019308BD0F
:105FA0004002030008B5024B1B681B68019308BD43
:105FB0001C02030008B5024B1B685B68019308BD17
:105FC0001C02030008B5024B1B689B68019308BDC7
:105FD0001C02030008B5024B1B681B69019308BD36
:105FE0001C02030008B5024B1B68DB69019308BD66
:105FF0001C02030008B5024B1B685B6A019308BDD5
:106000001C02030008B5024B1B68DB6A019308BD44
:106010001C02030008B5024B1B681B6B019308BDF3
:106020001C02030008B5024B1B685B6C019308BDA2
:106030001C02030008B5024B1B689B6C019308BD52
:106040001C02030008B5024B1B68DB6C019308BD02
:106050001C02030008B5024B1B681B6D019308BDB1
:106060001C02030008B5024B1B685B6D019308BD61
:106070001C0203008A4210B507D0029C401AE41AA1
:106080006043521A90FBF2F0184410BD0021FFF754
:1060900099BE10B5836804460BB901F066FEC3686B
:1060A0009847A3681BB10322214620469847204603
:1060B0001021BDE8104001F052BE10B5036804463F
:1060C0009B689847A368013BA3602BB923682046CF
:1060D000DB68BDE81040184710BD10B504460068E5
:1060E00008B1FFF7C5FC204610BD10B58368044613
:1060F00013B1032201469847204610BD0B68036088
:1061000013B15A6801325A60704710B504460068EE
:1061100028B14368013B43600BB9FFF7CEFF20462F
:1061200010BD13B50B460246D0E900016C4684E869
:10613000030093E8030082E8030094E8030083E887
:10614000030002B010BD000010B5064C002320462D
:106150002360FFF785FC2046034A0449BDE8104050
:1061600001F0F8BDC8E6032028E50320DB600D0040
:10617000002240681146FFF7CDBE0022406811465C
:10618000FFF7E8BE002240681146FFF7F3BE406803
:106190000022FFF7E7BE4068002281F00101FFF70F
:1061A000D1BE002340681A461946FFF7C3BE00233C
:1061B00040681A461946FFF7B5BE002240681146EE
:1061C000FFF798BE406800220221FFF79BBE002324
:1061D00040681A46FFF786BE084B10B528242246B1
:1061E0001846002102F0ACFC054B04804FF0FF3252
:1061F000426004225A60034A1A6010BDD4E60320AC
:10620000CCE60320E4900D0070470020704710B5E5
:106210001021044601F0A3FD204610BD08B5FFF78C
:10622000F6FF08BD30B500224FF69C7402608480F2
:106230008D888C800C68858004600A6030BD10B544
:1062400004460068FFF7B6FE204610BD38B5C468A6
:10625000F4B12378022B03D104F10C00FFF7EFFF18
:10626000656835B12846FFF740FF1021284601F048
:1062700076FDA56835B12846FFF737FF102128467F
:1062800001F06DFD20461421BDE8384001F067BDE6
:1062900038BD73B50E46044656F8043B00930D46D0
:1062A00001A83146FFF72AFF019A009B6260236034
:1062B00001A8002301930093FFF727FF3046FFF763
:1062C00024FF2846082101F04AFD204602B070BD97
:1062D000826810B50AB901F048FDBDE81040C368F6
:1062E000184708B5006800F11001FFF7F1FF08BD7D
:1062F000826810B50AB901F038FDBDE81040C368E6
:10630000184708B5006800F11001FFF7F1FF08BD5C
:1063100038B500230446036010200D46FDF7BBFE90
:1063200028B10123C0E90133024B0360C56020603E
:10633000204638BD20910D0038B5002383608B685E
:1063400004460D462BB102229847EB68E360AB6828
:10635000A360204638BD0000F0B589B004686846E7
:10636000FFF760FF4FF00203D4E84F2F002A03D15C
:10637000C4E8413F0029F7D125D104F10C05694655
:106380002846FFF74FFFBFF35B8F012363700020A8
:1063900004F10803BFF35B8F53E8006F43E800028A
:1063A000002AF9D1BFF35B8F6EB1FFF71BFD78B107
:1063B00029463046FFF78CFF3046FFF796FE102146
:1063C000304601F0CCFC6846FFF739FF09B0F0BD5C
:1063D000314602A8FFF7B0FFE068B4F9105008B1E9
:1063E00002F0ECFB06901020ADF81C50FDF753FEB8
:1063F0000546E8B1002787601820FDF74CFE0446EB
:1064000088B10146876002A8FFF78BFE049BA26853
:10641000A360059B049206A9E268E36004F1100002
:106420000592FFF7FFFE084BEB60084B2C60AB605A
:1064300006A8FFF704FF02A8FFF757FE002229462F
:106440000348FFF7D7FCB7E7E3620D0079650D005D
:1064500093600D002DE9F0478AB005469DF84890FD
:106460000C4617469846FFF715FD07AE824638BB27
:106470004FF62E73059005A93046ADF81830FFF79A
:10648000D1FE1420FDF707FE044648B10223037035
:106490000123C0E901AA437031460C30FFF7C2FE68
:1064A0002846214640F8044BFFF732FF3046FFF7FD
:1064B000C6FE05A8FFF7C3FE28460AB0BDE8F08770
:1064C0000C234FF0000A1420CDE908AA0793FDF72A
:1064D000E2FD014628B1C0E901AA80F800A080F8D9
:1064E00001A004A80391FFF713FF224B0893082093
:1064F000FDF7D1FD824628B1039B40F8043B04A977
:10650000FFF7FCFD00965FFA89F3424639462046C4
:10651000CDF824A0FFF7C6FCB8B9039B5B7803F065
:10652000FF0293B94FF69C7305A903A80592ADF835
:106530001830FFF711FF05A8FFF781FE05A809999C
:10654000FFF7A7FE06A8FFF7E0FD039B059304A94C
:1065500006A8FFF7D3FD059B069A2B606A6000230F
:1065600006A806930593FFF7D0FD04A8FFF7CDFD1D
:10657000A2E700BF3D660D00022AF8B5054607D028
:10658000032A18D0012A01D10B6803600020F8BD4E
:1065900018200E68FDF77FFD044650B13146FFF725
:1065A000CBFE3069B6F9147008B102F007FB206128
:1065B000A7822C60EAE70468002CE7D004F1100001
:1065C000FFF73DFE2046FFF790FD1821204601F021
:1065D000C6FBDBE738B5002383608B6804460D46B5
:1065E0002BB102229847EB68E360AB68A3602046BA
:1065F00038BD022A70B5044607D0032A12D0012AFA
:1066000001D10B680360002070BD14200E68FDF7F7
:1066100042FD054620B13146FFF7DCFF337C2B7489
:106620002560F0E70468002CEDD02046FFF75DFD03
:106630001421204601F093FBE5E70000F0B589B096
:1066400004460D4601A81146FFF723FEA4B124B26B
:106650001DB1284602F0B2FA054601A803A9039528
:10666000ADF81040FFF778FE03A8FFF7E8FD02A899
:10667000FFF74BFD09B0F0BD019D0123D5E84F2F79
:10668000002A03D1C5E8413F0029F7D1EFD12B7390
:10669000BFF35B8F6B702B1DBFF35B8F53E8006FF5
:1066A00043E80042002AF9D1BFF35B8F002EDED011
:1066B0002046FFF797FB074660B105F10C01304615
:1066C000FFF716FE3046FFF710FD1021304601F0AF
:1066D00046FBCCE7314603A8FFF77CFF2B7B8DF808
:1066E0001C301020FDF7D7FC0546D0B18760142080
:1066F000FDF7D1FC044678B18760014603A8FFF797
:1067000010FD059BA268A360069B0592E268E3600A
:106710009DF81C3006922374064BEB60064B2C60F0
:10672000AB6003A8FFF7E1FC002229460348FFF70E
:1067300061FBC7E703630D00F3650D0093600D0077
:10674000002240681146FFF705BC00224068114650
:10675000FFF710BC40680022FFF704BC406800222D
:1067600081F00101FFF7EEBB002340681A4619468D
:10677000FFF7E0BB002340681A461946FFF7D2BB7B
:10678000002240681146FFF7C5BB00224068114651
:10679000FFF7B0BB406800220221FFF7B3BB002324
:1067A00040681A46FFF79EBB024B03225A60024A1A
:1067B0001A607047FCE603203C910D00090941EA8C
:1067C000001107EE901AB8EEE70ADFED027A80EECC
:1067D000270A704700004844006800F039B910B536
:1067E0000446016002710AB1FFF7F6FF204610BDB2
:1067F00013B50446019101F085FA019A014620463D
:10680000FFF7EDFF204602B010BD006800F029B987
:1068100010B5037904460BB1FFF7F7FF204610BD12
:106820002DE9FF4104460D4617461E46FFF7D4FFEB
:1068300036238DF800300023206801934FF00108C3
:106840000A23694603938DF8088000F0E1F8206878
:10685000036829469B6898472068414600F0F0F895
:10686000054640B16FF09F052046FFF7CEFF284652
:1068700004B0BDE8F081022320680193694600F06E
:1068800097F80228EED1206803685B699847387052
:10689000206803685B6998473070E5E707B5002317
:1068A0008DF806308DF807300DF106020DF1070363
:1068B0000221FFF7B5FF40B99DF807109DF80600CB
:1068C00003B05DF804EBFFF779BFBFEE000A03B039
:1068D0005DF804FB07B500238DF806308DF807300E
:1068E0000DF106020DF107030421FFF799FFB0B97E
:1068F0009DF8070001F08EFB0A4B002201F0F4FB2B
:1069000001F0ACFE9DF8063000EE103A07EE900A5A
:10691000B8EEC00A37EE800A03B05DF804FBBFEEA4
:10692000000AF9E70000703F7047F8B506461546C3
:106930000C468F18BC4206D0336814F8011B9B68C4
:1069400030469847F6E72846F8BD007C0022FFF75E
:1069500017B9007C0021FFF71BB9007C0021FFF76D
:106960001FB9007C0021FFF723B9007C0021FFF74D
:1069700027B910B51421044601F0F1F9204610BDE5
:1069800010B54FF47A73044608460021C4E9011398
:10699000034B236020741146FFF722F9204610BDF7
:1069A00078910D000023007C1A461946FFF7D0B8F5
:1069B0007FB500221423CDE90122ADF804300B7815
:1069C0008DF808304B680393CB680493007C0B7AF6
:1069D000059301A9FFF71CF907B05DF804FB1FB58B
:1069E000003B8DF800104FF06401039118BF0123A4
:1069F000694601928DF80830FFF7DAFF05B05DF8BF
:106A000004FB007C0022FFF7ABB8C9B2FFF7F9BF67
:106A10007FB50023CDE901334A6803921423CA6885
:106A2000ADF804300B7804920A7A0592007C8DF858
:106A3000083001AA1946FFF793F807B05DF804FB88
:106A4000007C0022FFF794B8007C0021FFF7C0B85B
:106A500008B50021007CFFF7CBF8B0FA80F04009C0
:106A600008BD08B50021007CFFF7CAF8B0FA80F035
:106A7000400908BD004700002DE9FF4100241D46E4
:106A80000F4690460646FFF753F8A5424FF0040321
:106A9000ADF80D408DF80C308DF80F40A2BF9DF879
:106AA00028308DF80E3003AC0749009443463A462F
:106AB0003046A8BF8DF80D50FFF732F8B0FA80F0DD
:106AC000400904B0BDE8F081756A0D00704710B54B
:106AD0001821044601F043F9204610BDF0B5037DAE
:106AE000062B8DB00E4600F104074FF0000412D0C3
:106AF00000F1080515F8011D0A22304600F0FFF9E3
:106B0000AF42044419D0002CF4D02E21304600F0BE
:106B1000E7F90444EEE72F236A4639460A208DF848
:106B20000040FFF77DF8684602F065F833680246DA
:106B3000DB68694630469847044620460DB0F0BDF4
:106B400010B5054B0446112240F8043B002101F02A
:106B5000F7FF204610BD00BFA0910D000346074A75
:106B600010B543F8042B01F1100251F8044B43F81F
:106B7000044B9142F9D10A781A7010BDA0910D0012
:106B800010B59DF8084044EA032343EA024242EA72
:106B9000016104234160037510BD000013B5054B6E
:106BA0000360CB7800938B784A780978FFF7E8FF89
:106BB00002B010BDA0910D00014B024A1A6070474F
:106BC00004E70320AC910D00002340681A46FFF74C
:106BD00089B9406800220221FFF794B90022406879
:106BE0001146FFF787B9002240681146FFF792B9B6
:106BF000002340681A461946FFF794B900234068FD
:106C00001A461946FFF796B940680021FFF7BAB94E
:106C100040680021FFF7BEB94068002281F0010101
:106C2000FFF790B940680022FFF79CB90022406846
:106C30001146FFF79FB9002240681146FFF78AB955
:106C40002DE9F043002495B016460D460746FFF7A0
:106C500077FF214618220EA8009401F071FF40230F
:106C6000CDE90C3421466B460CAA3046FEF7E8FF0E
:106C7000044600284CD1024601216868FFF74AF912
:106C80000221804622466868FFF744F9009E81464B
:106C90002146002E3CD000293AD17368022B03D044
:106CA0000A2B11D0F669F4E7B8F1000F0AD0716928
:106CB00006A8043107ADFFF771FF0FCD3C1D0FC4CF
:106CC0002B6823704146EDE7B9F1000F01D1494629
:106CD000E8E77469102201A801F032FF06238DF85D
:106CE000143001AD04F108031834186859682A46B5
:106CF00003C20833A3421546F7D101A906A807AD80
:106D0000FFF72CFF0FCD3C1D0FC42B682370DEE76F
:106D10000098FEF78DFF384615B0BDE8F0830000FF
:106D2000024B034A1A6000225A60704708E70320AA
:106D3000B8910D0008B500F0E5FFBDE80840FFF789
:106D400087BE10B50446017009B1FFF7F3FF204676
:106D500010BD08B500F0D6FFFFF776FE18B900F0B9
:106D6000D1FFFFF71FFE00F0CDFFBDE80840FFF7A1
:106D70006BBE08B500F0C6FFBDE80840FFF771BE66
:106D800010B5037804460BB1FFF7F3FF204610BDA2
:106D900010B504460068FFF7ECFF204610BD30B583
:106DA00087B00D460190FFF7C5FF6B238DF80830C3
:106DB0000023012403930A2305938DF8104000F06B
:106DC000A1FF02A9FFF724FE00F09CFF03682946FB
:106DD0009B68984700F096FF2146FFF731FE039429
:106DE00000F090FF02A9FFF7E3FD00F08BFF0368BE
:106DF0005B699847044601A8FFF7CAFFE0B207B0F5
:106E000030BD70B586B014460D460190FFF792FF75
:106E10006B238DF808300023039301260A23059382
:106E20008DF8106000F06EFF02A9FFF7F1FD00F091
:106E300069FF036829469B68984700F063FF036871
:106E400021469B68984700F05DFF3146FFF7F8FD4B
:106E500001A8FFF79DFF06B070BD13B50446019071
:106E6000FFF768FF01212046FFF799FF00F030038C
:106E7000102B07D000F0CF0242F010020121204673
:106E8000FFF7BFFF01A8FFF783FF012002B010BD8D
:106E9000F8B506460D468F180024BD420CD0336865
:106EA00015F8011B9B6830469847031E01DB1C4404
:106EB000F3E7002C08BF1C462046F8BD13B5044676
:106EC000084659B1019101F096FE23680199DB68EB
:106ED0000246204602B0BDE81040184702B010BD7F
:106EE00003689B68184738B50D210546FFF7F8FF82
:106EF0000A2104462846FFF7F3FF204438BD30B589
:106F00008BB000238DF82430012A98BF0A2209ACE7
:106F10000D46B1FBF2F101FB125303F0FF03092B05
:106F200094BF30333733DBB2AA4204F8013DEFD9C6
:106F30002146FFF7C3FF0BB030BD10B50446FFF785
:106F4000D4F8204610BD00000348044A0449002339
:106F5000836000F0FFBE00BF10E7032028E5032098
:106F60003B6F0D0010B5044608462170FEF770FE19
:106F700000236360204610BD2DE9F04757EC106BED
:106F800080460C4610EE100A00220023394601F01C
:106F90001DFB28B107F100431F462D2304F8013BD8
:106FA00000234FF001090A22D9B2884503D902FB18
:106FB00009F90133F8E7484601F02CF832463B4620
:106FC00001F092F806460F4601F0E4FB05468A46BA
:106FD00001F054F802460B463046394600F0CCFE2C
:106FE000134B002201F006FB10B101354AF1000AF3
:106FF0004A462846D317514601F080FB0123154627
:1070000021460A2200F0E9FCB8F1000F0DD020461D
:1070100001F0F1FD2E23211823540A22434628466D
:107020000131BDE8F04700F0D8BCBDE8F08700BFF3
:107030000000E03F10B504460068FEF7BBFF2046A5
:1070400010BD10B50446006808B1FEF7B3FF002379
:10705000C4E90133236010BD38B504460D4600680D
:107060000131FEF7AFFF10B1C4E90005012038BDC2
:1070700010B50368044623B143688B4201D3012055
:1070800010BD2046FFF7E8FF0028F9D0A368002BC9
:10709000F5D122681370F2E737B50D46114601921B
:1070A0000446FFF7E5FF019A28B92046FFF7C9FF1C
:1070B000204603B030BDA2602946206801F032FDB1
:1070C0002268A3680021D154F2E7002313B5C0E978
:1070D000003304468360037341B10846019101F017
:1070E0008AFD019902462046FFF7D6FF204602B0EE
:1070F00010BD38B5054600680C4668B16A688B68F3
:107100009A4207D3096801F051FDA368AB600023E0
:10711000A36038BDFEF74EFF23682B6063686B6089
:10712000A368AB600023C4E90033F1E7884210B5DF
:10713000044605D00B682BB18A681946FFF7ACFFEF
:10714000204610BDFFF77DFFFAE710B50023044687
:10715000C0E9003383600373FFF7E8FF204610BDEA
:10716000884210B5044601D0FFF7C3FF204610BD8A
:1071700013B5044659B10846019101F03CFD01994F
:1071800002462046FFF788FF204602B010BDFFF7F9
:1071900058FFF9E730B5044600238BB0C4E900334B
:1071A000A360237310EE100ACDB200F045FF41EC4E
:1071B000100B01A92846FFF7DFFE01A92046FFF7C3
:1071C000D7FF20460BB030BD70B505460E4609B955
:1071D000002070BD6AB1846814442146FFF748FF5F
:1071E0000028F5D02868AB683146184401F0DEFC71
:1071F000AC600120EDE710B58A6809680446FFF726
:10720000E3FF10B92046FFF71CFF204610BD13B561
:10721000044629B92046FFF714FF204602B010BDEE
:107220000846019101F0E7FC019902462046FFF76C
:10723000CBFF0028EED0F0E70EB470B587B00BADF1
:10724000044655F8042B01922B46052104A803950A
:10725000FEF7D0FE0B4906462046FFF736FF3146C3
:107260002046FFF705FF206830B1019A03952B46B1
:10727000711CFEF7BFFEA060204607B0BDE870405D
:1072800003B07047C4920D0010B50446006818B1F1
:10729000FEF790FE0023236010BD10B50446FFF7F3
:1072A000F3FF204610BD38B5B1F9043083800B469A
:1072B0000D4653F8062FC0F806209B8843810446EC
:1072C000FFF7E2FF2B6813B1236000232B602046F9
:1072D00038BD000038B50C460546FFF7D5FF44B170
:1072E0002088FEF75FFE286028B12288214601F041
:1072F00019FC002038BD0148FCE700BFFCFEFFFF81
:10730000F0B52D4D0B7D04468BB00846AF1D002B0C
:1073100038D00B681B79002B34D00022274B049304
:1073200002A904300292ADF80C208DF80E20FEF771
:1073300097FDDDF80E30C5F8063000B2BDF812300A
:10734000ADF80C00A8800299BB802846FFF7C2FF69
:1073500002A8FFF799FF00232360A380A371238174
:107360004FF6FF736381B5F90430A3803B68C4F81E
:107370000630BB88296863812046FFF7ABFF2046B3
:107380000BB0F0BD00262023CDE902360C4B009354
:107390000C49334602AA3220FEF7EAFC074B04935D
:1073A00002A94FF6F263044802968DF80E60ADF81C
:1073B0000C30FFF778FFCBE720E703200000FFFF4A
:1073C000F3910D00EC910D0010B5094B094C022210
:1073D00000201A60084B2060A080A071A360FEF717
:1073E000E9FC2046054A0649BDE8104000F0B2BC61
:1073F0002CE7032020E703200000FFFF28E50320FF
:107400009B720D002DE9F041154ADFF86080D2E94A
:107410000032C01842EB0101124AD2E90032C6180C
:1074200041EB0207D8E90023BB4208BFB2428CB04F
:1074300013D003A96846CDE90067FEF703FE089B59
:10744000094D03F26C7303AC08930FCC0FC50FCC3E
:107450000FC5C8E9006723682B600CB0BDE8F08158
:1074600068E7032060E7032038E7032070E7032084
:1074700008B50020FEF71EFD28B1FEF70BFD80F0D9
:107480000100C0B208BD0120FCE70000FAEE087A56
:10749000B4EEE70AF1EE10FA08B511D4F2EE0C7A68
:1074A000B4EEE70AF1EE10FA0ADCDFED067A60EEE0
:1074B000277A17EE900A01F039F9034BC3E900016E
:1074C00008BD00BF0000614568E703200000000020
:1074D00008B5094BD3E9000100F0D8FD04A3D3E9B6
:1074E000002300F02BFF01F0B9F800EE100A08BDF0
:1074F000000000000020AC40B8E403201FB50246A5
:107500000B4668460021CDE90023CDE90211FEF7C4
:10751000DFFA024610B90146FEF77CFC05B05DF8C3
:1075200004FB000030B504461848D0E9001052189A
:1075300040EB03031648D0E90010521893B040EB1B
:107540000303CDE9002324220DEB0200002101F00A
:10755000F7FA002509A96846FEF774FD16222946A8
:1075600003A8029501F0ECFA02A909A801F094FA27
:1075700002A801F040FB12AB184402A900F8415CDC
:107580002046FFF7A2FD204613B030BD68E7032078
:1075900060E703202DE9F04FA5B00746884614A800
:1075A00011463F221D4601F02EFB002314A88DF842
:1075B0008F3001F020FB04465DBB2A4903A801F08F
:1075C000F5FA14AE002504F1FF3BAB4536D9B146C0
:1075D00005F1010A19F8013B252B17D173787A2B95
:1075E00014D103A801F007FB14AB04462818184473
:1075F000ABEB0502B11C01F095FA224603A9304617
:1076000001F090FA14A801F0F6FA04464E465546E9
:10761000D9E73C2195FBF1F3002BB8BF5B42B3FBEC
:10762000F1F201FB123300930F4A4FF46163102112
:1076300003A895FBF3F3FEF7D5FCC2E700212E2249
:1076400008A8079101F07CFA434614AA322107A842
:10765000FEF7F0FC07A93846FFF737FD384625B09E
:10766000BDE8F08F1A920D001C920D00F0B58DB0A0
:10767000CDE90023129D044615B9194B1D682DB1A3
:10768000184B2846196801F087FA38B9DDE900235C
:107690002046FFF747FF20460DB0F0BD124E00997F
:1076A000124FD6E900325B18019941EB0202D7E98B
:1076B00000011B1841EB0202CDE900320021242217
:1076C00003A801F03DFA03A96846FEF7BBFC326847
:1076D0003B6803A9134420462A46FFF75BFFDAE71D
:1076E00034E70320B4E4032068E7032060E70320C5
:1076F00010B50020FEF7DCF90446A0B9FEF752FBF6
:10770000012810D12046FEF77DFB60B9FFF7B0FEDF
:1077100010B9FEF7AFFBF9E7FFF7AAFEBDE810408E
:107720000020FEF7C5B9204610BD1FB5FFF7E0FFEA
:1077300010220021684601F003FA00216846FEF796
:10774000BFF9009805B05DF804FB000008B5FFF72D
:10775000ECFFC117FFF756FE014B586908BD00BF8B
:1077600038E70320024B1A68024B1A60704700BFCB
:10777000B4E4032034E7032070474174704708B530
:10778000007CFEF7ADFA20EAE07008BD08B5007C89
:10779000FEF77EFA20EAE07008BD08B5007CFEF72F
:1077A00087FA40EAE07008BD08B5007CFEF778FA79
:1077B00040EAE07008BD007CFEF782BA37B5457C30
:1077C00004462DB1207C03B0BDE83040FEF758BA26
:1077D000007C0191FEF784FA00280199F2DC28462A
:1077E00003B030BD10B51421044600F0B8FA2046AD
:1077F00010BD000010B54FF0000C044608461146BD
:107800004FF47A72C4E901C2044A22600122207452
:1078100062741A46FEF72CFA204610BD4C920D00F9
:10782000F7B51B4C26684EB98420FCF734FC05469E
:1078300018B18422314601F083F92560154D2F6877
:107840004FB98420FCF727FC064618B1842239463C
:1078500001F076F92E60104E3178BFF35B8F11F096
:10786000010112D130460191FCF71BFC019960B176
:1078700022682B680948FFF7BDFF3046FCF716FC6D
:10788000074A0849054800F065FA044803B0F0BD0E
:107890007CE7032080E7032078E7032084E70320C8
:1078A00028E5032079770D0041747047704708B5CB
:1078B0000021007CFEF73CFA40EAE07008BD08B504
:1078C0000121007CFEF734FA40EAE07008BD08B5FB
:1078D000007CFEF725FA20EAE07008BD08B5007CC0
:1078E000FEF716FA20EAE07008BD13B50446007CE6
:1078F0000191FEF715FA0028019901DC607C20B1A6
:10790000207CFEF71DFA20EAE07002B010BD007C7A
:10791000FEF71EBA10B51421044600F020FA2046E6
:1079200010BD000010B54FF47A73044608460021DC
:10793000C4E90113044B23600123207463741146CE
:10794000FEF7D6F9204610BD7C920D00007C002287
:10795000FEF7D6B910B514220446002101F0F0F864
:10796000204610BD10B5104C88B003A8FFF7F2FFF9
:107970002178BFF35B8F11F0010111D120460191F5
:10798000FCF78FFB019958B103AA0848FFF7CAFF1B
:107990002046FCF78BFB064A0649044800F0DAF95A
:1079A000024808B010BD00BF98E703209CE7032001
:1079B00028E50320AD780D0010B5044601F01BF951
:1079C000013823182046834206D90278197800F836
:1079D000011B03F80129F6E710BD70B50C46911E96
:1079E0002229054622D820466DB1B5FBF2F602FBEE
:1079F0001655E9B2092D94BF30315731C9B200F89C
:107A0000011B3546F0E7024623443021934202D958
:107A100002F8011BFAE71A1A834238BF002200233A
:107A200083542046FFF7C8FF204670BD0020FCE7C6
:107A3000014B1860704700BFC0E4032008B50B4B32
:107A400043B1FFF78FFF03681B699847002801DDEA
:107A5000AFF30080064B43B1FFF7E2FE03681B69FA
:107A60009847002801DDAFF3008008BD000000004A
:107A70000000000008B5FFF7E1FFFEF711F8014B29
:107A8000186008BDC4E703200248034A0349121ADC
:107A900001F048B800F4032004F4032038930D00EB
:107AA00007B5002300931A466FF07701FEF7C4F97B
:107AB00003B05DF804FB000007B543880A2B08D02B
:107AC000502B0BD1094B1B684BB103B05DF804EB95
:107AD0001847FFF7E5FF03B05DF804FB00230093B0
:107AE0001A466FF07701FEF7A7F9F4E7B4E7032031
:107AF00038B5124C1248134D0021FEF793FA236853
:107B0000AB42114B0CBF012200221A7002D0FFF7CA
:107B1000BBFF2560FDF7B4FF044601F019F80B4BDD
:107B200013B12046AFF3008000210848FEF7D2F9D8
:107B3000BDE8384006480021FEF774B900F4032080
:107B4000317A0D001E1C279AB0E7032000000000C8
:107B5000B97A0D00232813B502D9002002B010BD58
:107B6000A0F10B03022B1AD8174C2178BFF35B8FBF
:107B700011F001010BD120460191FCF792FA019915
:107B800028B11248FFF7EEF92046FCF78FFA0F4BA9
:107B90001878FEF765F80028DFD10120DEE701281C
:107BA00009D800F087F80021007CFEF711F880F07A
:107BB0000100C0B2D2E709380128EED8FFF730FE45
:107BC000007CFEF785F8F2E7B8E70320BCE7032066
:107BD000232838B504460D460AD8FF2908D0FFF7F8
:107BE000B9FF28B129462046BDE83840FDF780BFDF
:107BF00038BD38B504460D46FDF782FFFF2810D08A
:107C0000062804D84D2323FA00F0C30709D42046E0
:107C1000FFF7A0FF28B129462046BDE83840FDF710
:107C200077BF38BD0D2810B504469CBF0E34A4B2F2
:107C30002046FFF78FFF50B103212046FDF750FF8C
:107C4000032804D12046BDE81040FDF779BF00208D
:107C500010BD000038B500232025438014230446BE
:107C60000380856005610649284600F07CF80449D8
:107C70006060284600F077F8E060204638BD00BF1D
:107C8000A4920D0038B50023202543801423044618
:107C90000380856005610649284600F064F80449C0
:107CA0006060284600F05FF8E060204638BD00BF05
:107CB000A4920D0030B50F4D2978BFF35B8F11F002
:107CC000010487B013D12846FCF7EBF978B101A87D
:107CD000FFF7C0FF01AA21460748FEF751FE2846DC
:107CE000FCF7E4F9054A0649034800F033F8024876
:107CF00007B030BDC8E70320D0E7032028E5032004
:107D000029690D0010B50F4C2378BFF35B8FDB079B
:107D100086B013D42046FCF7C4F978B101A8FFF768
:107D2000B1FF01AA01210848FEF72AFE2046FCF710
:107D3000BDF9064A0649044800F00CF8024806B0AE
:107D400010BD00BFCCE70320E4E7032028E50320B3
:107D500029690D000B460146184600F0C3BEFCF72A
:107D60009EB9FCF798B9FCF798B908B5FEF74AF93F
:107D700081F0004102E000BF83F0004330B54FEADC
:107D800041044FEA430594EA050F08BF90EA020F49
:107D90001FBF54EA000C55EA020C7FEA645C7FEADC
:107DA000655C00F0E2804FEA5454D4EB5555B8BFFF
:107DB0006D420CDD2C4480EA020281EA030382EA70
:107DC000000083EA010180EA020281EA0303362D02
:107DD00088BF30BD11F0004F4FEA01314FF4801CD5
:107DE0004CEA113102D0404261EB410113F0004FE7
:107DF0004FEA03334CEA133302D0524263EB43039E
:107E000094EA050F00F0A780A4F10104D5F1200E3B
:107E10000DDB02FA0EFC22FA05F2801841F1000196
:107E200003FA0EF2801843FA05F359410EE0A5F16A
:107E300020050EF1200E012A03FA0EFC28BF4CF09B
:107E4000020C43FA05F3C01851EBE37101F0004551
:107E500007D54FF0000EDCF1000C7EEB00006EEB5E
:107E60000101B1F5801F1BD3B1F5001F0CD34908E8
:107E70005FEA30004FEA3C0C04F101044FEA44523F
:107E800012F5800F80F09A80BCF1004F08BF5FEAC6
:107E9000500C50F1000041EB045141EA050130BDA6
:107EA0005FEA4C0C404141EB0101013C28BFB1F5B8
:107EB000801FE9D291F0000F04BF01460020B1FA03
:107EC00081F308BF2033A3F10B03B3F120020CDAD6
:107ED0000C3208DD02F1140CC2F10C0201FA0CF0B4
:107EE00021FA02F10CE002F11402D8BFC2F1200C19
:107EF00001FA02F120FA0CFCDCBF41EA0C019040CF
:107F0000E41AA2BF01EB0451294330BD6FEA040417
:107F10001F3C1CDA0C340EDC04F11404C4F1200202
:107F200020FA04F001FA02F340EA030021FA04F314
:107F300045EA030130BDC4F10C04C4F1200220FA6B
:107F400002F001FA04F340EA0300294630BD21FAA9
:107F500004F0294630BD94F0000F83F4801306BF6F
:107F600081F480110134013D4EE77FEA645C18BF63
:107F70007FEA655C29D094EA050F08BF90EA020FFA
:107F800005D054EA000C04BF1946104630BD91EAF2
:107F9000030F1EBF0021002030BD5FEA545C05D1F5
:107FA0004000494128BF41F0004130BD14F5800434
:107FB0003CBF01F5801130BD01F0004545F0FE41A8
:107FC00041F470014FF0000030BD7FEA645C1ABFDD
:107FD000194610467FEA655C1CBF0B46024650EA14
:107FE000013406BF52EA033591EA030F41F4002140
:107FF00030BD00BF90F0000F04BF0021704730B5C6
:108000004FF4806404F132044FF000054FF000019A
:1080100050E700BF90F0000F04BF0021704730B55B
:108020004FF4806404F1320410F0004548BF404230
:108030004FF000013EE700BF42004FEAE2014FEA85
:1080400031014FEA02701FBF12F07F4393F07F4F60
:1080500081F06051704732F07F4208BF704793F063
:108060007F4F04BF41F40021704730B54FF4607476
:1080700001F0004521F000411CE700BF50EA010279
:1080800008BF704730B54FF000050AE050EA010222
:1080900008BF704730B511F0004502D5404261EB92
:1080A00041014FF4806404F132045FEA915C3FF4D3
:1080B000D8AE4FF003025FEADC0C18BF03325FEA70
:1080C000DC0C18BF033202EBDC02C2F1200300FA21
:1080D00003FC20FA02F001FA03FE40EA0E0021FA46
:1080E00002F11444BDE600BF70B54FF0FF0C4CF434
:1080F000E06C1CEA11541DBF1CEA135594EA0C0FE6
:1081000095EA0C0F00F0DEF82C4481EA030621EA20
:108110004C5123EA4C5350EA013518BF52EA03355B
:1081200041F4801143F4801338D0A0FB02CE4FF00D
:108130000005E1FB02E506F00042E0FB03E54FF03D
:108140000006E1FB03569CF0000F18BF4EF0010E35
:10815000A4F1FF04B6F5007F64F5407404D25FEA31
:108160004E0E6D4146EB060642EAC62141EA5551E4
:108170004FEAC52040EA5E504FEACE2EB4F1FD0C26
:1081800088BFBCF5E06F1ED8BEF1004F08BF5FEAA4
:10819000500E50F1000041EB045170BD06F0004656
:1081A00046EA010140EA020081EA0301B4EB5C0403
:1081B000C2BFD4EB0C0541EA045170BD41F48011FB
:1081C0004FF0000E013C00F3AB8014F1360FDEBF20
:1081D000002001F0004170BDC4F10004203C35DAFC
:1081E0000C341BDC04F11404C4F1200500FA05F37F
:1081F00020FA04F001FA05F240EA020001F0004220
:1082000021F0004110EBD37021FA04F642EB060195
:108210005EEA430E08BF20EAD37070BDC4F10C04BF
:10822000C4F1200500FA04F320FA05F001FA04F283
:1082300040EA020001F0004110EBD37041F100016F
:108240005EEA430E08BF20EAD37070BDC4F120057A
:1082500000FA05F24EEA020E20FA04F301FA05F2E2
:1082600043EA020321FA04F001F0004121FA04F28A
:1082700020EA020000EBD3705EEA430E08BF20EA5A
:10828000D37070BD94F0000F0FD101F00046400094
:1082900041EB010111F4801F08BF013CF7D041EA16
:1082A000060195F0000F18BF704703F0004652001A
:1082B00043EB030313F4801F08BF013DF7D043EAEB
:1082C0000603704794EA0C0F0CEA135518BF95EAA1
:1082D0000C0F0CD050EA410618BF52EA4306D1D128
:1082E00081EA030101F000414FF0000070BD50EA47
:1082F000410606BF1046194652EA430619D094EAD1
:108300000C0F02D150EA013613D195EA0C0F05D1BA
:1083100052EA03361CBF104619460AD181EA03010E
:1083200001F0004141F0FE4141F470014FF00000C6
:1083300070BD41F0FE4141F4780170BD70B54FF061
:10834000FF0C4CF4E06C1CEA11541DBF1CEA1355E1
:1083500094EA0C0F95EA0C0F00F0A7F8A4EB0504C3
:1083600081EA030E52EA03354FEA013100F08880BA
:108370004FEA03334FF0805545EA131343EA126383
:108380004FEA022245EA111545EA10654FEA002638
:108390000EF000419D4208BF964244F1FD0404F5F1
:1083A000407402D25B084FEA3202B61A65EB03054D
:1083B0005B084FEA32024FF480104FF4002CB6EB0A
:1083C000020E75EB030E22BFB61A754640EA0C008A
:1083D0005B084FEA3202B6EB020E75EB030E22BFCA
:1083E000B61A754640EA5C005B084FEA3202B6EB0B
:1083F000020E75EB030E22BFB61A754640EA9C00CA
:108400005B084FEA3202B6EB020E75EB030E22BF99
:10841000B61A754640EADC0055EA060E18D04FEA57
:10842000051545EA16754FEA06164FEAC30343EAF7
:1084300052734FEAC2025FEA1C1CC0D111F4801FC4
:108440000BD141EA00014FF000004FF0004CB6E7BD
:1084500011F4801F04BF01430020B4F1FD0C88BF5C
:10846000BCF5E06F3FF6AFAEB5EB030C04BFB6EB67
:10847000020C5FEA500C50F1000041EB045170BD5A
:108480000EF0004E4EEA113114EB5C04C2BFD4EB87
:108490000C0541EA045170BD41F480114FF0000E0B
:1084A000013C90E645EA060E8DE60CEA135594EA87
:1084B0000C0F08BF95EA0C0F3FF43BAF94EA0C0F8A
:1084C0000AD150EA01347FF434AF95EA0C0F7FF4FF
:1084D00025AF104619462CE795EA0C0F06D152EA53
:1084E00003353FF4FDAE1046194622E750EA410637
:1084F00018BF52EA43067FF4C5AE50EA41047FF448
:108500000DAF52EA43057FF4EBAE12E74FF0FF3CAC
:1085100006E000BF4FF0010C02E000BF4FF0010C7D
:108520004DF804CD4FEA410C7FEA6C5C4FEA430CF6
:1085300018BF7FEA6C5C1BD001B050EA410C0CBF45
:1085400052EA430C91EA030F02BF90EA020F0020A7
:10855000704710F1000F91EA030F58BF994208BF0E
:1085600090422CBFD8176FEAE37040F001007047CB
:108570004FEA410C7FEA6C5C02D150EA013C07D122
:108580004FEA430C7FEA6C5CD6D152EA033CD3D06D
:108590005DF8040B704700BF8446104662468C4667
:1085A0001946634600E000BF01B5FFF7B7FF00289A
:1085B00048BF10F1000F01BD4DF808EDFFF7F4FFC3
:1085C0000CBF012000205DF808FB00BF4DF808ED4E
:1085D000FFF7EAFF34BF012000205DF808FB00BF71
:1085E0004DF808EDFFF7E0FF94BF012000205DF893
:1085F00008FB00BF4DF808EDFFF7CEFF94BF012048
:1086000000205DF808FB00BF4DF808EDFFF7C4FF40
:1086100034BF012000205DF808FB00BF4A0011D2E2
:1086200012F5001211D20DD56FF47873B3EB6252CC
:108630000ED44FEAC12343F0004343EA505323FAD8
:1086400002F070474FF00000704750EA013002D14D
:108650004FF0FF3070474FF0000070474FEA410283
:10866000B2F1E04324BFB3F5001CDCF1FE5C0DD990
:1086700001F0004C4FEAC0024CEA5070B2F1004FDA
:1086800040EB830008BF20F00100704711F0804FDD
:1086900021D113F13872BCBF01F00040704741F4A2
:1086A00080114FEA5252C2F11802C2F1200C10FAA6
:1086B0000CF320FA02F018BF40F001004FEAC1238A
:1086C0004FEAD32303FA0CFC40EA0C0023FA02F32E
:1086D0004FEA4303CCE77FEA625307D150EA013304
:1086E0001EBF4FF0FE4040F44000704701F00040D4
:1086F00040F0FE4040F40000704700BF53B94AB953
:10870000002908BF00281CBF4FF0FF314FF0FF3099
:1087100000F0C0B9ADF1080C6DE904CE00F058F8D6
:10872000DDF804E0DDE9022304B0704707EE900AAB
:10873000F5EEC07AF1EE10FA01D400F00BB8F1EECC
:10874000677A08B517EE900A00F004F8404261EB32
:10875000410108BDD0B5FFF76FFC0C4B0022064667
:108760000F46FFF7C1FCFFF759FF0446FFF742FC35
:10877000074B0022FFF7B8FC02460B46304639464D
:10878000FFF7FAFAFFF74AFF2146D0BD0000F03D9F
:108790000000F041D0B50C4B002206460F46FFF713
:1087A000A3FCFFF73BFF0446FFF724FC074B002226
:1087B000FFF79AFC02460B4630463946FFF7DCFAD3
:1087C000FFF72CFF2146D0BD0000F03D0000F04136
:1087D0002DE9F047089D04468C46002B40F083802D
:1087E0008A42174647D9B2FA82F242B1C2F120005A
:1087F00024FA00F09140974040EA010C94404FEA7F
:108800001748230CBCFBF8F61FFA87FE08FB16C1BD
:1088100043EA014306FB0EF1994209D9FB1806F120
:10882000FF3080F01981994240F21681023E3B44AC
:108830005B1AA4B2B3FBF8F008FB103344EA03441C
:1088400000FB0EFEA64509D93C1900F1FF3380F06C
:108850000581A64540F2028102383C4440EA0640C8
:10886000A4EB0E0400261DB1D4400023C5E900434B
:108870003146BDE8F08702B9FFDEB2FA82F2002A83
:1088800050D1CB1B4FEA174E1FFA87F80126B3FBD6
:10889000FEFC210C0EFB1C3341EA034108FB0CF3E8
:1088A0008B4207D979180CF1FF3002D28B4200F2CB
:1088B000E9808446C91AA3B2B1FBFEF00EFB101189
:1088C00043EA014408FB00F8A04507D93C1900F130
:1088D000FF3302D2A04500F2D9801846A4EB080469
:1088E00040EA0C40BFE78B4209D9002D00F0B1806F
:1088F0000026C5E9000130463146BDE8F087B3FAED
:1089000083F6002E4AD18B4202D3824200F2B88015
:10891000841A61EB030101208C46002DA8D0C5E923
:10892000004CA5E7C2F1200320FA03F6974001FAB4
:1089300002F04FEA174ED9403043030CB1FBFEF66C
:108940001FFA87F80EFB161143EA014306FB08F1F4
:10895000994204FA02F409D9FB1806F1FF3C80F0B1
:108960008D80994240F28A80023E3B445B1A81B27C
:10897000B3FBFEF00EFB103341EA034100FB08F3AA
:108980008B4207D9791800F1FF3C73D28B4271D921
:1089900002383944CB1A40EA064678E7C6F1200C83
:1089A00003FA06F422FA0CF31C4320FA0CF701FA3E
:1089B00006F34FEA144E21FA0CF11F433B0CB1FBB6
:1089C000FEF91FFA84F80EFB191143EA014109FB75
:1089D00008FA8A4502FA06F200FA06F308D9611885
:1089E00009F1FF3048D28A4546D9A9F1020921444C
:1089F000A1EB0A01BFB2B1FBFEF00EFB101147EA7A
:108A0000014700FB08F8B84507D9E71900F1FF3125
:108A10002ED2B8452CD90238274440EA0940A7EBAA
:108A20000807A0FB02894F45C64649461AD317D00E
:108A30005DB1B3EB0E0267EB010707FA0CFCF240E5
:108A40004CEA0202F740C5E9002700263146BDE89E
:108A5000F0872E4628460BE70646E9E61846FDE66F
:108A60004345E5D2B8EB020E69EB04010138DFE7BC
:108A70000846D2E760468DE78146B9E7664675E766
:108A800030464AE7ACF1020C394413E702383C4463
:108A900024E700BF704700BF10B50C464169036969
:108AA000826986B001F26C7104910168039141689A
:108AB000029181680191C1680091074903EB43036A
:108AC0000B44064902EB42020A4420460449FDF7E2
:108AD00081FA204606B010BDDA920D00C5920D0055
:108AE000A5920D0010B5054C13462CB10A4601465F
:108AF0000220AFF3008010BD2046FCE7000000001C
:108B000038B5074B1D68EB6B04461BB92420FDF7F5
:108B100049FAE863E96B2046BDE83840FDF79ABAA8
:108B2000C0E403200A44914200F1FF3300D17047B2
:108B300010B511F8014B03F8014F9142F9D110BD66
:108B400002440346934200D1704703F8011BF9E742
:108B500038B50D4B1D68AB6B04467BB91820FDF78B
:108B600021FA0A4A0A4BA863C0E90023094B836033
:108B70000B23838101220023C0E90423AB6B002275
:108B80001C615A6138BD00BFC0E403200E33CDAB79
:108B900034126DE6ECDE050010F8012B11F8013BF4
:108BA000012A28BF9A42F7D0D01A7047034611F81D
:108BB000012B03F8012B002AF9D17047024B014623
:108BC000186800F003B800BFC0E4032037B50446BE
:108BD00008460D4600F00FF8421C1146204601924F
:108BE000FDF718FA044618B1019A2946FFF79AFFD3
:108BF000204603B030BD034613F8012B002AFBD1F9
:108C0000181A0138704710B50139034632B111F80E
:108C1000014F03F8014B013A002CF7D11A4400210F
:108C2000934200D110BD03F8011BF9E721400D006C
:108C30005D400D0085400D0089400D0000000000E2
:108C4000736574506F776572436F6E66696775728E
:108C50006174696F6E3D2564003A200050415254A2
:108C600049434C45005041525449434C4520434FE1
:108C70004E4E454354454400534C454550205245C3
:108C800053554C5400576F6B6520427920576174DF
:108C9000636468646F6700576F6B65204279205288
:108CA000544300576F6B6520427920504952005061
:108CB00041525449434C45204641494C4544205477
:108CC0004F20434F4E4E4543540053414D504C4965
:108CD0004E475F574149545F5354415445005354E4
:108CE0004152542053414D504C494E4700300050A2
:108CF0004F57455200454E4241424C452043484162
:108D00005247494E47005055424C495348494E47F7
:108D1000005354415254205055424C4953485F53DC
:108D2000544154450047617264656E2D4C6164790D
:108D30002D4275672D30342D436170003663556FB9
:108D40006E7158734C6368666E3874354636557369
:108D50005572784635387145007B202276616C75F6
:108D600065223A202200252E326600222C2022661F
:108D70006565644944223A202200227D00476172E1
:108D800064656E2D4C6164792D4275672D30342DEC
:108D90004361702D50657263656E74616765006E26
:108DA00038657063507343466B7362395557597415
:108DB0006758746F65344B6A686B7600506F7765DF
:108DC0007220736F757263657300426174746572AB
:108DD00079207374617465004261747465727920DE
:108DE00063686172676500426174746572792056C8
:108DF00043656C6C004261747465727920536F43F3
:108E00000047617264656E2D4C6164792D4275670F
:108E10002D30342D4241545400556A6B72486739E5
:108E200036753478527654347545436373454E76BF
:108E3000775471687500535441525420534C454542
:108E4000505F574149545F535441544500474F497F
:108E50004E4720544F20534C45455000534C4545F8
:108E6000502053544F5020534C45455000576F6B82
:108E7000652042792042595F4750494F205049525E
:108E800000576F6B652042792042595F4750494F28
:108E90002052544300534C45455020524553554CA5
:108EA00054202D20576F6B652042595F5254430068
:108EB000534C45455020524553554C54202D205776
:108EC0006F6B652042595F4E4554574F524B0053CC
:108ED0004C45455020524553554C54202D20576F3A
:108EE0006B6520427920554E4B4E4F574E00534CE8
:108EF0004545502054494D454420534C454550006C
:108F00000000000000000000B5400D00C9400D0049
:108F10001D510D00B3510D0035520D00756E6B6E75
:108F20006F776E0076696E0075736220686F737478
:108F3000007573622061646170746572007573629C
:108F4000206F74670062617474657279006E6F746B
:108F5000206368617267696E670063686172676544
:108F600064006469736368617267696E6700666153
:108F7000756C7400646973636F6E6E6563746564A9
:108F8000000000001C8F0D00248F0D00288F0D00A5
:108F9000318F0D003D8F0D00458F0D001C8F0D0092
:108FA0004D8F0D00518F0D005A8F0D00628F0D00F7
:108FB0006E8F0D00748F0D00000000000000000097
:108FC000DD500D00DF500D001D510D00B3510D009F
:108FD00035520D006465766963655265616420668B
:108FE00061696C656420737461743D256400736508
:108FF000742054696D652066726F6D205254432051
:1090000025730064657669636557726974652066C7
:1090100061696C656420737461743D2564007365D7
:1090200074205254432066726F6D20636C6F7564B8
:1090300020257300636C6F75642074696D65206E04
:109040006F742076616C6964006465766963655746
:1090500072697465454550524F4D206661696C6573
:109060006420737461743D2564006170702E7274A5
:10907000630000000000000000000000F5520D0039
:109080000B530D00E5520D00E9520D0035530D0054
:109090001D560D003D580D000000000000000000AE
:1090A000F9520D00FD520D0000000000000000000C
:1090B000F7520D0019530D00ED520D00F1520D0045
:1090C00035530D0057560D00215A0D0000000000C9
:1090D00000000000FB520D0027530D0000000000AF
:1090E00000000000CF610D00C5610D00BB610D00E7
:1090F00071610D00AF610D00A3610D00096C0D00E1
:10910000116C0D0097610D008F610D0085610D00E0
:109110007B610D00416C0D000000000000000000AC
:1091200009620D000F620D004D620D001D620D0001
:109130000B620D0000000000000000009F670D00A2
:1091400095670D008B670D0081670D0075670D0039
:1091500069670D00096C0D00116C0D005D670D0055
:1091600055670D004B670D0041670D00416C0D0008
:10917000000000000000000029690D0073690D0067
:109180004B690D002B690D0053690D005B690D00E3
:1091900063690D006B690D00000000000000000015
:1091A000DD6A0D00CD6A0D00CF6A0D0061707000A0
:1091B0000000000000000000C96B0D00D36B0D0023
:1091C000DD6B0D00E76B0D00F16B0D00FD6B0D000D
:1091D000096C0D00116C0D00196C0D00256C0D0053
:1091E0002D6C0D00376C0D00416C0D0077697269B4
:1091F0006E670053797374656D20736C65657020BC
:10920000636F6E66696775726174696F6E206973EA
:1092100020696E76616C69642E005A00252B30330C
:10922000643A253032750025592D256D2D2564545D
:1092300025483A254D3A2553257A006173637469B0
:109240006D650000000000000000000079770D004F
:10925000E5770D00BD770D00916E0D008D770D0047
:10926000A9770D009B770D00B7770D007B770D0078
:109270007F770D000000000000000000AD780D00B9
:1092800015790D00EB780D00916E0D00DD780D0065
:10929000AF780D00BF780D000F790D00CF780D006D
:1092A000A9780D0000252E337320252E3373253326
:1092B0006420252E32643A252E32643A252E3264FB
:1092C0002025640A0053756E4D6F6E5475655765A1
:1092D000645468754672695361744A616E4665628A
:1092E0004D61724170724D61794A756E4A756C417B
:1092F00075675365704F63744E6F76446563000005
:10930000954E0D00515A0D0049610D00D9610D00B7
:10931000A9670D00B96B0D00216D0D00496F0D009F
:10932000C9730D0065770D0000000000000000000B
:08933000A0F4FF7F0100000022
:049338000000000031
:10933C0004100000E8030000020000003B920D0046
:10934C00100E000000000000C4E403200000000028
:10935C000000000000000000000000000000000001
:10936C0000000000000000000000000000000000F1
:10937C0000000000000000000000000000000000E1
:10938C0000000000000000000000000000000000D1
:10939C0000000000000000000000000000000000C1
:0C93AC00000000000000000000000000B5
:1093B800FFFFFFFF00000102030405060708090A72
:1093C8000B0C0D0E0F101112131415161718191A6D
:0893D8001B1C1D1E1F202800B4
:0493E0007856341275
:04000003D0004020C9
:00000001FF
