:02000002D0002C
:1040000000400D0008800D00000006000D000501B5
:084010000401BD0B00000000DB
:044018000C7A0D0011
:10401C0009480A49884208B505D0094A824202D0AB
:10402C00121A03F09FFB0748074A0021121A03F0EB
:10403C00C1FB014808BD00BFC0E50320647F0D0033
:10404C003CE603203CE60320F0E7032070B5074E66
:10405C00074C03F0CFF8A41BA4080025A54200D1FF
:10406C0070BD56F8043B98470135F7E73C7F0D00CF
:10407C00607F0D0000F0F2BA08B500F0C1F8BDE8A1
:10408C00084003F079B800F053BE00F051BE00F0C8
:10409C0057BE000008B5034A00210C2000F06CFD4F
:1040AC00FEE700BF45490D000078B0FA80F04009EA
:1040BC0070470123037070477047006A0368DB6820
:1040CC00184700000A4B10B50446036001F0FCFDD4
:1040DC00214601F0ECFF03F003F802F0F5FF204657
:1040EC00044B40F8043B01F0CFFE204610BD00BF4E
:1040FC00AC7B0D00947B0D0010B50446FFF7E2FF7E
:10410C002046242103F05BF9204610BD0EB410B5F7
:10411C008DB00FAA016852F8044B039200232020A3
:10412C00CDE90403CDE900421E2004AA00F02CFDC9
:10413C000DB0BDE8104003B07047000010B5074C3F
:10414C0000F002FC2368C01AB0F57A7F04D300F0AB
:10415C00FBFB2060012010BD0020FCE744E603209F
:10416C0030B5044685B00D46FFF7E8FF10B900F0F6
:10417C0057FDF9E7FFF7E2FF0E4B2A681B788DF825
:10418C00003021683C2302A801F008F8039C7CB1A4
:10419C006368013B63605BB9236820469B68984762
:1041AC00A368013BA3601BB923682046DB689847D2
:1041BC0005B030BD40E603207FB504460D461E46D3
:1041CC008AB10146684602F0D1FD0B49684602F0FF
:1041DC000DFE294602F0FEFD01680848FFF796FF28
:1041EC00684602F02DFD1EB129462046FFF7B8FFA8
:1041FC00012004B070BD00BFD17C0D0030E703205E
:10420C00F0B5684C2378013B8BB0082B2CD8DFE839
:10421C0013F009002B002B004F007900A700ED00D4
:10422C00AF01D10100F00CFD5F4E0546F0B15F49C6
:10423C0002A802F050FD5E4906A802F04CFD0023D6
:10424C00012206A902A8FFF7B7FF06A802F0F8FCA6
:10425C0002A802F0F5FC0121072003F03BF800F066
:10426C0073FB0423306023700BB0F0BD00F0E0FC56
:10427C0000F06AFB3368C01A4E4B9842F4D94B4994
:10428C0002A802F028FD4C4906A802F024FD2B469A
:10429C00012206A902A8FFF78FFF06A802F0D0FCA6
:1042AC0002A802F0CDFC00F04FFB30600823DAE7E7
:1042BC003D4D00F049FB2B68C01AB0F57A7FD3D383
:1042CC003E4902A802F007FD3D4906A802F003FD95
:1042DC000023012206A902A8FFF76EFF06A802F030
:1042EC00AFFC02A802F0ACFC364B01221A60364B34
:1042FC0000221A60354B00221A6000F025FB0523C2
:10430C002860B0E7102002F0FEFF2F4D304A314EEE
:10431C0010602A68034613442A4A2B601368591C00
:10432C001160326893429FDD64232B4A2B49009322
:10433C0012680968002300F033FD294B32681860BD
:10434C002B6893FBF2F307EE903A204BF8EEE77AEA
:10435C00C3ED007A00F0F8FA134B1860062382E7DD
:10436C00114D00F0F1FA2B68C01AB0F57A7FFFF40A
:10437C007BAF1C4902A802F0AEFC1B4906A802F058
:10438C00AAFC0023012206A902A8FFF715FF06A824
:10439C0002F056FC02A802F053FC00F0D5FA0723F9
:1043AC00286060E7C8E50320D4E60320207A0D00DE
:1043BC00297A0D00E09304003C7A0D00577A0D0029
:1043CC006B7A0D00CCE60320D0E60320C8E6032070
:1043DC0048E60320C4E50320C0E50320C4E603201F
:1043EC005CE603207A7A0D008D7A0D0002F078FEDF
:1043FC00814B1D68002D064680F2B6802D2102F0FF
:10440C00A3FB69420A2230467C4F02F0ACFB3046DB
:10441C0002F09DFB02F064FE3D68002D064680F222
:10442C00A5802D2102F090FB69420A22304602F051
:10443C009AFB304602F08BFB7149724802F0A1FCEA
:10444C007149724802F09DFC714906A802F043FCC8
:10445C00704B186803F020F902460B4602A86E490F
:10446C0002F0DAFC02A906A802F0B4FC6B4902F0D7
:10447C00BDFC664902F0AEFC694902F0B7FC01468E
:10448C00684802F064FC02A802F0DAFB06A802F00D
:10449C00D7FB5C4902A802F069FC624906A802F04D
:1044AC0065FC01231A4606A902A8FFF785FE06A89B
:1044BC0002F0C6FB02A802F0C3FB5B49514802F0B4
:1044CC0060FC5A49514802F05CFC514906A802F0C4
:1044DC0002FC3A68564902A802F09EFC02A906A802
:1044EC0002F078FC4D4902F081FC484902F072FC64
:1044FC004B4902F07BFC01464A4802F028FC02A81A
:10450C0002F09EFB06A802F09BFB3E4902A802F0BB
:10451C002DFC444906A802F029FC06A902A8FFF7C5
:10452C001FFE06A802F08CFB02A802F089FB414991
:10453C0002A802F0D0FB404906A802F0CCFB0023F5
:10454C00012206A902A8FFF737FE06A802F078FBA5
:10455C0002A802F075FB0021072002F0BBFE00F060
:10456C00F3F9364B1860A1E629464BE729465CE780
:10457C00324D00F0E9F92B68C01AB0F57A7FFFF4E0
:10458C0073AE2F4902A802F0A6FB2E4906A802F032
:10459C00A2FB0023012206A902A8FFF70DFE06A824
:1045AC0002F04EFB02A802F04BFB00F0CDF9092300
:1045BC00286058E6214D00F0C7F92B68C01A224B31
:1045CC0098427FF651AE214902A802F084FB2049A3
:1045DC0006A802F080FB0023012206A902A8FFF71F
:1045EC00EBFD06A802F02CFB02A802F029FB00F060
:1045FC00ABF90123286036E648E603205CE603208D
:10460C00A17A0D0090E60320B87A0D0080E6032015
:10461C00D57A0D00C8E60320E27A0D00E77A0D008A
:10462C00F67A0D0070E60320F97A0D001B7B0D0065
:10463C00387B0D00937A0D003B7B0D00D4E60320F4
:10464C00417B0D00527B0D009FBB0D00617B0D006B
:10465C006D7B0D0000211F2002F03CBE10B588B010
:10466C00FFF7F8FF02F03CFD4FF4165102F028FD65
:10467C000C4B0D49012468461C7002F02CFB0B49B5
:10468C0004A802F028FB0023224604A96846FFF781
:10469C0093FD04A802F0D4FA684602F0D1FA08B0EF
:1046AC0010BD00BFC8E50320757B0D007B7B0D00A2
:1046BC0070B5D0E900531426044606FB0356AE42EF
:1046CC0004D0284602F0BCFA1435F8E7206800F054
:1046DC0037FB204670BD8842F8B504460D46164699
:1046EC0016D9904215D2A2F11406751AA1F114072D
:1046FC002C44B7421CD02CB13146204602F01CFB96
:10470C00337C2374304602F09BFA143E143CF0E7E1
:10471C000ED0B5420CD02CB12946204602F00CFB31
:10472C002B7C2374284602F08BFA14351434F0E7F2
:10473C00F8BD2DE9F0410023C0E9003383604F68D8
:10474C009F4204460E4623DD4FF0140808FB07F089
:10475C0000F0EEFA0546D8B1D4E9001208FB0212BB
:10476C00FFF7B9FF206800F0EBFA2560A760D6E9E7
:10477C00007308FB0378B84508D03946284602F088
:10478C00F5FA3B7C2B7414371435F4E773686360CB
:10479C002046BDE8F0810000F0B5434B434C444F3C
:1047AC0001208DB01870002100F00EFA0023CDE925
:1047BC000033029302F094FC6946054603A8FFF708
:1047CC00B8FF264603A906A8FFF7B3FF394B46F8F6
:1047DC00043B06A909A8FFF7ACFF09AA1E21304625
:1047EC0001F0B8FD09A8FFF763FF06A8FFF760FF0B
:1047FC00314B2360256203A8FFF75AFF2F4B236030
:10480C0002F06EFC4FF4165102F05AFC01F05CFA07
:10481C00214601F031FD2A4D2A4E6846FFF748FF2C
:10482C00294A2A49204602F0C5FD294C2946304622
:10483C0002F051FA3046274E234A214602F0BAFDC7
:10484C003946304602F047FA3046234E1E4A21467E
:10485C0002F0B0FD3946304602F03DFA30461F4EAC
:10486C00194A214602F0A6FD2946304602F033FAD9
:10487C0030461B4E144A214602F09CFD2946304618
:10488C0002F029FA3046174E0F4A214602F092FDEB
:10489C002946304602F01FFA0B4A2146304602F0F8
:1048AC0089FD0DB0F0BD00BF40E60320A0E603205B
:1048BC008A7B0D00947B0D00287D0D00AC7B0D00D8
:1048CC00EF7C0D00D8E603203CE60320D1400D0020
:1048DC004D6C0D004CE6032060E6032090E60320AF
:1048EC0080E6032070E6032008B5024B1B685B6C66
:1048FC00019308BD4802030008B5024B1B689B6C72
:10490C00019308BD4802030008B5024B1B68DB6C21
:10491C00019308BD4802030008B5024B1B685B6D90
:10492C00019308BD4802030008B5024B1B685B6885
:10493C00019308BD1802030008B5024B1B68DB6825
:10494C00019308BD1802030008B5024B1B685B6994
:10495C00019308BD1802030008B5024B1B685B6885
:10496C00019308BD2C02030008B5024B1B68DB68E1
:10497C00019308BD2C02030008B5024B1B681B6990
:10498C00019308BD2C02030008B5024B1B681B6B7E
:10499C00019308BD2C02030008B5024B1B681B6A6F
:1049AC00019308BD2802030008B5024B1B685B6A23
:1049BC00019308BD2802030008B5024B1B689B6AD3
:1049CC00019308BD2802030008B5024B1B68DB6A83
:1049DC00019308BD2802030008B5024B1B681B6B32
:1049EC00019308BD2802030008B5024B1B685B6BE2
:1049FC00019308BD2802030008B5024B1B681B6C11
:104A0C00019308BD2802030008B5024B1B685B69C3
:104A1C00019308BD6402030008B5024B1B689B6838
:104A2C00019308BD6802030008B5024B1B68DB68E4
:104A3C00019308BD6802030008B5024B1B68DB69D3
:104A4C00019308BD3002030008B5024B1B681B6ABA
:104A5C00019308BD3002030008B5024B1B681B68AC
:104A6C00019308BD3C02030008B5024B1B689B6810
:104A7C00019308BD3C02030008B5024B1B68DB68C0
:104A8C00019308BD3C02030008B5024B1B681B696F
:104A9C00019308BD3C02030008B5024B1B685B691F
:104AAC00019308BD3C02030008B5024B1B689B69CF
:104ABC00019308BD3C02030008B5024B1B68DB697F
:104ACC00019308BD3C02030008B5024B1B681B6A2E
:104ADC00019308BD3C02030008B5024B1B689B6A9E
:104AEC00019308BD3C02030008B5024B1B68DB6A4E
:104AFC00019308BD3C02030008B5024B1B681B6800
:104B0C00019308BD4C02030008B5024B1B685B689F
:104B1C00019308BD4C02030008B5024B1B689B684F
:104B2C00019308BD4C02030008B5024B1B681B69BE
:104B3C00019308BD4C02030008B5024B1B685B696E
:104B4C00019308BD4C02030008B5024B1B689B691E
:104B5C00019308BD4C02030008B5024B1B68DB69CE
:104B6C00019308BD4C02030008B5024B1B681B6A7D
:104B7C00019308BD4C02030008B5024B1B685B6B2C
:104B8C00019308BD6002030008B5024B1B685B6D06
:104B9C00019308BD6002030008B5024B1B68DB6E75
:104BAC00019308BD6002030008B5024B1B681B6F24
:104BBC00019308BD6002030008B5024B1B685B68DB
:104BCC00019308BD2002030008B5024B1B68DB6A89
:104BDC00019308BD2002030008B5024B1B68DB6C77
:104BEC00019308BD2002030008B5024B1B685B6DE6
:104BFC00019308BD2002030008B5034B1B68D3F8D2
:104C0C008830019308BD00002002030008B5034B57
:104C1C001B68D3F89430019308BD000020020300F8
:104C2C0008B5024B1B689B68019308BD4402030046
:104C3C0008B5024B1B68DB68019308BD44020300F6
:104C4C0008B5024B1B685B69019308BD4402030065
:104C5C0008B5024B1B681B6A019308BD4402030094
:104C6C0008B5024B1B68DB6B019308BD44020300C3
:104C7C0008B5024B1B685B68019308BD400203003A
:104C8C0008B5024B1B689B68019308BD40020300EA
:104C9C0008B5024B1B68DB68019308BD400203009A
:104CAC0008B5024B1B681B69019308BD4002030049
:104CBC0008B5024B1B685B69019308BD40020300F9
:104CCC0008B5024B1B689B69019308BD40020300A9
:104CDC0008B5024B1B68DB69019308BD4002030059
:104CEC0008B5024B1B681B6A019308BD4002030008
:104CFC0008B5024B1B681B6B019308BD40020300F7
:104D0C0008B5024B1B685B6B019308BD40020300A6
:104D1C0008B5024B1B681B6C019308BD40020300D5
:104D2C0008B5024B1B685B6C019308BD4002030085
:104D3C0008B5024B1B681B68019308BD1C020300DD
:104D4C0008B5024B1B685B68019308BD1C0203008D
:104D5C0008B5024B1B689B68019308BD1C0203003D
:104D6C0008B5024B1B685B6A019308BD1C0203006B
:104D7C0008B5024B1B68DB6A019308BD1C020300DB
:104D8C0008B5024B1B681B6B019308BD1C0203008A
:104D9C0008B5024B1B685B6C019308BD1C02030039
:104DAC008A4210B507D0029C401AE41A6043521A8A
:104DBC0090FBF2F0184410BD10B5836804460BB993
:104DCC0002F003FBC3689847A3681BB1032221467A
:104DDC002046984720461021BDE8104002F0EFBA5B
:104DEC0010B5036804469B689847A368013BA36011
:104DFC002BB923682046DB68BDE81040184710BD6E
:104E0C0010B50446006808B1FFF776FD204610BDCA
:104E1C0010B58368044613B1032201469847204617
:104E2C0010BD70B5D0E90053044605EB0316AE4235
:104E3C0004D0284601F004FF1035F8E72068FFF78E
:104E4C007FFF204670BD0B68036013B15A680132B6
:104E5C005A60704710B50446006828B14368013B9E
:104E6C0043600BB9FFF7BCFF204610BD13B50B46D2
:104E7C000246D0E900016C4684E8030093E8030085
:104E8C0082E8030094E8030083E8030002B010BD3D
:104E9C0010B5064C002320462360FFF725FD204665
:104EAC00034A0449BDE8104002F084BAE8E6032046
:104EBC003CE603200D4E0D00002240681146FFF722
:104ECC00EFBE002240681146FFF70ABF002240687F
:104EDC001146FFF715BF40680022FFF709BF406875
:104EEC00002281F00101FFF7F3BE002340681A464F
:104EFC001946FFF7E5BE002340681A461946FFF72E
:104F0C00D7BE002240681146FFF7BABE40680022A7
:104F1C000221FFF7BDBE002340681A46FFF7A8BE6A
:104F2C00084B10B5282422461846002102F042FCFA
:104F3C00054B04804FF0FF32426004225A60034A52
:104F4C001A6010BDF4E60320ECE60320C47B0D00D0
:104F5C0070470020704710B51021044602F02FFA5C
:104F6C00204610BD08B5FFF7F6FF08BD30B500228E
:104F7C004FF69C74026084808D888C800C688580D0
:104F8C0004600A6030BD10B504460068FFF7D8FE17
:104F9C00204610BD38B5C468F4B12378022B03D178
:104FAC0004F10C00FFF7EFFF656835B12846FFF7F9
:104FBC002FFF1021284602F002FAA56835B12846C9
:104FCC00FFF726FF1021284602F0F9F9204614219C
:104FDC00BDE8384002F0F3B938BD73B50E4604464F
:104FEC0056F8043B00930D4601A83146FFF72BFF02
:104FFC00019A009B6260236001A800230193009337
:10500C00FFF728FF3046FFF725FF2846082102F05E
:10501C00D6F9204602B070BD826810B50AB902F00C
:10502C00D4F9BDE81040C368184708B5006800F112
:10503C001001FFF7F1FF08BD826810B50AB902F044
:10504C00C4F9BDE81040C368184708B5006800F102
:10505C001001FFF7F1FF08BD38B5002304460360CB
:10506C0010200D46FFF70FF828B10123C0E90133DA
:10507C00024B0360C5602060204638BD007C0D00EB
:10508C0038B5002383608B6804460D462BB1022291
:10509C009847EB68E360AB68A360204638BD00001E
:1050AC00F0B589B004686846FFF760FF4FF0020363
:1050BC00D4E84F2F002A03D1C4E8413F0029F7D18F
:1050CC0025D104F10C0569462846FFF74FFFBFF3C5
:1050DC005B8F01236370002004F10803BFF35B8F27
:1050EC0053E8006F43E80002002AF9D1BFF35B8F4D
:1050FC006EB1FFF771FD78B129463046FFF78CFF92
:10510C003046FFF785FE1021304602F058F968460C
:10511C00FFF739FF09B0F0BD314602A8FFF7B0FF29
:10512C00E068B4F9105008B102F09AFB0690102018
:10513C00ADF81C50FEF7A7FF0546E8B100278760C5
:10514C001820FEF7A0FF044688B10146876002A82C
:10515C00FFF78CFE049BA268A360059B049206A932
:10516C00E268E36004F110000592FFF7FFFE084BC4
:10517C00EB60084B2C60AB6006A8FFF704FF02A89D
:10518C00FFF746FE002229460348FFF72DFDB7E73F
:10519C0037500D00CD520D00C54D0D002DE9F047D7
:1051AC008AB005469DF848900C4617469846FFF77E
:1051BC0047FD07AE824638BB4FF62E73059005A906
:1051CC003046ADF81830FFF7D1FE1420FEF75BFF28
:1051DC00044648B1022303700123C0E901AA4370BD
:1051EC0031460C30FFF7C2FE2846214640F8044BEE
:1051FC00FFF732FF3046FFF7C6FE05A8FFF7C3FEE8
:10520C0028460AB0BDE8F0870C234FF0000A1420A2
:10521C00CDE908AA0793FEF736FF014628B1C0E98D
:10522C0001AA80F800A080F801A004A80391FFF760
:10523C0013FF224B08930820FEF725FF824628B166
:10524C00039B40F8043B04A9FFF7FDFD00965FFAB1
:10525C0089F3424639462046CDF824A0FFF7F8FCE6
:10526C00B8B9039B5B7803F0FF0293B94FF69C73BC
:10527C0005A903A80592ADF81830FFF711FF05A892
:10528C00FFF781FE05A80999FFF7A7FE06A8FFF70F
:10529C00E1FD039B059304A906A8FFF7D4FD059B2C
:1052AC00069A2B606A60002306A806930593FFF705
:1052BC00D1FD04A8FFF7CEFDA2E700BF91530D006E
:1052CC00022AF8B5054607D0032A18D0012A01D1C5
:1052DC000B6803600020F8BD18200E68FEF7D3FEA3
:1052EC00044650B13146FFF7CBFE3069B6F9147065
:1052FC0008B102F0B5FA2061A7822C60EAE70468D5
:10530C00002CE7D004F11000FFF73DFE2046FFF71C
:10531C007FFD1821204602F052F8DBE738B5002358
:10532C0083608B6804460D462BB102229847EB68CC
:10533C00E360AB68A360204638BD022A70B5044612
:10534C0007D0032A12D0012A01D10B680360002078
:10535C0070BD14200E68FEF796FE054620B131464E
:10536C00FFF7DCFF337C2B742560F0E70468002C1E
:10537C00EDD02046FFF74CFD1421204602F01FF81B
:10538C00E5E70000F0B589B004460D4601A81146CA
:10539C00FFF723FEA4B124B21DB1284602F060FA37
:1053AC00054601A803A90395ADF81040FFF778FE58
:1053BC0003A8FFF7E8FD02A8FFF74CFD09B0F0BD0C
:1053CC00019D0123D5E84F2F002A03D1C5E8413FA9
:1053DC000029F7D1EFD12B73BFF35B8F6B702B1DB3
:1053EC00BFF35B8F53E8006F43E80042002AF9D10A
:1053FC00BFF35B8F002EDED02046FFF7EDFB074698
:10540C0060B105F10C013046FFF716FE3046FFF790
:10541C00FFFC1021304601F0D2FFCCE7314603A847
:10542C00FFF77CFF2B7B8DF81C301020FEF72BFE3A
:10543C000546D0B187601420FEF725FE044678B1EE
:10544C008760014603A8FFF711FD059BA268A360C6
:10545C00069B0592E268E3609DF81C30069223746B
:10546C00064BEB60064B2C60AB6003A8FFF7D0FC3F
:10547C00002229460348FFF7B7FBC7E757500D003A
:10548C0047530D00C54D0D00002240681146FFF733
:10549C0027BC002240681146FFF732BC406800224E
:1054AC00FFF726BC4068002281F00101FFF710BC19
:1054BC00002340681A461946FFF702BC00234068D7
:1054CC001A461946FFF7F4BB002240681146FFF755
:1054DC00E7BB002240681146FFF7D2BB40680022B0
:1054EC000221FFF7D5BB002340681A46FFF7C0BB6B
:1054FC00024B03225A60024A1A6070471CE70320D1
:10550C001C7C0D007047F8B5064615460C468F18E6
:10551C00BC4206D0336814F8011B9B683046984790
:10552C00F6E72846F8BD007C0022FFF735BA007C70
:10553C000021FFF739BA007C0021FFF73DBA007C4F
:10554C000021FFF741BA007C0021FFF745BA10B5E6
:10555C001421044601F033FF204610BD10B54FF462
:10556C007A73044608460021C4E90113034B2360F7
:10557C0020741146FFF740FA204610BD587C0D00F0
:10558C00704710B51821044601F019FF204610BDD4
:10559C00F0B5037D062B8DB00E4600F104074FF0DD
:1055AC00000412D000F1080515F8011D0A2230463E
:1055BC0001F0D9FAAF42044419D0002CF4D02E21BA
:1055CC00304601F0C1FA0444EEE72F236A4639460F
:1055DC000A208DF80040FFF717FA684602F05DF9D3
:1055EC0033680246DB6869463046984704462046D5
:1055FC000DB0F0BD10B5054B0446112240F8043B2C
:10560C00002102F0D7F8204610BD00BF807C0D00B1
:10561C000346074A10B543F8042B01F1100251F868
:10562C00044B43F8044B9142F9D10A781A7010BD1F
:10563C00807C0D0010B59DF8084044EA032343EA32
:10564C00024242EA016104234160037510BD00006F
:10565C0013B5054B0360CB7800938B784A780978A7
:10566C00FFF7E8FF02B010BD807C0D0000F11003C5
:10567C00012213F8101C0129184608D153F8041CF8
:10568C0002EB4102013A03F11003F2D170470229F7
:10569C0004BF53F8041C5218F4E70EB4F0B588B0EC
:1056AC0000AF07F13405102155F8042B7A6004463D
:1056BC002B467818FD60FFF753FB0F287A681AD930
:1056CC0000F1080323F007036E46ADEB030D411CFC
:1056DC002B466846FD60FFF743FB021E04DD236882
:1056EC0069469B6820469847B5462037BD46BDE8BD
:1056FC00F04003B070470028F7D0236802469B683F
:10570C0007F1100120469847EFE710B503680446EF
:10571C009B689847A368013BA3602BB9236820467C
:10572C00DB68BDE81040184710BD07B503688DF85D
:10573C0007109B6801220DF10701984703B05DF833
:10574C0004FB38B50B6803604D6843689D42044602
:10575C000CD015B16B6801336B60606828B143687D
:10576C00013B43600BB9FFF7D0FF6560204638BDA5
:10577C000B461146002210B5C0E900220446836096
:10578C000BB9204610BDFFF7DCFFFAE78368EBB1DD
:10579C001A78032A1AD8DFE802F00417021B052036
:1057AC00704702685B685268D05C2D2812D0A0F15B
:1057BC003003092B0ED974280ED066280CD0A0F11A
:1057CC006E035842584170470620704700207047BE
:1057DC0004207047032070470220704710B5044620
:1057EC00FFF7D4FF02280ED0C31EDBB2012B14D856
:1057FC002268A36850685B68BDE810400A2200214B
:10580C00184402F0F3B82268A36852685B68D05C55
:10581C00A0F174035842584110BD0020FCE7000071
:10582C0038B50023C0E9003304460E48C4E902032E
:10583C00A9B10B78032B06D08BB9136858684B6849
:10584C00C35C6E2B07D013684D6858688B6828446E
:10585C005B1BA060E36011462046FFF772FF2046F9
:10586C0038BD00BFEF7C0D0038B500250B46C0E9F4
:10587C000055C0E90255C0E90455044611464BB128
:10588C001A78012A06D103F11002DB6882604361A9
:10589C00FFF757FF204638BD10B54369044663B186
:1058AC008068E060013B1030A0602061636113B13F
:1058BC00FFF7DCFEA060012000E0184610BD10B51B
:1058CC007D210446FFF731FF01232371204610BDD3
:1058DC0008B50379012B02D0022B04D008BD2C2172
:1058EC00FFF723FFFAE73A21FAE710B50446FFF772
:1058FC00EFFF20467B21FFF718FF00232371204682
:10590C0010BD000013B504460191FFF7E1FF2368B9
:10591C00019ADB68034920469847012320462371EE
:10592C0002B010BD387B0D0013B504460191FFF792
:10593C00CFFF2368019ADB6803492046984701236F
:10594C002046237102B010BD8C7C0D002DE9F04176
:10595C000D4617462221DFF8A08004462F44FFF79E
:10596C00E4FE2946BD422A4638D015F8016B222E9A
:10597C0003D05C2E01D01F2EF4D82368521A9B68DA
:10598C00204698475C212046FFF7CFFE0D2E0AD803
:10599C00072E1CD9A6F10803052B18D8DFE803F055
:1059AC000D0F11171315222E01D05C2E0FD131467D
:1059BC002046FFF7BAFE2946D4E76221F8E77421A6
:1059CC00F6E76E21F4E76621F2E77221F0E723682F
:1059DC003246DB68414620469847ECE78D4204D0BE
:1059EC0023686A1A9B682046984722212046FFF7B5
:1059FC009CFEBDE8F08100BF8F7C0D0013B5044602
:105A0C00CDE90021FFF764FF2046DDE90021FFF717
:105A1C009DFF02232046237102B010BD13B504462E
:105A2C00CDE90021FFF754FF2046DDE90021FFF707
:105A3C008DFF01232046237102B010BD80680368DE
:105A4C00DB6818477047084611B10B685B6818474C
:105A5C00704770477047704738B504460D4600686C
:105A6C002E2101F0E0FE2368C31A2B6023B10378CA
:105A7C0003B1013023682060184638BD10B50C21E5
:105A8C00044601F09CFC204610BD10B504210446D0
:105A9C0001F095FC204610BD10B50421044601F020
:105AAC008EFC204610BD08B501F0C7FEB0FA80F0A0
:105ABC00400908BD10B50C4601F012FB844210D011
:105ACC0001F068FA844205D101F064FABDE8104097
:105ADC0001F05DBA2CB1236820465B68BDE810402C
:105AEC00184710BD13B504460846019101F0D5FEC8
:105AFC0001990246204602B0BDE81040FFF78EBF68
:105B0C0013B504460846019101F0C7FE23680199BC
:105B1C00DB680246204602B0BDE81040184707B5C6
:105B2C0003688DF80710DB6801220DF10701984717
:105B3C0003B05DF804FB0EB403B503AB002153F8BE
:105B4C00042B006A019301F02CF802B05DF804EB11
:105B5C0003B070472DE9F74FD0E900954FF01408CA
:105B6C0008FB05F50093AB10184D17465D434C46EA
:105B7C00002D23DD6E1008FB06F004EB000A3A46FC
:105B8C00BAF804B0205801915F4528BF5A4601F07D
:105B9C008CFE0199012378B95F4503D1009A1370EB
:105BAC003546E5E78CBF012000200028F8D0AE1B5D
:105BBC000AF11404013EF3E7C00FF6E7A4EB090465
:105BCC000248A410604303B0BDE8F08FCDCCCCCC20
:105BDC007FB50369067E01910BB301B3002500F17B
:105BEC000C04039503A901A8FFF736FF0146B0B1D9
:105BFC000DF10B03039A8DF80B502046FFF7AAFF0B
:105C0C009DF80B305BB12468142303FB004000F1BA
:105C1C000804B0F90630002BA8BFDEB2E2E730462C
:105C2C0004B070BD10B50A4C2378BFF35B8FDB0753
:105C3C000BD42046FEF738FA38B12046FEF739FA75
:105C4C00044A0549054801F0B5FB044810BD00BFE6
:105C5C0028E703203CE60320615A0D00CCE5032025
:105C6C0010B50A4C2378BFF35B8FDB070BD42046AF
:105C7C00FEF71AFA38B12046FEF71BFA044A05491A
:105C8C00054801F097FB044810BD00BF2CE703202A
:105C9C003CE603205F5A0D00D0E5032038B5002503
:105CAC000446C0E90055C0E904558560856140F89B
:105CBC00245FFEF719FEFFF7B5FFE061FFF7D0FF99
:105CCC0025732062204638BD10B50B4C2378BFF3EA
:105CDC005B8FDB070ED42046FEF7E6F950B1074880
:105CEC00FFF7DCFF2046FEF7E4F9054A05490348B7
:105CFC0001F060FB014810BD24E7032034E70320CA
:105D0C003CE6032045610D00024A03490348002389
:105D1C00FEF74ABF21600D00AD5F0D002D5F0D0039
:105D2C0000231A4619461846FEF73EBF37B50D69D3
:105D3C0051F8043B0093044601A8FFF784F86A4627
:105D4C0029462046FFF714FD01A8FFF783F82046EB
:105D5C0003B030BD37B58D6851F8043B0093044651
:105D6C0001A8FFF770F86A4629462046FFF77CFD2C
:105D7C0001A8FFF76FF8204603B030BD37B5CD68EA
:105D8C0051F8043B0093044601A8FFF75CF86A46FF
:105D9C0029462046FFF744FD01A8FFF75BF8204693
:105DAC0003B030BD70B58AB00D46014604A8FFF7AC
:105DBC00D1FF144E04A8FFF76FFDE8B104A96846A3
:105DCC00FFF7DCFF02983146FFF76DFE044610B179
:105DDC002C1E18BF012401A8FFF73CF8002CE9D0B9
:105DEC0004A96846FFF7A2FF6846FFF7F7FC286096
:105DFC0001A8FFF72FF8DDE705A8FFF72BF80AB08D
:105E0C0070BD00BF957C0D0037B50C46204612497D
:105E1C00154601F012FD48B901F062F94FF4165124
:105E2C0001F04EF901F05CF903B030BD0B4920468E
:105E3C0001F003FD70B94FF4165301A928460193E4
:105E4C00FFF7B0FF01F0A6F8019901F09DF801F001
:105E5C00A1F8E9E70020E7E79A7C0D00A17C0D0092
:105E6C0070B5D0E900531426044606FB0356AE4227
:105E7C0005D005F10800FFF7F3FF1435F7E72068AC
:105E8C00FEF75EFF204670BD10B504460C30FFF7E0
:105E9C00E7FF2046FEF7C5FF204610BD10B5044BAA
:105EAC00044640F8043BFFF7EFFF204610BD00BF4F
:105EBC00947B0D0010B50446FFF7F0FF204624211B
:105ECC0001F07DFA204610BD10B5034B036004466B
:105EDC00FFF7E4FF204610BD407D0D0010B50446D1
:105EEC00FFF7F2FF2046242101F069FA204610BD8D
:105EFC000022C0E9002210B582600C6804604C6876
:105F0C0044608C680A604A6084608A6010BD10B579
:105F1C00036804461868FEF7FFFC204610BD00001D
:105F2C002DE9F04F87B0804603931C4B5B68C3F39D
:105F3C000803894616466BB9FFF7C6FE044600F106
:105F4C002403406A0593FEF7DFFC237B2BB105A8E5
:105F5C00FFF7DDFF07B0BDE8F08F01232373D4E911
:105F6C0000535FFA89F905EB830AAA4512D055F85C
:105F7C00047B3146381DFFF72BFE8145F5D33B687A
:105F8C00039A0092D3F808B04A4633464146384645
:105F9C00D847EAE700232373D9E700BF00ED00E000
:105FAC002DE9F74F9B461A4B5B68C3F308038046F9
:105FBC00894616466BB9FFF787FE044600F12403A9
:105FCC00406A0193FEF7A0FC237B2BB101A8FFF7DD
:105FDC009EFF03B0BDE8F08F01232373D4E9005377
:105FEC00F6B205EB830A55450ED055F8047B59469D
:105FFC00381DFFF7EDFD8642F5D33B684A46DB685A
:10600C00414638469847EEE700232373DEE700BF8E
:10601C0000ED00E02DE9F341164B5B68C3F3080378
:10602C0005460F461BBBFFF74FFE00F12403044649
:10603C00406A0193FEF768FCD4E90063462406EB42
:10604C008308B04509D101A8FFF761FFA542B4BF91
:10605C000020012002B0BDE8F08156F8040B39464F
:10606C000430FFF7B5FD8442A8BF0446E9E70020E1
:10607C00F0E700BF00ED00E070B50446D0E9000287
:10608C000B4600EB8202824207D001461D6851F894
:10609C00046BAE4203D00846F5E7002070BD521ADF
:1060AC0001F06EFB6368013B63600120F6E71FB5EE
:1060BC0000F124030446406A01910393FEF724FC8B
:1060CC0001A92046FFF7D8FF18B163680BB9FFF799
:1060DC0027FE03A8FFF71BFF04B010BD70B5D0E975
:1060EC0004561823044603FB0656AE4215D005F1A0
:1060FC0010012046FFF7C0FF63680BB9FFF710FED5
:10610C00E06929690368DB689847696919B1206AF5
:10611C000368DB6898471835E7E7D4E90453182679
:10612C0006FB0356AE4204D0284600F089FD183514
:10613C00F8E70023636170BD73B50446FFF7F0FD0B
:10614C0004F12403606A0193FEF7DEFB2046FFF79F
:10615C00C5FF01A8FFF7DBFE606A08B1FEF7CCFBB8
:10616C00D4E90453182606FB0356AE4204D0284645
:10617C0000F066FD1835F8E72069FEF7E1FD2068B0
:10618C00FEF7DEFD204602B070BD8842F8B506462B
:10619C000C46154627D9904226D2A2F114056C1A4A
:1061AC00A1F1140704440026AF423DD0A4B12B68E2
:1061BC002360AB88A380B5F90630E380C4E902669E
:1061CC002661AB68A360AE60E368EA68E260EB60EE
:1061DC0023692A6922612B6105F10800FFF740FE53
:1061EC00143D143CE0E71FD00027AC421CD0A6B1F4
:1061FC0023683360A388B380B4F90630F380C6E912
:10620C0002773761A368B360A760F368E268F26055
:10621C00E360336922693261236104F10800FFF7FE
:10622C001FFE14341436E0E7F8BDF8B5D0E901537D
:10623C009D4204460E4617460DDB0135002D0068C5
:10624C0004DDA900FEF784FD18B9F8BDFEF778FD52
:10625C0000202060A5602568626805EB860192002D
:10626C00A2EB8602081D01F08BFA45F826706368D4
:10627C00013363600120E8E737B500F124030446DD
:10628C00406A01930D46FEF73FFBD4E9003103EB66
:10629C00810083421A460BD01268AA4203F1040310
:1062AC00F7D101A8FFF733FE0025284603B030BD17
:1062BC002A462046FFF7B9FF05460028F1D063684F
:1062CC00012B01D1FFF720FD01A8FFF720FEECE721
:1062DC008842F8B504460D46164614D9904213D29E
:1062EC00A2F11006751AA1F110072C44B74218D070
:1062FC001CB13146204600F01FFD304600F0A0FCDA
:10630C00103E103CF2E70CD0B5420AD01CB1294625
:10631C00204600F011FD284600F092FC1035103498
:10632C00F2E7F8BD70B50E1E054611DD3001FEF723
:10633C00FFFC044658B1D5E9001201EB0212FFF73D
:10634C00C7FF2868FEF7FCFC2C60AE60012070BD16
:10635C000024F6E72DE9F04F914697B00023039106
:10636C00D9F804100C9346229942C0E90033C0E9D5
:10637C000233C0E90433CDE90A330446027623DC48
:10638C00D9E90057142303FB0757AF423BD02946EA
:10639C000DA800F0D1FC0DA911A80B9E00F0CCFCAF
:1063AC00DDE90B1399421BDA0A9B0B9A03EB0616D9
:1063BC0003EB0212314606F11000FFF789FFEEB92C
:1063CC000B9B01330B9311E00AA8FFF7ABFF0028DE
:1063DC00D6D10AA8FEF725FD204617B0BDE8F08FF0
:1063EC0001310AA8FFF79EFF0028DDD111A800F0AB
:1063FC0027FC0DA800F024FC1435C6E711A9304683
:10640C0000F09AFCDCE70026CDE90D660F963746C6
:10641C004FF0140ADDE90A239E4280F29780330183
:10642C00D35808930BB90136F4E70AFB06F3099726
:10643C0002930DAD09A908A8FFF70EFB83460028AF
:10644C00F1D00146099A8DF81F700DF11F032846F3
:10645C00FFF780FB9DF81F800190B8F1000F66D10B
:10646C00BDF82430ADF84830CDE913884FF6FF73F2
:10647C00CDF844B0ADF84A30CDF85480D5E90132AE
:10648C0093421ADB03F1010BBBF1000F4ADD0AFB4F
:10649C000BF0FEF74DFC0490002845D0D5E9001216
:1064AC000AFB0212FFF771FE049B28680493FEF7A7
:1064BC0047FC049B2B60C5F808B0019BD5F800B0D5
:1064CC006A680AFB03F30BEB030101F114000AFBEE
:1064DC0002B204910593FFF758FE0499A9B1059BEC
:1064EC00119A4BF80320BDF848308B80BDF94A3027
:1064FC00CB80C1E902770F61139B8B60149B1397C0
:10650C00CB60159B14970B6115976B6801336B600F
:10651C0013A8FFF7A5FCB8F1000F08D00DA8FFF7E2
:10652C009FFC56E74346C0E74FF00108F0E7019B9C
:10653C002D680AFB0355089B1B782BB9D9F8003042
:10654C00029A13441B7CEB80083573E721682260A8
:10655C0062686360A3680B920C9A0C93E368A26068
:10656C000D9A0D932369E2600E9A0E936369226172
:10657C000F9A0F93039B0A9162612376CEE700007A
:10658C007FB50546094B45F8043B04460E4601A869
:10659C001146FEF7CEF801AA31462846FFF7DAFE7F
:1065AC0001A8FEF785F8204604B070BD947B0D0061
:1065BC00F0B50F4687B026490C9C384616461D464A
:1065CC0001F03BF900BBE4B129466846FFF790FCAB
:1065DC002049242000F0F5FE054670B1694603A859
:1065EC00FEF7A7F803AA31462846FFF7C9FF03A810
:1065FC00FEF75EF8184B2C622B606846FEF758F8D5
:10660C002C46204607B0F0BD1449384601F015F968
:10661C00E0B9002CF5D029466846FFF769FC0D4916
:10662C00242000F0CEFE05460028E6D0694603A8DB
:10663C00FEF77FF803AA31462846FFF7A1FF03A80F
:10664C00FEF736F8064B2B602C62D6E70024D8E711
:10665C00A97C0D00387E0D00407D0D00AD7C0D0039
:10666C00287D0D00014B024A1A60704730E7032069
:10667C00BE7C0D002DE9F047089DD0F82090044613
:10668C000E461746984600F02BFD81454CD02B79D1
:10669C00190704D56A6954492046FFF74CFAB8F13A
:1066AC00000F0DD05B212046FFF739FA41462046FA
:1066BC00FFF726FA23684D49DB68022220469847EB
:1066CC002B79DA0723D5D5F808802F21404601F025
:1066DC00FEF808B100F1010841462046FFF710FA18
:1066EC002B799B0708D53A212046FFF718FAEA6860
:1066FC003F492046FFF71FFA2A79236812F0040F4E
:10670C00DB6814BF3B493C490222204698472B7951
:10671C0058071DD529690B461A4613F8010B60B1B1
:10672C00202808D11946F7E7344800F066F900280C
:10673C00ADD0BDE8F0872828EED12368521ADB686B
:10674C002046984723682E49DB6804222046984748
:10675C0000213846FEF720FA01462046FFF7D0F913
:10676C0023682549DB680222204698471EB1314632
:10677C002046FFF7C5F92B7913F0300F2CD0236886
:10678C002049DB680222204698472B79D9060AD586
:10679C0023681D49DB68072220469847AA691B49D4
:1067AC002046FFF7C8F92B799A0611D5DB0605D5DB
:1067BC0023681049DB680222204698472368144955
:1067CC00DB6820460A229847E9692046FFF798F9CA
:1067DC005D212046FFF7A3F923680E49DB682046AC
:1067EC000222BDE8F0471847C27C0D00C97C0D00A1
:1067FC00387B0D00CC7C0D00D17C0D005CE70320B8
:10680C00CF7C0D00D47C0D00D77C0D00DF7C0D00FF
:10681C00E27C0D00ED7C0D002DE9F04385B0D0F845
:10682C0020900C9C05460F4690461E4600F058FCE6
:10683C00814505D1494800F0E0F8002840F08A80F5
:10684C002B6A474A01924FF0000901A803938DF877
:10685C000890FFF74AF849464046FEF79DF9414932
:10686C008046012201A8FFF7C9F84146FFF73AF923
:10687C003FB13D49012201A8FFF7C0F83946FFF7A7
:10688C0031F93EB13949012201A8FFF7B7F8314679
:10689C00FFF728F92379DF070ED5A6682F2130469C
:1068AC0001F015F800B1461C3149012201A8FFF78F
:1068BC00A5F83146FFF716F923799E0707D52D4920
:1068CC00022201A8FFF79AF8E168FFF71BF8237979
:1068DC00580714D5266933461F4613F8012B2AB1E5
:1068EC00202A01D11E46F7E7282AF5D12249022297
:1068FC0001A8FFF783F8BA1B3146FFF78FF823790D
:10690C00190707D51D49012201A8FFF777F861691E
:10691C00FFF70AF82379DA0608D5042218490DEB9B
:10692C000200FFF76BF8A169FEF7ECFF23799B06D9
:10693C0007D51449062201A8FFF760F8E169FFF7B3
:10694C00D1F801A8FEF7BBFF286A0F4903680222A1
:10695C00DB68984705B0BDE8F08300BF5CE7032017
:10696C00107D0D009F7C0D00F07C0D00F27C0D0065
:10697C00E57A0D00F47C0D00F77C0D00FA7C0D001F
:10698C00FC7C0D00017D0D00ED7C0D0000234068AA
:10699C001A46FEF76DB9406800220221FEF778B95D
:1069AC00002240681146FEF76BB900224068114680
:1069BC00FEF776B9002340681A461946FEF778B9F7
:1069CC00002340681A461946FEF77AB94068002140
:1069DC00FEF79EB940680021FEF7A2B9406800227C
:1069EC0081F00101FEF774B940680022FEF780B90E
:1069FC00002240681146FEF783B900224068114618
:106A0C00FEF76EB92DE9F043002495B016460D46FD
:106A1C000746FEF7EFFD214618220EA8009400F061
:106A2C00C9FE4023CDE90C3421466B460CAA3046F6
:106A3C00FDF7FAFF044600284CD102460121686894
:106A4C00FEF72EF90221804622466868FEF728F9E7
:106A5C00009E81462146002E3CD000293AD1736815
:106A6C00022B03D00A2B11D0F669F4E7B8F1000F12
:106A7C000AD0716906A8043107ADFEF7E9FD0FCD08
:106A8C003C1D0FC42B6823704146EDE7B9F1000F94
:106A9C0001D14946E8E77469102201A800F08AFE8A
:106AAC0006238DF8143001AD04F10803183418686E
:106ABC0059682A4603C20833A3421546F7D101A9E7
:106ACC0006A807ADFEF7A4FD0FCD3C1D0FC42B6827
:106ADC002370DEE70098FDF79FFF384615B0BDE840
:106AEC00F0830000024B034A1A6000225A60704780
:106AFC005CE70320887D0D00F8B506460D468F181F
:106B0C000024BD420CD0336815F8011B9B6830463D
:106B1C009847031E01DB1C44F3E7002C08BF1C46FE
:106B2C002046F8BD13B50446084659B1019100F052
:106B3C00B4FE23680199DB680246204602B0BDE82A
:106B4C001040184702B010BD03689B68184738B551
:106B5C000D210546FFF7F8FF0A2104462846FFF7EA
:106B6C00F3FF204438BD30B58BB000238DF82430B2
:106B7C00012A98BF0A2209AC0D46B1FBF2F101FBC8
:106B8C00125303F0FF03092B94BF30333733DBB2BE
:106B9C00AA4204F8013DEFD92146FFF7C3FF0BB021
:106BAC0030BD2DE9F04186B000AF05460E46381DCC
:106BBC00142114463B60FEF7D3F813280ED8391D68
:106BCC002846FFF7AFFF04461EB12846FFF7BFFF6C
:106BDC00044420461837BD46BDE8F08100F1080397
:106BEC0023F00703E846ADEB030D2246411C3B683E
:106BFC006846FEF7B5F869462846FFF793FF04464A
:106C0C00C546E1E710B50446FEF702F9204610BD73
:106C1C000348044A04490023836000F0CBBB00BF47
:106C2C0064E703203CE60320116C0D0010B504460C
:106C3C0008462170FDF700FF00236360204610BD5D
:106C4C0010B504460068FEF77BF8204610BD10B561
:106C5C000446006808B1FEF773F80023C4E9013359
:106C6C00236010BD38B504460D4600680131FEF7AF
:106C7C006FF810B1C4E90005012038BD10B50368E8
:106C8C00044623B143688B4201D3012010BD20463A
:106C9C00FFF7E8FF0028F9D0A368002BF5D1226894
:106CAC001370F2E737B50D46114601920446FFF713
:106CBC00E5FF019A28B92046FFF7C9FF204603B02B
:106CCC0030BDA2602946206800F04CFD2268A36804
:106CDC000021D154F2E7002313B5C0E90033044678
:106CEC008360037341B10846019100F0D6FD019910
:106CFC0002462046FFF7D6FF204602B010BD38B53D
:106D0C00054600680C4668B16A688B689A4207D3DE
:106D1C00096800F09CFDA368AB600023A36038BD3C
:106D2C00FEF70EF823682B6063686B60A368AB609A
:106D3C000023C4E90033F1E710B50023C0E90033A8
:106D4C00044683600373FFF7DAFF204610BD8842C8
:106D5C0010B5044605D00B682BB18A681946FFF7AD
:106D6C00A1FF204610BDFFF772FFFAE710B5002314
:106D7C000446C0E9003383600373FFF7E8FF204645
:106D8C0010BD13B5044659B10846019100F085FDBC
:106D9C00019902462046FFF785FF204602B010BD40
:106DAC00FFF755FFF9E770B505460E4609B9002007
:106DBC0070BD6AB1846814442146FFF75FFF002858
:106DCC00F5D02868AB683146184400F040FDAC6043
:106DDC000120EDE710B58A6809680446FFF7E3FF68
:106DEC0010B92046FFF733FF204610BD13B50446FB
:106DFC0029B92046FFF72BFF204602B010BD0846EC
:106E0C00019100F04AFD019902462046FFF7CBFFA5
:106E1C000028EED0F0E700000EB470B587B00BADD3
:106E2C00044655F8042B01922B46052104A8039522
:106E3C00FDF796FF0B4906462046FFF74CFF3146FF
:106E4C002046FFF71BFF206830B1019A03952B46B3
:106E5C00711CFDF785FFA060204607B0BDE87040AF
:106E6C0003B07047EF7C0D0010B50446006818B1F4
:106E7C00FDF766FF0023236010BD10B50446FFF735
:106E8C00F3FF204610BD000010B5094B094C02223F
:106E9C0000201A60084B2060A080A071A360FDF751
:106EAC008BFE2046054A0649BDE8104000F082BA28
:106EBC0080E7032074E703200000FFFF3CE603207B
:106ECC00876E0D00024B1A68024B1A60704700BFA8
:106EDC00D4E5032084E7032070474174704708B55C
:106EEC00007CFDF7F9FD20EAE07008BD08B5007CD8
:106EFC00FDF7CAFD20EAE07008BD08B5007CFDF77F
:106F0C00D3FD40EAE07008BD08B5007CFDF7C4FD78
:106F1C0040EAE07008BD007CFDF7CEBD37B5457C7E
:106F2C0004462DB1207C03B0BDE83040FDF7A4BD74
:106F3C00007C0191FDF7D0FD00280199F2DC284678
:106F4C0003B030BD10B51421044600F038FA2046C9
:106F5C0010BD000010B54FF0000C04460846114659
:106F6C004FF47A72C4E901C2044A226001222074EF
:106F7C0062741A46FDF770FD204610BDE07D0D00D1
:106F8C00007C0023FDF7B0BD0022FFF7F9BF007CA9
:106F9C00FDF76ABDF7B51B4C26684EB98420FDF78A
:106FAC0072F8054618B18422314600F003FC2560C6
:106FBC00154D2F684FB98420FDF765F8064618B1BA
:106FCC008422394600F0F6FB2E60104E3178BFF368
:106FDC005B8F11F0010112D130460191FDF764F87D
:106FEC00019960B122682B680948FFF7B3FF30465E
:106FFC00FDF75FF8074A0849054800F0DBF904483B
:10700C0003B0F0BD8CE7032090E7032088E7032052
:10701C0094E703203CE60320E56E0D0041747047B5
:10702C00704708B50021007CFDF78EFD40EAE0704A
:10703C0008BD08B50121007CFDF786FD40EAE07033
:10704C0008BD08B5007CFDF777FD20EAE07008BDAF
:10705C0008B5007CFDF768FD20EAE07008BD13B5AB
:10706C000446007C0191FDF767FD0028019901DCC5
:10707C00607C20B1207CFDF76FFD20EAE07002B04F
:10708C0010BD007CFDF770BD10B51421044600F056
:10709C0096F9204610BD000010B54FF47A730446E3
:1070AC0008460021C4E90113044B2360012320741A
:1070BC0063741146FDF720FD204610BD107E0D00B7
:1070CC00007C0022FDF720BD007CFDF725BD10B52E
:1070DC0014220446002100F06DFB204610BD000078
:1070EC0010B5104C88B003A8FFF7F1FF2178BFF35F
:1070FC005B8F11F0010111D120460191FCF7D4FFF7
:10710C00019958B103AA0848FFF7C6FF2046FCF7BF
:10711C00D0FF064A0649044800F04CF9024808B072
:10712C0010BD00BFA8E70320ACE703203CE603201A
:10713C002D700D00014B1860704700BFD8E503207F
:10714C0008B50B4B43B1FFF7CBFF03681B6998479E
:10715C00002801DDAFF30080064B43B1FFF71AFFA7
:10716C0003681B699847002801DDAFF3008008BD58
:10717C00000000000000000008B5FFF7E1FFFDF77C
:10718C00E3FB014B186008BDD4E703200248034A17
:10719C000349121A00F0E6BA00F4032004F40320A9
:1071AC00607F0D0007B5002300931A466FF077013E
:1071BC00FDF72CFD03B05DF804FB000007B5438818
:1071CC000A2B08D0502B0BD1094B1B684BB103B0C9
:1071DC005DF804EB1847FFF7E5FF03B05DF804FB1F
:1071EC00002300931A466FF07701FDF70FFDF4E7CB
:1071FC00C4E7032038B5124C1248134D0021FDF79B
:10720C00C7FD2368AB42114B0CBF012200221A7040
:10721C0002D0FFF7BBFF2560FDF786FB044600F0AC
:10722C00D1FA0B4B13B12046AFF300800021084874
:10723C00FDF716FDBDE8384006480021FDF7DCBC23
:10724C0000F4032041710D001E1C279AC0E7032097
:10725C0000000000C9710D00232813B502D90020CD
:10726C0002B010BDA0F10B03022B1AD8174C2178D9
:10727C00BFF35B8F11F001010BD120460191FCF79C
:10728C0013FF019928B11248FFF7D0FC2046FCF7F8
:10729C0010FF0F4B1878FDF7D7FB0028DFD101202A
:1072AC00DEE7012809D800F05DF80021007CFDF72D
:1072BC009BFB80F00100C0B2D2E709380128EED860
:1072CC00FFF768FE007CFDF7FFFBF2E7C8E7032041
:1072DC00CCE7032038B504460D46FDF745FBFF28E7
:1072EC0010D0062804D84D2323FA00F0C30709D484
:1072FC002046FFF7B1FF28B129462046BDE83840AB
:10730C00FDF73ABB38BD0D2810B504469CBF0E34B2
:10731C00A4B22046FFF7A0FF50B103212046FDF791
:10732C001BFB032804D12046BDE81040FDF72CBB05
:10733C00002010BD38B500232025438014230446BB
:10734C000380856005610649284600F03CF8044935
:10735C006060284600F037F8E060204638BD00BF7A
:10736C00387E0D0030B50F4D2978BFF35B8F11F0CF
:10737C00010487B013D12846FCF796FE78B101A81A
:10738C00FFF7D8FF01AA21460748FEF7E7F8284681
:10739C00FCF78FFE054A0649034800F00BF802483B
:1073AC0007B030BDD8E70320DCE703203CE6032020
:1073BC0011550D000B460146184600F0C5B9FCF7F7
:1073CC0066BEFCF760BEFCF760BE08B5FDF7D0FCEE
:1073DC0081F0004102E000BF83F0004330B54FEA7A
:1073EC0041044FEA430594EA050F08BF90EA020FE7
:1073FC001FBF54EA000C55EA020C7FEA645C7FEA7A
:10740C00655C00F0E2804FEA5454D4EB5555B8BF9C
:10741C006D420CDD2C4480EA020281EA030382EA0D
:10742C00000083EA010180EA020281EA0303362D9F
:10743C0088BF30BD11F0004F4FEA01314FF4801C72
:10744C004CEA113102D0404261EB410113F0004F84
:10745C004FEA03334CEA133302D0524263EB43033B
:10746C0094EA050F00F0A780A4F10104D5F1200ED9
:10747C000DDB02FA0EFC22FA05F2801841F1000134
:10748C0003FA0EF2801843FA05F359410EE0A5F108
:10749C0020050EF1200E012A03FA0EFC28BF4CF039
:1074AC00020C43FA05F3C01851EBE37101F00045EF
:1074BC0007D54FF0000EDCF1000C7EEB00006EEBFC
:1074CC000101B1F5801F1BD3B1F5001F0CD3490886
:1074DC005FEA30004FEA3C0C04F101044FEA4452DD
:1074EC0012F5800F80F09A80BCF1004F08BF5FEA64
:1074FC00500C50F1000041EB045141EA050130BD44
:10750C005FEA4C0C404141EB0101013C28BFB1F555
:10751C00801FE9D291F0000F04BF01460020B1FAA0
:10752C0081F308BF2033A3F10B03B3F120020CDA73
:10753C000C3208DD02F1140CC2F10C0201FA0CF051
:10754C0021FA02F10CE002F11402D8BFC2F1200CB6
:10755C0001FA02F120FA0CFCDCBF41EA0C0190406C
:10756C00E41AA2BF01EB0451294330BD6FEA0404B5
:10757C001F3C1CDA0C340EDC04F11404C4F12002A0
:10758C0020FA04F001FA02F340EA030021FA04F3B2
:10759C0045EA030130BDC4F10C04C4F1200220FA09
:1075AC0002F001FA04F340EA0300294630BD21FA47
:1075BC0004F0294630BD94F0000F83F4801306BF0D
:1075CC0081F480110134013D4EE77FEA645C18BF01
:1075DC007FEA655C29D094EA050F08BF90EA020F98
:1075EC0005D054EA000C04BF1946104630BD91EA90
:1075FC00030F1EBF0021002030BD5FEA545C05D193
:10760C004000494128BF41F0004130BD14F58004D1
:10761C003CBF01F5801130BD01F0004545F0FE4145
:10762C0041F470014FF0000030BD7FEA645C1ABF7A
:10763C00194610467FEA655C1CBF0B46024650EAB1
:10764C00013406BF52EA033591EA030F41F40021DD
:10765C0030BD00BF90F0000F04BF0021704730B563
:10766C004FF4806404F132044FF000054FF0000138
:10767C0050E700BF90F0000F04BF0021704730B5F9
:10768C004FF4806404F1320410F0004548BF4042CE
:10769C004FF000013EE700BF42004FEAE2014FEA23
:1076AC0031014FEA02701FBF12F07F4393F07F4FFE
:1076BC0081F06051704732F07F4208BF704793F001
:1076CC007F4F04BF41F40021704730B54FF4607414
:1076DC0001F0004521F000411CE700BF50EA010217
:1076EC0008BF704730B54FF000050AE050EA0102C0
:1076FC0008BF704730B511F0004502D5404261EB30
:10770C0041014FF4806404F132045FEA915C3FF470
:10771C00D8AE4FF003025FEADC0C18BF03325FEA0D
:10772C00DC0C18BF033202EBDC02C2F1200300FABE
:10773C0003FC20FA02F001FA03FE40EA0E0021FAE3
:10774C0002F11444BDE600BF10B5054C13462CB134
:10775C000A4601460220AFF3008010BD2046FCE72C
:10776C00000000000A44914200F1FF3300D1704741
:10777C0010B511F8014B03F8014F9142F9D110BD2E
:10778C00884210B501EB020402D98442234607D883
:10779C00431EA14208D011F8012B03F8012FF8E782
:1077AC00024401468A4200D110BD13F8014D02F883
:1077BC00014DF7E702440346934200D1704703F8AA
:1077CC00011BF9E738B50D4B1D68AB6B04467BB953
:1077DC001820FDF7ADFA0A4A0A4BA863C0E900234A
:1077EC00094B83600B23838101220023C0E904230E
:1077FC00AB6B00221C615A6138BD00BFD8E5032079
:10780C000E33CDAB34126DE6ECDE0500C9B2034687
:10781C0010F8012B1AB18A42F9D118467047002989
:10782C0018BF0023F9E710B50446FFF7EFFF18B9AE
:10783C00204600F032F8204410BD10F8012B11F84E
:10784C00013B012A28BF9A42F7D0D01A7047034651
:10785C0011F8012B03F8012B002AF9D17047000015
:10786C00024B0146186800F003B800BFD8E50320AE
:10787C0037B5044608460D4600F00FF8421C114679
:10788C0020460192FDF77CFA044618B1019A29466C
:10789C00FFF768FF204603B030BD034613F8012BF9
:1078AC00002AFBD1181A0138704710B56AB101399A
:1078BC00841810F8013B11F8012F934203D1A04218
:1078CC0001D0002BF5D1981A10BD1046FCE738B545
:1078DC0003460C4669B9BDE83840FFF797BF431C17
:1078EC00054621461846FFF791FF0028F7D1284698
:1078FC0038BD0025F5E700002DE9F0473A4E8646E5
:10790C008C4660461CF8014BA55D15F00805F8D1B6
:10791C002D2C33D19CF800404FF0010800F1020CE3
:10792C00002B5CD0102B0CD1302C0AD19CF8000011
:10793C0000F0DF0058284DD19CF8014010230CF1C9
:10794C00020C08F10047013F0026B7FBF3F9304663
:10795C0003FB197AA4F13005092D18D82C46A34243
:10796C0024DD751C07D081451DD301D1A2451ADB3E
:10797C0000FB034001261CF8014BEBE72B2C08BF46
:10798C009CF80040A84608BF00F1020CC8E7A4F11F
:10799C004105192D01D8373CE1E7A4F16105192DFA
:1079AC0004D8573CDBE74FF0FF36E4E7731C06D1F5
:1079BC002223CEF80030384642B9BDE8F087B8F142
:1079CC00000F00D04042002AF7D00EB10CF1FF316D
:1079DC001160F2E73024002BB3D10823B1E7302C2F
:1079EC00A4D00A23ADE700BF3A7E0D0013460A4629
:1079FC00014602480068FFF77FBF00BFD8E50320AF
:107A0C001D400D0059400D0081400D0085400D00BA
:107A1C00000000005041525449434C450050415223
:107A2C005449434C4520434F4E4E45435445440026
:107A3C005041525449434C45204641494C45442001
:107A4C00544F20434F4E4E4543540053414D504CE0
:107A5C00494E475F574149545F5354415445005375
:107A6C00544152542053414D504C494E47005055AF
:107A7C00424C4953485F574149545F535441544514
:107A8C00005354415254205055424C4953485F5373
:107A9C00544154450047617264656E2D4C616479A4
:107AAC002D4275672D30342D436170003663556F50
:107ABC006E7158734C6368666E3874354636557300
:107ACC005572784635387145007B202276616C758D
:107ADC0065223A202200252E326600222C202266B6
:107AEC006565644944223A202200227D0047617278
:107AFC0064656E2D4C6164792D4275672D30342D83
:107B0C004361702D50657263656E74616765006EBC
:107B1C0038657063507343466B73623955575974AB
:107B2C006758746F65344B6A686B76002564005334
:107B3C005441525420534C4545505F574149545F72
:107B4C00535441544500474F494E4720544F2053FE
:107B5C004C45455000534C4545505F53544154459A
:107B6C000057414B45205550005345545550005338
:107B7C004554555020434F4D504C45544500300012
:107B8C0000000000000000000000000000000000E9
:107B9C00A1400D00C5400D000000000000000000D9
:107BAC00D1400D0005410D0081660D00C7400D0050
:107BBC000000000000000000234F0D00194F0D00C5
:107BCC000F4F0D00C54E0D00034F0D00F74E0D006D
:107BDC00D9690D00E1690D00EB4E0D00E34E0D006F
:107BEC00D94E0D00CF4E0D00116A0D0000000000A3
:107BFC00000000005D4F0D00634F0D00A14F0D0004
:107C0C00714F0D005F4F0D000000000000000000E0
:107C1C00F3540D00E9540D00DF540D00D5540D0044
:107C2C00C9540D00BD540D00D9690D00E1690D005A
:107C3C00B1540D00A9540D009F540D0095540D0026
:107C4C00116A0D00000000000000000011550D002D
:107C5C005B550D0033550D0013550D003B550D00B4
:107C6C0043550D004B550D0053550D000000000001
:107C7C00000000009D550D008D550D008F550D0019
:107C8C002575007525303478006261756400536584
:107C9C007269616C0053657269616C31004A534FB3
:107CAC004E53747265616D4C6F6748616E646C65A0
:107CBC00720061707000253031307520005D20003D
:107CCC002C200028293A2000205B00636F6465207B
:107CDC003D200025690064657461696C73203D204A
:107CEC00000D0A006D0063006C6E00666E0074007F
:107CFC00636F64650064657461696C00000000006A
:107D0C0000000000635A0D00895A0D00495A0D00FD
:107D1C00A7560D000000000000000000A95E0D0039
:107D2C00C15E0D0081660D00C7400D000000000013
:107D3C0000000000D55E0D00E95E0D0025680D0009
:107D4C00515A0D000000000000000000615A0D00A7
:107D5C00975A0D00BD650D00535A0D000000000030
:107D6C00000000005F5A0D00A55A0D00155E0D00B5
:107D7C00C15A0D00000000000000000099690D00C0
:107D8C00A3690D00AD690D00B7690D00C1690D0047
:107D9C00CD690D00D9690D00E1690D00E9690D008F
:107DAC00F5690D00FD690D00076A0D00116A0D00E3
:107DBC0025592D256D2D25645425483A254D3A25F8
:107DCC0053257A0061736374696D650000000000CF
:107DDC0000000000E56E0D00516F0D00296F0D00C5
:107DEC00056B0D00F96E0D00156F0D00076F0D0082
:107DFC00236F0D00E76E0D00EB6E0D000000000010
:107E0C00000000002D700D0095700D006B700D00C2
:107E1C00056B0D005D700D002F700D003F700D0097
:107E2C008F700D004F700D0029700D000000202088
:107E3C00202020202020202828282828202020200E
:107E4C0020202020202020202020202020208810CE
:107E5C00101010101010101010101010101004042E
:107E6C000404040404040404101010101010104135
:107E7C0041414141410101010101010101010101A6
:107E8C00010101010101010101101010101010423B
:107E9C004242424242020202020202020202020276
:107EAC000202020202020202021010101020000054
:107EBC0000000000000000000000000000000000B6
:107ECC0000000000000000000000000000000000A6
:107EDC000000000000000000000000000000000096
:107EEC000000000000000000000000000000000086
:107EFC000000000000000000000000000000000076
:107F0C000000000000000000000000000000000065
:107F1C000000000000000000000000000000000055
:107F2C000000000000000000000000000000000045
:107F3C00A5470D009D4E0D002D4F0D00FD540D005D
:107F4C0071660D00F16A0D001D6C0D00956E0D0033
:047F5C00D16E0D00D5
:047F6000000000001D
:107F640004100000E803000001000000587D0D002B
:107F7400707D0D00D07D0D00DCE5032000000000C5
:107F840000000000000000000000000000000000ED
:107F940000000000000000000000000000000000DD
:107FA40000000000000000000000000000000000CD
:107FB40000000000000000000000000000000000BD
:107FC40000000000000000000000000000000000AD
:0C7FD400000000000000000000000000A1
:107FE000FFFFFFFF00000102030405060708090A5E
:107FF0000B0C0D0E0F101112131415161718191A59
:088000001B1C1D1E1F2028009F
:048008007856341260
:04000003D000401CCD
:00000001FF
