:02000002D0002C
:1040000000400D00206B0D00000006000D000501B2
:0840100004019A080000000001
:04401800C0660D0071
:10401C0009480A49884208B505D0094A824202D0AB
:10402C00121A02F0B1F90748074A0021121A02F0DD
:10403C00D3F9014808BD00BFCCE50320846A0D000C
:10404C0040E6032040E60320EDE7032070B5074E61
:10405C00074C02F05DF9A41BA4080025A54200D171
:10406C0070BD56F8043B98470135F7E7546A0D00CC
:10407C00786A0D0000F05FB808B500F06BF8BDE889
:10408C00084002F0FDB800F0DFBA00F0E5BA00001D
:10409C0008B5034A00210C2000F02AFAFEE700BF05
:1040AC009D430D000078B0FA80F040097047012361
:1040BC00037070477047006A0368DB68184700009C
:1040CC000A4B10B50446036000F036FF214601F0A0
:1040DC0034F902F08DF802F07FF82046044B40F8DA
:1040EC00043B01F017F8204610BD00BF04670D001B
:1040FC00EC660D0010B50446FFF7E2FF20462421C4
:10410C0002F038F9204610BD0EB410B58DB00FAAD0
:10411C00016852F8044B039200232020CDE90403DC
:10412C00CDE900421E2004AA00F0EAF90DB0BDE86A
:10413C00104003B0704708B502F05AF84FF416510E
:10414C0002F046F801F0B2FFBDE808404FF41651FA
:10415C0001F0A6BF38B501F0A9FF03681B699847A9
:10416C00002828DD042000F097FA01F09FFF036877
:10417C005B699847FF281ED10F4C0125207001F078
:10418C0095FF03685B69984760550135042DF6D19E
:10419C0061782378A27809480B441344DBB203708E
:1041AC00E078984207D1064B064802EB01220649FB
:1041BC001A60FFF7A9FF38BD41E6032040E6032053
:1041CC0048E60320B8E60320D4660D0070B5D0E9AC
:1041DC0000531426044606FB0356AE4204D0284670
:1041EC0001F05CFE1435F8E7206800F035FA204643
:1041FC0070BD8842F8B504460D46164616D9904255
:10420C0015D2A2F11406751AA1F114072C44B74269
:10421C001CD02CB13146204601F0A8FE337C23740F
:10422C00304601F03BFE143E143CF0E70ED0B54294
:10423C000CD02CB12946204601F098FE2B7C23741F
:10424C00284601F02BFE14351434F0E7F8BD2DE9A7
:10425C00F0410023C0E9003383604F689F4204465D
:10426C000E4623DD4FF0140808FB07F000F0ECF9C4
:10427C000546D8B1D4E9001208FB0212FFF7B9FFCA
:10428C00206800F0E9F92560A760D6E9007308FB07
:10429C000378B84508D03946284601F081FE3B7CAE
:1042AC002B7414371435F4E7736863602046BDE84B
:1042BC00F081000070B58CB00023CDE9003302937F
:1042CC0001F096FF1A4C0546694603A8FFF7BFFF9D
:1042DC00264603A906A8FFF7BAFF164B46F8043B7F
:1042EC0006A909A8FFF7B3FF09AA1E21304601F061
:1042FC007EF909A8FFF76AFF06A8FFF767FF0E4BC8
:10430C00236003A82562FFF761FF0C4B236001F0CB
:10431C006FFF4FF4165101F05BFF00F00DFE2146CC
:10432C0001F0F7F86846FFF751FF0CB070BD00BF05
:10433C004CE60320EC660D0040680D0004670D0090
:10434C0008B5024B1B685B6C019308BD4802030067
:10435C0008B5024B1B689B6C019308BD4802030017
:10436C0008B5024B1B68DB6C019308BD48020300C7
:10437C0008B5024B1B685B6D019308BD4802030036
:10438C0008B5024B1B685B68019308BD180203005B
:10439C0008B5024B1B68DB68019308BD18020300CB
:1043AC0008B5024B1B685B69019308BD180203003A
:1043BC0008B5024B1B685B69019308BD64020300DE
:1043CC0008B5024B1B689B68019308BD680203008B
:1043DC0008B5024B1B68DB68019308BD680203003B
:1043EC0008B5024B1B681B68019308BD3C02030017
:1043FC0008B5024B1B689B68019308BD3C02030087
:10440C0008B5024B1B68DB68019308BD3C02030036
:10441C0008B5024B1B681B69019308BD3C020300E5
:10442C0008B5024B1B685B69019308BD3C02030095
:10443C0008B5024B1B689B69019308BD3C02030045
:10444C0008B5024B1B68DB69019308BD3C020300F5
:10445C0008B5024B1B689B6A019308BD3C02030024
:10446C0008B5024B1B68DB6A019308BD3C020300D4
:10447C0008B5024B1B681B68019308BD4C02030076
:10448C0008B5024B1B685B68019308BD4C02030026
:10449C0008B5024B1B689B68019308BD4C020300D6
:1044AC0008B5024B1B681B69019308BD4C02030045
:1044BC0008B5024B1B685B69019308BD4C020300F5
:1044CC0008B5024B1B689B69019308BD4C020300A5
:1044DC0008B5024B1B68DB69019308BD4C02030055
:1044EC0008B5024B1B681B6A019308BD4C02030004
:1044FC0008B5024B1B685B6B019308BD600203009F
:10450C0008B5024B1B685B6D019308BD600203008C
:10451C0008B5024B1B68DB6E019308BD60020300FB
:10452C0008B5024B1B681B6F019308BD60020300AA
:10453C0008B5024B1B685B68019308BD20020300A1
:10454C0008B5024B1B685B69019308BD2002030090
:10455C0008B5034B1B68D3F88830019308BD0000E5
:10456C002002030008B5034B1B68D3F89430019369
:10457C0008BD00002002030008B5024B1B68DB6B72
:10458C00019308BD4402030008B5024B1B685B682D
:10459C00019308BD4002030008B5024B1B689B68E1
:1045AC00019308BD4002030008B5024B1B68DB6891
:1045BC00019308BD4002030008B5024B1B681B6940
:1045CC00019308BD4002030008B5024B1B685B69F0
:1045DC00019308BD4002030008B5024B1B689B69A0
:1045EC00019308BD4002030008B5024B1B68DB6950
:1045FC00019308BD4002030008B5024B1B681B6AFF
:10460C00019308BD4002030008B5024B1B681B6BED
:10461C00019308BD4002030008B5024B1B685B6B9D
:10462C00019308BD4002030008B5024B1B681B6CCC
:10463C00019308BD4002030008B5024B1B685B6C7C
:10464C00019308BD4002030008B5024B1B681B68B0
:10465C00019308BD1C02030008B5024B1B685B6884
:10466C00019308BD1C02030008B5024B1B689B6834
:10467C00019308BD1C02030008B5024B1B685B6A62
:10468C00019308BD1C02030008B5024B1B685B6C50
:10469C00019308BD1C0203000021FFF751BF10B5A8
:1046AC00036804469B689847A368013BA3602BB939
:1046BC0023682046DB68BDE81040184710BD0B6826
:1046CC00036013B15A6801325A60704710B5044642
:1046DC00006828B14368013B43600BB9FFF7DFFF6B
:1046EC00204610BD024800230360FFF729BE00BF1F
:1046FC0070E60320002240681146FFF75DBF0022E0
:10470C0040681146FFF778BF002240681146FFF75A
:10471C0083BF40680022FFF777BF4068002281F01A
:10472C000101FFF761BF002340681A461946FFF7E5
:10473C0053BF002340681A461946FFF745BF0022B5
:10474C0040681146FFF728BF406800220221FFF79E
:10475C002BBF002340681A46FFF716BF084B10B555
:10476C00282422461846002101F036FE054B048011
:10477C004FF0FF32426004225A60034A1A6010BDA7
:10478C007CE6032074E603201C670D0000224068C1
:10479C001146FFF731BF002240681146FFF73CBFBE
:1047AC0040680022FFF730BF4068002281F0010111
:1047BC00FFF71ABF002340681A461946FFF70CBFD3
:1047CC00002340681A461946FFF7FEBE00224068D7
:1047DC001146FFF7F1BE002240681146FFF7DCBE20
:1047EC00406800220221FFF7DFBE002340681A4612
:1047FC00FFF7CABE024B03225A60024A1A60704786
:10480C00A4E6032058670D00704710B51821044624
:10481C0001F0B0FD204610BDF0B5037D062B8DB028
:10482C000E4600F104074FF0000412D000F1080509
:10483C0015F8011D0A22304601F0DBFAAF420444A0
:10484C0019D0002CF4D02E21304601F0C3FA0444C8
:10485C00EEE72F236A4639460A208DF80040FFF711
:10486C00A7FD684601F00DFE33680246DB68694619
:10487C0030469847044620460DB0F0BD10B5054BA8
:10488C000446112240F8043B002101F0A5FD20460E
:10489C0010BD00BF94670D000346074A10B543F8DE
:1048AC00042B01F1100251F8044B43F8044B9142D4
:1048BC00F9D10A781A7010BD94670D0010B59DF8E7
:1048CC00084044EA032343EA024242EA016104231A
:1048DC004160037510BD13B5CB7800938B784A7883
:1048EC000978FFF7EBFF02B010BD00F110030122B5
:1048FC0013F8101C0129184608D153F8041C02EBBC
:10490C004102013A03F11003F2D17047022904BFAE
:10491C0053F8041C5218F4E70EB4F0B588B000AF8D
:10492C0007F13405102155F8042B7A6004462B4608
:10493C007818FD60FFF7A0FE0F287A681AD900F1ED
:10494C00080323F007036E46ADEB030D411C2B4609
:10495C006846FD60FFF790FE021E04DD2368694681
:10496C009B6820469847B5462037BD46BDE8F040C9
:10497C0003B070470028F7D0236802469B6807F104
:10498C00100120469847EFE710B5036804469B6872
:10499C009847A368013BA3602BB923682046DB68CA
:1049AC00BDE81040184710BD07B503688DF8071017
:1049BC009B6801220DF10701984703B05DF804FBD9
:1049CC0038B50B6803604D6843689D4204460CD0B3
:1049DC0015B16B6801336B60606828B14368013BAB
:1049EC0043600BB9FFF7D0FF6560204638BD0B461E
:1049FC001146002210B5C0E90022044683600BB9B1
:104A0C00204610BDFFF7DCFFFAE78368EBB11A789C
:104A1C00032A1AD8DFE802F00417021B052070479E
:104A2C0002685B685268D05C2D2812D0A0F130036C
:104A3C00092B0ED974280ED066280CD0A0F16E0369
:104A4C005842584170470620704700207047042098
:104A5C007047032070470220704710B50446FFF7DB
:104A6C00D4FF02280ED0C31EDBB2012B14D822684F
:104A7C00A36850685B68BDE810400A220021184406
:104A8C0001F0A8BD2268A36852685B68D05CA0F1F5
:104A9C0074035842584110BD0020FCE738B5002380
:104AAC00C0E9003304460E48C4E90203A9B10B78EF
:104ABC00032B06D08BB9136858684B68C35C6E2BFC
:104ACC0007D013684D6858688B6828445B1BA0603E
:104ADC00E36011462046FFF773FF204638BD00BF48
:104AEC0003680D0038B500250B46C0E90055C0E938
:104AFC000255C0E90455044611464BB11A78012AF7
:104B0C0006D103F11002DB6882604361FFF758FFA6
:104B1C00204638BD10B54369044663B18068E06037
:104B2C00013B1030A0602061636113B1FFF7DDFE23
:104B3C00A060012000E0184610BD10B57D21044690
:104B4C00FFF732FF01232371204610BD08B503790E
:104B5C00012B02D0022B04D008BD2C21FFF724FF1F
:104B6C00FAE73A21FAE710B50446FFF7EFFF2046C3
:104B7C007B21FFF719FF00232371204610BD000095
:104B8C0013B504460191FFF7E1FF2368019ADB6836
:104B9C0003492046984701232046237102B010BDDB
:104BAC00DE660D0013B504460191FFF7CFFF2368B5
:104BBC00019ADB680349204698470123204623715C
:104BCC0002B010BDA0670D002DE9F0410D4617464F
:104BDC002221DFF8A08004462F44FFF7E5FE29468A
:104BEC00BD422A4638D015F8016B222E03D05C2E1C
:104BFC0001D01F2EF4D82368521A9B682046984780
:104C0C005C212046FFF7D0FE0D2E0AD8072E1CD9AA
:104C1C00A6F10803052B18D8DFE803F00D0F1117C8
:104C2C001315222E01D05C2E0FD131462046FFF7F2
:104C3C00BBFE2946D4E76221F8E77421F6E76E2122
:104C4C00F4E76621F2E77221F0E723683246DB686D
:104C5C00414620469847ECE78D4204D023686A1AF7
:104C6C009B682046984722212046FFF79DFEBDE811
:104C7C00F08100BFA3670D0013B50446CDE90021F8
:104C8C00FFF764FF2046DDE90021FFF79DFF0223BB
:104C9C002046237102B010BD13B50446CDE90021A6
:104CAC00FFF754FF2046DDE90021FFF78DFF0123BC
:104CBC002046237102B010BD80680368DB6818477A
:104CCC007047084611B10B685B681847704770470E
:104CDC0070477047704738B504460D4600682E2162
:104CEC0001F0B3FB2368C31A2B6023B1037803B123
:104CFC00013023682060184638BD10B50C210446DD
:104D0C0001F038FB204610BD10B50421044601F01B
:104D1C0031FB204610BD10B50421044601F02AFBDE
:104D2C00204610BD08B501F09AFBB0FA80F040099E
:104D3C0008BD704710B50C4601F05AFA844210D0E9
:104D4C0001F0B4F9844205D101F0B0F9BDE810408E
:104D5C0001F0A9B92CB1236820465B68BDE810406E
:104D6C00184710BD13B504460846019101F089FBA4
:104D7C0001990246204602B0BDE81040FFF78CBFF7
:104D8C0013B504460846019101F07BFB2368019999
:104D9C00DB680246204602B0BDE81040184707B554
:104DAC0003688DF80710DB6801220DF107019847A5
:104DBC0003B05DF804FB0EB403B503AB002153F84C
:104DCC00042B006A019301F032F802B05DF804EB99
:104DDC0003B070472DE9F74FD0E900954FF0140858
:104DEC0008FB05F50093AB10184D17465D434C4678
:104DFC00002D23DD6E1008FB06F004EB000A3A468A
:104E0C00BAF804B0205801915F4528BF5A4601F00A
:104E1C0040FB0199012378B95F4503D1009A1370C7
:104E2C003546E5E78CBF012000200028F8D0AE1BEA
:104E3C000AF11404013EF3E7C00FF6E7A4EB0904F2
:104E4C000248A410604303B0BDE8F08FCDCCCCCCAD
:104E5C007FB50369067E01910BB301B3002500F108
:104E6C000C04039503A901A8FFF735FF0146B0B167
:104E7C000DF10B03039A8DF80B502046FFF7AAFF98
:104E8C009DF80B305BB12468142303FB004000F148
:104E9C000804B0F90630002BA8BFDEB2E2E73046BA
:104EAC0004B070BD10B5094C2378BFF35B8FDB07E2
:104EBC0009D42046FFF7F6F828B12046FFF7F7F89B
:104ECC00034801F05BFA034810BD00BFB0E60320B5
:104EDC00DB4C0D00CCE5032010B5094C2378BFF357
:104EEC005B8FDB0709D42046FFF7DCF828B120469E
:104EFC00FFF7DDF8034801F041FA034810BD00BF8D
:104F0C00B4E603203F4D0D00D0E5032038B5002555
:104F1C000446C0E90055C0E904558560856140F838
:104F2C00245FFFF70DFAFFF7BDFFE061FFF7D4FF39
:104F3C0025732062204638BD10B50A4C2378BFF388
:104F4C005B8FDB070CD42046FFF7ACF840B106486A
:104F5C00FFF7DCFF2046FFF7AAF8044801F00EFA31
:104F6C00014810BDACE60320BCE6032025540D001F
:104F7C00024A034903480023FFF7D2BAAD520D0091
:104F8C0039520D00B9510D0000231A461946184626
:104F9C00FFF7C6BA37B50D6951F8043B00930446C8
:104FAC0001A8FFF78CFB6A4629462046FFF71FFD38
:104FBC0001A8FFF78BFB204603B030BD37B58D68D9
:104FCC0051F8043B0093044601A8FFF778FB6A46AE
:104FDC0029462046FFF786FD01A8FFF777FB204600
:104FEC0003B030BD37B5CD6851F8043B009304468F
:104FFC0001A8FFF764FB6A4629462046FFF74EFDE1
:10500C0001A8FFF763FB204603B030BD70B58AB032
:10501C000D46014604A8FFF7D1FF144E04A8FFF774
:10502C0079FDE8B104A96846FFF7DCFF0298314628
:10503C00FFF778FE044610B12C1E18BF012401A8FE
:10504C00FFF744FB002CE9D004A96846FFF7A2FF48
:10505C006846FFF702FD286001A8FFF737FBDDE784
:10506C0005A8FFF733FB0AB070BD00BFA9670D00A0
:10507C0037B50C4620461249154601F0F0F948B9EF
:10508C0001F0B6F84FF4165101F0A2F801F0B0F8A7
:10509C0003B030BD0B49204601F0E1F970B94FF473
:1050AC00165301A928460193FFF7B0FF00F0FEFF4D
:1050BC00019900F0F5FF00F0F9FFE9E70020E7E7C0
:1050CC00AE670D00B5670D0070B5D0E9005314261E
:1050DC00044606FB0356AE4205D005F10800FFF767
:1050EC00F3FF1435F7E72068FFF7B6FA204670BDDA
:1050FC0070B5D0E90053044605EB0316AE4204D05C
:10510C00284600F0CBFE1035F8E72068FFF7A4FA2C
:10511C00204670BD10B504460C30FFF7D5FF204675
:10512C00FFF7E6FF204610BD10B5044B044640F8CF
:10513C00043BFFF7EFFF204610BD00BFEC660D00EF
:10514C0010B50446FFF7F0FF2046242101F012F9B8
:10515C00204610BD10B5034B03600446FFF7E4FF77
:10516C00204610BD58680D0010B50446FFF7F2FF3D
:10517C002046242101F0FEF8204610BD0022C0E993
:10518C00002210B582600C6804604C6844608C6826
:10519C000A604A6084608A6010BD10B503680446DA
:1051AC001868FFF7E5F8204610BD00002DE9F04F18
:1051BC0087B0804603931C4B5B68C3F30803894696
:1051CC0016466BB9FFF7B8FE044600F12403406A9B
:1051DC000593FFF7C5F8237B2BB105A8FFF7DDFF7F
:1051EC0007B0BDE8F08F01232373D4E900535FFAB5
:1051FC0089F905EB830AAA4512D055F8047B314690
:10520C00381DFFF725FE8145F5D33B68039A0092C4
:10521C00D3F808B04A46334641463846D847EAE701
:10522C0000232373D9E700BF00ED00E02DE9F74F11
:10523C009B461A4B5B68C3F30803804689461646A7
:10524C006BB9FFF779FE044600F12403406A019321
:10525C00FFF786F8237B2BB101A8FFF79EFF03B065
:10526C00BDE8F08F01232373D4E90053F6B205EBAC
:10527C00830A55450ED055F8047B5946381DFFF767
:10528C00E7FD8642F5D33B684A46DB684146384623
:10529C009847EEE700232373DEE700BF00ED00E044
:1052AC002DE9F341164B5B68C3F3080305460F4623
:1052BC001BBBFFF741FE00F124030446406A019337
:1052CC00FFF74EF8D4E90063462406EB8308B0459B
:1052DC0009D101A8FFF761FFA542B4BF002001204E
:1052EC0002B0BDE8F08156F8040B39460430FFF7E4
:1052FC00AFFD8442A8BF0446E9E70020F0E700BFF9
:10530C0000ED00E070B50446D0E900020B4600EB5E
:10531C008202824207D001461D6851F8046BAE42EE
:10532C0003D00846F5E7002070BD521A01F03AF898
:10533C006368013B63600120F6E71FB500F12403AD
:10534C000446406A01910393FFF70AF801A920462D
:10535C00FFF7D8FF18B163680BB9FFF715FE03A868
:10536C00FFF71BFF04B010BD70B5D0E9045618232D
:10537C00044603FB0656AE4215D005F1100120463B
:10538C00FFF7C0FF63680BB9FFF7FEFDE069296901
:10539C000368DB689847696919B1206A0368DB68A0
:1053AC0098471835E7E7D4E90453182606FB03564B
:1053BC00AE4204D0284600F071FD1835F8E7002302
:1053CC00636170BD73B50446FFF7DEFD04F1240381
:1053DC00606A0193FEF7C4FF2046FFF7C5FF01A8E2
:1053EC00FFF7DBFE606A08B1FEF7B2FFD4E90453A5
:1053FC00182606FB0356AE4204D0284600F04EFD9C
:10540C001835F8E72069FFF727F92068FFF724F92A
:10541C00204602B070BD00000148FFF7D3BF00BFAB
:10542C00BCE603208842F8B506460C46154627D93B
:10543C00904226D2A2F114056C1AA1F1140704446F
:10544C000026AF423DD0A4B12B682360AB88A3806B
:10545C00B5F90630E380C4E902662661AB68A36047
:10546C00AE60E368EA68E260EB6023692A69226156
:10547C002B6105F10800FFF727FE143D143CE0E713
:10548C001FD00027AC421CD0A6B123683360A38880
:10549C00B380B4F90630F380C6E902773761A368AC
:1054AC00B360A760F368E268F260E3603369226975
:1054BC003261236104F10800FFF706FE1434143640
:1054CC00E0E7F8BDF8B5D0E901539D4204460E461D
:1054DC0017460DDB0135002D006804DDA900FFF730
:1054EC00C3F818B9F8BDFFF7B7F800202060A56025
:1054FC002568626805EB86019200A2EB8602081D06
:10550C0000F050FF45F8267063680133636001209A
:10551C00E8E737B500F124030446406A01930D46D1
:10552C00FEF71EFFD4E9003103EB810083421A46DB
:10553C000BD01268AA4203F10403F7D101A8FFF7BC
:10554C002CFE0025284603B030BD2A462046FFF726
:10555C00B9FF05460028F1D06368012B01D1FFF794
:10556C0007FD01A8FFF719FEECE78842F8B50446E1
:10557C000D46164614D9904213D2A2F11006751A94
:10558C00A1F110072C44B74218D01CB1314620466B
:10559C0000F0ECFC304600F081FC103E103CF2E7D1
:1055AC000CD0B5420AD01CB12946204600F0DEFCD6
:1055BC00284600F073FC10351034F2E7F8BD70B5D6
:1055CC000E1E054611DD3001FFF73EF8044658B1BA
:1055DC00D5E9001201EB0212FFF7C7FF2868FFF7AD
:1055EC003BF82C60AE60012070BD0024F6E72DE97D
:1055FC00F04F914697B000230391D9F804100C9307
:10560C0046229942C0E90033C0E90233C0E90433B1
:10561C00CDE90A330446027623DCD9E9005714237A
:10562C0003FB0757AF423BD029460DA800F09EFC68
:10563C000DA911A80B9E00F099FCDDE90B13994202
:10564C001BDA0A9B0B9A03EB061603EB021231468C
:10565C0006F11000FFF789FFEEB90B9B01330B939A
:10566C0011E00AA8FFF7ABFF0028D6D10AA8FFF774
:10567C003FFD204617B0BDE8F08F01310AA8FFF7B7
:10568C009EFF0028DDD111A800F008FC0DA800F049
:10569C0005FC1435C6E711A9304600F067FCDCE7C1
:1056AC000026CDE90D660F9637464FF0140ADDE95A
:1056BC000A239E4280F297803301D35808930BB98A
:1056CC000136F4E70AFB06F3099702930DAD09A91D
:1056DC0008A8FFF700FB83460028F1D00146099A81
:1056EC008DF81F700DF11F032846FFF773FB9DF813
:1056FC001F800190B8F1000F66D1BDF82430ADF8D1
:10570C004830CDE913884FF6FF73CDF844B0ADF8AF
:10571C004A30CDF85480D5E9013293421ADB03F1BB
:10572C00010BBBF1000F4ADD0AFB0BF0FEF78CFFFF
:10573C000490002845D0D5E900120AFB0212FFF7AD
:10574C0071FE049B28680493FEF786FF049B2B6074
:10575C00C5F808B0019BD5F800B06A680AFB03F3E2
:10576C000BEB030101F114000AFB02B20491059347
:10577C00FFF758FE0499A9B1059B119A4BF8032029
:10578C00BDF848308B80BDF94A30CB80C1E9027737
:10579C000F61139B8B60149B1397CB60159B149715
:1057AC000B6115976B6801336B6013A8FFF78CFCCA
:1057BC00B8F1000F08D00DA8FFF786FC56E743465A
:1057CC00C0E74FF00108F0E7019B2D680AFB035579
:1057DC00089B1B782BB9D9F80030029A13441B7C18
:1057EC00EB80083573E72168226062686360A36808
:1057FC000B920C9A0C93E368A2600D9A0D9323699B
:10580C00E2600E9A0E93636922610F9A0F93039BC9
:10581C000A9162612376CEE77FB50546094B45F8C0
:10582C00043B04460E4601A81146FEF710FD01AAE2
:10583C0031462846FFF7DBFE01A8FEF7C7FC2046E1
:10584C0004B070BDEC660D00F0B50F4687B026496C
:10585C000C9C384616461D4600F001FE00BBE4B118
:10586C0029466846FFF78AFC2049242000F084FD75
:10587C00054670B1694603A8FEF7E9FC03AA314658
:10588C002846FFF7C9FF03A8FEF7A0FC184B2C62B3
:10589C002B606846FEF79AFC2C46204607B0F0BDFC
:1058AC001449384600F0DBFDE0B9002CF5D0294650
:1058BC006846FFF763FC0D49242000F05DFD0546AA
:1058CC000028E6D0694603A8FEF7C1FC03AA3146BE
:1058DC002846FFF7A1FF03A8FEF778FC064B2B60C8
:1058EC002C62D6E70024D8E7BD670D0050690D0087
:1058FC0058680D00C1670D0040680D00014B024A4D
:10590C001A607047B8E60320D2670D002DE9F04706
:10591C00089DD0F8209004460E461746984600F095
:10592C0067FC81454CD02B79190704D56A69544919
:10593C002046FFF740FAB8F1000F0DD05B2120464E
:10594C00FFF72DFA41462046FFF71AFA23684D4916
:10595C00DB680222204698472B79DA0723D5D5F845
:10596C0008802F21404600F0A6FD08B100F1010887
:10597C0041462046FFF704FA2B799B0708D53A21BC
:10598C002046FFF70CFAEA683F492046FFF713FA66
:10599C002A79236812F0040FDB6814BF3B493C4999
:1059AC000222204698472B7958071DD529690B46AA
:1059BC001A4613F8010B60B1202808D11946F7E7F5
:1059CC00344800F066F90028ADD0BDE8F0872828EF
:1059DC00EED12368521ADB682046984723682E497B
:1059EC00DB6804222046984700213846FEF790FDDC
:1059FC0001462046FFF7C4F923682549DB680222DB
:105A0C00204698471EB131462046FFF7B9F92B794D
:105A1C0013F0300F2CD023682049DB68022220467B
:105A2C0098472B79D9060AD523681D49DB680722CC
:105A3C0020469847AA691B492046FFF7BCF92B79E9
:105A4C009A0611D5DB0605D523681049DB680222BE
:105A5C002046984723681449DB6820460A22984759
:105A6C00E9692046FFF78CF95D212046FFF797F98D
:105A7C0023680E49DB6820460222BDE8F047184730
:105A8C00D6670D00DD670D00DE660D00E0670D00CA
:105A9C00E5670D00E4E60320E3670D00E8670D0001
:105AAC00EB670D00F3670D00F6670D0001680D0044
:105ABC002DE9F04385B0D0F820900C9C05460F469C
:105ACC0090461E4600F094FB814505D1494800F0F4
:105ADC00E0F8002840F08A802B6A474A01924FF088
:105AEC00000901A803938DF80890FFF73CF849468C
:105AFC004046FEF70DFD41498046012201A8FFF703
:105B0C00BBF84146FFF72EF93FB13D49012201A8F0
:105B1C00FFF7B2F83946FFF725F93EB139490122B2
:105B2C0001A8FFF7A9F83146FFF71CF92379DF0725
:105B3C000ED5A6682F21304600F0BDFC00B1461CE6
:105B4C003149012201A8FFF797F83146FFF70AF90E
:105B5C0023799E0707D52D49022201A8FFF78CF85F
:105B6C00E168FFF70DF82379580714D526693346F9
:105B7C001F4613F8012B2AB1202A01D11E46F7E744
:105B8C00282AF5D12249022201A8FFF775F8BA1B81
:105B9C003146FFF781F82379190707D51D490122F2
:105BAC0001A8FFF769F86169FEF7FCFF2379DA06B3
:105BBC0008D5042218490DEB0200FFF75DF8A16926
:105BCC00FEF7DEFF23799B0607D51449062201A8B0
:105BDC00FFF752F8E169FFF7C5F801A8FEF7ADFF32
:105BEC00286A0F4903680222DB68984705B0BDE8B4
:105BFC00F08300BFE4E6032028680D00B3670D00B6
:105C0C0004680D0006680D0008680D000A680D0098
:105C1C000D680D0010680D0012680D0017680D005E
:105C2C0001680D00002340681A46FEF7ADBC4068C1
:105C3C0000220221FEF7B8BC002240681146FEF794
:105C4C00ABBC002240681146FEF7B6BC002340688E
:105C5C001A461946FEF7B8BC002340681A46194686
:105C6C00FEF7BABC40680021FEF7DEBC406800219C
:105C7C00FEF7E2BC4068002281F00101FEF7B4BCE3
:105C8C0040680022FEF7C0BC002240681146FEF7B7
:105C9C00C3BC002240681146FEF7AEBC2DE9F043B0
:105CAC00002495B016460D460746FEF7E7FD214643
:105CBC0018220EA8009400F08FFB4023CDE90C3481
:105CCC0021466B460CAA3046FEF782FB04460028A0
:105CDC0046D1024601216868FEF76EFC022180461F
:105CEC0022466868FEF768FC009E81462146002E1D
:105CFC0036D0002934D17368022B03D00A2B0BD079
:105D0C00F669F4E7B8F1000F04D071693846043134
:105D1C00FEF7E1FD4146F3E7B9F1000F01D1494629
:105D2C00EEE77469102201A800F056FB06238DF8EB
:105D3C00143001AD04F108031834186859682A4668
:105D4C0003C20833A3421546F7D101A906A807AD33
:105D5C00FEF7A2FD0FCD3C1D0FC42B682370DEE7B0
:105D6C000098FEF72DFB384615B0BDE8F083000017
:105D7C00024B034A1A6000225A607047E4E6032083
:105D8C00A0680D00F8B506460D468F180024BD42DC
:105D9C000CD0336815F8011B9B6830469847031EDE
:105DAC0001DB1C44F3E7002C08BF1C462046F8BD61
:105DBC0013B50446084659B1019100F062FB236803
:105DCC000199DB680246204602B0BDE81040184736
:105DDC0002B010BD03689B68184738B50D21054605
:105DEC00FFF7F8FF0A2104462846FFF7F3FF20448B
:105DFC0038BD30B58BB000238DF82430012A98BF04
:105E0C000A2209AC0D46B1FBF2F101FB125303F06F
:105E1C00FF03092B94BF30333733DBB2AA4204F8AB
:105E2C00013DEFD92146FFF7C3FF0BB030BD2DE983
:105E3C00F04186B000AF05460E46381D14211446BD
:105E4C003B60FEF719FC13280ED8391D2846FFF7C6
:105E5C00AFFF04461EB12846FFF7BFFF044420469F
:105E6C001837BD46BDE8F08100F1080323F00703A5
:105E7C00E846ADEB030D2246411C3B686846FEF735
:105E8C00FBFB69462846FFF793FF0446C546E1E74E
:105E9C00014B00229A607047ECE6032010B50446D3
:105EAC000068FEF7D9FB204610BD10B5044600680B
:105EBC0008B1FEF7D1FB0023C4E90133236010BD08
:105ECC0038B504460D4600680131FEF7CDFB10B124
:105EDC00C4E90005012038BD10B50368044623B1A0
:105EEC0043688B4201D3012010BD2046FFF7E8FF29
:105EFC000028F9D0A368002BF5D122681370F2E7C3
:105F0C0037B50D46114601920446FFF7E5FF019A9D
:105F1C0028B92046FFF7C9FF204603B030BDA26068
:105F2C002946206800F030FA2268A3680021D15479
:105F3C00F2E738B5054600680C4668B16A688B68AC
:105F4C009A4207D3096800F094FAA368AB60002367
:105F5C00A36038BDFEF780FB23682B6063686B6021
:105F6C00A368AB600023C4E90033F1E710B500234C
:105F7C00C0E90033044683600373FFF7DAFF204661
:105F8C0010BD884210B5044605D00B682BB18A6849
:105F9C001946FFF7B5FF204610BDFFF786FFFAE75D
:105FAC0010B500230446C0E9003383600373FFF788
:105FBC00E8FF204610BD0000054B02221A60054B7D
:105FCC00054A9A600020186098809871FEF7B0BA64
:105FDC0008E70320FCE603200000FFFF024B1A68D1
:105FEC00024B1A60704700BFD4E503200CE7032076
:105FFC00704741747047704708B5007CFEF728FA6B
:10600C0020EAE07008BD08B5007CFEF701FA20EA32
:10601C00E07008BD08B5007CFEF70AFA40EAE070B3
:10602C0008BD08B5007CFEF7FBF940EAE07008BD3E
:10603C00007CFEF705BA37B5457C04462DB1207CB3
:10604C0003B0BDE83040FEF7DBB9007C0191FEF7F0
:10605C00FFF900280199F2DC284603B030BD10B5D9
:10606C001421044600F086F9204610BD10B54FF0FF
:10607C00000C0446084611464FF47A72C4E901C27A
:10608C00044A22600122207462741A46FEF7A8F9B1
:10609C00204610BDF8680D00007C0023FEF7E0B927
:1060AC000022FFF7F9BF007CFEF7A2B9F7B51A4C36
:1060BC0026684EB98420FDF7E6FF054618B1842208
:1060CC00314600F089F92560144D2F684FB98420B2
:1060DC00FDF7D9FF064618B18422394600F07CF949
:1060EC002E600F4E3178BFF35B8F11F0010110D190
:1060FC0030460191FDF7D6FF019950B12B6822680B
:10610C000848FFF7B3FF3046FDF7D1FF064800F013
:10611C0035F9044803B0F0BD14E7032018E7032059
:10612C0010E703201CE7032003600D004174704747
:10613C007047704708B50021007CFEF7C1F940EAB2
:10614C00E07008BD08B50121007CFEF7B9F940EA02
:10615C00E07008BD08B5007CFEF7AAF920EAE070F3
:10616C0008BD08B5007CFEF79BF920EAE07008BD7D
:10617C0013B50446007C0191FEF79AF900280199A9
:10618C0001DC607C20B1207CFEF7A2F920EAE070F3
:10619C0002B010BD007CFEF7A3B910B51421044663
:1061AC0000F0E8F8204610BD10B54FF47A730446A1
:1061BC0008460021C4E90113044B23600123207419
:1061CC0063741146FEF754F9204610BD28690D0082
:1061DC00007C0022FEF754B9007CFEF759B910B5CB
:1061EC0014220446002100F0F7F8204610BD0000F0
:1061FC0010B50F4C88B003A8FFF7F1FF2178BFF35F
:10620C005B8F11F001010FD120460191FDF74AFF80
:10621C00019948B103AA0748FFF7C6FF2046FDF7CE
:10622C0046FF054800F0AAF8024808B010BD00BFB0
:10623C0030E7032034E703203D610D00014B18606B
:10624C00704700BFD8E5032008B50B4B43B1FFF7EF
:10625C00CFFF03681B699847002801DDAFF300806E
:10626C00064B43B1FFF722FF03681B6998470028D0
:10627C0001DDAFF3008008BD00000000000000004D
:10628C0008B5FFF7E1FFFEF78BF8014B186008BD6E
:10629C0050E703200548064A064908B5121A00F0D3
:1062AC0073F8054B054A1A6008BD00BF00F40320C3
:1062BC0004F40320806A0D0000F403201E1C279AAE
:1062CC0007B5002300931A466FF07701FEF74AF9E1
:1062DC0003B05DF804FB000007B543880A2B08D017
:1062EC00502B0BD1094B1B684BB103B05DF804EB81
:1062FC001847FFF7E5FF03B05DF804FB002300939C
:10630C001A466FF07701FEF72DF9F4E74CE70320FE
:10631C0010B512480021FEF7B7F9114B1A68114B52
:10632C009A42114B0CBF012200221A7001D0FFF7C8
:10633C00B1FFFEF725F8044600F056F80B4B13B1ED
:10634C002046AFF3008000210848FEF715F9BDE8A0
:10635C00104007480021FEF7FBB800BF49620D0052
:10636C0000F403201E1C279A48E7032000000000BD
:10637C00E5620D00FDF789BEFDF785BE00230146E1
:10638C001A46184600F030B90A44914200F1FF3326
:10639C0000D1704710B511F8014B03F8014F914231
:1063AC00F9D110BD884210B501EB020402D9844228
:1063BC00234607D8431EA14208D011F8012B03F83D
:1063CC00012FF8E7024401468A4200D110BD13F8B0
:1063DC00014D02F8014DF7E702440346934200D108
:1063EC00704703F8011BF9E738B50D4B1D68AB6B13
:1063FC0004467BB91820FEF727F90A4A0A4BA86312
:10640C00C0E90023094B83600B2383810122002305
:10641C00C0E90423AB6B00221C615A6138BD00BF7C
:10642C00D8E503200E33CDAB34126DE6ECDE05005F
:10643C00C9B2034610F8012B1AB18A42F9D1184699
:10644C007047002918BF0023F9E710B50446FFF781
:10645C00EFFF18B9204600F014F8204410BD10F8D6
:10646C00012B11F8013B012A28BF9A42F7D0D01A10
:10647C007047034611F8012B03F8012B002AF9D1C0
:10648C007047034613F8012B002AFBD1181A013868
:10649C00704710B56AB10139841810F8013B11F836
:1064AC00012F934203D1A04201D0002BF5D1981AB1
:1064BC0010BD1046FCE738B503460C4669B9BDE87B
:1064CC003840FFF7B5BF431C054621461846FFF779
:1064DC00AFFF0028F7D1284638BD0025F5E70000AE
:1064EC002DE9F0473A4E86468C4660461CF8014B27
:1064FC00A55D15F00805F8D12D2C33D19CF8004082
:10650C004FF0010800F1020C002B5CD0102B0CD1C9
:10651C00302C0AD19CF8000000F0DF0058284DD137
:10652C009CF8014010230CF1020C08F10047013FCC
:10653C000026B7FBF3F9304603FB197AA4F13005BA
:10654C00092D18D82C46A34224DD751C07D0814593
:10655C001DD301D1A2451ADB00FB034001261CF818
:10656C00014BEBE72B2C08BF9CF80040A84608BF5A
:10657C0000F1020CC8E7A4F14105192D01D8373CF4
:10658C00E1E7A4F16105192D04D8573CDBE74FF086
:10659C00FF36E4E7731C06D12223CEF800303846D0
:1065AC0042B9BDE8F087B8F1000F00D04042002A94
:1065BC00F7D00EB10CF1FF311160F2E73024002B53
:1065CC00B3D10823B1E7302CA4D00A23ADE700BF28
:1065DC0052690D0013460A46014602480068FFF74F
:1065EC007FBF00BFD8E503202DE9F843DFF8B88062
:1065FC000646D8F800001F460D46914600F056F8A6
:10660C00254B1C6834B9254C1C60254B13B11B68F9
:10661C00C4F8883063681F2B07DDD8F8000000F041
:10662C0047F84FF0FF30BDE8F8834EB3D4F888003C
:10663C0088B91C4B23B9D8F8000000F038F8F0E703
:10664C004FF48470FEF700F80028F4D00023C0E962
:10665C004033C4F88800636840F8239001229A40C4
:10666C0000EB8301D0F800311343022EC0F8003147
:10667C00C1F8807002BFD0F804311A43C0F804216D
:10668C006368D8F800005A1C0233626044F8235047
:10669C0000F00EF80020C6E7E0E7032054E70320E3
:1066AC000000000055460D003CE603207047704783
:1066BC00704700001D400D0059400D0081400D0039
:1066CC0085400D000000000044697374616E6365C1
:1066DC003A202564000000000000000000000000CB
:1066EC0000000000000000009D400D00C1400D00A6
:1066FC000000000000000000CD400D0001410D0025
:10670C0019590D00C3400D000000000000000000EE
:10671C005F470D0055470D004B470D0001470D001D
:10672C003F470D0033470D00715C0D00795C0D0087
:10673C0027470D001F470D0015470D000B470D0097
:10674C00A95C0D000000000000000000F7470D00E0
:10675C00ED470D00E3470D00D9470D00CD470D0067
:10676C00C1470D00715C0D00795C0D00B5470D0043
:10677C00AD470D00A3470D0099470D00A95C0D0016
:10678C00000000000000000025480D0015480D0019
:10679C0017480D0025750075253034780062617539
:1067AC00640053657269616C0053657269616C3188
:1067BC00004A534F4E53747265616D4C6F6748615C
:1067CC006E646C657200617070002530313075201C
:1067DC00005D20002C200028293A2000205B00635B
:1067EC006F6465203D200025690064657461696CE7
:1067FC0073203D20000D0A006D00630066006C6E76
:10680C0000666E007400636F646500646574616992
:10681C006C0000000000000000000000E14C0D00C6
:10682C00074D0D00C54C0D0025490D000000000062
:10683C000000000035510D004D510D0019590D008F
:10684C00C3400D00000000000000000061510D006D
:10685C0075510D00BD5A0D00CD4C0D00000000000F
:10686C0000000000DF4C0D00154D0D0055580D00BB
:10687C00CF4C0D000000000000000000DD4C0D00AE
:10688C00234D0D007D500D00414D0D00000000000A
:10689C0000000000315C0D003B5C0D00455C0D0000
:1068AC004F5C0D00595C0D00655C0D00715C0D00BA
:1068BC00795C0D00815C0D008D5C0D00955C0D000C
:1068CC009F5C0D00A95C0D0025592D256D2D2564AF
:1068DC005425483A254D3A2553257A006173637443
:1068EC00696D65000000000000000000FD5F0D00F8
:1068FC006B600D0043600D00915D0D0013600D0089
:10690C002F600D0021600D003D600D00FF5F0D003C
:10691C0005600D0000000000000000003F610D004C
:10692C00A7610D007D610D00915D0D006F610D0083
:10693C0041610D0051610D00A1610D0061610D00FF
:10694C0039610D000000202020202020202020284C
:10695C00282828282020202020202020202020200B
:10696C002020202020208810101010101010101043
:10697C001010101010100404040404040404040483
:10698C001010101010101041414141414101010102
:10699C0001010101010101010101010101010101DB
:1069AC0001101010101010424242424242020202E8
:1069BC0002020202020202020202020202020202AB
:1069CC000210101010200000000000000000000059
:1069DC0000000000000000000000000000000000AB
:1069EC00000000000000000000000000000000009B
:1069FC00000000000000000000000000000000008B
:106A0C00000000000000000000000000000000007A
:106A1C00000000000000000000000000000000006A
:106A2C00000000000000000000000000000000005A
:106A3C00000000000000000000000000000000004A
:106A4C000000000000000000C1420D00F1460D00E6
:106A5C0069470D0001480D0009590D007D5D0D00C1
:106A6C009D5E0D00C55F0D00E95F0D00000000008C
:046A7C000000000016
:046A80000000000012
:106A840070680D0088680D00E8680D00DCE50320DF
:106A940000000000000000000000000000000000F2
:106AA40000000000000000000000000000000000E2
:106AB40000000000000000000000000000000000D2
:106AC40000000000000000000000000000000000C2
:106AD40000000000000000000000000000000000B2
:106AE40000000000000000000000000000000000A2
:046AF400E5E70320AF
:106AF800FFFFFFFF00000102030405060708090A5B
:106B08000B0C0D0E0F101112131415161718191A55
:086B18001B1C1D1E1F2028009C
:046B2000785634125D
:04000003D000401CCD
:00000001FF
