:02000002D0002C
:1040000000400D00306B0D00000006000D000501A2
:0840100004019A080000000001
:04401800D0660D0061
:10401C0009480A49884208B505D0094A824202D0AB
:10402C00121A02F0B9F90748074A0021121A02F0D5
:10403C00DBF9014808BD00BFCCE50320946A0D00F4
:10404C0040E6032040E60320EDE7032070B5074E61
:10405C00074C02F065F9A41BA4080025A54200D169
:10406C0070BD56F8043B98470135F7E7646A0D00BC
:10407C00886A0D0000F048B808B500F055F8BDE8A6
:10408C00084002F005B900F0D9BA00F0DFBA000020
:10409C0008B5034A00210C2000F02CFAFEE700BF03
:1040AC00A1430D000078B0FA80F04009704701235D
:1040BC00037070477047006A0368DB68184700009C
:1040CC000A4B10B50446036000F030FF214601F0A6
:1040DC002EF902F095F802F087F82046044B40F8D0
:1040EC00043B01F011F8204610BD00BF14670D0011
:1040FC00FC660D0010B50446FFF7E2FF20462421B4
:10410C0002F040F9204610BD08B502F079F84FF4E2
:10411C00165102F065F801F0D1FFBDE808404FF4EC
:10412C00165101F0C5BF000038B501F0C7FF036898
:10413C001B699847002840DD042000F0A7FA01F025
:10414C00BDFF03685B699847FF2836D11B4C0125DE
:10415C00207001F0B3FF03685B6998476055013527
:10416C00042DF6D161782378A27815480B441344BA
:10417C00DBB20370E07898421FD1124C02EB0122A3
:10418C00226002F03DF8104901F01EFE02F038F8F2
:10419C002468002C05460EDA2D2101F019FE61422F
:1041AC000A22284601F02DFE02F02AF8BDE838401C
:1041BC00064901F01CBE2146F2E738BD41E603205A
:1041CC0040E6032048E60320E4660D00EF660D0090
:1041DC0070B5D0E900531426044606FB0356AE42D4
:1041EC0004D0284601F062FE1435F8E7206800F090
:1041FC002DFA204670BD8842F8B504460D46164689
:10420C0016D9904215D2A2F11406751AA1F1140711
:10421C002C44B7421CD02CB13146204601F0AEFEE6
:10422C00337C2374304601F041FE143E143CF0E71D
:10423C000ED0B5420CD02CB12946204601F09EFE82
:10424C002B7C2374284601F031FE14351434F0E72E
:10425C00F8BD2DE9F0410023C0E9003383604F68BD
:10426C009F4204460E4623DD4FF0140808FB07F06E
:10427C0000F0E4F90546D8B1D4E9001208FB0212AB
:10428C00FFF7B9FF206800F0E1F92560A760D6E9D7
:10429C00007308FB0378B84508D03946284601F06E
:1042AC0087FE3B7C2B7414371435F4E7736863601A
:1042BC002046BDE8F081000070B58CB00023CDE93C
:1042CC000033029301F09CFF1A4C0546694603A883
:1042DC00FFF7BFFF264603A906A8FFF7BAFF164B48
:1042EC0046F8043B06A909A8FFF7B3FF09AA1E214B
:1042FC00304601F076F909A8FFF76AFF06A8FFF728
:10430C0067FF0E4B236003A82562FFF761FF0C4B80
:10431C00236001F075FF4FF4165101F061FF00F0BE
:10432C0005FE214601F0EFF86846FFF751FF0CB08F
:10433C0070BD00BF4CE60320FC660D0050680D00FC
:10434C0014670D0008B5024B1B685B6C019308BD2C
:10435C004802030008B5024B1B689B6C019308BD17
:10436C004802030008B5024B1B68DB6C019308BDC7
:10437C004802030008B5024B1B685B6D019308BD36
:10438C004802030008B5024B1B685B68019308BD2B
:10439C001802030008B5024B1B68DB68019308BDCB
:1043AC001802030008B5024B1B685B69019308BD3A
:1043BC001802030008B5024B1B685B69019308BD2A
:1043CC006402030008B5024B1B689B68019308BD8F
:1043DC006802030008B5024B1B68DB68019308BD3B
:1043EC006802030008B5024B1B681B68019308BDEB
:1043FC003C02030008B5024B1B689B68019308BD87
:10440C003C02030008B5024B1B68DB68019308BD36
:10441C003C02030008B5024B1B681B69019308BDE5
:10442C003C02030008B5024B1B685B69019308BD95
:10443C003C02030008B5024B1B689B69019308BD45
:10444C003C02030008B5024B1B68DB69019308BDF5
:10445C003C02030008B5024B1B689B6A019308BD24
:10446C003C02030008B5024B1B68DB6A019308BDD4
:10447C003C02030008B5024B1B681B68019308BD86
:10448C004C02030008B5024B1B685B68019308BD26
:10449C004C02030008B5024B1B689B68019308BDD6
:1044AC004C02030008B5024B1B681B69019308BD45
:1044BC004C02030008B5024B1B685B69019308BDF5
:1044CC004C02030008B5024B1B689B69019308BDA5
:1044DC004C02030008B5024B1B68DB69019308BD55
:1044EC004C02030008B5024B1B681B6A019308BD04
:1044FC004C02030008B5024B1B685B6B019308BDB3
:10450C006002030008B5024B1B68DB6E019308BD0B
:10451C006002030008B5024B1B681B6F019308BDBA
:10452C006002030008B5024B1B685B68019308BD71
:10453C002002030008B5024B1B685B69019308BDA0
:10454C002002030008B5034B1B68D3F88830019395
:10455C0008BD00002002030008B5034B1B68D3F80C
:10456C009430019308BD00002002030008B5024BF3
:10457C001B68DB6B019308BD4402030008B5024BBA
:10458C001B685B68019308BD4002030008B5024B31
:10459C001B689B68019308BD4002030008B5024BE1
:1045AC001B68DB68019308BD4002030008B5024B91
:1045BC001B681B69019308BD4002030008B5024B40
:1045CC001B685B69019308BD4002030008B5024BF0
:1045DC001B689B69019308BD4002030008B5024BA0
:1045EC001B68DB69019308BD4002030008B5024B50
:1045FC001B681B6A019308BD4002030008B5024BFF
:10460C001B681B6B019308BD4002030008B5024BED
:10461C001B685B6B019308BD4002030008B5024B9D
:10462C001B681B6C019308BD4002030008B5024BCC
:10463C001B685B6C019308BD4002030008B5024B7C
:10464C001B681B68019308BD1C02030008B5024BD4
:10465C001B685B68019308BD1C02030008B5024B84
:10466C001B689B68019308BD1C02030008B5024B34
:10467C001B685B6A019308BD1C02030008B5024B62
:10468C001B685B6C019308BD1C0203000021FFF743
:10469C0051BF10B5036804469B689847A368013B5B
:1046AC00A3602BB923682046DB68BDE8104018478F
:1046BC0010BD0B68036013B15A6801325A60704721
:1046CC0010B50446006828B14368013B43600BB940
:1046DC00FFF7DFFF204610BD024800230360FFF701
:1046EC0031BE00BF70E60320002240681146FFF780
:1046FC005DBF002240681146FFF778BF002240687A
:10470C001146FFF783BF40680022FFF777BF406870
:10471C00002281F00101FFF761BF002340681A46B7
:10472C001946FFF753BF002340681A461946FFF796
:10473C0045BF002240681146FFF728BF40680022A1
:10474C000221FFF72BBF002340681A46FFF716BF64
:10475C00084B10B5282422461846002101F044FECF
:10476C00054B04804FF0FF32426004225A60034A2A
:10477C001A6010BD7CE6032074E603202C670D0044
:10478C00002240681146FFF731BF002240681146F5
:10479C00FFF73CBF40680022FFF730BF40680022A3
:1047AC0081F00101FFF71ABF002340681A46194631
:1047BC00FFF70CBF002340681A461946FFF7FEBEF0
:1047CC00002240681146FFF7F1BE002240681146F6
:1047DC00FFF7DCBE406800220221FFF7DFBE00239A
:1047EC0040681A46FFF7CABE024B03225A60024ABF
:1047FC001A607047A4E6032068670D00704710B577
:10480C001821044601F0BEFD204610BDF0B5037D15
:10481C00062B8DB00E4600F104074FF0000412D0A9
:10482C0000F1080515F8011D0A22304601F0E9FADD
:10483C00AF42044419D0002CF4D02E21304601F0A4
:10484C00C7FA0444EEE72F236A4639460A208DF84E
:10485C000040FFF7AFFD684601F01BFE33680246CF
:10486C00DB68694630469847044620460DB0F0BDDB
:10487C0010B5054B0446112240F8043B002101F011
:10488C00B3FD204610BD00BFA4670D000346074AC8
:10489C0010B543F8042B01F1100251F8044B43F806
:1048AC00044B9142F9D10A781A7010BDA4670D001F
:1048BC0010B59DF8084044EA032343EA024242EA59
:1048CC00016104234160037510BD13B5CB780093CF
:1048DC008B784A780978FFF7EBFF02B010BD00F136
:1048EC001003012213F8101C0129184608D153F8A3
:1048FC00041C02EB4102013A03F11003F2D17047A0
:10490C00022904BF53F8041C5218F4E70EB4F0B596
:10491C0088B000AF07F13405102155F8042B7A60EC
:10492C0004462B467818FD60FFF7A0FE0F287A6826
:10493C001AD900F1080323F007036E46ADEB030D03
:10494C00411C2B466846FD60FFF790FE021E04DDFD
:10495C00236869469B6820469847B5462037BD4674
:10496C00BDE8F04003B070470028F7D0236802463A
:10497C009B6807F1100120469847EFE710B50368D4
:10498C0004469B689847A368013BA3602BB9236836
:10499C002046DB68BDE81040184710BD07B503681A
:1049AC008DF807109B6801220DF10701984703B0A1
:1049BC005DF804FB38B50B6803604D6843689D4295
:1049CC0004460CD015B16B6801336B60606828B17C
:1049DC004368013B43600BB9FFF7D0FF656020468D
:1049EC0038BD0B461146002210B5C0E90022044622
:1049FC0083600BB9204610BDFFF7DCFFFAE7836834
:104A0C00EBB11A78032A1AD8DFE802F00417021B5C
:104A1C000520704702685B685268D05C2D2812D064
:104A2C00A0F13003092B0ED974280ED066280CD0B7
:104A3C00A0F16E0358425841704706207047002081
:104A4C00704704207047032070470220704710B550
:104A5C000446FFF7D4FF02280ED0C31EDBB2012B95
:104A6C0014D82268A36850685B68BDE810400A221D
:104A7C000021184401F0B6BD2268A36852685B6837
:104A8C00D05CA0F174035842584110BD0020FCE7E3
:104A9C0038B50023C0E9003304460E48C4E90203CC
:104AAC00A9B10B78032B06D08BB9136858684B68E7
:104ABC00C35C6E2B07D013684D6858688B6828440C
:104ACC005B1BA060E36011462046FFF773FF204696
:104ADC0038BD00BF16680D0038B500250B46C0E97F
:104AEC000055C0E90255C0E90455044611464BB1C6
:104AFC001A78012A06D103F11002DB688260436147
:104B0C00FFF758FF204638BD10B54369044663B122
:104B1C008068E060013B1030A0602061636113B1DC
:104B2C00FFF7DDFEA060012000E0184610BD10B5B7
:104B3C007D210446FFF732FF01232371204610BD6F
:104B4C0008B50379012B02D0022B04D008BD2C210F
:104B5C00FFF724FFFAE73A21FAE710B50446FFF70E
:104B6C00EFFF20467B21FFF719FF0023237120461E
:104B7C0010BD000013B504460191FFF7E1FF236857
:104B8C00019ADB680349204698470123204623718C
:104B9C0002B010BDB0670D0013B504460191FFF7CC
:104BAC00CFFF2368019ADB6803492046984701230D
:104BBC002046237102B010BDB3670D002DE9F04102
:104BCC000D4617462221DFF8A08004462F44FFF73C
:104BDC00E5FE2946BD422A4638D015F8016B222E37
:104BEC0003D05C2E01D01F2EF4D82368521A9B6878
:104BFC00204698475C212046FFF7D0FE0D2E0AD8A0
:104C0C00072E1CD9A6F10803052B18D8DFE803F0F2
:104C1C000D0F11171315222E01D05C2E0FD131461A
:104C2C002046FFF7BBFE2946D4E76221F8E7742142
:104C3C00F6E76E21F4E76621F2E77221F0E72368CC
:104C4C003246DB68414620469847ECE78D4204D05B
:104C5C0023686A1A9B682046984722212046FFF752
:104C6C009DFEBDE8F08100BFB6670D0013B504468C
:104C7C00CDE90021FFF764FF2046DDE90021FFF7B5
:104C8C009DFF02232046237102B010BD13B50446CC
:104C9C00CDE90021FFF754FF2046DDE90021FFF7A5
:104CAC008DFF01232046237102B010BD806803687C
:104CBC00DB6818477047084611B10B685B681847EA
:104CCC007047704770477047704738B504460D46BB
:104CDC0000682E2101F0C1FB2368C31A2B6023B19D
:104CEC00037803B1013023682060184638BD10B535
:104CFC000C21044601F046FB204610BD10B50421E2
:104D0C00044601F03FFB204610BD10B504210446BB
:104D1C0001F038FB204610BD08B501F0A8FBB0FA35
:104D2C0080F0400908BD704710B50C4601F068FAD8
:104D3C00844210D001F0C2F9844205D101F0BEF9D1
:104D4C00BDE8104001F0B7B92CB1236820465B6870
:104D5C00BDE81040184710BD13B504460846019134
:104D6C0001F097FB01990246204602B0BDE81040C5
:104D7C00FFF78CBF13B504460846019101F089FB7F
:104D8C0023680199DB680246204602B0BDE810405A
:104D9C00184707B503688DF80710DB6801220DF181
:104DAC000701984703B05DF804FB0EB403B503ABE1
:104DBC00002153F8042B006A019301F040F802B073
:104DCC005DF804EB03B070472DE9F74FD0E900957F
:104DDC004FF0140808FB05F50093AB10184D17465F
:104DEC005D434C46002D23DD6E1008FB06F004EBF2
:104DFC00000A3A46BAF804B0205801915F4528BF22
:104E0C005A4601F04EFB0199012378B95F4503D155
:104E1C00009A13703546E5E78CBF0120002000286E
:104E2C00F8D0AE1B0AF11404013EF3E7C00FF6E70D
:104E3C00A4EB09040248A410604303B0BDE8F08F52
:104E4C00CDCCCCCC7FB50369067E01910BB301B3FD
:104E5C00002500F10C04039503A901A8FFF735FF09
:104E6C000146B0B10DF10B03039A8DF80B5020469F
:104E7C00FFF7AAFF9DF80B305BB12468142303FBEA
:104E8C00004000F10804B0F90630002BA8BFDEB2D8
:104E9C00E2E7304604B070BD10B5094C2378BFF37F
:104EAC005B8FDB0709D42046FFF7FCF828B12046BE
:104EBC00FFF7FDF8034801F069FA034810BD00BF85
:104ECC00B0E60320CF4C0D00CCE5032010B5094C07
:104EDC002378BFF35B8FDB0709D42046FFF7E2F89A
:104EEC0028B12046FFF7E3F8034801F04FFA0348D6
:104EFC0010BD00BFB4E60320334D0D00D0E50320F8
:104F0C0038B500250446C0E90055C0E90455856054
:104F1C00856140F8245FFFF715FAFFF7BDFFE061EC
:104F2C00FFF7D4FF25732062204638BD10B50A4C1C
:104F3C002378BFF35B8FDB070CD42046FFF7B2F866
:104F4C0040B10648FFF7DCFF2046FFF7B0F80448F5
:104F5C0001F01CFA014810BDACE60320BCE60320AE
:104F6C0019540D00024A034903480023FFF7D2BA33
:104F7C00A1520D002D520D00AD510D0000231A460B
:104F8C0019461846FFF7C6BA37B50D6951F8043BF8
:104F9C000093044601A8FFF78CFB6A46294620467D
:104FAC00FFF71FFD01A8FFF78BFB204603B030BDB8
:104FBC0037B58D6851F8043B0093044601A8FFF700
:104FCC0078FB6A4629462046FFF786FD01A8FFF7C5
:104FDC0077FB204603B030BD37B5CD6851F8043BA4
:104FEC000093044601A8FFF764FB6A462946204655
:104FFC00FFF74EFD01A8FFF763FB204603B030BD61
:10500C0070B58AB00D46014604A8FFF7D1FF144EC7
:10501C0004A8FFF779FDE8B104A96846FFF7DCFFA7
:10502C0002983146FFF778FE044610B12C1E18BFCB
:10503C00012401A8FFF744FB002CE9D004A9684621
:10504C00FFF7A2FF6846FFF702FD286001A8FFF7F3
:10505C0037FBDDE705A8FFF733FB0AB070BD00BFD7
:10506C00BC670D0037B50C4620461249154601F0B9
:10507C00FEF948B901F0C4F84FF4165101F0B0F83C
:10508C0001F0BEF803B030BD0B49204601F0EFF93A
:10509C0070B94FF4165301A928460193FFF7B0FFDE
:1050AC0001F00CF8019901F003F801F007F8E9E7B9
:1050BC000020E7E7C1670D00C8670D0070B5D0E9A7
:1050CC0000531426044606FB0356AE4205D005F1E8
:1050DC000800FFF7F3FF1435F7E72068FFF7B6FA7F
:1050EC00204670BD70B5D0E90053044605EB03169D
:1050FC00AE4204D0284600F0D9FE1035F8E72068FF
:10510C00FFF7A4FA204670BD10B504460C30FFF72B
:10511C00D5FF2046FFF7E6FF204610BD10B5044B27
:10512C00044640F8043BFFF7EFFF204610BD00BFDC
:10513C00FC660D0010B50446FFF7F0FF2046242155
:10514C0001F020F9204610BD10B5034B0360044656
:10515C00FFF7E4FF204610BD68680D0010B504464B
:10516C00FFF7F2FF2046242101F00CF9204610BD78
:10517C000022C0E9002210B582600C6804604C6803
:10518C0044608C680A604A6084608A6010BD10B507
:10519C00036804461868FFF7EDF8204610BD0000C0
:1051AC002DE9F04F87B0804603931C4B5B68C3F32B
:1051BC000803894616466BB9FFF7B8FE044600F1A2
:1051CC002403406A0593FFF7CDF8237B2BB105A888
:1051DC00FFF7DDFF07B0BDE8F08F01232373D4E99F
:1051EC0000535FFA89F905EB830AAA4512D055F8EA
:1051FC00047B3146381DFFF725FE8145F5D33B680E
:10520C00039A0092D3F808B04A46334641463846D2
:10521C00D847EAE700232373D9E700BF00ED00E08D
:10522C002DE9F74F9B461A4B5B68C3F30803804686
:10523C00894616466BB9FFF779FE044600F1240344
:10524C00406A0193FFF78EF8237B2BB101A8FFF77F
:10525C009EFF03B0BDE8F08F01232373D4E9005304
:10526C00F6B205EB830A55450ED055F8047B59462A
:10527C00381DFFF7E7FD8642F5D33B684A46DB68ED
:10528C00414638469847EEE700232373DEE700BF1C
:10529C0000ED00E02DE9F341164B5B68C3F3080306
:1052AC0005460F461BBBFFF741FE00F124030446E5
:1052BC00406A0193FFF756F8D4E90063462406EBE5
:1052CC008308B04509D101A8FFF761FFA542B4BF1F
:1052DC000020012002B0BDE8F08156F8040B3946DD
:1052EC000430FFF7AFFD8442A8BF0446E9E7002075
:1052FC00F0E700BF00ED00E070B50446D0E9000215
:10530C000B4600EB8202824207D001461D6851F821
:10531C00046BAE4203D00846F5E7002070BD521A6C
:10532C0001F048F86368013B63600120F6E71FB5A4
:10533C0000F124030446406A01910393FFF712F82D
:10534C0001A92046FFF7D8FF18B163680BB9FFF726
:10535C0015FE03A8FFF71BFF04B010BD70B5D0E914
:10536C0004561823044603FB0656AE4215D005F12D
:10537C0010012046FFF7C0FF63680BB9FFF7FEFD75
:10538C00E06929690368DB689847696919B1206A83
:10539C000368DB6898471835E7E7D4E90453182607
:1053AC0006FB0356AE4204D0284600F07FFD1835AC
:1053BC00F8E70023636170BD73B50446FFF7DEFDAB
:1053CC0004F12403606A0193FEF7CCFF2046FFF73B
:1053DC00C5FF01A8FFF7DBFE606A08B1FEF7BAFF54
:1053EC00D4E90453182606FB0356AE4204D02846D3
:1053FC0000F05CFD1835F8E72069FFF727F9206805
:10540C00FFF724F9204602B070BD00000148FFF7F9
:10541C00D3BF00BFBCE603208842F8B506460C4655
:10542C00154627D9904226D2A2F114056C1AA1F187
:10543C00140704440026AF423DD0A4B12B6823606E
:10544C00AB88A380B5F90630E380C4E90266266117
:10545C00AB68A360AE60E368EA68E260EB60236966
:10546C002A6922612B6105F10800FFF727FE143D24
:10547C00143CE0E71FD00027AC421CD0A6B1236837
:10548C003360A388B380B4F90630F380C6E90277A1
:10549C003761A368B360A760F368E268F260E36009
:1054AC00336922693261236104F10800FFF706FEBB
:1054BC0014341436E0E7F8BDF8B5D0E901539D4239
:1054CC0004460E4617460DDB0135002D006804DD41
:1054DC00A900FFF7C3F818B9F8BDFFF7B7F800201B
:1054EC002060A5602568626805EB86019200A2EB3E
:1054FC008602081D00F05EFF45F8267063680133D4
:10550C0063600120E8E737B500F124030446406AE4
:10551C0001930D46FEF726FFD4E9003103EB810021
:10552C0083421A460BD01268AA4203F10403F7D146
:10553C0001A8FFF72CFE0025284603B030BD2A46F3
:10554C002046FFF7B9FF05460028F1D06368012B10
:10555C0001D1FFF707FD01A8FFF719FEECE7884220
:10556C00F8B504460D46164614D9904213D2A2F152
:10557C001006751AA1F110072C44B74218D01CB1B3
:10558C003146204600F0FAFC304600F08FFC103E0D
:10559C00103CF2E70CD0B5420AD01CB1294620468B
:1055AC0000F0ECFC284600F081FC10351034F2E7DA
:1055BC00F8BD70B50E1E054611DD3001FFF73EF843
:1055CC00044658B1D5E9001201EB0212FFF7C7FFF0
:1055DC002868FFF73BF82C60AE60012070BD0024FA
:1055EC00F6E72DE9F04F914697B000230391D9F8D7
:1055FC0004100C9346229942C0E90033C0E90233EF
:10560C00C0E90433CDE90A330446027623DCD9E938
:10561C000057142303FB0757AF423BD029460DA874
:10562C0000F0ACFC0DA911A80B9E00F0A7FCDDE965
:10563C000B1399421BDA0A9B0B9A03EB061603EB2E
:10564C000212314606F11000FFF789FFEEB90B9BF1
:10565C0001330B9311E00AA8FFF7ABFF0028D6D15A
:10566C000AA8FFF73FFD204617B0BDE8F08F0131C7
:10567C000AA8FFF79EFF0028DDD111A800F016FC48
:10568C000DA800F013FC1435C6E711A9304600F044
:10569C0075FCDCE70026CDE90D660F9637464FF01A
:1056AC00140ADDE90A239E4280F297803301D35815
:1056BC0008930BB90136F4E70AFB06F3099702933A
:1056CC000DAD09A908A8FFF700FB83460028F1D00F
:1056DC000146099A8DF81F700DF11F032846FFF73C
:1056EC0073FB9DF81F800190B8F1000F66D1BDF8D7
:1056FC002430ADF84830CDE913884FF6FF73CDF860
:10570C0044B0ADF84A30CDF85480D5E9013293421B
:10571C001ADB03F1010BBBF1000F4ADD0AFB0BF0A6
:10572C00FEF78CFF0490002845D0D5E900120AFB47
:10573C000212FFF771FE049B28680493FEF786FFA4
:10574C00049B2B60C5F808B0019BD5F800B06A68C3
:10575C000AFB03F30BEB030101F114000AFB02B289
:10576C0004910593FFF758FE0499A9B1059B119A72
:10577C004BF80320BDF848308B80BDF94A30CB8004
:10578C00C1E902770F61139B8B60149B1397CB605D
:10579C00159B14970B6115976B6801336B6013A8FD
:1057AC00FFF78CFCB8F1000F08D00DA8FFF786FCB2
:1057BC0056E74346C0E74FF00108F0E7019B2D6820
:1057CC000AFB0355089B1B782BB9D9F80030029AB9
:1057DC0013441B7CEB80083573E7216822606268F8
:1057EC006360A3680B920C9A0C93E368A2600D9A09
:1057FC000D932369E2600E9A0E93636922610F9AEE
:10580C000F93039B0A9162612376CEE77FB5054621
:10581C00094B45F8043B04460E4601A81146FEF719
:10582C0018FD01AA31462846FFF7DBFE01A8FEF75A
:10583C00CFFC204604B070BDFC660D00F0B50F46E1
:10584C0087B026490C9C384616461D4600F00FFEC4
:10585C0000BBE4B129466846FFF78AFC20492420A6
:10586C0000F092FD054670B1694603A8FEF7F1FC05
:10587C0003AA31462846FFF7C9FF03A8FEF7A8FC88
:10588C00184B2C622B606846FEF7A2FC2C46204677
:10589C0007B0F0BD1449384600F0E9FDE0B9002C22
:1058AC00F5D029466846FFF763FC0D49242000F02B
:1058BC006BFD05460028E6D0694603A8FEF7C9FC37
:1058CC0003AA31462846FFF7A1FF03A8FEF780FC88
:1058DC00064B2B602C62D6E70024D8E7D0670D006E
:1058EC0060690D0068680D00D4670D0050680D00EC
:1058FC00014B024A1A607047B8E60320E5670D00B9
:10590C002DE9F047089DD0F8209004460E46174626
:10591C00984600F075FC81454CD02B79190704D5BD
:10592C006A6954492046FFF740FAB8F1000F0DD0D0
:10593C005B212046FFF72DFA41462046FFF71AFA65
:10594C0023684D49DB680222204698472B79DA07F9
:10595C0023D5D5F808802F21404600F0B4FD08B1BE
:10596C0000F1010841462046FFF704FA2B799B070A
:10597C0008D53A212046FFF70CFAEA683F49204641
:10598C00FFF713FA2A79236812F0040FDB6814BFAF
:10599C003B493C490222204698472B7958071DD594
:1059AC0029690B461A4613F8010B60B1202808D15F
:1059BC001946F7E7344800F066F90028ADD0BDE889
:1059CC00F0872828EED12368521ADB6820469847C6
:1059DC0023682E49DB68042220469847002138466C
:1059EC00FEF790FD01462046FFF7C4F923682549D0
:1059FC00DB680222204698471EB131462046FFF74D
:105A0C00B9F92B7913F0300F2CD023682049DB68BF
:105A1C000222204698472B79D9060AD523681D49BE
:105A2C00DB68072220469847AA691B492046FFF7E6
:105A3C00BCF92B799A0611D5DB0605D523681049DC
:105A4C00DB6802222046984723681449DB6820460D
:105A5C000A229847E9692046FFF78CF95D21204618
:105A6C00FFF797F923680E49DB6820460222BDE850
:105A7C00F0471847E9670D00F0670D00B0670D009F
:105A8C00F3670D00F8670D00E4E60320F6670D00E0
:105A9C00FB670D00FE670D0006680D0009680D0020
:105AAC0014680D002DE9F04385B0D0F820900C9CC3
:105ABC0005460F4690461E4600F0A2FB814505D1D7
:105ACC00494800F0E0F8002840F08A802B6A474AE9
:105ADC0001924FF0000901A803938DF80890FFF78D
:105AEC003CF849464046FEF70DFD414980460122EF
:105AFC0001A8FFF7BBF84146FFF72EF93FB13D492E
:105B0C00012201A8FFF7B2F83946FFF725F93EB19B
:105B1C003949012201A8FFF7A9F83146FFF71CF912
:105B2C002379DF070ED5A6682F21304600F0CBFC79
:105B3C0000B1461C3149012201A8FFF797F8314604
:105B4C00FFF70AF923799E0707D52D49022201A8F0
:105B5C00FFF78CF8E168FFF70DF82379580714D597
:105B6C00266933461F4613F8012B2AB1202A01D18E
:105B7C001E46F7E7282AF5D12249022201A8FFF791
:105B8C0075F8BA1B3146FFF781F82379190707D549
:105B9C001D49012201A8FFF769F86169FEF7FCFFB6
:105BAC002379DA0608D5042218490DEB0200FFF719
:105BBC005DF8A169FEF7DEFF23799B0607D5144932
:105BCC00062201A8FFF752F8E169FFF7C5F801A812
:105BDC00FEF7ADFF286A0F4903680222DB6898477D
:105BEC0005B0BDE8F08300BFE4E6032038680D0083
:105BFC00C6670D00F1660D0017680D0019680D00E1
:105C0C001B680D001E680D0021680D0023680D0037
:105C1C0028680D0014680D00002340681A46FEF732
:105C2C00ADBC406800220221FEF7B8BC00224068DF
:105C3C001146FEF7ABBC002240681146FEF7B6BC1D
:105C4C00002340681A461946FEF7B8BC002340688A
:105C5C001A461946FEF7BABC40680021FEF7DEBCB6
:105C6C0040680021FEF7E2BC4068002281F001018F
:105C7C00FEF7B4BC40680022FEF7C0BC00224068AE
:105C8C001146FEF7C3BC002240681146FEF7AEBCBD
:105C9C002DE9F043002495B016460D460746FEF755
:105CAC00E7FD214618220EA8009400F09DFB40232E
:105CBC00CDE90C3421466B460CAA3046FEF78AFB24
:105CCC000446002846D1024601216868FEF76EFCA6
:105CDC000221804622466868FEF768FC009E8146D9
:105CEC002146002E36D0002934D17368022B03D004
:105CFC000A2B0BD0F669F4E7B8F1000F04D07169E8
:105D0C0038460431FEF7E1FD4146F3E7B9F1000FE7
:105D1C0001D14946EEE77469102201A800F064FB3A
:105D2C0006238DF8143001AD04F1080318341868FB
:105D3C0059682A4603C20833A3421546F7D101A974
:105D4C0006A807ADFEF7A2FD0FCD3C1D0FC42B68B6
:105D5C002370DEE70098FEF735FB384615B0BDE83A
:105D6C00F0830000024B034A1A6000225A6070470D
:105D7C00E4E60320B0680D00F8B506460D468F1812
:105D8C000024BD420CD0336815F8011B9B683046CB
:105D9C009847031E01DB1C44F3E7002C08BF1C468C
:105DAC002046F8BD13B50446084659B1019100F0E0
:105DBC0070FB23680199DB680246204602B0BDE8FF
:105DCC001040184702B010BD08B5FFF7EBFF08BD37
:105DDC0003689B68184738B50D210546FFF7F8FF97
:105DEC000A2104462846FFF7F3FF204438BD38B596
:105DFC000546FFF7D7FF04462846FFF7ECFF204483
:105E0C0038BD30B58BB000238DF82430012A98BFF3
:105E1C000A2209AC0D46B1FBF2F101FB125303F05F
:105E2C00FF03092B94BF30333733DBB2AA4204F89B
:105E3C00013DEFD92146FFF7B5FF0BB030BD2DE981
:105E4C00F04186B000AF05460E46381D14211446AD
:105E5C003B60FEF70BFC13280ED8391D2846FFF7C4
:105E6C00A1FF04461EB12846FFF7B5FF04442046A7
:105E7C001837BD46BDE8F08100F1080323F0070395
:105E8C00E846ADEB030D2246411C3B686846FEF725
:105E9C00EDFB69462846FFF785FF0446C546E1E75A
:105EAC00014B00229A607047ECE6032010B50446C3
:105EBC000068FEF7CBFB204610BD10B50446006809
:105ECC0008B1FEF7C3FB0023C4E90133236010BD06
:105EDC0038B504460D4600680131FEF7BFFB10B122
:105EEC00C4E90005012038BD10B50368044623B190
:105EFC0043688B4201D3012010BD2046FFF7E8FF19
:105F0C000028F9D0A368002BF5D122681370F2E7B2
:105F1C0037B50D46114601920446FFF7E5FF019A8D
:105F2C0028B92046FFF7C9FF204603B030BDA26058
:105F3C002946206800F030FA2268A3680021D15469
:105F4C00F2E738B5054600680C4668B16A688B689C
:105F5C009A4207D3096800F094FAA368AB60002357
:105F6C00A36038BDFEF772FB23682B6063686B601F
:105F7C00A368AB600023C4E90033F1E710B500233C
:105F8C00C0E90033044683600373FFF7DAFF204651
:105F9C0010BD884210B5044605D00B682BB18A6839
:105FAC001946FFF7B5FF204610BDFFF786FFFAE74D
:105FBC0010B500230446C0E9003383600373FFF778
:105FCC00E8FF204610BD0000054B02221A60054B6D
:105FDC00054A9A600020186098809871FEF7A2BA62
:105FEC0008E70320FCE603200000FFFF024B1A68C1
:105FFC00024B1A60704700BFD4E503200CE7032066
:10600C00704741747047704708B5007CFEF722FA60
:10601C0020EAE07008BD08B5007CFEF7FBF920EA29
:10602C00E07008BD08B5007CFEF704FA40EAE070A9
:10603C0008BD08B5007CFEF7F5F940EAE07008BD34
:10604C00007CFEF7FFB937B5457C04462DB1207CAA
:10605C0003B0BDE83040FEF7D5B9007C0191FEF7E6
:10606C00F9F900280199F2DC284603B030BD10B5CF
:10607C001421044600F086F9204610BD10B54FF0EF
:10608C00000C0446084611464FF47A72C4E901C26A
:10609C00044A22600122207462741A46FEF7A2F9A7
:1060AC00204610BD08690D00007C0023FEF7DAB90C
:1060BC000022FFF7F9BF007CFEF79CB9F7B51A4C2C
:1060CC0026684EB98420FDF7DEFF054618B1842200
:1060DC00314600F089F92560144D2F684FB98420A2
:1060EC00FDF7D1FF064618B18422394600F07CF941
:1060FC002E600F4E3178BFF35B8F11F0010110D180
:10610C0030460191FDF7CEFF019950B12B68226802
:10611C000848FFF7B3FF3046FDF7C9FF064800F00B
:10612C0035F9044803B0F0BD14E7032018E7032049
:10613C0010E703201CE7032013600D004174704727
:10614C007047704708B50021007CFEF7BBF940EAA8
:10615C00E07008BD08B50121007CFEF7B3F940EAF8
:10616C00E07008BD08B5007CFEF7A4F920EAE070E9
:10617C0008BD08B5007CFEF795F920EAE07008BD73
:10618C0013B50446007C0191FEF794F9002801999F
:10619C0001DC607C20B1207CFEF79CF920EAE070E9
:1061AC0002B010BD007CFEF79DB910B51421044659
:1061BC0000F0E8F8204610BD10B54FF47A73044691
:1061CC0008460021C4E90113044B23600123207409
:1061DC0063741146FEF74EF9204610BD38690D0068
:1061EC00007C0022FEF74EB9007CFEF753B910B5C7
:1061FC0014220446002100F0F7F8204610BD0000E0
:10620C0010B50F4C88B003A8FFF7F1FF2178BFF34E
:10621C005B8F11F001010FD120460191FDF742FF78
:10622C00019948B103AA0748FFF7C6FF2046FDF7BE
:10623C003EFF054800F0AAF8024808B010BD00BFA8
:10624C0030E7032034E703204D610D00014B18604B
:10625C00704700BFD8E5032008B50B4B43B1FFF7DF
:10626C00CFFF03681B699847002801DDAFF300805E
:10627C00064B43B1FFF722FF03681B6998470028C0
:10628C0001DDAFF3008008BD00000000000000003D
:10629C0008B5FFF7E1FFFEF785F8014B186008BD64
:1062AC0050E703200548064A064908B5121A00F0C3
:1062BC0073F8054B054A1A6008BD00BF00F40320B3
:1062CC0004F40320906A0D0000F403201E1C279A8E
:1062DC0007B5002300931A466FF07701FEF73CF9DF
:1062EC0003B05DF804FB000007B543880A2B08D007
:1062FC00502B0BD1094B1B684BB103B05DF804EB71
:10630C001847FFF7E5FF03B05DF804FB002300938B
:10631C001A466FF07701FEF71FF9F4E74CE70320FC
:10632C0010B512480021FEF7A9F9114B1A68114B50
:10633C009A42114B0CBF012200221A7001D0FFF7B8
:10634C00B1FFFEF71FF8044600F056F80B4B13B1E3
:10635C002046AFF3008000210848FEF707F9BDE89E
:10636C00104007480021FEF7EDB800BF59620D0040
:10637C0000F403201E1C279A48E7032000000000AD
:10638C00F5620D00FDF781BEFDF77DBE00230146D1
:10639C001A46184600F030B90A44914200F1FF3316
:1063AC0000D1704710B511F8014B03F8014F914221
:1063BC00F9D110BD884210B501EB020402D9844218
:1063CC00234607D8431EA14208D011F8012B03F82D
:1063DC00012FF8E7024401468A4200D110BD13F8A0
:1063EC00014D02F8014DF7E702440346934200D1F8
:1063FC00704703F8011BF9E738B50D4B1D68AB6B03
:10640C0004467BB91820FEF719F90A4A0A4BA8630F
:10641C00C0E90023094B83600B23838101220023F5
:10642C00C0E90423AB6B00221C615A6138BD00BF6C
:10643C00D8E503200E33CDAB34126DE6ECDE05004F
:10644C00C9B2034610F8012B1AB18A42F9D1184689
:10645C007047002918BF0023F9E710B50446FFF771
:10646C00EFFF18B9204600F014F8204410BD10F8C6
:10647C00012B11F8013B012A28BF9A42F7D0D01A00
:10648C007047034611F8012B03F8012B002AF9D1B0
:10649C007047034613F8012B002AFBD1181A013858
:1064AC00704710B56AB10139841810F8013B11F826
:1064BC00012F934203D1A04201D0002BF5D1981AA1
:1064CC0010BD1046FCE738B503460C4669B9BDE86B
:1064DC003840FFF7B5BF431C054621461846FFF769
:1064EC00AFFF0028F7D1284638BD0025F5E700009E
:1064FC002DE9F0473A4E86468C4660461CF8014B17
:10650C00A55D15F00805F8D12D2C33D19CF8004071
:10651C004FF0010800F1020C002B5CD0102B0CD1B9
:10652C00302C0AD19CF8000000F0DF0058284DD127
:10653C009CF8014010230CF1020C08F10047013FBC
:10654C000026B7FBF3F9304603FB197AA4F13005AA
:10655C00092D18D82C46A34224DD751C07D0814583
:10656C001DD301D1A2451ADB00FB034001261CF808
:10657C00014BEBE72B2C08BF9CF80040A84608BF4A
:10658C0000F1020CC8E7A4F14105192D01D8373CE4
:10659C00E1E7A4F16105192D04D8573CDBE74FF076
:1065AC00FF36E4E7731C06D12223CEF800303846C0
:1065BC0042B9BDE8F087B8F1000F00D04042002A84
:1065CC00F7D00EB10CF1FF311160F2E73024002B43
:1065DC00B3D10823B1E7302CA4D00A23ADE700BF18
:1065EC0062690D0013460A46014602480068FFF72F
:1065FC007FBF00BFD8E503202DE9F843DFF8B88052
:10660C000646D8F800001F460D46914600F056F895
:10661C00254B1C6834B9254C1C60254B13B11B68E9
:10662C00C4F8883063681F2B07DDD8F8000000F031
:10663C0047F84FF0FF30BDE8F8834EB3D4F888002C
:10664C0088B91C4B23B9D8F8000000F038F8F0E7F3
:10665C004FF48470FDF7F2FF0028F4D00023C0E95A
:10666C004033C4F88800636840F8239001229A40B4
:10667C0000EB8301D0F800311343022EC0F8003137
:10668C00C1F8807002BFD0F804311A43C0F804215D
:10669C006368D8F800005A1C0233626044F8235037
:1066AC0000F00EF80020C6E7E0E7032054E70320D3
:1066BC000000000049460D003CE60320704770477F
:1066CC00704700001D400D0059400D0081400D0029
:1066DC0085400D000000000064697374616E636591
:1066EC003A2000206D6D000000000000000000004A
:1066FC0000000000000000009D400D00C1400D0096
:10670C000000000000000000CD400D0001410D0014
:10671C000D590D00C3400D000000000000000000EA
:10672C0053470D0049470D003F470D00F5460D003E
:10673C0033470D0027470D00655C0D006D5C0D00A7
:10674C001B470D0013470D0009470D00FF460D00B8
:10675C009D5C0D000000000000000000EB470D00E8
:10676C00E1470D00D7470D00CD470D00C1470D0087
:10677C00B5470D00655C0D006D5C0D00A9470D0063
:10678C00A1470D0097470D008D470D009D5C0D0036
:10679C00000000000000000019480D0009480D0021
:1067AC000B480D00256400257500752530347800E4
:1067BC00626175640053657269616C00536572693E
:1067CC00616C31004A534F4E53747265616D4C6F5E
:1067DC006748616E646C65720061707000253031C1
:1067EC00307520005D20002C200028293A20002044
:1067FC005B00636F6465203D20002569006465744F
:10680C0061696C73203D20000D0A00630066006C0A
:10681C006E00666E007400636F646500646574617D
:10682C00696C00000000000000000000D54C0D0059
:10683C00FB4C0D00B94C0D0019490D000000000077
:10684C000000000029510D0041510D000D590D00A3
:10685C00C3400D00000000000000000055510D0069
:10686C0069510D00B15A0D00C14C0D000000000023
:10687C0000000000D34C0D00094D0D0049580D00CF
:10688C00C34C0D000000000000000000D14C0D00B6
:10689C00174D0D0071500D00354D0D00000000001E
:1068AC0000000000255C0D002F5C0D00395C0D0014
:1068BC00435C0D004D5C0D00595C0D00655C0D00DA
:1068CC006D5C0D00755C0D00815C0D00895C0D002C
:1068DC00935C0D009D5C0D0025592D256D2D2564B7
:1068EC005425483A254D3A2553257A006173637433
:1068FC00696D650000000000000000000D600D00D7
:10690C007B600D0053600D00855D0D0023600D0054
:10691C003F600D0031600D004D600D000F600D00EB
:10692C0015600D0000000000000000004F610D001C
:10693C00B7610D008D610D00855D0D007F610D004F
:10694C0051610D0061610D00B1610D0071610D00AF
:10695C0049610D000000202020202020202020282C
:10696C0028282828202020202020202020202020FB
:10697C002020202020208810101010101010101033
:10698C001010101010100404040404040404040473
:10699C0010101010101010414141414141010101F2
:1069AC0001010101010101010101010101010101CB
:1069BC0001101010101010424242424242020202D8
:1069CC00020202020202020202020202020202029B
:1069DC000210101010200000000000000000000049
:1069EC00000000000000000000000000000000009B
:1069FC00000000000000000000000000000000008B
:106A0C00000000000000000000000000000000007A
:106A1C00000000000000000000000000000000006A
:106A2C00000000000000000000000000000000005A
:106A3C00000000000000000000000000000000004A
:106A4C00000000000000000000000000000000003A
:106A5C000000000000000000C5420D00E5460D00DE
:106A6C005D470D00F5470D00FD580D00715D0D00E3
:106A7C00AD5E0D00D55F0D00F95F0D00000000004C
:046A8C000000000006
:046A90000000000002
:106A940080680D0098680D00F8680D00DCE503209F
:106AA40000000000000000000000000000000000E2
:106AB40000000000000000000000000000000000D2
:106AC40000000000000000000000000000000000C2
:106AD40000000000000000000000000000000000B2
:106AE40000000000000000000000000000000000A2
:106AF4000000000000000000000000000000000092
:046B0400E5E703209E
:106B0800FFFFFFFF00000102030405060708090A4A
:106B18000B0C0D0E0F101112131415161718191A45
:086B28001B1C1D1E1F2028008C
:046B3000785634124D
:04000003D000401CCD
:00000001FF
