:02000002D0002C
:1040000000400D006C850D00000006000E0005014B
:084010000401EB0500000000B3
:04401800407E0D00D9
:10401C0009480A49884208B505D0094A824202D0AB
:10402C00121A03F0ABFD0748074A0021121A03F0DD
:10403C00CBFD014808BD00BF88E30320C4840D00FC
:10404C0008E4032008E40320F0E7032070B503F034
:10405C0091F9074C074BE41AA40800251E46A5420B
:10406C0004D056F8253098470135F8E770BD00BFED
:10407C00B4840D0080840D0000F048BB08B500F03E
:10408C00C3F8BDE8084003F037B900F0B1BE00F04A
:10409C00B7BE00F0B5BE000008B5034A00210C20E5
:1040AC0000F0DAFDFEE700BF154A0D000078B0FA0B
:1040BC0080F0400970470123037070477047006A15
:1040CC000368DB68184700000A4B10B50446036010
:1040DC0001F000FE214601F0EDFF03F0C1F803F002
:1040EC00B3F82046044B40F8043B01F0E9FE2046AF
:1040FC0010BD00BF747E0D005C7E0D0010B5044633
:10410C00FFF7E2FF2046242103F00BFA204610BDF6
:10411C000EB400B58CB00DAA202352F8041B0392E8
:10412C008DE8060004930168002304AA1E20059361
:10413C0000F09AFD0CB05DF804EB03B07047000082
:10414C0010B5074C00F068FC2368C01AB0F57A7FF4
:10415C0004D300F061FC2060012010BD002010BDD4
:10416C001CE4032030B5044685B00D46FFF7E8FF8C
:10417C00F0B1FFF7E5FF114B21681B788DF800308B
:10418C002A683C2302A801F031F8039C9CB16368B7
:10419C00013B63607BB9236820469B689847A36802
:1041AC00013BA3603BB923682046DB68984702E0DB
:1041BC0000F0A6FDDAE7002005B030BD3CE403209A
:1041CC007FB504460D461E468AB10146684602F08C
:1041DC008DFE0B49684602F0C8FE294602F0B9FE76
:1041EC0001680848FFF794FF684602F016FE1EB1FE
:1041FC0029462046FFF7B6FF012004B070BD00BF72
:10420C0086810D00E4E40320F0B59D4C23788BB03F
:10421C00092B00F24482DFE813F00A00510042023D
:10422C0042029500C000EF00110100022102954FDF
:10423C00954E78680022114600F0A2FD0546B8B1F3
:10424C00924902A802F030FE914906A802F02CFE19
:10425C000023012206A902A8FFF7B2FF06A802F06C
:10426C00DCFD02A802F0D9FD00F0D6FB306014E2B0
:10427C00034602460146786800F06AFD00F0CCFB6C
:10428C003368C01A834B984240F209827F4902A8D6
:10429C0002F00AFE804906A802F006FE2B46012217
:1042AC0006A902A8FFF78CFF06A802F0B6FD02A82B
:1042BC0002F0B3FD00F0B0FB3060ACE100F030FD7B
:1042CC00714D0646E0B1754902A802F0EDFD744946
:1042DC0006A802F0E9FD0023012206A902A8FFF7B7
:1042EC006FFF06A802F099FD02A802F096FD0121CD
:1042FC00072003F0A1F800F08FFB04232860CDE128
:10430C0000F006FD00F088FB2B68C01A614B984248
:10431C0040F2C581614902A802F0C6FD614906A8B8
:10432C0002F0C2FD3346012206A902A8FFF748FF9E
:10433C0006A802F072FD02A802F06FFD00F06CFB03
:10434C00286068E1504D00F067FB2B68C01AB0F58F
:10435C007A7FC0F0A481544902A802F0A5FD53490C
:10436C0006A802F0A1FD0023012206A902A8FFF76E
:10437C0027FF06A802F051FD02A802F04EFD4C4B9F
:10438C0001221A604B4B00221A604B4B00221A6020
:10439C0000F042FB0523286080E10E2003F065F855
:1043AC00444D464A464E10602A6803461344404A20
:1043BC002B601368591C11603268934240F36F8173
:1043CC006423404A4049009312680968002300F0B6
:1043DC003FFD3E4B326818602B6893FBF2F307EEFF
:1043EC00903A354BF8EEE77AC3ED007A00F014FB07
:1043FC00254B1860062351E1234D00F00DFB2B6873
:10440C00C01AB0F57A7FC0F04A81314902A802F097
:10441C004BFD304906A802F047FD0023012206A9F6
:10442C0002A8FFF7CDFE06A802F0F7FC02A802F0E6
:10443C00F4FC00F0F1FA072328602FE102F010FFE2
:10444C001E4B1D68002D064604DA2D2102F04AFC95
:10445C00694200E029460A22304602F052FC3046FE
:10446C0002F043FC02F0FCFE184B1D68002D0746C1
:10447C001E4631DA2D2102F035FC69422DE000BFD9
:10448C0090E30320E8E40320A0E40320847E0D00E5
:10449C00897E0D00E0930400987E0D00AF7E0D0028
:1044AC00B87E0D00CB7E0D00E67E0D00FA7E0D0071
:1044BC0054E4032028E4032020E4032058E40320E0
:1044CC0088E303208CE3032050E4032024E403203E
:1044DC00097F0D001C7F0D0029460A22384602F088
:1044EC0010FC384602F001FC6E496F4802F009FDE1
:1044FC006E496F4802F005FD6E4906A802F0D4FC27
:10450C006D4B186803F0D8FA02460B4602A86B49AB
:10451C0002F03EFD02A906A802F01BFD684902F05C
:10452C0024FD634902F015FD664902F01EFD0146AB
:10453C00654802F0CCFC02A802F06FFC06A802F061
:10454C006CFC594902A802F0D1FC5F4906A802F0A4
:10455C00CDFC01231A4606A902A8FFF731FE06A8D6
:10456C0002F05BFC02A802F058FC58494E4802F0DD
:10457C00C8FC57494E4802F0C4FC4E4906A802F04C
:10458C0093FC3268534902A802F002FD02A906A866
:10459C0002F0DFFC4A4902F0E8FC454902F0D9FC84
:1045AC00484902F0E2FC0146474802F090FC02A8A0
:1045BC0002F033FC06A802F030FC3B4902A802F0E2
:1045CC0095FC414906A802F091FC06A902A8FFF748
:1045DC00C9FD06A802F021FC02A802F01EFC3E490F
:1045EC0002A802F061FC3D4906A802F05DFC002324
:1045FC00012206A902A8FFF7E3FD06A802F00DFCB4
:10460C0002A802F00AFC0021072002F015FF00F0BE
:10461C0003FA334B1860082340E0314D00F0FCF9ED
:10462C002B68C01AB0F57A7F39D32E4902A802F054
:10463C003BFC2D4906A802F037FC0023012206A9F9
:10464C0002A8FFF7BDFD06A802F0E7FB02A802F0E6
:10465C00E4FB00F0E1F9092328601FE0204D00F095
:10466C00DBF92B68C01AB0F57A7F18D31F4902A862
:10467C0002F01AFC1E4906A802F016FC00230122C7
:10468C0006A902A8FFF79CFD06A802F0C6FB02A82B
:10469C0002F0C3FB00F0C0F92860012323700BB0BB
:1046AC00F0BD00BF307F0D0040E40320477F0D00BC
:1046BC0090E40320647F0D0020E40320717F0D0043
:1046CC00767F0D00857F0D0080E40320887F0D0030
:1046DC00AA7F0D00C77F0D00227F0D00CA7F0D0041
:1046EC00A0E40320D07F0D00E17F0D00F07F0D00D2
:1046FC00FC7F0D0008B500211D2002F09DFE01215C
:10470C001E20BDE8084002F097BE000010B588B02E
:10471C00FFF7F0FF02F0A4FD4FF4165102F090FDEC
:10472C000C4B0D49012468461C7002F0BDFB0B4973
:10473C0004A802F0B9FB0023224604A96846FFF73F
:10474C003FFD04A802F069FB684602F066FB08B066
:10475C0010BD00BF90E3032004800D000A800D0003
:10476C0070B5046843681426054606FB0346A6424A
:10477C0004D0204602F051FB1434F8E7286800F00E
:10478C003FFB284670BD8842F8B506460C461546D8
:10479C0016D9904215D2A2F114056C1AA1F1140786
:1047AC000444AF421CD02CB12946204602F025FB14
:1047BC002B7C2374284602F030FB143D143CF0E7AC
:1047CC000ED0AC420CD02EB12146304602F015FB77
:1047DC00237C3374204602F020FB14341436F0E7AB
:1047EC00F8BD2DE9F04100230360436083604E68FF
:1047FC009E4204460F4624DD4FF0140808FB06F0D9
:10480C0000F0F6FA0546E0B194E8060008FB021247
:10481C00FFF7B9FF206800F0F3FA2560A6603E6848
:10482C007B6808FB0368464509D02DB13146284604
:10483C0002F05CFB337C2B7414361435F3E77B6885
:10484C0063602046BDE8F081F0B5404B404D414FD0
:10485C008DB001241C7000F0E7F80021204600F018
:10486C0023FA002300930193029302F0F9FC6946AA
:10487C00064603A8FFF7B5FF2C4603A906A8FFF7C9
:10488C00B0FF354B44F8043B06A909A8FFF7A9FF74
:10489C0009AA1E21204601F074FD09A8FFF760FF4C
:1048AC0006A8FFF75DFF2D4B2B602E6203A8FFF7C8
:1048BC0057FF2B4B2B6002F0D3FC4FF41651294CB5
:1048CC00294E02F0BDFC01F005FA294601F0ECFC82
:1048DC006846FFF745FF22462449284602F01CFE95
:1048EC00234D3946304602F0DFFA3046214E22463F
:1048FC00294602F011FE3946304602F0D5FA1E4F19
:10490C0030461E4E2246294602F006FE31463846F7
:10491C0002F0CAFA38461A4F2246294602F0FCFD2C
:10492C003146384602F0C0FA3846164F2246294620
:10493C0002F0F2FD3146384602F0B6FA224629461C
:10494C00384602F0E9FD0DB0F0BD00BF3CE4032099
:10495C005CE40320AA800D005C7E0D00E4810D0058
:10496C00747E0D0008E403200CE40320D5400D00F8
:10497C00276E0D002CE4032040E40320A4810D00DD
:10498C0090E4032080E4032008B5024B1B689B686D
:10499C00019308BD4802030008B5024B1B681B6954
:1049AC00019308BD4802030008B5024B1B685B6904
:1049BC00019308BD4802030008B5024B1B685B6CF1
:1049CC00019308BD4802030008B5024B1B689B6CA1
:1049DC00019308BD4802030008B5024B1B68DB6C51
:1049EC00019308BD4802030008B5024B1B685B6DC0
:1049FC00019308BD4802030008B5024B1B685B68B5
:104A0C00019308BD1802030008B5024B1B68DB6854
:104A1C00019308BD1802030008B5024B1B685B69C3
:104A2C00019308BD1802030008B5024B1B681B68F4
:104A3C00019308BD2C02030008B5024B1B685B6890
:104A4C00019308BD2C02030008B5024B1B68DB6800
:104A5C00019308BD2C02030008B5024B1B681B69AF
:104A6C00019308BD2C02030008B5024B1B681B6B9D
:104A7C00019308BD2C02030008B5024B1B681B6A8E
:104A8C00019308BD2802030008B5024B1B685B6A42
:104A9C00019308BD2802030008B5024B1B689B6AF2
:104AAC00019308BD2802030008B5024B1B68DB6AA2
:104ABC00019308BD2802030008B5024B1B681B6B51
:104ACC00019308BD2802030008B5024B1B685B6B01
:104ADC00019308BD2802030008B5024B1B681B6C30
:104AEC00019308BD2802030008B5024B1B685B69E3
:104AFC00019308BD6402030008B5024B1B689B6858
:104B0C00019308BD6802030008B5024B1B68DB6803
:104B1C00019308BD6802030008B5024B1B68DB69F2
:104B2C00019308BD3002030008B5024B1B681B6AD9
:104B3C00019308BD3002030008B5024B1B681B68CB
:104B4C00019308BD3C02030008B5024B1B689B682F
:104B5C00019308BD3C02030008B5024B1B68DB68DF
:104B6C00019308BD3C02030008B5024B1B681B698E
:104B7C00019308BD3C02030008B5024B1B685B693E
:104B8C00019308BD3C02030008B5024B1B689B69EE
:104B9C00019308BD3C02030008B5024B1B68DB699E
:104BAC00019308BD3C02030008B5024B1B681B6A4D
:104BBC00019308BD3C02030008B5024B1B689B6ABD
:104BCC00019308BD3C02030008B5024B1B68DB6A6D
:104BDC00019308BD3C02030008B5024B1B681B681F
:104BEC00019308BD4C02030008B5024B1B685B68BF
:104BFC00019308BD4C02030008B5024B1B689B686F
:104C0C00019308BD4C02030008B5024B1B681B69DD
:104C1C00019308BD4C02030008B5024B1B685B698D
:104C2C00019308BD4C02030008B5024B1B689B693D
:104C3C00019308BD4C02030008B5024B1B68DB69ED
:104C4C00019308BD4C02030008B5024B1B681B6A9C
:104C5C00019308BD4C02030008B5024B1B685B6B4B
:104C6C00019308BD6002030008B5024B1B685B6D25
:104C7C00019308BD6002030008B5024B1B68DB6E94
:104C8C00019308BD6002030008B5024B1B681B6F43
:104C9C00019308BD6002030008B5024B1B685B68FA
:104CAC00019308BD2002030008B5024B1B68DB6AA8
:104CBC00019308BD2002030008B5024B1B68DB6C96
:104CCC00019308BD2002030008B5024B1B685B6D05
:104CDC00019308BD2002030008B5034B1B68D3F8F1
:104CEC008830019308BD00002002030008B5034B77
:104CFC001B68D3F89430019308BD00002002030018
:104D0C0008B5024B1B689B68019308BD4402030065
:104D1C0008B5024B1B68DB68019308BD4402030015
:104D2C0008B5024B1B685B69019308BD4402030084
:104D3C0008B5024B1B681B6A019308BD44020300B3
:104D4C0008B5024B1B68DB6B019308BD44020300E2
:104D5C0008B5024B1B685B68019308BD4002030059
:104D6C0008B5024B1B689B68019308BD4002030009
:104D7C0008B5024B1B68DB68019308BD40020300B9
:104D8C0008B5024B1B681B69019308BD4002030068
:104D9C0008B5024B1B685B69019308BD4002030018
:104DAC0008B5024B1B689B69019308BD40020300C8
:104DBC0008B5024B1B68DB69019308BD4002030078
:104DCC0008B5024B1B681B6A019308BD4002030027
:104DDC0008B5024B1B681B6B019308BD4002030016
:104DEC0008B5024B1B685B6B019308BD40020300C6
:104DFC0008B5024B1B681B68019308BD1C0203001D
:104E0C0008B5024B1B685B68019308BD1C020300CC
:104E1C0008B5024B1B689B68019308BD1C0203007C
:104E2C0008B5024B1B685B6A019308BD1C020300AA
:104E3C0008B5024B1B68DB6A019308BD1C0203001A
:104E4C0008B5024B1B681B6B019308BD1C020300C9
:104E5C008A4230B507D0039D441AED1A6C43521A9E
:104E6C0094FBF2F4E01830BD10B5836804460BB91E
:104E7C0002F073FBC3689847A3681BB10322214659
:104E8C002046984720461021BDE8104002F049BB4F
:104E9C0010B50446006808B1FFF796FD204610BD1A
:104EAC0010B5036804469B689847A368013BA36050
:104EBC002BB923682046DB68BDE81040184710BDAD
:104ECC000B68036013B15A6801325A60704710B511
:104EDC000446006828B14368013B43600BB9FFF7F7
:104EEC00DFFF204610BD38B50C6803689C420546B0
:104EFC000CD014B1636801336360286828B143682F
:104F0C00013B43600BB9FFF7CBFF2C60284638BD43
:104F1C0010B5064C002320462360FFF74DFD2046BC
:104F2C00034A0449BDE8104002F0F6BAA4E4032099
:104F3C0008E403209D4E0D0070470020704710B50B
:104F4C001021044602F0EDFA204610BD08B508B158
:104F5C00FFF7F5FF08BD10B58368044613B10322B3
:104F6C0001469847204610BD0022026010B54FF64E
:104F7C009C728280B1F9044084808A8002680C683B
:104F8C0004600A6010BD10B504460068FFF738FFD6
:104F9C00204610BD38B5C468F4B12378022B03D178
:104FAC0004F10C00FFF7EFFF656835B12846FFF7F9
:104FBC00D2FF1021284602F0B4FAA56835B1284674
:104FCC00FFF7C9FF1021284602F0ABFA2046142146
:104FDC00BDE8384002F0A5BA38BD13B5044691E8D7
:104FEC00050000234B600B602060626001A80193F8
:104FFC000093FFF76CFF204602B010BDF7B50C46CE
:10500C0002AD54F8043B45F8083D06460F4601A88E
:10501C002146FFF755FF29463046FFF7DEFF01A872
:10502C00FFF755FF2046FFF752FF3846082102F0E4
:10503C0078FA304603B0F0BD13B50B46044603C8EE
:10504C008DE8030093E8030084E803009DE8030067
:10505C0083E8030002B010BD38B50023044603609A
:10506C0010200D46FFF711F828B10123436083602F
:10507C00024B0360C5602060204638BD24800D00C3
:10508C00826810B50AB902F068FAC368BDE810402E
:10509C00184708B5006800F11001FFF7F1FF08BDD3
:1050AC00826810B50AB902F058FAC368BDE810401E
:1050BC00184708B5006800F11001FFF7F1FF08BDB3
:1050CC0038B5002383608B6804460D462BB1022251
:1050DC009847EB68E360AB68A360204638BD0000DE
:1050EC00F0B589B004686846FFF73EFF00238DF8E1
:1050FC0008304FF00202D4E84F3F002B03D1C4E834
:10510C00412F0029F7D102D08DF8083063E014F15B
:10511C000C0503D069462846FFF726FFBFF35F8FC7
:10512C0001236370002004F10803BFF35F8F53E881
:10513C00006F43E80002002AF9D1BFF35F8F002E05
:10514C0049D0FFF7B9FD20B129463046FFF798FF4B
:10515C003AE0314602A8FFF7B3FFE068B4F910500B
:10516C0008B102F08BFD06901020ADF81C50FEF734
:10517C008CFF0546E8B1002787601820FEF785FFF5
:10518C00044688B10146876002A8FFF755FF049BCF
:10519C00A268A360059B049206A9E268E36004F18F
:1051AC0010000592FFF7E0FE0D4BEB600D4B2C60F1
:1051BC00AB6006A8FFF7E7FE02A8FFF7CCFE0022C3
:1051CC0029460948FFF780FD3046FFF7C4FE102141
:1051DC00304602F0A6F96846FFF7D5FE09B0F0BDDF
:1051EC009F500D0015530D00754E0D002DE9F04F1D
:1051FC008BB006460F46904699469DF850A0FFF797
:10520C008FFD07AD834630BB4FF62E73059005A975
:10521C002846ADF81830FFF7A7FE1420FEF735FF2F
:10522C00044658B10223037001234370C0F804B044
:10523C00C0F808B029460C30FFF796FE30462146E0
:10524C0040F8044BFFF708FF2846FFF79CFE05A823
:10525C00FFF799FE52E000240C2314206C60AC6024
:10526C000793FEF712FF014618B1047044704460B6
:10527C00846004A80391FFF7EFFE224B08930820EB
:10528C00FEF703FF044628B1039B40F8043B04A936
:10529C00FFF716FE00955FFA8AF34A4641463846F8
:1052AC000994FFF745FD20B9039B5B7803F0FF02DF
:1052BC0083B1039B059304A906A8FFF701FE05A97A
:1052CC003046FFF78AFE06A8FFF701FE04A8FFF799
:1052DC00FEFD13E04FF69C7305A903A80592ADF8EB
:1052EC001830FFF7FDFE05A8FFF74DFE05A809993C
:1052FC00FFF784FE06A8FFF7EAFDDAE730460BB0AD
:10530C00BDE8F08F85540D00022AF8B5044606D08E
:10531C00032A17D0012A22D10B6803601FE0182042
:10532C000E68FEF7B2FE054650B13146FFF7C8FED7
:10533C003069B6F9147008B102F0A0FC2861AF8294
:10534C0025600CE0046854B104F11000FFF71BFE5B
:10535C002046FFF700FE1821204602F0E2F800205C
:10536C00F8BD38B5002383608B6804460D462BB11D
:10537C0002229847EB68E360AB68A360204638BD17
:10538C00022A70B5044606D0032A11D0012A18D17E
:10539C000B68036015E014200E68FEF776FE0546D8
:1053AC0020B13146FFF7DDFF337C2B74256008E01C
:1053BC00046834B12046FFF7CEFD1421204602F0DC
:1053CC00B0F8002070BD0000F0B5002387B00C468B
:1053DC00BFF35F8F50E8006F40E80032002AF9D12C
:1053EC00BFF35F8F002E3FD01846FFF765FC0746D2
:1053FC0020B121463046FFF753FE2EE0314601A87E
:10540C00FFF7AFFF23788DF814301020FEF73DFE28
:10541C000546D0B187601420FEF737FE044678B1FC
:10542C008760014601A8FFF707FE039BA268A360F3
:10543C00049B0392E268E3609DF814300492237499
:10544C000A4BEB600A4B2C60AB6001A8FFF783FDA5
:10545C00002229460748FFF737FC3046FFF77BFD53
:10546C001021304602F05DF807B0F0BDBF500D00C2
:10547C008D530D00754E0D0030B585B004460D46AC
:10548C0068461146FFF7BAFD7CB124B228460DB12F
:10549C0002F0F4FB029002A96846ADF80C40FFF74D
:1054AC001FFE02A8FFF76FFD1DE000988DF8084065
:1054BC004FF00102D0E84F3FA34203D1C0E8412F87
:1054CC000029F7D102D08DF808300CE010F10C0156
:1054DC004FF0010318BF0373BFF35F8F043000F864
:1054EC00033CFFF771FF01A8FFF7F1FC05B030BDDD
:1054FC00002211464068FFF763BC00221146406849
:10550C00FFF76EBC00224068FFF762BC002281F0FE
:10551C0001014068FFF74CBC00231A46194640684D
:10552C00FFF73EBC00231A4619464068FFF730BC13
:10553C00002211464068FFF723BC00221146406848
:10554C00FFF70EBC002202214068FFF711BC0023BC
:10555C001A464068FFF7FCBB024B03225A60024A12
:10556C001A607047A8E4032040800D007047F8B51E
:10557C00064615460C468F18BC4206D0336814F804
:10558C00011B9B6830469847F6E72846F8BD002279
:10559C00007CFFF771BA0021007CFFF775BA00217F
:1055AC00007CFFF779BA0021007CFFF77DBA00215F
:1055BC00007CFFF781BA10B51421044601F0B1FF4D
:1055CC00204610BD10B50446002363604FF47A7377
:1055DC00A360044B2174084623601146FFF77CFA44
:1055EC00204610BD74800D000021007CFFF76CBAC2
:1055FC00704710B51821044601F093FF204610BDEA
:10560C00F0B5037D062B8DB00E4600F104074FF06C
:10561C00000402D000F1080518E00CAD394605F87D
:10562C00304D2F232A460A20FFF75EFA284602F057
:10563C0040FB33680246DB682946304698470FE04A
:10564C0024B12E21304601F04DFB044415F8011D08
:10565C000A22304601F055FBBD420444F0D12046ED
:10566C000DB0F0BD10B5054B0446112240F8043BBB
:10567C00002102F0A9FA204610BD00BF9C800D004D
:10568C000346074A10B543F8042B01F1100251F8F8
:10569C00044B43F8044B9142F9D10A781A7010BDAF
:1056AC009C800D0010B59DF8084044EA032343EAA2
:1056BC00024242EA016104234160037510BD37B513
:1056CC000D788B784A78C97800912946FFF7EAFF64
:1056DC0003B030BD00F11002012312F8101C012997
:1056EC00104604D152F8041C03EB410304E00229D8
:1056FC0004BF52F8041C5B18013B02F11002ECD100
:10570C0070470EB42DE9F04187B000AF07F13404B7
:10571C00054654F8046B7C6023463246102107F191
:10572C000800FFF77DFB0F2816D900F1080323F0C2
:10573C000703E846ADEB030D3246411C2346684691
:10574C007C60FFF76DFB021E04DD2B6869469B68CD
:10575C0028469847C54607E030B12B6802469B683F
:10576C0007F10801284698471C37BD46BDE8F041B3
:10577C0003B0704713B502AB026803F8011D9468BF
:10578C0019460122A04702B010BD8368FBB11A78FC
:10579C00032A1AD8DFE802F00417021D052070470F
:1057AC0002685B685268D05C2D2814D0A0F13003DD
:1057BC00092B10D9742810D066280ED0A0F16E03D6
:1057CC0058425841704706207047002070471846D1
:1057DC00704704207047032070470220704710B5B3
:1057EC000446FFF7D2FF02280DD016D3042814D894
:1057FC002268A36850685B680A2200211844BDE83F
:10580C00104002F00DBB2268A36852685B68D05C44
:10581C00A0F174035842584110BD002010BD10B5C2
:10582C00436904465BB18068E060013B1030A060C6
:10583C00206163612BB1FFF74DFFA06001E01846BA
:10584C0010BD012010BD10B57D210446FFF792FF5D
:10585C0001232371204610BD08B50379012B02D01A
:10586C00022B02D008BD2C2100E03A21FFF782FF69
:10587C0008BD10B50446FFF7EFFF20467B21FFF76C
:10588C0079FF00232371204610BD000038B5044673
:10589C000D46FFF7E1FF23680449DB6820462A46E2
:1058AC00984701232371204638BD00BFC77F0D00E8
:1058BC0038B504460D46FFF7CFFF23680449DB6873
:1058CC0020462A46984701232371204638BD00BF45
:1058DC00B7800D00F8B50D461746222104462F441B
:1058EC00FFF748FF2A462946BA4238D0164616F822
:1058FC00015B222D03D05C2D01D01F2D2DD82368E8
:10590C00521A9B68204698475C212046FFF732FFCD
:10591C000C2D19D007D8092D0FD00A2D12D0082D17
:10592C0014D162210AE0222D05D05C2D03D00D2D5F
:10593C000CD1722102E0294600E074212046FFF7C9
:10594C0019FF09E06E21F9E76621F7E723680A4998
:10595C00DB682A462046984731463246C4E79142D6
:10596C0004D02368521A9D682046A847222120465D
:10597C00FFF700FFF8BD00BFC8800D0070B50446EE
:10598C000D461646FFF768FF204632462946FFF7BC
:10599C00A1FF02232371204670BD70B504460D464D
:1059AC001646FFF759FF204632462946FFF792FF6D
:1059BC0001232371204670BD10B5002304460360FB
:1059CC0043601048A060E360D1B10B78032B06D084
:1059DC00B3B9136858684B68C35C6E2B08D0136856
:1059EC0058684B680344A3608B6849685B1AE36092
:1059FC001146204651F8043B40F8043BFFF773FA7C
:105A0C00204610BDA4810D00002310B50446036090
:105A1C0043608360C3600361436171B10B78012BF8
:105A2C000BD101F110038360CB684361114651F82F
:105A3C00043B40F8043BFFF756FA204610BD002308
:105A4C0010B5044603604360816031B1114651F8D2
:105A5C00043B40F8043BFFF746FA204610BD806833
:105A6C000368DB681847704719B10B6808465B6818
:105A7C001847704719B10B6808465B6818477047A0
:105A8C0070477047704738B504460D4600682E21A4
:105A9C0002F0D8F82368C31A2B6023B1037803B142
:105AAC00013023682060184638BD10B50C2104461F
:105ABC0001F037FD204610BD10B50421044601F05D
:105ACC0030FD204610BD10B50421044601F029FD1F
:105ADC00204610BD38B50C46054601F0C1FB84428A
:105AEC000DD001F017FB844205D101F013FBBDE88A
:105AFC00384001F008BB21462846FFF7BBFF38BDF4
:105B0C0008B502F0A9F8B0FA80F0400908BD38B524
:105B1C00054608460C4602F0CCF8214602462846BB
:105B2C00BDE83840FFF739BF0068FEF755BF70B5C8
:105B3C00044608460D4602F0BCF823680246294686
:105B4C002046DB68BDE87040184713B502AB02680D
:105B5C0003F8011DD46819460122A04702B010BDFC
:105B6C002DE9F04F4568076885B0914614225543DE
:105B7C000193AB10194D02925D438B463C460123B9
:105B8C00002D039323DD029B6E1003FB06F004EB48
:105B9C0000084A46B8F804A02058D14528BF524600
:105BAC00594602F08EF8039B48B9D14503D1019AAE
:105BBC0013703546E4E78CBF0120002000E0C00FD5
:105BCC000028F6D0AE1B08F11404013EF1E7E41BEB
:105BDC000248A410604305B0BDE8F08FCDCCCCCC0E
:105BEC00F0B585B003690191067E13B309B304AF18
:105BFC00002347F8043D00F10C041D46394601A86A
:105C0C00FFF741FF0146A0B104AB039A03F8055D11
:105C1C002046FFF7A5FF9DF80B3053B123681424E1
:105C2C0004FB0034083434F9023C002BA8BFDEB26C
:105C3C00E4E7304605B0F0BD10B5094C2368DB072E
:105C4C000BD42046FEF732FA38B12046FEF733FA71
:105C5C00044A0549054801F05FFC044810BD00BF2B
:105C6C00B0E4032008E403208F5A0D0098E30320CE
:105C7C0010B5094C2368DB070BD42046FEF716FA47
:105C8C0038B12046FEF717FA044A0549054801F0D9
:105C9C0043FC044810BD00BFE0E4032008E40320EB
:105CAC008D5A0D0094E3032038B500250446056099
:105CBC004560856005614561856140F8245FFEF7AC
:105CCC007BFEFFF7B9FFE061FFF7D2FF257320627F
:105CDC00204638BD10B50A4C2368DB070ED420468D
:105CEC00FEF7E4F950B10748FFF7DEFF2046FEF758
:105CFC00E2F9054A0549034801F00EFC014810BDC4
:105D0C00B4E40320B8E4032008E403204B610D0045
:105D1C000023024A02490348FEF7B6BF2D600D006E
:105D2C00BD5F0D00455F0D0000231A46194618464D
:105D3C00FEF7AABF73B502AC8E6851F8043B44F869
:105D4C00083D054601A8FFF7BBF822463146284618
:105D5C00FFF75AFE01A8FFF7BAF8284602B070BD4B
:105D6C0073B502AC0E6951F8043B44F8083D054686
:105D7C0001A8FFF7A5F8224631462846FFF75FFE3B
:105D8C0001A8FFF7A4F8284602B070BD73B502ACA9
:105D9C00CE6851F8043B44F8083D054601A8FFF7CE
:105DAC008FF8224631462846FFF706FE01A8FFF77A
:105DBC008EF8284602B070BD30B58BB00D4601464A
:105DCC0004A8FFF7B7FF04A8FFF729FDE8B104A961
:105DDC006846FFF7DBFF0F490298FFF791FE044678
:105DEC0010B12C1C18BF012401A8FFF770F8002C6F
:105DFC00E9D004A96846FFF7B3FF6846FFF7EFFC4C
:105E0C00286001A8FFF763F8DDE705A8FFF75FF846
:105E1C000BB030BD00810D0037B50C462046134940
:105E2C00154601F019FF40B901F01AFA4FF416515A
:105E3C0001F006FA01F014FA15E00D49204601F0C4
:105E4C000BFF78B902A94FF4165341F8043D2846CC
:105E5C00FFF7B2FF01F05EF9019901F051F901F081
:105E6C0059F900E0002003B030BD00BF05810D00E2
:105E7C000C810D0070B5046843681426054606FBBA
:105E8C000346A64205D004F10800FFF7F3FF1434D3
:105E9C00F7E72868FEF7B4FF284670BD70B50468B4
:105EAC004368054604EB0316A64204D0204600F0D6
:105EBC00B4FF1034F8E72868FEF7A2FF284670BD3F
:105ECC0010B504460C30FFF7D5FF2046FFF7E6FF70
:105EDC00204610BD10B5044B044640F8043BFFF7B8
:105EEC00EFFF204610BD00BF5C7E0D0010B50446D0
:105EFC00FFF7F0FF2046242101F013FB204610BDD4
:105F0C0010B5034B03600446FFF7E4FF204610BDB9
:105F1C00F0800D0010B50446FFF7F2FF2046242157
:105F2C0001F0FFFA204610BD10B50368044618684E
:105F3C00FEF75AFD204610BD2DE9F04F9B461B4B3A
:105F4C005B68C3F3080385B082460E46904653BB8C
:105F5C00FFF7C0FE044624300390FFF7E5FD237BDA
:105F6C00F3B90123237325686368F6B205EB830943
:105F7C004D4513D055F8047B4146381DFFF730FED4
:105F8C008642F5D33B68CDF800B09B689E463846F8
:105F9C004346324651467746B847E9E70023237318
:105FAC0003A8FFF7C1FF05B0BDE8F08F00ED00E0DE
:105FBC002DE9F74F9946194B5B68C3F30803074665
:105FCC008846164633BBFFF785FE04462430019005
:105FDC00FFF7AAFD237BD3B90123237325686368DC
:105FEC005FFA86FB05EB830A55450ED055F8046B1A
:105FFC004946301DFFF7F4FD8345F5D3336842461F
:10600C00DB68394630469847EEE70023237301A836
:10601C00FFF78AFF03B0BDE8F08F00BF00ED00E092
:10602C002DE9F341154B5B68C3F30803044688461E
:10603C00FBB9FFF74FFE064624300190FFF774FDC5
:10604C0096E8A000462605EB8707AF4207D101A8CA
:10605C00FFF76AFFB442B4BF002001200AE055F8F4
:10606C00040B41460430FFF7BBFD8642A8BF064631
:10607C00EBE7002002B0BDE8F08100BF00ED00E0CE
:10608C0070B503684268044603EB82029A421846D4
:10609C000ED006680D68AE4203F10403F6D1011D63
:1060AC00521A01F076FD6368013B6360012070BDFC
:1060BC00002070BD1FB50446243001910390FFF7FA
:1060CC0033FD01A92046FFF7DBFF20B903A8FFF73A
:1060DC002BFF04B010BD6368002BF7D1FFF724FE33
:1060EC00F4E770B5056943691826044606FB0356A8
:1060FC00AE4215D005F110012046FFF7C1FF6368D1
:10610C000BB9FFF711FEE06929690368DB68984752
:10611C00696919B1206A0368DB6898471835E7E7A5
:10612C0025696369182606FB0356B54204D0284638
:10613C0000F073FE1835F8E70023636170BD73B58A
:10614C00044602ADFFF7F0FD04F1240045F8040D00
:10615C00FFF7EAFC2046FFF7C4FF2846FFF7E4FEF2
:10616C00606A08B1FEF730FC25696369182606FBE6
:10617C000356B54204D0284600F04FFE1835F8E718
:10618C002069FEF73DFE2068FEF73AFE204602B07D
:10619C0070BD03680A6802600B6043684A6842601D
:1061AC004B6083688A6882608B60704710B50023EF
:1061BC000446036043608360FFF7EBFF204610BD8D
:1061CC008842F8B50446164625D9904224D2551A71
:1061DC00143D2C44A1F11407A2F10C050026A5F1E5
:1061EC0008039F4237D084B155F8083C236035F83A
:1061FC00043CA38035F9023CE380A660E66026618E
:10620C00294604F10800FFF7C4FF2846FFF732FEC9
:10621C00143C143DE3E71ED001F108050027A5F15D
:10622C0008039E4217D084B155F8083C236035F81A
:10623C00043CA38035F9023CE380A760E76027614A
:10624C00294604F10800FFF7A4FF2846FFF712FEC9
:10625C0014341435E3E7F8BDF8B5456883689D42FE
:10626C0004460E4617460EDB0135002D05DDA90050
:10627C000068FEF7CDFD20B9F8BD0068FEF7C0FD43
:10628C0000202060A5602568626805EB860105EB9F
:10629C008202521A081D01F07CFC45F826706368D6
:1062AC00013363600120F8BD37B5044624300D4638
:1062BC000190FFF739FC2368616803EB810083428E
:1062CC001A4609D01268AA4203F10403F7D101A8B7
:1062DC00FFF72AFE00250EE02A462046FFF7BCFFFA
:1062EC0005460028F3D06368012B01D1FFF710FDA0
:1062FC0001A8FFF719FE284603B030BD8842F8B557
:10630C0006460C46154614D9904213D2A2F110053C
:10631C006C1AA1F110070444AF4218D01CB12946E5
:10632C00204600F06AFD284600F077FD103D103C39
:10633C00F2E70CD0AC420AD01EB12146304600F038
:10634C005CFD204600F069FD10341036F2E7F8BD14
:10635C0070B50E1E05460BDD3001FEF749FD0446F7
:10636C0070B195E8060001EB0212FFF7C7FF00E0E1
:10637C0000242868FEF744FD2C60AE60012070BD3F
:10638C0070BD2DE9F04F002395B092464622036074
:10639C0043608360C3600361436102760291DAF863
:1063AC00041008939942054609930A9340F39D8083
:1063BC0008A8FFF7CDFF002840F097808EE021461B
:1063CC000BA800F01AFD0BA90FA8099E00F015FDF3
:1063DC0009990A9B9942C0F2CE80013108A8FFF7B7
:1063EC00B7FF002840F0C7800FA800F016FD0BA8DF
:1063FC0000F013FD1434A742E1D100260B960C9645
:10640C000D96B146099B9E4280F2A8803301089AF2
:10641C00D3580693002B00F09F8014237343CDF8C0
:10642C001C9001930BAC07A906A8FFF72CFB0746A1
:10643C00002800F0918014AB014603F8399D079AAF
:10644C002046FFF78DFB9DF817800090B8F1000FE8
:10645C0053D1BDF81C30ADF840304FF6FF730F9799
:10646C00ADF84230CDF84480CDF84880CDF84C8062
:10647C006768A3689F424FDA009BD4F800B061684C
:10648C00142253430BEB030702FB01B207F1140078
:10649C0039460393FFF794FEA7B1039B0F9A4BF871
:1064AC000320BDF84030BB80BDF94230FB80C7F8FB
:1064BC000890C7F80C90C7F8109011A907F10800C4
:1064CC00FFF767FE63680133636011A8FFF7D2FC26
:1064DC00B8F1000F11D00BA8FFF7CCFC08A8FFF700
:1064EC00DDFC284615B0BDE8F08FDAF80040DAF88C
:1064FC000430142707FB03477DE72368009A142414
:10650C0004FB0234069B1B7823BBDAF80030019A9B
:10651C0013441B7CE3801DE00137002F0FDD142397
:10652C0003FB07F00393FEF763FC834678B194E812
:10653C000600039B03FB0212FFF742FE00E0C3467A
:10654C002068FEF75DFCC4F800B0A76094E74FF03C
:10655C000108BAE7083466E7013653E708A928466C
:10656C00FFF717FE0BA905F10C00FFF712FE9DF8C3
:10657C0008302B76AFE7089B099A03EB061603EB62
:10658C000212314606F11000FFF7B8FE1EB10FA93A
:10659C00304600F032FC099B0133099324E70000DC
:1065AC007FB50446094B44F8043B05460E4601A84A
:1065BC001146FEF716F901AA31462046FFF7E1FE17
:1065CC0001A8FEF7CDF8284604B070BD5C7E0D0026
:1065DC00F0B50F468BB02B49109C384616461D461D
:1065EC0001F03AFB28BB002C49D0294601A8FFF743
:1065FC00DDFD2549242000F09FFF0546B8B101A917
:10660C0004A8FFF7D3FD04A907A8FEF7EAF807AA28
:10661C0031462846FFF7C4FF07A8FEF7A1F81B4B2D
:10662C002B602C6204A8FEF79BF8194B2B6001A879
:10663C001FE01849384601F00FFBF0B9FCB12946B0
:10664C0004A8FFF7B3FD1049242000F075FF0546A0
:10665C0070B104A907A8FEF7C4F807AA314628466A
:10666C00FFF79EFF07A8FEF77BF8084B2B602C6208
:10667C0004A8FEF775F8284602E0002000E020464A
:10668C000BB0F0BD5E810D0018830D00E4810D0090
:10669C00F0800D0062810D00014B024A1A607047B8
:1066AC00E4E4032073810D002DE9F047089DD0F838
:1066BC00209004460E461746984600F0D1FD8145C1
:1066CC0005D15A4800F073FA002840F0AC802B79C1
:1066DC001B0705D56B69564A206A002100F031FB77
:1066EC00B8F1000F0DD05B212046FFF72EFA414682
:1066FC002046FFF71CFA23684E49DB68022220462D
:10670C0098472B79D90725D5D5F808802F214046F5
:10671C0001F0ECFA08B100F1010841462046FFF700
:10672C0006FA2B799A0709D53A212046FFF70DFA7C
:10673C00EB68414A206A002100F003FB2B7913F02F
:10674C00040F236818BF3D49DB6808BF3C4902228F
:10675C00204698472B795B0718D529690A461346BA
:10676C0013F8010B38B1202801D1194601E0282873
:10677C0001D01A46F3E72368521ADB682046984783
:10678C0023683049DB6804222046984700213846AC
:10679C00FEF772FA01462046FFF7C9F9236828492B
:1067AC00DB680222204698471EB131462046FFF78F
:1067BC00BEF92B7913F0300F2DD023682249DB68FA
:1067CC002046022298472B79D8060BD523681F49FF
:1067DC00DB68072220469847AB691D4A206A0021D6
:1067EC0000F0AFFA2B79990611D5DA0605D5236896
:1067FC001249DB6802222046984723681549DB685A
:10680C0020460A229847E9692046FFF790F95D2156
:10681C002046FFF79AF923680F49DB6820460222CD
:10682C00BDE8F0471847BDE8F08700BFBCE6032081
:10683C0077810D007E810D00C77F0D0081810D00D9
:10684C0086810D0084810D0089810D008C810D00E5
:10685C0094810D0097810D00A2810D002DE9F0436C
:10686C0085B0D0F820800C9C06460F4691461D46FC
:10687C0000F0F6FC804505D14A4800F098F9002854
:10688C0040F08C80336A484A01924FF0000801A80E
:10689C0003938DF80880FEF7ECFF41464846FEF75F
:1068AC00EBF942498046012201A8FFF767F84146FF
:1068BC00FFF72DF93FB13E49012201A8FFF75EF821
:1068CC003946FFF724F93DB13A49012201A8FFF7F7
:1068DC0055F82946FFF71BF92379DF070ED5A56874
:1068EC002F21284601F002FA00B1451C3249012241
:1068FC0001A8FFF743F82946FFF709F923799D070B
:10690C0007D52E49022201A8FFF738F8E168FEF7F7
:10691C00BDFF2379580716D525692F463B4613F83A
:10692C00012B3AB1202A01D11D4601E0282A01D0C1
:10693C001F46F3E70222224901A8FFF71FF87A1B32
:10694C002946FFF72AF82379190707D51D49012293
:10695C0001A8FFF713F86169FEF7AAFF2379DA069D
:10696C0008D5042218490DEB0200FFF707F8A169BE
:10697C00FEF78CFF23799B0607D51449062201A844
:10698C00FEF7FCFFE169FFF7C2F801A8FEF75BFF19
:10699C00306A0F4903680222DB68984705B0BDE8EE
:1069AC00F08300BFBCE60320D8800D000A810D00E7
:1069BC001D810D00D6810D00747F0D00A5810D0089
:1069CC00A8810D0032810D00AB810D00B0810D004E
:1069DC00A2810D00002211464068FEF7F1B9002299
:1069EC0011464068FEF7FCB900224068FEF7F0B98A
:1069FC00002281F001014068FEF7DAB900231A4643
:106A0C0001214068FEF7CCB900231A4619464068AC
:106A1C00FEF7BEB9002211464068FEF7B1B900225C
:106A2C0011464068FEF79CB9002202214068FEF72F
:106A3C009FB900231A464068FEF78AB938B5054657
:106A4C0088B104684CB1A3681BB1032221462046CF
:106A5C0098471021204600F064FD28461421BDE81B
:106A6C00384000F05EBD38BD10B103685B68184754
:106A7C00704710B503680446BBB15868FDF784FF36
:106A8C0078B923685A7C12B95868FDF785FF2368DA
:106A9C005868FDF789FF20680023236028B1FFF7B1
:106AAC00CDFF206808B1FFF7C9FF204610BD38B5EF
:106ABC000446D0F8C40108B1FDF7EBFAD4F8C001D4
:106ACC0008B1FDF781FFD4F8BC5135B12846FFF76A
:106ADC00D0FF0421284600F024FD206808B1FFF700
:106AEC00C3FF204638BD000010B5044B044640F8E7
:106AFC00083BFFF7DCFF204610BD00BF2C820D00C9
:106B0C0038B50E4C0E4B23600025022304F5E470BF
:106B1C006360A560C4F8C451C4F8C851FDF74CFFBC
:106B2C00084BC4F8CC5184F8D05123602046064A57
:106B3C000649BDE8384000F0EFBC00BFE8E4032094
:106B4C0060820D002C820D0008E40320F56A0D0014
:106B5C0000231A464068FEF7FBB800220221406869
:106B6C00FEF706B9002211464068FEF7F9B800227C
:106B7C0011464068FEF704B900231A4619464068CE
:106B8C00FEF706B900231A4619464068FEF708B905
:106B9C00002281F001014068FEF70AB9002240682A
:106BAC00FEF716B9002211464068FEF719B900220B
:106BBC0011464068FEF704B92DE9F043002495B066
:106BCC0016460D460746FEF74DFD214620220CA821
:106BDC00009400F0F9FF40230C9321466B460CAA5D
:106BEC003046FDF791FF0446002844D102460121AE
:106BFC006868FEF7C5F80221804622466868FEF7F1
:106C0C00BFF8009E81462146002E34D0002932D197
:106C1C007368022B02D00A2B09D02AE0B8F1000FBE
:106C2C0027D0716938460431FEF749FD20E0B9F1EF
:106C3C00000F1ED07469112201A800F0C5FF0623B5
:106C4C008DF8143001AD04F1080318341868596834
:106C5C002A4603C20833A3421546F7D101A906A858
:106C6C0007ADFEF70DFD0FCD3C1D0FC42B68237037
:106C7C000121F669C8E70098FDF73EFF384615B0CC
:106C8C00BDE8F083024B034A1A6000225A60704739
:106C9C00BCE6032060820D00F8B506460D468F1841
:106CAC000024BD420CD0336815F8011B9B6830469C
:106CBC009847002801DB0444F3E7002C08BF044686
:106CCC002046F8BD70B505460C46084649B100F0A3
:106CDC00F0FF2B68024621462846DB68BDE8704071
:106CEC00184770BD03689B68184738B50D210546D9
:106CFC00FFF7F8FF0A2104462846FFF7F3FF20446C
:106D0C0038BD30B58BB00B4600218DF82410012A0C
:106D1C0098BF0A220DF12304B3FBF2F505FB1233E5
:106D2C0003F0FF03092B94BF30333733DBB221461A
:106D3C0004F801392B46002DEED1FFF7C3FF0BB041
:106D4C0030BD0CB42DE9F04387B000AF07F1380427
:106D5C00054654F8049B3C600E4623464A461421D3
:106D6C00381DFEF75DF8132805D8391D2846FFF7A6
:106D7C00A9FF044613E000F1080323F00703E846DB
:106D8C00ADEB030D411C23464A4668463C60FEF7BA
:106D9C0047F869462846FFF795FF0446C5461EB1DD
:106DAC002846FFF7A2FF044420461C37BD46BDE829
:106DBC00F04302B0704710B50446FEF7CCF82046FD
:106DCC0010BD00000348044A04490023836000F00E
:106DDC00A3BB00BFC4E6032008E40320C36D0D0071
:106DEC0010B5044601700846FDF796FE002363605B
:106DFC00204610BD0078FDF797BE0023036043606A
:106E0C008360037310B50C6804604C6844608C6834
:106E1C0084600B604B608B6010BD10B5044600683D
:106E2C00FDF7EEFF204610BD10B50446006808B112
:106E3C00FDF7E6FF00232360A360636010BD38B547
:106E4C0004460D4600680131FDF7E2FF10B184E8FD
:106E5C002100012038BD10B50368044613B1436806
:106E6C008B4207D22046FFF7EAFF20B1A3680BB98B
:106E7C0022681370012010BD70B50E4611460446F1
:106E8C001546FFF7E8FF18B92046FFF7CDFF09E0DC
:106E9C002A463146A560206800F070FE2268A3687F
:106EAC000021D154204670BD38B500230446036040
:106EBC004360836003730D4639B1084600F0F9FE58
:106ECC00294602462046FFF7D7FF204638BD8842A8
:106EDC0010B50B46044607D0096819B19A68FFF73C
:106EEC00CBFF01E0FFF7A0FF204610BD10B500233B
:106EFC0004460360436083600373FFF7E8FF20469A
:106F0C0010BD38B505460C4641B1084600F0D1FE1F
:106F1C00214602462846FFF7AFFF01E0FFF784FF4A
:106F2C00284638BD70B504460E4609B9002070BD20
:106F3C006AB18368D5182946FFF78DFF0028F5D074
:106F4C002068A3683146184400F090FEA56001202B
:106F5C0070BD10B58A6809680446FFF7E3FF10B9E5
:106F6C002046FFF761FF204610BD38B504460D469C
:106F7C0041B1084600F09DFE294602462046FFF727
:106F8C00D1FF10B92046FFF74FFF204638BD000057
:106F9C000EB4FFB509AC054654F8047B01942346A6
:106FAC003A46052102A8FDF73BFF0C490646284648
:106FBC00FFF77AFF31462846FFF74DFF286830B1BE
:106FCC0023463A46711C0194FDF72AFFA860284617
:106FDC0004B0BDE8F04003B0704700BFA4810D00C1
:106FEC0010B50446006818B1FDF70AFF00232360B2
:106FFC0010BD10B50446FFF7F3FF204610BD00008E
:10700C0010B5094C00204FF6FF732060A080A071D2
:10701C0020816381FDF740FE2046044A0449BDE807
:10702C00104000F079BA00BFD4E6032008E4032036
:10703C00FF6F0D00024B1A68024B1A60704700BFBD
:10704C009CE30320E0E6032070474174704708B5C9
:10705C00007CFDF7B1FD20EAE07008BD08B5007CAE
:10706C00FDF782FD20EAE07008BD08B5007CFDF755
:10707C008BFD30EA200028BF4FF0FF3008BD08B56B
:10708C00007CFDF779FD30EA200028BF4FF0FF307F
:10709C0008BD007CFDF780BD10B51421044600F03E
:1070AC0040FA204610BD70B5457C04460E4625B905
:1070BC00007CFDF781FD002805DD3146207CBDE814
:1070CC007040FDF749BD284670BD000010B5044660
:1070DC0008461146002262604FF47A72A260054A9B
:1070EC0022600122207462741A46FDF725FD2046A9
:1070FC0010BD00BFC0820D000023007CFDF764BDF5
:10710C000022FFF7F9BF007CFDF71EBD007CFDF7E8
:10711C004BBD0000F8B5194C25684DB98420FCF71F
:10712C00B4FF064618B18422294600F04DFD2660B6
:10713C00134D2E684EB98420FCF7A7FF074618B1F3
:10714C008422314600F040FD2F600E4F396811F05B
:10715C00010611D13846FCF7A9FF68B122682B68EB
:10716C0009483146FFF7B2FF3846FCF7A4FF074A3F
:10717C000749054800F0D0F90348F8BD00E70320A3
:10718C00F8E60320FCE60320E4E6032008E40320F1
:10719C0055700D0041747047704708B50021007C94
:1071AC00FDF742FD30EA200028BF4FF0FF3008BD4C
:1071BC0008B50121007CFDF737FD30EA200028BF1F
:1071CC004FF0FF3008BD08B5007CFDF725FD20EA27
:1071DC00E07008BD08B5007CFDF716FD20EAE070F4
:1071EC0008BD007CFDF730BD10B51421044600F03D
:1071FC0098F9204610BD38B50446007C0D46FDF7C5
:10720C000BFD002801DC607C28B12946207CFDF7B1
:10721C0013FD20EAE07038BD10B50446002363600E
:10722C004FF47A73A360054B236001230846217445
:10723C0063741146FDF7D0FC204610BDF0820D00A2
:10724C000022007CFDF7D0BC007CFDF7D5BC10B54E
:10725C0014220446002100F0B7FC204610BD0000AB
:10726C0030B50E4D87B001A8FFF7F1FF296811F07A
:10727C00010410D12846FCF719FF60B101AA214680
:10728C000748FFF7C9FF2846FCF715FF054A0649D2
:10729C00034800F041F9024807B030BD04E7032071
:1072AC0008E7032008E40320A5710D0008B50F4B77
:1072BC0033B1FFF7D5FF03681B69984700280DDC35
:1072CC000B4B33B1FFF726FF03681B699847002867
:1072DC0007DC084B43B1AFF3008008BDAFF300806F
:1072EC00EEE7AFF30080F4E708BD00BF000000003C
:1072FC00000000000000000008B5FFF7D7FFFDF705
:10730C008BFB014B186008BD30E703200248034A91
:10731C000349121A00F032BC00F4032004F40320D9
:10732C00C0840D0007B5002300931A466FF0770157
:10733C00FDF7DCFC03B05DF804FB000007B54388E7
:10734C000A2B08D0502B09D1094B1B683BB103B059
:10735C005DF804EB1847FFF7E5FF06E00023009308
:10736C001A466FF07701FDF7C1FC03B05DF804FB22
:10737C001CE7032038B5104C104D2368AB42104B62
:10738C000CBF012200221A7002D0FFF7BFFF25604C
:10739C00FDF732FB044600F01FFC0A4B13B12046EC
:1073AC00AFF3008000210748FDF7CAFC0021064816
:1073BC00BDE83840FDF790BC00F403201E1C279A52
:1073CC0020E703200000000049730D0070B5184E33
:1073DC00316811F0010504460AD13046FCF766FE0F
:1073EC0030B129461348FFF7FBFC3046FCF763FE2F
:1073FC001048FFF7FFFC28B1A4F10B03022B01D8B6
:10740C00002070BD00F062F8FEF7EEF808B1012C18
:10741C00F6D9FFF77FFEFFF779FE18B1A4F1090347
:10742C00012BEDD91E2C8CBF0020012070BD00BF9C
:10743C0024E7032028E7032038B504460D46FDF762
:10744C0003FBFF2810D0062804D84D2323FA00F0A4
:10745C00C30709D42046FFF7B9FF28B129462046B7
:10746C00BDE83840FDF7F8BA38BD0D2810B5044614
:10747C009CBF0E34A4B22046FFF7A8FF50B10321E5
:10748C002046FDF7D9FA032804D12046BDE8104068
:10749C00FDF7EABA002010BD70B5044614252A4643
:1074AC00094E002100F090FB258020253146A56077
:1074BC002561284600F04FF831466060284600F000
:1074CC004AF8E060204670BD18830D0030B50E4DB3
:1074DC00296811F0010487B013D12846FCF7E6FDAA
:1074EC0078B101A8FFF7D8FF01AA21460748FEF79B
:1074FC0069F82846FCF7DFFD054A0649034800F009
:10750C000BF8024807B030BD34E7032038E70320FE
:10751C0008E4032079550D000B460146184600F08F
:10752C001FBBFCF7B4BD0000024B1868BFF35F8FA4
:10753C00704700BF4CE7032010B5002814BF044669
:10754C0001242046FDF754FC20B9FFF7EDFF08B1EC
:10755C008047F6E710BDFFF7EFBF08B5FDF768FCF5
:10756C00244B1A68D0075CBF01221A60224B1A68A0
:10757C00D1075CBF01221A60204B1A68D2075CBF8E
:10758C0001221A601E4B1A68D0075CBF01221A60D8
:10759C001C4B1A68D1075CBF01221A601A4B1A687F
:1075AC00D2075CBF01221A60184B1A68D0075CBF67
:1075BC0001221A60164B1A68D1075CBF01221A60AF
:1075CC00144B1A68D2075CBF01221A60124B1A685E
:1075DC00D0075CBF01221A60104B1A68D1075CBF40
:1075EC0001221A600E4B1A68D2075CBF01221A6086
:1075FC00704700BF7CE7032078E7032074E7032083
:10760C0070E703206CE7032068E7032064E703209E
:10761C0060E703205CE7032058E7032054E70320CE
:10762C0050E70320184B1A68D1075CBF01221A607F
:10763C00164B1A68D2075CBF01221A60144B1A68E9
:10764C00D0075CBF01221A60124B1A68D1075CBFCD
:10765C0001221A60104B1A68D2075CBF01221A6013
:10766C000E4B1A68D0075CBF01221A600C4B1A68CB
:10767C00D1075CBF01221A600A4B1A68D2075CBFA3
:10768C0001221A60704700BF9CE7032098E7032093
:10769C0094E7032090E703208CE7032088E703207E
:1076AC0084E7032080E70320184B1A68D1075CBFDE
:1076BC0001221A60164B1A68D2075CBF01221A60AD
:1076CC00144B1A68D0075CBF01221A60124B1A685F
:1076DC00D1075CBF01221A60104B1A68D2075CBF3D
:1076EC0001221A600E4B1A68D0075CBF01221A6087
:1076FC000C4B1A68D1075CBF01221A600A4B1A683E
:10770C00D2075CBF01221A60704700BFBCE70320A0
:10771C00B8E70320B4E70320B0E70320ACE703206D
:10772C00A8E70320A4E70320A0E70320244B1A6852
:10773C00D0075CBF01221A60224B1A68D1075CBFCC
:10774C0001221A60204B1A68D2075CBF01221A6012
:10775C001E4B1A68D0075CBF01221A601C4B1A68BA
:10776C00D1075CBF01221A601A4B1A68D2075CBFA2
:10777C0001221A60184B1A68D0075CBF01221A60EC
:10778C00164B1A68D1075CBF01221A60144B1A6899
:10779C00D2075CBF01221A60124B1A68D0075CBF7B
:1077AC0001221A60104B1A68D1075CBF01221A60C3
:1077BC000E4B1A68D2075CBF01221A60704700BFDB
:1077CC00ECE70320E8E70320E4E70320E0E70320ED
:1077DC00DCE70320D8E70320D4E70320D0E703201D
:1077EC00CCE70320C8E70320C4E70320C0E703204D
:1077FC0081F0004102E000BF83F0004330B54FEA56
:10780C0041044FEA430594EA050F08BF90EA020FC2
:10781C001FBF54EA000C55EA020C7FEA645C7FEA55
:10782C00655C00F0E2804FEA5454D4EB5555B8BF78
:10783C006D420CDD2C4480EA020281EA030382EAE9
:10784C00000083EA010180EA020281EA0303362D7B
:10785C0088BF30BD11F0004F4FEA01314FF4801C4E
:10786C004CEA113102D0404261EB410113F0004F60
:10787C004FEA03334CEA133302D0524263EB430317
:10788C0094EA050F00F0A780A4F10104D5F1200EB5
:10789C000DDB02FA0EFC22FA05F2801841F1000110
:1078AC0003FA0EF2801843FA05F359410EE0A5F1E4
:1078BC0020050EF1200E012A03FA0EFC28BF4CF015
:1078CC00020C43FA05F3C01851EBE37101F00045CB
:1078DC0007D54FF0000EDCF1000C7EEB00006EEBD8
:1078EC000101B1F5801F1BD3B1F5001F0CD3490862
:1078FC005FEA30004FEA3C0C04F101044FEA4452B9
:10790C0012F5800F80F09A80BCF1004F08BF5FEA3F
:10791C00500C50F1000041EB045141EA050130BD1F
:10792C005FEA4C0C404141EB010111F4801FA4F1C2
:10793C000104E9D191F0000F04BF01460020B1FA17
:10794C0081F308BF2033A3F10B03B3F120020CDA4F
:10795C000C3208DD02F1140CC2F10C0201FA0CF02D
:10796C0021FA02F10CE002F11402D8BFC2F1200C92
:10797C0001FA02F120FA0CFCDCBF41EA0C01904048
:10798C00E41AA2BF01EB0451294330BD6FEA040491
:10799C001F3C1CDA0C340EDC04F11404C4F120027C
:1079AC0020FA04F001FA02F340EA030021FA04F38E
:1079BC0045EA030130BDC4F10C04C4F1200220FAE5
:1079CC0002F001FA04F340EA0300294630BD21FA23
:1079DC0004F0294630BD94F0000F83F4801306BFE9
:1079EC0081F480110134013D4EE77FEA645C18BFDD
:1079FC007FEA655C29D094EA050F08BF90EA020F74
:107A0C0005D054EA000C04BF1946104630BD91EA6B
:107A1C00030F1EBF0021002030BD5FEA545C05D16E
:107A2C004000494128BF41F0004130BD14F58004AD
:107A3C003CBF01F5801130BD01F0004545F0FE4121
:107A4C0041F470014FF0000030BD7FEA645C1ABF56
:107A5C00194610467FEA655C1CBF0B46024650EA8D
:107A6C00013406BF52EA033591EA030F41F40021B9
:107A7C0030BD00BF90F0000F04BF0021704730B53F
:107A8C004FF4806404F132044FF000054FF0000114
:107A9C0050E700BF90F0000F04BF0021704730B5D5
:107AAC004FF4806404F1320410F0004548BF4042AA
:107ABC004FF000013EE700BF42004FEAE2014FEAFF
:107ACC0031014FEA02701FBF12F07F4393F07F4FDA
:107ADC0081F06051704792F0000F14BF93F07F4F0C
:107AEC00704730B54FF4607401F0004521F000414F
:107AFC0020E700BF50EA010208BF704730B54FF0D5
:107B0C0000050AE050EA010208BF704730B511F0D9
:107B1C00004502D5404261EB41014FF4806404F111
:107B2C0032045FEA915C3FF4DCAE4FF003025FEA93
:107B3C00DC0C18BF03325FEADC0C18BF033202EB1B
:107B4C00DC02C2F1200300FA03FC20FA02F001FA75
:107B5C0003FE40EA0E0021FA02F11444C1E600BF14
:107B6C0010B5054C13462CB10A4601460220AFF362
:107B7C00008010BD204610BD0000000010B5431E53
:107B8C000A44914204D011F8014B03F8014FF8E775
:107B9C0010BD884210B501EB020301D8421E0BE068
:107BAC009842FBD28118D21AD34204D013F8014D5B
:107BBC0001F8014DF8E710BD994204D011F8014BC2
:107BCC0002F8014FF8E710BD02440346934202D07D
:107BDC0003F8011BFAE7704738B5124B1C68A36B0E
:107BEC000546D3B91820FDF703F943F20E33A06311
:107BFC0003804AF6CD33438041F2342383804EF226
:107C0C006D63C3804DF6EC630381052343810B2325
:107C1C00838101220023C0E90423A36B00221D6190
:107C2C005A6138BD04E40320C9B2034610F8012B95
:107C3C001AB19142F9D11846704700290CBF184669
:107C4C000020704710B50446FFF7EEFF18B9204628
:107C5C0000F02FF8204410BD10F8012B11F8013B57
:107C6C00012A28BF9A42F7D0D01A7047034611F860
:107C7C00012B03F8012B002AF9D17047024B014666
:107C8C00186800F003B800BF04E4032070B5064682
:107C9C0008460C4600F00DF8451C29463046FDF709
:107CAC00CFF8064618B12A462146FFF767FF304643
:107CBC0070BD034613F8012B002AFBD1181A0138AA
:107CCC00704730B582B1451E013915F8013F11F8E6
:107CDC00014FA34206D1EC431444E04201D0002BE7
:107CEC00F3D11C46181B30BD104630BD38B50346C9
:107CFC000D4641B1002429461846FFF795FF30B1D7
:107D0C00431C0446F7E7BDE83840FFF78DBF20461B
:107D1C0038BD00002DE9F04780464048D0F800906F
:107D2C000F463D4615F8014B09EB0400407800F076
:107D3C00080000F0FF0608B12F46F2E72D2C03D106
:107D4C00BD1C7C78012603E02B2C04BF7C78BD1C69
:107D5C0013B1102B0AD15BE0302C57D1287800F0EE
:107D6C00DF0058284DD16C7810230235002E14BF3B
:107D7C004FF0004C6FF0004C0027BCFBF3FA384678
:107D8C0003FB1ACC09EB040E9EF801E01EF0040F65
:107D9C0001D0303C0BE01EF0030E1BD0BEF1010FE6
:107DAC000CBF4FF0370E4FF0570ECEEB0404A3422E
:107DBC0010DDB7F1FF3F0AD0504506D801D164451C
:107DCC0003DC03FB0040012701E04FF0FF3715F8FF
:107DDC00014BD7E77B1C0CD1002E4FF0220314BFB4
:107DEC004FF000406FF00040C8F800302AB9BDE8F1
:107DFC00F08706B1404272B107B1691E1160BDE84F
:107E0C00F0873024002BB1D10823AFE70A23ADE76C
:107E1C00302CA3D0AAE7BDE8F08700BFA0E3032075
:107E2C0013460A46014602480068FFF773BF00BFBD
:107E3C0004E403201D400D0059400D0085400D0049
:107E4C0089400D0000000000000000000000000050
:107E5C000000000000000000A5400D00C9400D000E
:107E6C000000000000000000D5400D0009410D008D
:107E7C00B5660D00CB400D004D455348004D4553A4
:107E8C004820434F4E4E4543544544004D455348BE
:107E9C00204641494C454420544F20434F4E4E45BB
:107EAC004354005041525449434C450050415254A4
:107EBC0049434C4520434F4E4E4543544544005096
:107ECC0041525449434C45204641494C4544205469
:107EDC004F20434F4E4E4543540053414D504C4957
:107EEC004E475F574149545F5354415445005354D6
:107EFC004152542053414D504C494E47005055422D
:107F0C004C4953485F574149545F535441544500C1
:107F1C005354415254205055424C4953485F53548A
:107F2C004154450047617264656E2D4C6164792D36
:107F3C004275672D30342D436170003663556F6E7A
:107F4C007158734C6368666E387435463655735584
:107F5C0072784635387145007B202276616C7565E8
:107F6C00223A202200252E326600222C2022666521
:107F7C0065644944223A202200227D0047617264E4
:107F8C00656E2D4C6164792D4275672D30342D430F
:107F9C0061702D50657263656E74616765006E3833
:107FAC00657063507343466B7362395557597467E8
:107FBC0058746F65344B6A686B76002564005354B3
:107FCC0041525420534C4545505F574149545F53DF
:107FDC005441544500474F494E4720544F20534C71
:107FEC0045455000534C4545505F53544154450052
:107FFC0057414B452055500053455455500053455F
:10800C0054555020434F4D504C45544500000000F2
:10801C000000000000000000454F0D004B4F0D000C
:10802C00A14F0D00594F0D00474F0D0000000000EF
:10803C00000000005B550D0051550D0047550D001B
:10804C003D550D0031550D0025550D0019550D00F0
:10805C0011550D0007550D00FD540D00C56B0D009D
:10806C00000000000000000079550D00C3550D0004
:10807C009B550D007B550D00A3550D00AB550D0008
:10808C00B3550D00BB550D000000000000000000B2
:10809C000D560D00FD550D00FF550D00302E300016
:1080AC0066616C7365007472756500257500252E0C
:1080BC002A6C66002567006E756C6C007525303473
:1080CC00780000000000000000000000915A0D0034
:1080DC00B75A0D006B5A0D000F570D000000000031
:1080EC00000000000D5F0D00215F0D0069680D00A0
:1080FC00735A0D00626175640053657269616C009E
:10810C0053657269616C31007479706500706172CD
:10811C00616D00636D6400696400686E6400737463
:10812C00726D0066696C74006C766C0061646448F6
:10813C00616E646C65720072656D6F766548616E18
:10814C00646C657200656E756D48616E646C657209
:10815C0073004A534F4E53747265616D4C6F674890
:10816C00616E646C65720061707000253031307521
:10817C0020005D20002C200028293A2000205B00E4
:10818C00636F6465203D2000256900646574616936
:10819C006C73203D20000D0A006C6E00666E00634F
:1081AC006F64650064657461696C006E6F6E650068
:1081BC00747261636500696E666F007761726E0040
:1081CC006572726F720070616E696300616C6C0035
:1081DC000000000000000000E15E0D00F95E0D00E3
:1081EC00B5660D00CB400D00000000000000000043
:1081FC008F5A0D00C55A0D00DD650D00755A0D0026
:10820C0000000000000000008D5A0D00D35A0D0034
:10821C00255E0D00E15A0D0000000000000000007A
:10822C003F6A0D00356A0D002B6A0D00216A0D00A6
:10823C00156A0D00096A0D00FD690D00F5690D0048
:10824C00EB690D00E1690D00C56B0D00000000002D
:10825C00000000005D6B0D00676B0D00716B0D0075
:10826C007B6B0D00856B0D00916B0D009D6B0D00F4
:10827C00A96B0D00B16B0D00BB6B0D00C56B0D0038
:10828C005A00252B3033643A253032750025592D90
:10829C00256D2D25645425483A254D3A2553257ACC
:1082AC000061736374696D650000000000000000DC
:1082BC000000000055700D00A5700D00B3700D008E
:1082CC00A56C0D0069700D008B700D0077700D00A2
:1082DC009F700D0057700D005B700D0000000000CA
:1082EC0000000000A5710D00F5710D0003720D006A
:1082FC00A56C0D00E1710D00A7710D00BD710D0095
:10830C00EF710D00D3710D00A1710D000000202044
:10831C002020202020202028282828282020202029
:10832C0020202020202020202020202020208810E9
:10833C001010101010101010101010101010040449
:10834C000404040404040404101010101010104150
:10835C0041414141410101010101010101010101C1
:10836C000101010101010101011010101010104256
:10837C004242424242020202020202020202020291
:10838C00020202020202020202101010102000006F
:10839C0000000000000000000000000000000000D1
:1083AC0000000000000000000000000000000000C1
:1083BC0000000000000000000000000000000000B1
:1083CC0000000000000000000000000000000000A1
:1083DC000000000000000000000000000000000091
:1083EC000000000000000000000000000000000081
:1083FC000000000000000000000000000000000071
:10840C000000000000000000000000000000000060
:10841C000000000000000000000000000000000050
:10842C000000000000000000000000000000000040
:10843C000000000000000000000000000000000030
:10844C000000000000000000000000000000000020
:10845C000000000000000000000000000000000010
:10846C000000000000000000000000000000000000
:10847C004300000055480D001D4F0D0065550D00C3
:10848C00A5660D000D6B0D00916C0D00D16D0D00EE
:10849C000D700D0041700D006D750D0031760D00E5
:1084AC00B5760D0039770D000000000000000000CB
:0484BC0000000000BC
:0484C00000000000B8
:1084C400E8030000001000000100000014820D0009
:1084D400FC810D00AD820D0019830D000000000029
:1084E4001C840D003C840D005C840D000000000021
:1084F4000000000000000000000000007C840D006B
:108504000000000000000000000000000000000067
:108514000000000000000000000000000000000057
:108524000000000000000000000000000000000047
:10853400000000000000000000000000A4E303208D
:10854400FFFFFFFF00000102030405060708090AF4
:108554000B0C0D0E0F101112131415161718191AEF
:088564001B1C1D1E1F20280036
:04856C0078563412F7
:04000003D000401CCD
:00000001FF
