:02000002D0002C
:1040000000400D00C0FF0D00000006000D0005017E
:0840100004019A080000000001
:0440180094E90D001A
:1040200009480A49884208B505D0094A824202D0A7
:10403000121A08F05FFC0748074A0021121A08F01C
:1040400081FC014808BD00BFA8DE03209CFD0D00D7
:10405000A0E00320A0E00320F1E7032070B5074EA5
:10406000074C07F05FFAA41BA4080025A54200D165
:1040700070BD56F8043B98470135F7E74CFD0D003D
:104080008CFD0D0000F022BA08B500F07DFABDE805
:10409000084007F0FFB903F051BD03F04FBD03F036
:1040A00055BD000008B5034A00210C2003F004FCB4
:1040B000FEE700BFE9740D000078B0FA80F0400917
:1040C00070470123037070477047006A0368DB681C
:1040D0001847000010B5034B0360044601F0E6F8F2
:1040E000204610BD5CEF0D0010B50446FFF7F2FF4F
:1040F0002046102107F05AFB204610BD0A4B10B590
:104100000446036004F042FE214605F040F807F043
:104110003DF907F02FF92046044B40F8043B04F02A
:1041200023FF204610BD00BF44EF0D002CEF0D0013
:1041300010B50446FFF7E2FF2046242107F036FBC6
:10414000204610BDF8B5037D05460F4616468BB1D7
:104150000368DB6883B19A88012A06D09B68F9E777
:104160009B684BB19A88012AFAD12BB19A89BA423D
:10417000F6D19E732846F8BD0A49102007F018FBB7
:10418000044668B11022002108F0DCFB064B2360D6
:104190000123A3802B69A360A781A6732C61E9E7A3
:1041A0002875E7E788F90D00100003000EB410B57C
:1041B0008DB00FAA016852F8044B0392002320200F
:1041C000CDE90403CDE900421E2004AA03F084FBDC
:1041D0000DB0BDE8104003B07047000008B50A48B4
:1041E00005F009FD094841F2CC03C380084B836008
:1041F000002141F27203838103F0E4FB054902468A
:104200000548FFF7D3FF08BDE5E10320F4E00320F4
:1042100026025203A8E90D003CE60320000000003E
:1042200010B50F202DED028B07F02EFA4FF47A70A7
:1042300003F0FCFC0F2007F027FA04464FF47A70D5
:1042400003F0F4FC204607F0D1FD2BA3D3E90023B3
:1042500007F036FE08F0EEF8DFED1F7A07EE100AE1
:1042600067EE277A17EE900A07F0D2FD1B4B00226B
:1042700007F06EFC00221A4B07F022FE08F0DAF875
:10428000184B186008EE100A07F0C2FD164B00220A
:1042900007F016FE154B002207F03CFF144B0022DE
:1042A00007F058FC08F0C6F8FBEE047A114BB4EEA8
:1042B000E78AF1EE10FA18600BD4F3EE0E7AB4EE42
:1042C000E78AF1EE10FAD4BF01200020BDEC028B8A
:1042D00010BD0020FAE700BF000080390000E03F79
:1042E000000059403CE2032000002240000014403E
:1042F0000000404040E203206666666666660A404B
:1043000010B5074C03F0F8F82368C01AB0F57A7FAF
:1043100004D303F0F1F82060012010BD0020FCE779
:10432000C4E0032070B5044686B00D461E468AB12F
:10433000014602A805F08AFE1A4902A805F0E8FE27
:10434000294605F0D9FE01681748FFF72FFF02A89C
:1043500005F0E6FD1EB3FFF7D3FF10B903F04EFBE7
:10436000F9E7FFF7CDFF114B2A681B788DF8003075
:1043700021683C2302A803F019FE039C7CB163680A
:10438000013B63605BB9236820469B689847A3683C
:10439000013BA3601BB923682046DB6898470120D6
:1043A00006B070BD01F70D003CE60320C1E003201C
:1043B00010B5104C88B00146204605F038FE0121AA
:1043C000072007F048F90C49684605F0F4FD21463E
:1043D00004A805F03BFE01231A4604A96846FFF72E
:1043E000A1FF04A805F09CFD684605F099FD012099
:1043F00008B010BD18E10320C1E90D0030B585B04B
:104400000D4600226946009203F07EFAB0B9009C86
:104410000CB1236923B90A4A00210A2003F04CFA9F
:104420000023ADF806300C23ADF8043004230393C9
:104430000295236901AA01212046984705B030BDA5
:10444000E9740D0070B5D0E900531426044606FB4C
:104450000356AE4204D0284605F062FD1435F8E755
:10446000206803F073FB204670BD38B5036814461E
:10447000DD680123A847204638BD000070B50F4D08
:104480000F4A0024112128461470FFF7EEFF0D4A51
:10449000092128461470FFF7E8FF0B4A0126102176
:1044A00028461670FFF7E1FF3146052007F0D3F8E4
:1044B00021460520BDE8704007F0CDB868E1032033
:1044C000E4E1032028E2032070E2032007B506F0B0
:1044D0005DFF4FF4E13106F049FFFFF77FFE244A0C
:1044E0002449254803F06FFC0021042007F0A2F8BE
:1044F0000321082007F09EF80121072007F09AF811
:104500000121052007F096F80121052007F0A3F806
:104510000021052007F09FF80121062007F08AF806
:104520000321102007F086F80321132007F082F8FA
:104530000021132007F08FF806F0F6F9F1EE047A67
:1045400030EE670A06F0D0F90C4801F0F1F90C489A
:1045500000F0C2FE002300930A494FF0FF3301220E
:10456000082004F02DF803B05DF804EBFFF786BFD8
:10457000C8E90D00B1430D009B7D0D000CE2032046
:1045800068E103207D440D002DE9F041994C9A48E3
:1045900092B001F0D3FA2378023B062B00F2AA80F6
:1045A000DFE813F007007E00AB00D900640173025E
:1045B000D60203F033FA914E054600284ED09049BA
:1045C00008A805F0F8FC8F490CA805F0F4FC0023BE
:1045D00001220CA908A8FFF7A5FE0CA805F0A0FC75
:1045E00008A805F09DFC884B1B78C3B1874908A833
:1045F00005F0E1FC86490CA805F0DDFC01231A4614
:104600000CA908A8FFF78EFE0CA805F089FC08A8E5
:1046100005F086FC02F070FF3060032369E07D4FF7
:104620007D4D7E4801233A46092100F05FFE0123BB
:104630007A482A46112100F059FE3B782BB1734984
:1046400008A805F0B8FC7649D5E72B78002BE1D017
:104650006E4908A805F0AFFC7249CCE703F0D6F923
:1046600002F04AFF3368C01A6F4B984242D964493E
:1046700008A805F0A0FC6D490CA805F09CFC2B4691
:1046800001220CA908A8FFF74DFE0CA805F048FC74
:1046900008A805F045FC02F02FFF3060072328E052
:1046A000564D02F029FF2B68C01AB0F57A7F21D34E
:1046B0005F4908A805F07FFC5E490CA805F07BFC6B
:1046C000002301220CA908A8FFF72CFE0CA805F076
:1046D00027FC08A805F024FC574B01221A60574B11
:1046E00000221A60564B00221A6002F005FF0423D4
:1046F0002860237012B0BDE8F081102006F0C4FFDE
:1047000007EE900A4F4BB8EEE77A83ED007A4B4BF9
:10471000D3ED007AF8EEE77A77EE877AFDEEE77A66
:10472000C3ED007A444B1A68511C1960464B1B6854
:104730009A4217EE900A0EDD90FBF3F007EE900A16
:104740003F4BF8EEE77AC3ED007A02F0D5FE2B4B33
:10475000186005232370294D02F0CEFE2A68801AC6
:10476000B0F57A7FC6D3FFF75BFD384E00283CD00A
:1047700096ED000A02210CA805F08DFC34480CA926
:1047800005F06FFC0CA805F0CBFB324908A805F03A
:1047900012FC31490CA805F00EFC01231A460CA9A5
:1047A00008A8FFF7BFFD0CA805F0BAFB08A805F0A4
:1047B000B7FB2A4805F09BFA294908A805F0FBFB3E
:1047C00028490CA805F0F7FB002301220CA908A832
:1047D000FFF7A8FD0CA805F0A3FB08A805F0A0FBB7
:1047E00002F08AFE0623286083E71F49184805F077
:1047F00040FCCAE7B0DE03200CE2032038E20320CD
:10480000D1E90D00DAE90D0070E20320EDE90D00B9
:10481000FAE90D0028E20320E4E1032068E1032027
:104820000CEA0D0018EA0D00E093040024EA0D00E4
:104830003FEA0D0053EA0D0030E2032034E203208A
:104840002CE20320C8E00320ACDE03203CE203207E
:1048500044E2032062EA0D0068EA0D00E5E103206E
:1048600079EA0D0084EA0D00F8F30D000CA9182078
:10487000FFF7C4FD964D974E0028A8BF0C982860FE
:104880000CA90720FFF7BAFD2B68934A002823EAFA
:10489000E373A8BF0C9852F8231030608F4805F0DE
:1048A000E8FB33688E4A8F4823EAE37352F82310FB
:1048B00005F0DFFB0CA90320FFF7A0FD002840F066
:1048C000E180BDF8303000EE103ABBEECC0A022198
:1048D0000CA805F0E0FB0CA9834805F0C2FB0CA86E
:1048E00005F01EFB814803F07DFD02210CA805F0B8
:1048F000D2FB0CA97E4805F0B4FB0CA805F010FB18
:104900007A4803F08BFD02210CA805F0C4FB0CA92A
:10491000784805F0A6FB0CA805F002FB764908A82C
:1049200005F049FB6D490CA805F090FB01231A46E0
:104930000CA908A8FFF7F6FC0CA805F0F1FA08A8E6
:1049400005F0EEFA6D4908A805F035FB65490CA89D
:1049500005F07CFB01231A460CA908A8FFF7E2FC2E
:104960000CA805F0DDFA08A805F0DAFA644908A8F1
:1049700005F021FB5C490CA805F068FB01231A46F1
:104980000CA908A8FFF7CEFC0CA805F0C9FA08A8E6
:1049900005F0C6FA5B4908A805F00DFB54490CA8C0
:1049A00005F054FB01231A460CA908A8FFF7BAFC2E
:1049B0000CA805F0B5FA08A805F0B2FA524908A803
:1049C00005F0F9FA4B490CA805F040FB01231A4603
:1049D0000CA908A8FFF7A6FC0CA805F0A1FA08A8E6
:1049E00005F09EFA494B4A4993ED000A494802F006
:1049F00046FD494B494993ED000A464802F03FFD08
:104A00003A4803F0EFFC4649424802F038FD454B76
:104A100040481A78444B196802F03AFD434B18702D
:104A200098B1434908A805F0C6FA42490CA805F018
:104A3000C2FA01231A460CA908A8FFF773FC0CA8B8
:104A400005F06EFA08A805F06BFA3B4908A805F0D6
:104A5000B2FA3A490CA805F0AEFA002301220CA9DB
:104A600008A8FFF75FFC0CA805F05AFA08A805F0A3
:104A700057FA0021072006F0EEFD02F03DFD304B15
:104A800018600BE6BFEE000A21E72D4D02F034FD61
:104A90002B68C01A2B4B98427FF62CAE2A4908A8E7
:104AA00005F089FA29490CA805F085FA00230122AE
:104AB0000CA908A8FFF736FC0CA805F031FA08A8E5
:104AC00005F02EFA02F018FD0823286011E600BF59
:104AD00008E20320ECE00320E0EF0D00F8E1032002
:104AE000F8EF0D00E8E10320DCE0032078E103208B
:104AF000B0E00320A0E0032098EA0D00A6EA0D0034
:104B0000B4EA0D00C3EA0D00D1EA0D00C8E00320AD
:104B1000DDEA0D0064E203203CE20320F1EA0D002F
:104B200006EB0D00C0E00320A8DE0320F0E0032028
:104B30001BEB0D0027EB0D008AEA0D002BEB0D009F
:104B400038E20320BFD40100EFEB0D0042EB0D0073
:104B5000954B1D78002D40F001819449DFF8748257
:104B6000934F08A805F027FA92490CA805F023FAFC
:104B70002B4601220CA908A8FFF7D4FB0CA805F0CE
:104B8000CFF908A805F0CCF9424611218A4888F8E7
:104B90000050FFF76AFC3A46092187483D70FFF74D
:104BA00064FC864A844815701021FFF75EFC0DAB4B
:104BB00001220C931321824B0D930CA8CDE90F55C4
:104BC000ADF839508DF83B508DF844208DF83820E1
:104BD000FFF7B8FA037D0646EBB10368DB682BB13B
:104BE0009A88042A00F0DD809B68F8E77549102058
:104BF00006F0DEFD0546002800F0D18010220021DD
:104C000007F0A0FE6E4B2B600423AB803369AB60D2
:104C10006D4BEB6035610CA901A805F0C3FA0021CA
:104C2000132006F018FD019B23B39D88012D21D18F
:104C30009B896649132B04A87AD105F0BCF9644915
:104C400008A805F0B8F92A46002308A904A8FFF728
:104C500069FB08A805F064F904A805F061F9294684
:104C6000072006F0F8FC5B4A88F8005011215248F2
:104C7000FFF7FBFB019BB3B19B88042B13D1534976
:104C800004A805F098F9544908A805F094F9002300
:104C9000012208A904A8FFF745FB08A805F040F980
:104CA00004A805F03DF9019BB3B19B880E2B13D1ED
:104CB000464904A805F07FF9484908A805F07BF9A2
:104CC0000023012208A904A8FFF72CFB08A805F07F
:104CD00027F904A805F024F9019B0BB19B889BB927
:104CE0003A4904A805F067F93D4908A805F063F9B9
:104CF0000023012208A904A8FFF714FB08A805F067
:104D00000FF904A805F00CF902F0F6FB354B18601A
:104D100001980223237008B102F018FF10980028B0
:104D20003FF4E8AC84680C2106F040FD2046F6E72D
:104D300005F041F92C4908A805F03DF92A4608A9D3
:104D4000002304A8FFF7EEFA08A805F0E9F804A884
:104D500005F0E6F8164A3D70092188E7214D02F07A
:104D6000CBFB2B68C01A214B98427FF6C3AC0F498E
:104D700008A805F020F91E490CA805F01CF900232D
:104D800001220CA908A8FFF7CDFA0CA805F0C8F875
:104D900008A805F0C5F802F0AFFB28603DE43075C7
:104DA00039E7094ADA6036E714E10320EFEB0D003A
:104DB00028E2032051EB0D0068E1032070E203209C
:104DC0001000030088F90D00A0BB0D00EDE90D00F7
:104DD00062EB0D00E4E103208AEB0D00A5EB0D0072
:104DE000C4EB0D0038E2032076EB0D009FBB0D00F5
:104DF000E3EB0D008842F8B504460D46164616D979
:104E0000904215D2A2F11406751AA1F114072C4490
:104E1000B7421CD02CB13146204605F0FDF8337C5A
:104E20002374304605F07CF8143E143CF0E70ED0B5
:104E3000B5420CD02CB12946204605F0EDF82B7C6C
:104E40002374284605F06CF814351434F0E7F8BDE7
:104E50002DE9F0410023C0E9003383604F689F4291
:104E600004460E4623DD4FF0140808FB07F002F05D
:104E700065FE0546D8B1D4E9001208FB0212FFF71F
:104E8000B9FF206802F062FE2560A760D6E90073D2
:104E900008FB0378B84508D03946284605F0D6F80F
:104EA0003B7C2B7414371435F4E773686360204639
:104EB000BDE8F081F0B5AB4B00251D70AA4B012475
:104EC0008DB01C7006F060FB2B462A4643F6A641C7
:104ED00006F062FB06F058FB2A462B460B2106F033
:104EE00063FB2946204602F031FDCDE900550295CD
:104EF00006F04CFA9D4C0646694603A8FFF7A8FF4A
:104F0000274603A906A8FFF7A3FF994B47F8043BE0
:104F100006A909A8FFF79CFF09AA1E21384604F03C
:104F200090FA09A8FFF78EFA06A8FFF78BFA914BC3
:104F30002360266203A8FFF785FA8F4B236006F0F3
:104F400025FA4FF4165106F011FA03F01FFF21461F
:104F500004F009FA6846FFF775FA03228749884882
:104F6000884C02F07BFA06F0D9FB0146864800F037
:104F7000E7FB06F0D3FB4FF4005201462B462046D8
:104F800000F0A0F9814B2360814C8249204605F056
:104F900012F8814904F1100005F00DF87F4904F181
:104FA000200005F008F87E4904F1300005F003F810
:104FB0007C4904F1400004F0FEFF7B4904F15000FD
:104FC00004F0F9FF794904F1600004F0F4FF784936
:104FD00004F1700004F0EFFF764904F1800004F062
:104FE000EAFF754904F1900004F0E5FF734904F10C
:104FF000A00004F0E0FF724904F1B00004F0DBFF10
:10500000704904F1C00004F0D6FF6F4904F1D000EC
:1050100004F0D1FF04F1E0006C4C6D4904F0CBFFCB
:105020006C49204604F0C7FF6B4904F1100004F0FE
:10503000C2FF6A4904F1200004F0BDFF684904F191
:10504000300004F0B8FF674904F1400004F0B3FFFA
:10505000654904F1500004F0AEFF644904F16000BA
:1050600004F0A9FF624904F1700004F0A4FF614953
:1050700004F1800004F09FFF5F4904F1900004F008
:105080009AFF5E4904F1A00004F095FF5C4904F129
:10509000B00004F090FF5B4904F1C00004F08BFF06
:1050A000594904F1D00004F086FF584904F1E000AA
:1050B00004F081FF56495748574C04F07CFF54498F
:1050C000564804F078FF5249554804F074FF50499F
:1050D000544804F070FF2146534804F06CFF214609
:1050E000524804F068FF2146514804F064FF21460D
:1050F000504804F060FF21464F4804F05CFF214611
:105100004E4804F058FF21464D4804F054FF214614
:105110004C4804F050FF21464B4804F04CFF214618
:105120004A4804F048FF2146494804F044FF294614
:10513000484804F058FD484B202632461846294678
:1051400007F000FC29464671444803F0FDF821466B
:10515000434804F030FF2146424804F02CFF0DB0D4
:10516000F0BD00BFC0E00320C1E00320C0E1032088
:105170002CEF0D0050F70D0044EF0D00F5EB0D0086
:1051800064E2032068E103200CE203205CEF0D00E1
:1051900074E20320FDEB0D0018EC0D0038EC0D005F
:1051A0004EEC0D0066EC0D0083EC0D0096EC0D004E
:1051B000AEEC0D00CBEC0D00DEEC0D00F6EC0D00BE
:1051C00013ED0D0026ED0D003EED0D0064E3032010
:1051D0005BED0D006EED0D008BED0D00A8ED0D00EB
:1051E000C5ED0D00E2ED0D00FFED0D001CEE0D0014
:1051F00039EE0D0056EE0D0073EE0D0090EE0D0031
:10520000ADEE0D00CAEE0D00E7EE0D0004EF0D004F
:10521000F8F30D00CCE0032023F30D0028E1032078
:1052200044E2032054E20320B0E10320A0E1032084
:1052300080E1032090E1032058E1032048E10320AE
:1052400038E1032018E10320F8E10320E8E103201E
:10525000DCE00320E5E10320F4E0032078E1032013
:10526000B0E00320A0E0032010B58368044613B12A
:10527000032201469847204610BD13B50B4602464F
:10528000D0E900016C4684E8030093E8030082E85B
:10529000030094E8030083E8030002B010BD00009F
:1052A000014B00221A70704754E40320704710B578
:1052B0001021044606F07AFA204610BD0368C9B2F0
:1052C0009B68184730B5034DC0E90223C0E900517F
:1052D00030BD00BF1CF00D00406803F007B910B5E9
:1052E0000446006803F061F9204610BD2DE9F7433C
:1052F0000446406801900D4616461F4603F04CF9DF
:10530000A7B1E168606841F0500103F022F9290A71
:105310006068FFF7D3FF29466068FFF7CFFF60683A
:10532000002103F031F948B1002400E0012401A874
:10533000FFF7D5FF204603B0BDE8F083202F217B87
:105340006068B84628BF4FF020080123424641F06C
:10535000500103F0E8F806F0E1F903681B6998478B
:105360004045E1DB06EB080906F0D8F903685B6904
:10537000984706F8010B4E45F6D14544A7EB0807C0
:10538000BEE72DE9F74F0446406801900E4690466F
:105390001D4603F001F94FF00109B9F1000F2AD0C1
:1053A0004DB3E168606841F0500103F0D2F8310A72
:1053B0006068FFF783FF60683146FFF77FFFA5F164
:1053C0001E0A4746A6EB080B606817F8011B036826
:1053D000013D9B68984755450BEB0706B84601D041
:1053E000002DF1D16068012103F0CEF80028D7D05C
:1053F0004FF00009D1E701A8FFF771FF484603B05D
:10540000BDE8F08F2DE9F0438BB00E46154680467F
:10541000406801901C4603F0BFF8AE4229D22644F2
:1054200025448CB11E2C2746D8F8003028BF1E27F3
:10543000F61BD3F8089002AA3B4631464046ED1BC6
:10544000C84748B9002400E0012401A8FFF747FF3E
:1054500020460BB0BDE8F083D8F8003002AAD3F89C
:105460000C9029463B464046C8470028EAD0E41B3A
:10547000D7E7E9D9002CE7D0D8F800301E2C274612
:1054800028BF1E27D3F8089002AA3B463146404663
:10549000C8470028D6D0D8F8003002AAD3F80C901C
:1054A00029463B464046C8470028CBD03E443D44B1
:1054B000E41BDFE7402070470020704780207047E2
:1054C000FF207047704770477047704710B5142130
:1054D000044606F06BF9204610BD10B508210446BD
:1054E00006F064F9204610BD10B50821044606F008
:1054F0005DF9204610BD10B51C21044606F056F992
:10550000204610BD2DE9FF410368DB68044698473B
:1055100010220146684607F015FA236820469B686A
:105520009847002507462846BD420ED27E1B2368B9
:10553000102E28BF1026D3F818806A463346294615
:105540002046C04708B13544EEE704B0BDE8F0811D
:105550004FF48073438140F20113C3600023038240
:105560007047000008B5064B0360064B436040F2ED
:105570000473038100234374FFF7EAFF08BD00BFF3
:10558000FCF00D000001020303090A2200F00F00E5
:1055900002FB0300704708B5807AFFF7F5FF00F5BE
:1055A000FA6008BDC07A00F01F00FFF7EDBF007B76
:1055B00000F03F00FFF7E8BF08B5817B4A060DD534
:1055C00001F01F00FFF7E0FF8B0603D50C2800D089
:1055D0000C3008BD0C2808BF0020FAE7BDE80840E1
:1055E00001F03F00FFF7D0BFC07B00F07F00FFF766
:1055F000CBBF007C00F07F00FFF7C6BF10B58AB0BC
:1056000024220446002101A807F09CF92046FFF758
:10561000C2FFA0F26C7006902046FFF7C3FF01386E
:1056200005902046FFF7C3FF04902046FFF7C4FF14
:1056300003902046FFF7D8FF02902046FFF7D9FFDE
:10564000019001A802F0EAFA0AB010BD0A2190FB0D
:10565000F1F292FBF1F301FB13231B01DBB201FB1F
:1056600012001843C0B27047642310B5044691FB82
:10567000F3F000FB1310FFF7E9FFA07210BD10B5A7
:1056800004460846FFF7E2FFE07210BD10B504467D
:105690000846FFF7DBFF237B23F03F03184320730B
:1056A00010BD10B50446481CFFF7D0FF637B23F004
:1056B00007031843607310BD10B504460846FFF792
:1056C000C5FFA07310BD10B504460846FFF7BEFF26
:1056D000E07310BD10B504460846FFF7B7FF237C02
:1056E00023F07F031843207410BD37B50446684685
:1056F000CDE9002307F0ECF8054641692046FFF7A5
:10570000B3FF296920460131FFF7B9FFE968204658
:10571000FFF7BCFFA9692046FFF7C3FFA968204631
:10572000FFF7CAFF69682046FFF7CDFF29683B29CC
:10573000A8BF3B212046FFF7CDFF03B030BD0000DE
:10574000054A0061C0E90021044A8260044AC2603F
:10575000044A80614261704730F10D00000001038E
:10576000D8F00D000CF10D002DE9F84F04460F465E
:105770009046994600260A9B9E4231D2606839467F
:1057800002F0E3FE08EB06016068FFF797FD606832
:10579000002102F0F9FE0546D0B90A9B60689A1B09
:1057A000202A4FF0010328BF2022394602F0BBFE19
:1057B00009EB060B05460BEB000ADA4506D06068DC
:1057C00003685B6998470BF8010BF6E72E44D2E7B4
:1057D000024604490448FEF7E9FC2846BDE8F88F74
:1057E0000025FAE730F00D0058E403202DE9F341DD
:1057F00001EB03081E4603689B6805460C461746E6
:10580000984780450DD82034686800963B46E2B240
:105810006F21FFF7A9FFB0FA80F0400902B0BDE8A0
:10582000F0810020FAE72DE9F34101EB03081E4661
:1058300003689B6804460D461746984780450CD878
:10584000606800963B46EAB25721FFF78DFFB0FA39
:1058500080F0400902B0BDE8F0810020FAE77FB592
:105860001E1E0CBF072306230093144602AB0A46F4
:105870006F21FFF779FF0546A8B99DF8083023741A
:105880009DF80930E3739DF80A30A3739DF80B303F
:1058900063739DF80C3023739DF80D30E3722EB9BD
:1058A0009DF80E30A372284604B070BD05F07AF959
:1058B000FFF7CCFEA072F6E71FB501230A4600935E
:1058C0006F2103ABFFF750FF20B99DF80C0005B026
:1058D0005DF804FB0020FAE708B50321FFF7ECFFB1
:1058E000C0F3401008BD38B500230C460A461946DF
:1058F0000546FFF7B4FF30B9A37A23B12846BDE8C7
:105900003840FFF7E9BF002038BD7FB5024601A847
:10591000FFF728FE01A91046FFF7E5FF28B101A80F
:10592000FFF76CFE07B05DF804FB00200146F9E7C5
:10593000D0B5044686B0406802F0D8FD05F004F901
:10594000E8B9E37A9B071AD52046FFF7DEFF064643
:105950000F4656EA070312D004F0FCFF0A4B0B492E
:105960001B68009332463B4602A805F0ABF8084896
:10597000029A0849FEF71AFC02A804F0D1FA0123A2
:10598000237206B0D0BD00BFBCDE032090E603202A
:1059900058E403204AF00D002DE9F84F06468846EA
:1059A00091469A4600250A9B9D4229D2706841463D
:1059B00002F0CBFD706809EB0501FFF77FFC0A9B45
:1059C0005F1B1F2F28BF1F270AEB050407EB040BE3
:1059D000706814F8011B026892689047A345F7D1DC
:1059E0007068012102F0D0FD044638B10246054935
:1059F0000548FEF7DBFB2046BDE8F88F3D44D2E7C3
:105A00000024F8E75FF00D0058E403202DE9F3418E
:105A100001EB03081E4603689B6805460C461746C3
:105A2000984780450DD82034686800963B46E2B21E
:105A30006F21FFF7B1FFB0FA80F0400902B0BDE876
:105A4000F0810020FAE71FB5137C8DF80830D37B76
:105A50008DF80930937B8DF80A30537B8DF80B302D
:105A6000137B8DF80C30D37A8DF80D30937A8DF846
:105A70000E30072300930A4602AB6F21FFF78CFF1D
:105A800005B05DF804FB10B588B0044603A8019387
:105A9000FFF768FD019B03A8FFF727FE9DF81C3068
:105AA000A27A63F07F038DF81C309DF819306AB13B
:105AB00043F0080303AA002120468DF81930FFF7B0
:105AC000C2FFB0FA80F0400908B010BD03F0F70340
:105AD000F0E70000F0B587B0054605F035F804465C
:105AE000E8B105F04EF8C717024606463B46284681
:105AF000FFF7C9FF0C4B0D491B68009332463B462C
:105B0000044602A804F0DEFF0948029A0949FEF79C
:105B10004DFB02A804F004FA204607B0F0BD064988
:105B20000348FEF743FBF7E7BCDE032090E60320C3
:105B300058E403207AF00D0090F00D0037B5457A57
:105B400004469DB905F000F880B1002200236946A3
:105B50002846CDE9002301F081FF38B1E37ADB0765
:105B600002D52046FFF7B6FF0123637203B030BDB4
:105B700038B5044632256068572102F0E6FC6068BB
:105B8000012102F001FD08B1013DF4D138BD000052
:105B90002DE9F04104460F46164602EB0308B045D6
:105BA00020D06068572102F0D0FC39466068FFF7CA
:105BB00085FB606816F8011B03689B68984760685E
:105BC000012102F0E1FC0137054638B102460649E1
:105BD0000648FEF7EBFA2846BDE8F0812046FFF7BD
:105BE000C7FFDCE70025F6E7A5F00D0058E4032029
:105BF000F7B5CF181E46036801929B6804460D4610
:105C0000984787420AD8019A60683346E9B2FFF79D
:105C1000BFFFB0FA80F0400903B0F0BD0020FBE701
:105C2000014B024A1A60704758E40320C6F00D0089
:105C300003681847012A03D0022A03D000207047C6
:105C40000160FBE70B680360F8E7000013B51C2058
:105C5000FEF721FA044648B1064B07491B6800933A
:105C60000968064B42F2343200F0FAFF204602B0D7
:105C700010BD00BFE4E40320E0E4032038F10D0090
:105C800013B52020FEF707FA044640B1054B06493C
:105C90001B6800930968054B502200F015FA204656
:105CA00002B010BDE4E40320E0E4032038F10D006D
:105CB00013B51C20FEF7EFF9044648B1064B07491F
:105CC0001B6800930968064B42F2343201F026FB50
:105CD000204602B010BD00BFE4E40320E0E403204E
:105CE00038F10D0013B51420FEF7D5F9044640B184
:105CF000054B06491B680093002309681A4600F00B
:105D000003FD204602B010BDE4E40320E0E40320DC
:105D100010B586B002AB0291044693E803006A46D0
:105D200082E8030094E8030083E8030092E803009C
:105D3000A2680492064AA260E2680592054AE260FF
:105D400084E803001846FFF78FFA204606B010BD1E
:105D5000355C0D00315C0D0070B500F10801C268C2
:105D60000B463AB1157C0478A5422ABF1346D26887
:105D70009268F6E7994204D000781A7C904238BFC6
:105D80000B46DA690AB905F0C9FDBDE870401A6A28
:105D900003F11400104738B5046805467CB1636808
:105DA000013B63605BB9236820469B689847A36802
:105DB000013BA3601BB923682046DB68984728464F
:105DC00038BD8B6870B5164604460D1D01225BB1C7
:105DD00030781A7C904234BF9868D8681D4634BF2A
:105DE000012200220346F2E792B1CA68AA4203D117
:105DF000C4E90035204670BD284605F031FD3378F2
:105E0000027C9A424FF00003F2D3C4E90003F1E7A9
:105E10002846F4E72DE9F04300F10408856885B0D1
:105E200006468946444655B199F800302A7C9A4284
:105E300036BFEB68AB6825462C461D46F3E7A04508
:105E400004D099F80020237C9A422ED22420FEF719
:105E500022F999F8009080F810900023A045074699
:105E600000F11002C36125D173691BB131690B7C4C
:105E70004B4509D3314602A8FFF7A3FFDDE90241F4
:105E8000002951D0002C4DD188454BD0387C0B7C5B
:105E900098422CBF0020012043460A46394605F0AF
:105EA000E1FC7369013373613C4604F1140005B0F1
:105EB000BDE8F083237C01924B4518D9F3689C42DE
:105EC00009D0204605F0CCFC037C019A4B4505D255
:105ED000C36853B9044621461C46D1E7314602A89F
:105EE000FFF76FFFDDE90234F5E72346F3E71BD246
:105EF00031698C420BD0204605F09FFC037C019A4F
:105F00004B45054605D9E36853B921461D462C4645
:105F1000B6E7314602A8FFF754FFDDE90251F6E784
:105F20000146F4E70120B7E707F11400FFF79CF9F9
:105F30003846FEF7B4F82746B6E700002DE9F341EE
:105F4000051D0026174600F10802C0E90362C0E9FA
:105F5000052604468846067203700DF107010123E9
:105F600028468DF80730FFF755FF1649FFF7D0FE9A
:105F70000DF1070128468DF80760FFF74BFF124926
:105F8000FFF7C6FE02230DF1070128468DF8073002
:105F9000FFF740FF0D49FFF7BBFE03230DF107019B
:105FA00028468DF80730FFF735FF0949FFF7B0FEA7
:105FB000084BC3F80080084B20461F6002B0BDE8C4
:105FC000F08100BF4D5C0D00815C0D00B15C0D00E7
:105FD000E55C0D00E0E40320E4E4032008B5054897
:105FE00004F02AFC044804F027FCBDE808400348FC
:105FF00005F02AB8C4E403205CE4032078E403201D
:10600000017570470022011DC0E90221C0E9041298
:106010000271704770B506462DED028B142001F019
:106020008DFD0546142001F089FD0446304606F03A
:10603000FCFC324600230238984214DD12F8011BA2
:106040000D293AD111780A2937D151780D2934D147
:1060500091780A2931D10433F1181422284606F028
:10606000FEFC00232B750A21284606F097FC064605
:1060700028B30A21013006F091FC00B331462046D6
:1060800006F0ADFC204606F0D0FC2044002300F8CA
:10609000013C204606F018FC51EC100B06F0CAF942
:1060A00008EE100A204601F051FD284601F04EFD91
:1060B000B0EE480ABDEC028B70BD0133BCE79FED2A
:1060C000018AF5E75F42A2CD30B5074D0560002596
:1060D000C0E901130575039B41F2883585610525EB
:1060E000C0E90332057730BD54F30D002DE9F74FB9
:1060F000DFF88C80DFF88CA0DFF88CB004460D460A
:106100001746002640465FFA86F904F0E4F888BB9B
:10611000237F4B452ED9237DCBB105F037F951466E
:1061200003F024FE05F032F9294603F01FFE05F0C6
:106130002DF9594603F01AFE05F028F90A224946BE
:10614000019003F030FE019B184603F016FE002379
:10615000BAB22946404604F0C3F9237D23B105F0C5
:1061600015F9064903F015FE4FF47A7001F05EFD53
:106170000136C7E703B0BDE8F08F00BF76F10D0030
:10618000E8E403204CF10D0062F10D002DE9F0412F
:106190004B1E0C4601F52F720546002103F8011F26
:1061A0009342FBD12B7D4BB105F0F0F8144903F07D
:1061B000F0FD05F0EBF8134903F0EBFD124F00265C
:1061C00040F2BB28384604F08DFA70B1384604F02E
:1061D00042F9A0552B7D2BB105F0D8F80368A15DDD
:1061E0009B68984701364645ECD12B7D33B105F0CD
:1061F000CDF8BDE8F041054903F0CBBDBDE8F08125
:106200009BF10D0087F10D00E8E403209AF10D00E9
:10621000F8B50E4F04460026384604F063FA0546EA
:1062200090B9A369B3420FDD012001F0FFFCA3691F
:106230000136B342F0DC207D28B105F0A7F804490F
:1062400003F0A7FD2846F8BD0120FCE7E8E40320A1
:10625000A6F10D00F8B50F460269416804461D46D7
:10626000FFF744FF784804F036F80646002800F0AF
:10627000E1807649744803F079FD3946724803F0AD
:1062800075FD7349704803F071FD72496E4803F063
:106290006DFD61686C4803F069FD6F496A4803F061
:1062A00065FD6E49684803F061FDA168664803F02A
:1062B0005DFD6949644803F059FD6949624803F08E
:1062C00055FDE168604803F051FD63495E4803F005
:1062D0004DFD64495C4803F049FD63495A4803F0A9
:1062E00045FD284606F0A1FB60490646564803F0E6
:1062F0003DFD0A223146544803F055FD5C495248A1
:1063000003F034FD2946504803F030FD52494E4811
:1063100003F02CFD4C4803F0DDFF237D002B69D0FA
:1063200005F034F8534903F034FD05F02FF84749E0
:1063300003F01CFD05F02AF8394603F017FD05F0BF
:1063400025F8434903F012FD05F020F8414903F018
:106350000DFD05F01BF8616803F008FD05F016F867
:106360003D4903F003FD05F011F83C4903F0FEFC44
:1063700005F00CF8A16803F0F9FC05F007F83649C0
:1063800003F0F4FC05F002F8354903F0EFFC04F0EB
:10639000FDFFE16803F0EAFC04F0F8FF2E4903F08A
:1063A000E5FC04F0F3FF2F4903F0E0FC04F0EEFFFE
:1063B0002D4903F0DBFC04F0E9FF2C4903F0D6FC87
:1063C00004F0E4FF0A22314603F0EDFC04F0DEFFA6
:1063D000274903F0CBFC04F0D9FF294603F0C6FCA3
:1063E00004F0D4FF1C4903F0C1FC04F0CFFF2249A4
:1063F00003F0CFFC2046FFF70BFF237D2BB90124D0
:10640000114804F0C9F92046F8BD04F0BFFF1B494C
:106410000D4D03F0BEFC284604F064F90028EED0D0
:10642000284604F018F8044604F0B0FFE1B203F087
:10643000A1FCF0E7247D002CE2D004F0A7FF104976
:1064400003F0A7FC3446DBE7E8E40320D9F10D00B4
:10645000F1F10D00FDF10D0021F30D0004F20D002E
:1064600011F20D0020F20D0034F20D0055F20D0076
:106470001FF30D0066F20D0082F20D00A0F20D0078
:10648000BCF20D0070B52DED028B044600230E46C4
:10649000154641686648502204F022F8204661689B
:1064A0005022FFF723FE624803F015FF002800F09A
:1064B000B68060495E4803F059FC31465C4803F001
:1064C00055FC5D495A4803F051FC2946584803F0F1
:1064D0004DFC5A49564803F049FC5949544803F0C9
:1064E00045FC5849524803F041FC6168504803F0AC
:1064F0003DFC55494E4803F039FC54494C4803F0E3
:1065000035FCA1684A4803F031FC4F49484803F084
:106510002DFC4F49464803F029FCE168444803F04C
:1065200025FC4949424803F021FC4A49404803F010
:106530001DFC237D002B4FD004F028FF3D4903F0C4
:1065400015FC04F023FF314603F010FC04F01EFF9D
:10655000394903F00BFC04F019FF294603F006FC4F
:1065600004F014FF354903F001FC04F00FFF344937
:1065700003F0FCFB04F00AFF324903F0F7FB04F0E0
:1065800005FF616803F0F2FB04F000FF2E4903F001
:10659000EDFB04F0FBFE2D4903F0E8FB04F0F6FEF2
:1065A000A16803F0E3FB04F0F1FE274903F0DEFBF2
:1065B00004F0ECFE264903F0D9FB04F0E7FEE168A5
:1065C00003F0D4FB04F0E2FE1F4903F0CFFB04F01C
:1065D000DDFE204903F0CAFB2046FFF719FE48B94B
:1065E00013489FED1D8A04F0D7F8B0EE480ABDECC1
:1065F000028B70BD4FF42F7001F0A0FA01460546E2
:106600002046FFF7C3FD2846FFF704FD0848B0EE1B
:10661000408A04F0C1F8284601F098FAE5E7237DA6
:10662000002BDDD004F0B2FE0C4903F0B2FBD7E73B
:10663000E8E40320E6F20D00FBF20D00FDF20D0090
:10664000F1F10D00FDF10D0021F30D0004F20D003C
:1066500011F20D0001F30D005F42A2CD24F30D00F5
:10666000014804F0E9B800BFE8E403209FED010A07
:10667000704700BF5F42A2CD017470470022011D28
:10668000C0E90221C0E904120271704730B585B03B
:106690001A46089B1B788DF8003002A83C2301F0B5
:1066A00085FC0020029C01F059F920B1637813B9F0
:1066B00001F0A4F9FAE76378BFF35B8F651CABB90F
:1066C0000025039C7CB16368013B63605BB9236870
:1066D00020469B689847A368013BA3601BB92368C9
:1066E0002046DB689847284605B030BD002001F001
:1066F00035F920B12B7813B901F080F9FAE7237846
:10670000012BDDD1257BDCE710B5044C0460C0E92A
:1067100001130024029B0474C36010BD6CF30D00D0
:1067200038B504460120607494F91000E56800EB68
:10673000800045F8201094F91010E06801EB810109
:1067400000EB810181ED020A94F91010E06801EB81
:10675000810100EB81014A6094F91020E16802EBAD
:10676000820201EB8202D36094F91030E26803EBFD
:10677000830302EB8303049A1A61237C01335BB227
:106780000A2B237408DDA37C23B104F0FFFD034929
:1067900003F0FFFA0A23237438BD00BF7CF30D0019
:1067A00010B510EE100A86B00C4605F031FB02461B
:1067B0000B4601A80A4901F0D9F901A814220023C7
:1067C00010F8011B202906D0E1540133DBB211B9C6
:1067D000E15406B010BD013A12F0FF02F0D1F8E723
:1067E000BBF30D002DE9F04F0C4689B04C49DFF8A2
:1067F0005481DFF85491DFF854A10546204606F095
:10680000EEF8002695F910309E426ADAEB6806EB46
:10681000860B03EB8B0393ED020A03A92846FFF7CF
:10682000BFFFEB6803A9009153F82B302246414685
:10683000204601F09BF9EB684FEA8B073B44DB688D
:1068400043B322464946204601F090F9EB683B44A9
:106850001B69002B38D00A2093FBF0F191FBF0FC70
:1068600000FB1C1C00FB1131C9B2642293FBF2F245
:1068700092FBF0FE00FB1E2200915FFA8CF3294987
:10688000D2B202A801F072F9274902AB2246204693
:1068900001F06CF9EB681F447B6823B12349224661
:1068A000204601F063F922462149204601F05EF9B5
:1068B000013695F91030F6B29E4222460ADA1D4999
:1068C000204601F053F99DE722465146204601F04B
:1068D0004DF9DFE71649204601F048F900232B74F3
:1068E00090E7AB7CC3B104F051FD134903F051FABA
:1068F00004F04CFD114903F04CFA04F047FD214629
:1069000003F047FA04F042FD0B4903F042FA04F0A9
:106910003DFD0B4903F03DFA09B0BDE8F08F00BF23
:10692000C0F30D00E8F30D00EFF30D00FAF30D00D6
:1069300009F40D000DF40D009BF10D0011F40D0094
:1069400023F30D00C2F30D00D5F30D00F4F30D0099
:106950002DE9F04F0C46054689B05249DFF87481A5
:10696000DFF87491204616461F4606F038F8AB68EB
:106970004D4A4E49204601F0F9F833464C490097FC
:106980002246204601F0F2F84A49494F2246204665
:1069900001F0ECF8002695F910309E4264DAEB68BD
:1069A00006EB860B03EB8B0393ED020A03A9284643
:1069B000FFF7F6FEEB6803A9009153F82B3022464F
:1069C0003946204601F0D2F8EB684FEA8B0A53446F
:1069D0005B6823B122464146204601F0C7F8EB68C8
:1069E0005344DB683BB322464946204601F0BEF8DB
:1069F000EB6853441B6953B30A2093FBF0F191FBFE
:106A0000F0FC00FB1C1C00FB1131C9B2642293FB9B
:106A1000F2F292FBF0FE00FB1E2200915FFA8CF373
:106A20002549D2B202A801F0A1F8244902AB2246BE
:106A3000204601F09BF895F910300136F6B29E42DF
:106A400022460ADA1E49204601F090F8A3E71D49C4
:106A50002246204601F08AF8EDE71B49204601F066
:106A600085F800232B7496E7AB7CC3B104F08EFC51
:106A7000164903F08EF904F089FC154903F089F9F1
:106A800004F084FC214603F084F904F07FFC0F49F4
:106A900003F07FF904F07AFC024903F07AF909B0B7
:106AA000BDE8F08F23F30D0038F10D001AF40D004E
:106AB00026F40D002EF40D00E8F30D00EFF30D00A9
:106AC0000DF40D00F4F30D0040F40D009BF10D00EA
:106AD00011F40D0033F40D0039F40D002DE9F743E6
:106AE00004464FF42F701E460F46904601F026F8DC
:106AF000E37C013B012B054626D8014643463A4636
:106B00002046FFF725FFA37C23B104F03FFC114989
:106B100003F03FF9606803680096D3F800903946A7
:106B20002B464246C8470746284601F00FF81EB1DB
:106B30000121304604F03AFE002307B16374384661
:106B4000237403B0BDE8F08301462046FFF74AFEF8
:106B5000D9E700BF47F40D0070B5044601200D468B
:106B60001646FDF798FA067003462A46294620463F
:106B7000BDE87040FFF7B2BF70B505460C4684B162
:106B8000E1682846FFF7F8FFE369A66823B104F13E
:106B900014010322084698472046FDF780FA344640
:106BA000EDE770BDF0B58DB0044601A80D4617465F
:106BB0001E4600F03BFF03980130FDF76EFA019985
:106BC000206005F00CFF2A4633463946E67405A8D6
:106BD000FFF7B4F9C82000F0B1FFE06005A8FFF7A7
:106BE000BBF80023C4E901050899237406A8FFF740
:106BF000C3FF01A803F094F90DB0F0BD38B500252E
:106C000004460582FFF7CEFF204638BD70B5054625
:106C10000C464CB1E1682846FFF7F8FFA66820460D
:106C2000FDF73DFA3446F4E770BD000008B5074BA8
:106C3000074800221A7003F0FFFD064803F0FCFD30
:106C4000BDE80840044804F0FFB900BF88E5032010
:106C50006CE5032004E5032020E50320017570475F
:106C600030B5064D0560C0E901130025039B05758D
:106C700041F28835C0E90332856130BDF4F40D007E
:106C80002DE9F84F0D461746804604F07FFB1E495C
:106C90001E4EDFF87CA0DFF87CB003F07AF8002409
:106CA000304603F090FD60BB052C2AD098F81430D4
:106CB000C3B104F06BFB514603F058F804F066FBD7
:106CC000294603F053F804F061FB594603F04EF8EF
:106CD00004F05CFB0A228146214603F064F8484632
:106CE00003F04BF8304603F057FD0023BAB22946B3
:106CF000304603F0F5FB4FF47A7000F097FF013453
:106D0000CEE7BDE8F88F00BF57F40D008CE50320F7
:106D10004CF10D0062F10D0070B504460E4681681D
:106D20002E48154603F022F82D492C4803F01EF892
:106D3000E1682A4803F01AF82A49284803F016F8AF
:106D40003146264803F012F82749244803F00EF88C
:106D50002946224803F00AF82449204803F006F89F
:106D6000237D002B38D004F011FB214903F011F8EA
:106D700004F00CFB1F4903F00CF804F007FBA168BA
:106D800002F0F4FF04F002FB154902F0EFFF04F0FB
:106D9000FDFAE16802F0EAFF04F0F8FA114902F0A6
:106DA000E5FF04F0F3FA314602F0E0FF04F0EEFAFA
:106DB0000D4902F0DBFF04F0E9FA294602F0D6FFA4
:106DC00004F0E4FA094902F0D1FF04F0DFFABDE86B
:106DD0007040094902F0DDBF70BD00BF8CE50320A3
:106DE0006FF40D0072F40D0018F40D0042F40D0064
:106DF0008AF40D0074F40D0089F40D00F8B50E4FFF
:106E000004460026384603F06DFC054690B9A36998
:106E1000B3420FDD012000F009FFA3690136B34240
:106E2000F0DC207D28B104F0B1FA044902F0B1FF92
:106E30002846F8BD0120FCE78CE50320A6F10D00F3
:106E40002DE9F047037D0646884614464BB104F011
:106E50009DFA274902F09DFF04F098FA254902F0B7
:106E600098FFDFF8A490002540F2BB2A484603F0C3
:106E700039FC78B1484603F0EEFA337DC7B22BB146
:106E800004F084FA036839469B68984767550135D2
:106E90005545EBD1337D23B104F078FA164902F061
:106EA00078FF002363551549404605F08EFD68B90B
:106EB0001349204605F0FAFD9FED120A0028F7EE6F
:106EC000007A18BFB0EE670ABDE8F0877C21204643
:106ED00005F064FD48B1013005F0F6FC51EC100BF3
:106EE00005F0A8FA00EE100AEEE79FED060AEBE7C0
:106EF0009BF10D0087F10D009AF10D008FF40D004C
:106F000094F40D005F42A2CD8CE5032070B52DED09
:106F1000028B04464168224842F234321D46002367
:106F200003F0DEFA2046616842F23432FFF7A8FE31
:106F30001B4803F0D0F948B32946194802F016FF60
:106F40002046FFF75BFF054638B9154803F024FCDF
:106F50000025BDEC028B284670BD642000F0EEFDDC
:106F60001049024606462046FFF76AFF3046B0EE5B
:106F7000408A00F0EBFDDFED0C7AB4EE678AF1EEAB
:106F800010FAE2D0064803F007FCE2E7237D002B6D
:106F9000DBD004F0FBF9054902F0FBFED5E700BFAA
:106FA0008CE503208FF40D005F42A2CD97F40D0015
:106FB00070B52DED028B044600230D461646416840
:106FC0001E4842F2343203F08BFA2046616842F2E6
:106FD0003432FFF755FE194803F07DF928B32046F7
:106FE00032462946FFF798FE2046FFF707FF48B9CB
:106FF00012489FED138A03F0CFFBB0EE480ABDECB8
:10700000028B70BD4FF42F7000F098FD0D490246C1
:1070100005462046FFF714FF0848B0EE408A03F00B
:10702000BBFB284600F092FDE7E7237D002BDFD075
:1070300004F0ACF9044902F0ACFED9E78CE503207A
:107040005F42A2CDB5F40D00B8F40D002DE9F04774
:107050000446182015460F46FDF71DF807F1040AEF
:107060006B68D5F80090BA6843610646C0F8109086
:107070005546012352B113694B45CCBF9168D16885
:107080001546CCBF012300230A46F3E7A3B1FB68F2
:10709000AB4223D0284604F0E3FB8046D8F81030FA
:1070A0004B451BDB3046FCF7FAFFC4F80080002399
:1070B00023712046BDE8F087A846EFE7286981459F
:1070C000ACBF0020012053462A46314604F0CAFBDB
:1070D0007B69266001337B610123E9E7AA45EDD195
:1070E0000120F0E72DE9FF470D4604464FF42F70CD
:1070F00000F024FD2B7D07464BB104F047F93A49D7
:1071000002F047FE04F042F9384902F042FEDFF88F
:10711000F090002640F2BB2A484603F0E3FA88B11B
:10712000484603F098F92B7D5FFA80F82BB104F004
:107130002DF9036841469B68984707F80680013699
:107140005645E9D12B7D23B104F020F9284902F0FE
:1071500020FE0025231DC4E90253C4E90435254956
:1071600025713846BD5506F0EDFADFF89890DFF846
:1071700098A0DFF8808006467EB34946304605F089
:1071800024FC00BB414606F0DDFA1B49064605F02B
:107190001CFC18B9194B0095019308E0304605F026
:1071A00093FB51EC100B009505F044F901906A46F1
:1071B000214602A8FFF74AFF4146002006F0C2FA26
:1071C00001350646D8E75146304605F0FEFB00285B
:1071D000F2D1414606F0B6FADCE7384600F0B6FCDC
:1071E000204604B0BDE8F0879BF10D0087F10D004B
:1071F0009AF10D0072F40D00DEF40D005F42A2CD95
:107200008CE5032094F40D00E3F40D002DE9F0412A
:10721000071D98460023C0E90237C0E904730371D3
:107220000D4688B04968044616462E4842F234326C
:1072300003F056F92846696842F23432FFF720FD20
:10724000284803F048F810B3314642462846FFF775
:1072500063FD2846FFF7D2FD0646C0B92148224FFC
:1072600003F09AFA2149404606F06CFA35461F4E63
:10727000002832D0214602A86A4600950197FFF700
:10728000E5FE31460020013506F05CFAF0E72946BC
:1072900002A8FFF727FFA1682046FFF7B7FC049A72
:1072A0000023C4E90237C4E904737AB19DF80C10D5
:1072B00021710599E1600699A26021615760079AE2
:1072C000626103AACDE905220493079302A80499F9
:1072D000FFF79CFC034803F05FFA204608B0BDE8C6
:1072E000F08100BF8CE503205F42A2CD0FF40D00BA
:1072F000014803F0A1BA00BF8CE503209FED010A0D
:10730000704700BF5F42A2CD017570470022011D8A
:10731000C0E90221C0E904120271704730B5064D80
:107320000560C0E901130025039B057541F288350E
:10733000C0E90332856130BDB8F50D00014803F0A6
:1073400083BE00BFA8E5032010B504464A68024981
:1073500002F0CEFB204610BDF8E50320F0B58FB05B
:107360000146064602A81F46FFF7EEFF02A801F0FD
:10737000ABF9A0B9337D23B104F008F8274902F036
:1073800008FDF323009337223D23A92108A809AD66
:1073900001F0BEF90FCD03AC0FC42B68237000229F
:1073A00040F2BD211E4803F081FE002242F234313A
:1073B0001B4803F057FC03AD1A4B08930FCD09ACE3
:1073C0000FC42B681648237042F2343208A903F028
:1073D00089FE58B9337D23B103F0D8FF124902F07A
:1073E000D8FC0F4803F08AFC002014E0002FF1D0F5
:1073F000384605F01AFB39460246094803F08CFC72
:107400000028E7D0064803F0E7FC0028E2D0044853
:1074100003F074FC01200FB0F0BD00BF04F50D00B7
:10742000A8E50320B0F60D0090F50D0073B50372CA
:1074300004465020CDE900211E4600F07FFB60602D
:107440001420FCF728FE054620B1DDE90021334673
:10745000FFF7D4FB256002B070BD000038B50025F1
:107460000446134645728572024AFFF7DFFF204645
:1074700038BD00BFC8F50D000068FFF751B907B56A
:10748000002300931A46FFF7F7FF03B05DF804FBF3
:107490000068FFF761BB000008B5024B1B685B6C1E
:1074A000019308BD4802030008B5024B1B689B6CA2
:1074B000019308BD4802030008B5024B1B68DB6C52
:1074C000019308BD4802030008B5024B1B685B6DC1
:1074D000019308BD4802030008B5024B1B685B68B6
:1074E000019308BD1802030008B5024B1B68DB6856
:1074F000019308BD1802030008B5024B1B685B69C5
:10750000019308BD1802030008B5024B1B689B6D70
:10751000019308BD1802030008B5024B1B685B6E9F
:10752000019308BD1802030008B5024B1B689B6E4F
:10753000019308BD1802030008B5024B1B685B6885
:10754000019308BD2C02030008B5024B1B689B6821
:10755000019308BD2C02030008B5024B1B68DB68D1
:10756000019308BD2C02030008B5024B1B681B6980
:10757000019308BD2C02030008B5024B1B689B69F0
:10758000019308BD2C02030008B5024B1B68DB69A0
:10759000019308BD2C02030008B5024B1B681B6B4E
:1075A000019308BD2C02030008B5024B1B68DB6881
:1075B000019308BD2802030008B5024B1B689B69B4
:1075C000019308BD2802030008B5024B1B68DB6964
:1075D000019308BD2802030008B5024B1B681B6A13
:1075E000019308BD2802030008B5024B1B685B6AC3
:1075F000019308BD2802030008B5024B1B689B6A73
:10760000019308BD2802030008B5024B1B68DB6A22
:10761000019308BD2802030008B5024B1B681B6BD1
:10762000019308BD2802030008B5024B1B685B6B81
:10763000019308BD2802030008B5024B1B681B6CB0
:10764000019308BD2802030008B5024B1B689B6C20
:10765000019308BD2802030008B5024B1B68DB6CD0
:10766000019308BD2802030008B5024B1B681B6D7F
:10767000019308BD2802030008B5024B1B685B6933
:10768000019308BD6C02030008B5024B1B685B69DF
:10769000019308BD6402030008B5024B1B681B6A16
:1076A000019308BD6402030008B5024B1B685B6AC6
:1076B000019308BD6402030008B5024B1B689B6A76
:1076C000019308BD6402030008B5024B1B689B6868
:1076D000019308BD6802030008B5024B1B68DB6814
:1076E000019308BD6802030008B5024B1B685B6884
:1076F000019308BD3802030008B5024B1B689B6963
:10770000019308BD3802030008B5024B1B68DB6912
:10771000019308BD3802030008B5024B1B681B6AC1
:10772000019308BD3802030008B5024B1B689B6A31
:10773000019308BD3802030008B5024B1B68DB6AE1
:10774000019308BD3802030008B5024B1B681B6B90
:10775000019308BD3802030008B5024B1B685B6B40
:10776000019308BD3802030008B5024B1B689B6BF0
:10777000019308BD3802030008B5024B1B68DB69A2
:10778000019308BD3002030008B5024B1B681B6A59
:10779000019308BD3002030008B5024B1B681B684B
:1077A000019308BD3C02030008B5024B1B689B68AF
:1077B000019308BD3C02030008B5024B1B68DB685F
:1077C000019308BD3C02030008B5024B1B681B690E
:1077D000019308BD3C02030008B5024B1B685B69BE
:1077E000019308BD3C02030008B5024B1B689B696E
:1077F000019308BD3C02030008B5024B1B68DB691E
:10780000019308BD3C02030008B5024B1B681B6ACC
:10781000019308BD3C02030008B5024B1B689B6A3C
:10782000019308BD3C02030008B5024B1B68DB6AEC
:10783000019308BD3C02030008B5024B1B681B689E
:10784000019308BD4C02030008B5024B1B685B683E
:10785000019308BD4C02030008B5024B1B689B68EE
:10786000019308BD4C02030008B5024B1B681B695D
:10787000019308BD4C02030008B5024B1B685B690D
:10788000019308BD4C02030008B5024B1B689B69BD
:10789000019308BD4C02030008B5024B1B68DB696D
:1078A000019308BD4C02030008B5024B1B681B6A1C
:1078B000019308BD4C02030008B5024B1B685B6BCB
:1078C000019308BD6002030008B5024B1B681B6DE5
:1078D000019308BD6002030008B5024B1B685B6D95
:1078E000019308BD6002030008B5024B1B68DB6E04
:1078F000019308BD6002030008B5024B1B681B6FB3
:10790000019308BD6002030008B5034B1B68D3F860
:107910009830019308BD00006002030008B5024BD7
:107920001B681B68019308BD2002030008B5024BC9
:107930001B685B68019308BD2002030008B5024B79
:107940001B685B69019308BD2002030008B5024B68
:107950001B68DB6A019308BD2002030008B5024BD7
:107960001B68DB6C019308BD2002030008B5024BC5
:107970001B685B6D019308BD2002030008B5024B34
:107980001B689B6D019308BD2002030008B5024BE4
:107990001B68DB6D019308BD2002030008B5034B93
:1079A0001B68D3F88830019308BD00002002030053
:1079B00008B5034B1B68D3F89430019308BD000051
:1079C0002002030008B5034B1B68D3F8A8300193CD
:1079D00008BD00002002030008B5034B1B68D3F864
:1079E000AC30019308BD00002002030008B5024B33
:1079F0001B685B68019308BD4402030008B5024B95
:107A00001B689B68019308BD4402030008B5024B44
:107A10001B68DB68019308BD4402030008B5024BF4
:107A20001B685B69019308BD4402030008B5024B63
:107A30001B68DB69019308BD4402030008B5024BD3
:107A40001B681B6A019308BD4402030008B5024B82
:107A50001B681B6B019308BD4402030008B5024B71
:107A60001B685B6B019308BD4402030008B5024B21
:107A70001B68DB6B019308BD4402030008B5024B91
:107A80001B685B68019308BD4002030008B5024B08
:107A90001B689B68019308BD4002030008B5024BB8
:107AA0001B68DB68019308BD4002030008B5024B68
:107AB0001B681B69019308BD4002030008B5024B17
:107AC0001B685B69019308BD4002030008B5024BC7
:107AD0001B689B69019308BD4002030008B5024B77
:107AE0001B68DB69019308BD4002030008B5024B27
:107AF0001B681B6A019308BD4002030008B5024BD6
:107B00001B681B6B019308BD4002030008B5024BC4
:107B10001B685B6B019308BD4002030008B5024B74
:107B20001B681B6C019308BD4002030008B5024BA3
:107B30001B685B6C019308BD4002030008B5024B53
:107B40001B681B68019308BD1C02030008B5024BAB
:107B50001B685B68019308BD1C02030008B5024B5B
:107B60001B689B68019308BD1C02030008B5024B0B
:107B70001B68DB68019308BD1C02030008B5024BBB
:107B80001B681B69019308BD1C02030008B5024B6A
:107B90001B68DB69019308BD1C02030008B5024B9A
:107BA0001B685B6A019308BD1C02030008B5024B09
:107BB0001B68DB6A019308BD1C02030008B5024B79
:107BC0001B681B6B019308BD1C02030008B5024B28
:107BD0001B68DB6B019308BD1C02030008B5024B58
:107BE0001B685B6C019308BD1C02030008B5024BC7
:107BF0001B689B6C019308BD1C02030008B5024B77
:107C00001B68DB6C019308BD1C02030008B5024B26
:107C10001B681B6D019308BD1C02030008B5024BD5
:107C20001B685B6D019308BD1C0203000021FFF778
:107C300085BE10B5836804460BB903F06FFEC368B8
:107C40009847A3681BB10322214620469847204647
:107C50001021BDE8104003F0A9BD0B68036013B10B
:107C60005A6801325A607047024800230360FFF7E8
:107C700013BC00BFF4E50320002240681146FFF763
:107C800015BF002240681146FFF730BF0022406850
:107C90001146FFF73BBF40680022FFF72FBF406847
:107CA000002281F00101FFF719BF002340681A4646
:107CB0001946FFF70BBF002340681A461946FFF725
:107CC000FDBE002240681146FFF7E0BE406800227A
:107CD0000221FFF7E3BE002340681A46FFF7CEBE3D
:107CE000084B10B5282422461846002104F02AFE2D
:107CF000054B04804FF0FF32426004225A60034A71
:107D00001A6010BD00E60320F8E50320F4F50D002D
:107D100070470020704710B51021044603F046FD5F
:107D2000204610BD08B5FFF7F6FF08BD30B50022AC
:107D30004FF69C74026084808D888C800C688580EE
:107D400004600A6030BD10B504460068FFF7FEFE0F
:107D5000204610BD38B5C468F4B12378022B03D196
:107D600004F10C00FFF7EFFF656835B12846FDF719
:107D70007BFA1021284603F019FDA56835B1284685
:107D8000FDF772FA1021284603F010FD2046142159
:107D9000BDE8384003F00ABD38BD10B588B00446D0
:107DA000684602F008F9694604A802F04FF904A8F1
:107DB000A047044604A802F0B3F8684602F0B0F801
:107DC000204608B010BD1FB50023CDE90201019285
:107DD00010241A4669461846ADF80230ADF8004046
:107DE000FFF704FE04B010BD73B50E46044656F806
:107DF000043B00930D4601A83146FFF72EFF019A80
:107E0000009B6260236001A8002301930093FDF7AB
:107E1000C2FF3046FDF7BFFF2846082103F0C6FC2D
:107E2000204602B070BD826810B50AB903F076FD35
:107E3000BDE81040C368184708B5006800F110019C
:107E4000FFF7F1FF08BD826810B50AB903F066FDBF
:107E5000BDE81040C368184708B5006800F110017C
:107E6000FFF7F1FF08BD000038B5002304460360AA
:107E700010200D46FCF70FF928B10123C0E90133AA
:107E8000024B0360C5602060204638BD30F60D000F
:107E900038B5002383608B6804460D462BB102225F
:107EA0009847EB68E360AB68A360204638BD0000EC
:107EB000F0B589B004686846FFF738FF4FF0020359
:107EC000D4E84F2F002A03D1C4E8413F0029F7D15D
:107ED00025D104F10C0569462846FFF727FFBFF3BB
:107EE0005B8F01236370002004F10803BFF35B8FF5
:107EF00053E8006F43E80002002AF9D1BFF35B8F1B
:107F00006EB1FFF72BFD78B129463046FFF78BFFA6
:107F10003046FDF7A9F91021304603F047FC6846CA
:107F2000FFF711FF09B0F0BD314602A8FFF7B0FF1F
:107F3000E068B4F9105008B104F05AFD0690102022
:107F4000ADF81C50FCF7A7F80546E8B1002787609C
:107F50001820FCF7A0F8044688B10146876002A803
:107F6000FDF78BF9049BA268A360059B049206A908
:107F7000E268E36004F110000592FFF7D7FE084BBA
:107F8000EB60084B2C60AB6006A8FFF7DCFE02A894
:107F9000FDF76AF9002229460348FFF7E7FCB7E737
:107FA000397E0D00D1800D00337C0D002DE9F047A6
:107FB0008AB005469DF848900C4617469846FFF74C
:107FC0002DFD07AE824638BB4FF62E73059005A9EE
:107FD0003046ADF81830FFF7A9FE1420FCF75BF827
:107FE000044648B1022303700123C0E901AA43708B
:107FF00031460C30FFF79AFE2846214640F8044BE4
:10800000FFF732FF3046FFF79EFE05A8FFF79BFE05
:1080100028460AB0BDE8F0870C234FF0000A142070
:10802000CDE908AA0793FCF736F8014628B1C0E964
:1080300001AA80F800A080F801A004A80391FFF72E
:1080400013FF224B08930820FCF725F8824628B13D
:10805000039B40F8043B04A9FFF7FFFD00965FFA7D
:1080600089F3424639462046CDF824A0FFF7E6FCC6
:10807000B8B9039B5B7803F0FF0293B94FF69C738A
:1080800005A903A80592ADF81830FFF711FF05A860
:10809000FFF759FE05A80999FFF7A6FE06A8FDF708
:1080A0007AFE039B059304A906A8FFF7D6FD059B5E
:1080B000069A2B606A60002306A806930593FDF7D5
:1080C0006AFE04A8FDF767FEA2E700BF95810D00D8
:1080D000022AF8B5054607D0032A18D0012A01D193
:1080E0000B6803600020F8BD18200E68FBF7D3FF73
:1080F000044650B13146FFF7CBFE3069B6F9147033
:1081000008B104F075FC2061A7822C60EAE70468DE
:10811000002CE7D004F11000FFF715FE2046FDF714
:10812000A3F81821204603F041FBDBE738B5002314
:1081300083608B6804460D462BB102229847EB689A
:10814000E360AB68A360204638BD022A70B50446E0
:1081500007D0032A12D0012A01D10B680360002046
:1081600070BD14200E68FBF796FF054620B131461E
:10817000FFF7DCFF337C2B742560F0E70468002CEC
:10818000EDD02046FDF770F81421204603F00EFBD9
:10819000E5E70000F0B589B004460D4601A8114698
:1081A000FFF722FEA4B124B21DB1284604F020FC42
:1081B000054601A803A90395ADF81040FFF778FE26
:1081C00003A8FFF7C0FD02A8FDF7E5FD09B0F0BD6B
:1081D000019D0123D5E84F2F002A03D1C5E8413F77
:1081E0000029F7D1EFD12B73BFF35B8F6B702B1D81
:1081F000BFF35B8F53E8006F43E80042002AF9D1D8
:10820000BFF35B8F002EDED02046FFF7A7FB0746AB
:1082100060B105F10C013046FFF715FE3046FDF761
:1082200023F81021304603F0C1FACCE7314603A809
:10823000FFF77CFF2B7B8DF81C301020FBF72BFF0A
:108240000546D0B187601420FBF725FF044678B1BE
:108250008760014603A8FDF710F8059BA268A3609C
:10826000069B0592E268E3609DF81C300692237439
:10827000064BEB60064B2C60AB6003A8FCF7F4FFE9
:10828000002229460348FFF771FBC7E7597E0D001E
:108290004B810D00337C0D00002240681146FFF732
:1082A00025BC002240681146FFF730BC4068002220
:1082B000FFF724BC4068002281F00101FFF70EBCEB
:1082C000002340681A461946FFF700BC00234068A7
:1082D0001A461946FFF7F2BB002240681146FFF725
:1082E000E5BB002240681146FFF7D0BB4068002282
:1082F0000221FFF7D3BB002340681A46FFF7BEBB3D
:10830000024B03225A60024A1A60704728E6032093
:108310004CF60D00090941EA001107EE901AB8EE7B
:10832000E70ADFED027A80EE270A70470000484432
:10833000006800F031B910B50446016002710AB15D
:10834000FFF7F6FF204610BD13B50446019103F078
:1083500009FA019A01462046FFF7EDFF204602B0D8
:1083600010BD006800F021B92DE9FF4104460D461B
:1083700017461E46FFF7DCFF36238DF8003000233A
:10838000206801934FF001080A23694603938DF892
:10839000088000F0E1F82068036829469B68984748
:1083A0002068414600F0F0F8054640B16FF09F05A7
:1083B0002046FFF7D6FF284604B0BDE8F08102232F
:1083C00020680193694600F097F80228EED12068F2
:1083D00003685B6998473870206803685B69984751
:1083E0003070E5E707B500238DF806308DF80730CB
:1083F0000DF106020DF107030221FFF7B5FF40B9A9
:108400009DF807109DF8060003B05DF804EBFFF738
:1084100081BFBFEE000A03B05DF804FB07B500237F
:108420008DF806308DF807300DF106020DF10703C7
:108430000421FFF799FFB0B99DF8070003F0D6FCBF
:108440000A4B002203F03CFD03F0F4FF9DF80630D8
:1084500000EE103A07EE900AB8EEC00A37EE800A36
:1084600003B05DF804FBBFEE000AF9E70000703FBF
:108470007047F8B5064615460C468F18BC4206D024
:10848000336814F8011B9B6830469847F6E7284686
:10849000F8BD007C0022FFF79FB8007C0021FFF7A9
:1084A000A3B8007C0021FFF7A7B8007C0021FFF7EC
:1084B000ABB8007C0021FFF7AFB810B5142104461B
:1084C00003F074F9204610BD10B54FF47A730446DA
:1084D00008460021C4E90113034B236020741146B0
:1084E000FFF7AAF8204610BD88F60D000023007C97
:1084F0001A461946FFF758B87FB500221423CDE974
:108500000122ADF804300B788DF808304B680393E6
:10851000CB680493007C0B7A059301A9FFF7A4F8BC
:1085200007B05DF804FB1FB5003B8DF800104FF05D
:108530006401039118BF0123694601928DF8083048
:10854000FFF7DAFF05B05DF804FB007C0022FFF7BF
:1085500033B8C9B2FFF7F9BF7FB50023CDE90133C6
:108560004A6803921423CA68ADF804300B78049269
:108570000A7A0592007C8DF8083001AA1946FFF7A7
:108580001BF807B05DF804FB007C0022FFF71CB865
:10859000007C0021FFF748B808B50021007CFFF7F8
:1085A00053F8B0FA80F0400908BD08B50021007CFE
:1085B000FFF752F8B0FA80F0400908BD004700000C
:1085C0002DE9FF4100241D460F4690460646FEF762
:1085D000DBFFA5424FF00403ADF80D408DF80C30E1
:1085E0008DF80F40A2BF9DF828308DF80E3003ACF7
:1085F0000749009443463A463046A8BF8DF80D50CF
:10860000FEF7BAFFB0FA80F0400904B0BDE8F0818F
:10861000BD850D00704710B51821044603F0C6F85B
:10862000204610BDF0B5037D062B8DB00E4600F13F
:1086300004074FF0000412D000F1080515F8011DE1
:108640000A22304601F0AFFBAF42044419D0002C9F
:10865000F4D02E21304601F08DFB0444EEE72F23A9
:108660006A4639460A208DF80040FFF70DF8684643
:1086700004F0DBF933680246DB6869463046984708
:10868000044620460DB0F0BD10B5054B044611223E
:1086900040F8043B002104F055F9204610BD00BF0E
:1086A000B0F60D000346074A10B543F8042B01F15C
:1086B000100251F8044B43F8044B9142F9D10A7867
:1086C0001A7010BDB0F60D00037D042B04D1406874
:1086D000003818BF01207047062B07D143683BB90B
:1086E00083682BB9C3681BB90069F1E700207047A4
:1086F0000120704710B59DF8084044EA032343EA7F
:10870000024242EA016104234160037510BD00008A
:1087100037B5044D05609DF818500095FFF7EAFF46
:1087200003B030BDB0F60D0013B5CB7800938B7855
:108730004A780978FFF7DEFF02B010BD00F11003A0
:10874000012213F8101C0129184608D153F8041C03
:1087500002EB4102013A03F11003F2D17047022902
:1087600004BF53F8041C5218F4E70EB4F0B588B0F7
:1087700000AF07F13405102155F8042B7A60044648
:108780002B467818FD60FFF709FA0F287A681AD986
:1087900000F1080323F007036E46ADEB030D411C07
:1087A0002B466846FD60FFF7F9F9021E04DD2368D9
:1087B00069469B6820469847B5462037BD46BDE8C8
:1087C000F04003B070470028F7D0236802469B684A
:1087D00007F1100120469847EFE710B503680446FB
:1087E0009B689847A368013BA3602BB92368204688
:1087F000DB68BDE81040184710BD07B503688DF869
:1088000007109B6801220DF10701984703B05DF83E
:1088100004FB38B50B6803604D6843689D4204460D
:108820000CD015B16B6801336B60606828B1436888
:10883000013B43600BB9FFF7D0FF6560204638BDB0
:108840000B461146002210B5C0E9002204468360A1
:108850000BB9204610BDFFF7DCFFFAE78368EBB1E8
:108860001A78032A1AD8DFE802F00417021B052041
:10887000704702685B685268D05C2D2812D0A0F166
:108880003003092B0ED974280ED066280CD0A0F125
:108890006E035842584170470620704700207047C9
:1088A00004207047032070470220704710B504462B
:1088B000FFF7D4FF02280ED0C31EDBB2012B14D861
:1088C0002268A36850685B68BDE810400A22002156
:1088D000184405F003B82268A36852685B68D05C4E
:1088E000A0F174035842584110BD0020FCE700007D
:1088F00038B50023C0E9003304460E48C4E902033A
:10890000A9B10B78032B06D08BB9136858684B6854
:10891000C35C6E2B07D013684D6858688B68284479
:108920005B1BA060E36011462046FFF772FF204604
:1089300038BD00BF23F30D0038B500250B46C0E954
:108940000055C0E90255C0E90455044611464BB133
:108950001A78012A06D103F11002DB6882604361B4
:10896000FFF757FF204638BD10B54369044663B191
:108970008068E060013B1030A0602061636113B14A
:10898000FFF7DCFEA060012000E0184610BD10B526
:108990007D210446FFF731FF01232371204610BDDE
:1089A00008B50379012B02D0022B04D008BD2C217D
:1089B000FFF723FFFAE73A21FAE710B50446FFF77D
:1089C000EFFF20467B21FFF718FF0023237120468D
:1089D00010BD000013B504460191FFF7E1FF2368C5
:1089E000019ADB68034920469847012320462371FA
:1089F00002B010BD1FF80D0013B504460191FFF73A
:108A0000CFFF2368019ADB6803492046984701237A
:108A10002046237102B010BDBCF60D002DE9F041D7
:108A20000D4617462221DFF8A08004462F44FFF7A9
:108A3000E4FE2946BD422A4638D015F8016B222EA5
:108A400003D05C2E01D01F2EF4D82368521A9B68E5
:108A5000204698475C212046FFF7CFFE0D2E0AD80E
:108A6000072E1CD9A6F10803052B18D8DFE803F060
:108A70000D0F11171315222E01D05C2E0FD1314688
:108A80002046FFF7BAFE2946D4E76221F8E77421B1
:108A9000F6E76E21F4E76621F2E77221F0E723683A
:108AA0003246DB68414620469847ECE78D4204D0C9
:108AB00023686A1A9B682046984722212046FFF7C0
:108AC0009CFEBDE8F08100BFBFF60D0013B5044663
:108AD000CDE90021FFF764FF2046DDE90021FFF723
:108AE0009DFF02232046237102B010BD13B504463A
:108AF000CDE90021FFF754FF2046DDE90021FFF713
:108B00008DFF01232046237102B010BD80680368E9
:108B1000DB6818477047084611B10B685B68184757
:108B20007047704770477047704738B504460D4628
:108B300000682E2103F03FFF2368C31A2B6023B186
:108B4000037803B1013023682060184638BD10B5A2
:108B50000C21044602F02AFE204610BD10B5042167
:108B6000044602F023FE204610BD10B50421044641
:108B700002F01CFE204610BD08B503F026FFB0FA37
:108B800080F0400908BD704710B50C4602F0FEFBAE
:108B9000844210D002F058FB844205D102F054FB0D
:108BA000BDE8104002F04DBB2CB1236820465B6845
:108BB000BDE81040184710BD13B5044608460191A2
:108BC00003F033FF01990246204602B0BDE8104091
:108BD000FFF78CBF13B504460846019103F025FF4B
:108BE00023680199DB680246204602B0BDE81040C8
:108BF000184707B503688DF80710DB6801220DF1EF
:108C00000701984703B05DF804FB0EB403B503AB4E
:108C1000002153F8042B006A019301F0E2F802B03E
:108C20005DF804EB03B070472DE9F74FD0E90095EC
:108C30004FF0140808FB05F50093AB10184D1746CC
:108C40005D434C46002D23DD6E1008FB06F004EB5F
:108C5000000A3A46BAF804B0205801915F4528BF8F
:108C60005A4603F0EAFE0199012378B95F4503D122
:108C7000009A13703546E5E78CBF012000200028DC
:108C8000F8D0AE1B0AF11404013EF3E7C00FF6E77B
:108C9000A4EB09040248A410604303B0BDE8F08FC0
:108CA000CDCCCCCC7FB50369067E01910BB301B36B
:108CB000002500F10C04039503A901A8FFF735FF77
:108CC0000146B0B10DF10B03039A8DF80B5020460D
:108CD000FFF7AAFF9DF80B305BB12468142303FB58
:108CE000004000F10804B0F90630002BA8BFDEB246
:108CF000E2E7304604B070BD10B5094C2378BFF3ED
:108D00005B8FDB0709D42046FBF7D6F928B1204654
:108D1000FBF7D7F9034803F0D1FD034810BD00BFAE
:108D200034E60320238B0D00B4DE032010B5094C7C
:108D30002378BFF35B8FDB0709D42046FBF7BCF930
:108D400028B12046FBF7BDF9034803F0B7FD0348FF
:108D500010BD00BF38E60320878B0D00B8DE03206E
:108D600038B500250446C0E90055C0E904558560C2
:108D7000856140F8245FFEF78FFBFFF7BDFFE061E0
:108D8000FFF7D4FF25732062204638BD10B50A4C8A
:108D90002378BFF35B8FDB070CD42046FBF78CF9FD
:108DA00040B10648FFF7DCFF2046FBF78AF904488C
:108DB00003F084FD014810BD30E6032040E60320A7
:108DC0006D920D00024A034903480023FEF794BD4B
:108DD000F5900D0081900D0001900D0000231A46C2
:108DE00019461846FEF788BD37B50D6951F8043BA2
:108DF0000093044601A8FEF730FF6A462946204644
:108E0000FFF71EFD01A8FCF7C6FF204603B030BDEA
:108E100037B58D6851F8043B0093044601A8FEF76E
:108E20001CFF6A4629462046FFF786FD01A8FCF78D
:108E3000B2FF204603B030BD37B5CD6851F8043BD2
:108E40000093044601A8FEF708FF6A46294620461B
:108E5000FFF74EFD01A8FCF79EFF204603B030BD92
:108E600070B58AB00D46014604A8FFF7D1FF144E35
:108E700004A8FFF779FDE8B104A96846FFF7DCFF15
:108E800002983146FFF778FE044610B12C1E18BF39
:108E9000012401A8FCF77FFF002CE9D004A9684653
:108EA000FFF7A2FF6846FFF701FD286001A8FCF765
:108EB00072FFDDE705A8FCF76EFF0AB070BD00BFCA
:108EC000C5F60D0037B50C4620461249154603F08D
:108ED0007CFD48B902F05AFA4FF4165102F046FAF6
:108EE00002F054FA03B030BD0B49204603F06DFD8B
:108EF00070B94FF4165301A928460193FFF7B0FF4C
:108F000002F0A2F9019902F099F902F09DF9E9E75E
:108F10000020E7E7CAF60D00D1F60D0070B5D0E9E4
:108F200000531426044606FB0356AE4205D005F155
:108F30000800FFF7F3FF1435F7E72068FEF706FE99
:108F4000204670BD70B5D0E90053044605EB03160A
:108F5000AE4204D0284600F0E3FF1035F8E7206861
:108F6000FEF7F4FD204670BD10B504460C30FFF747
:108F7000D5FF2046FFF7E6FF204610BD10B5044B95
:108F8000044640F8043BFFF7EFFF204610BD00BF4A
:108F90002CEF0D0010B50446FFF7F0FF204624210A
:108FA00002F004FC204610BD10B5034B03600446DC
:108FB000FFF7E4FF204610BD68F70D0010B504462A
:108FC000FFF7F2FF2046242102F0F0FB204610BDFF
:108FD0000022C0E9002210B582600C6804604C6871
:108FE00044608C680A604A6084608A6010BD10B575
:108FF000036804461868FEF767FA204610BD0000B3
:109000002DE9F04F87B0804603931C4B5B68C3F398
:109010000803894616466BB9FFF7B8FE044600F10F
:109020002403406A0593FEF747FA237B2BB105A87A
:10903000FFF7DDFF07B0BDE8F08F01232373D4E90C
:1090400000535FFA89F905EB830AAA4512D055F857
:10905000047B3146381DFFF725FE8145F5D33B687B
:10906000039A0092D3F808B04A4633464146384640
:10907000D847EAE700232373D9E700BF00ED00E0FB
:109080002DE9F74F9B461A4B5B68C3F308038046F4
:10909000894616466BB9FFF779FE044600F12403B2
:1090A000406A0193FEF708FA237B2BB101A8FFF772
:1090B0009EFF03B0BDE8F08F01232373D4E9005372
:1090C000F6B205EB830A55450ED055F8047B594698
:1090D000381DFFF7E7FD8642F5D33B684A46DB685B
:1090E000414638469847EEE700232373DEE700BF8A
:1090F00000ED00E02DE9F341164B5B68C3F3080374
:1091000005460F461BBBFFF741FE00F12403044652
:10911000406A0193FEF7D0F9D4E90063462406EBD8
:109120008308B04509D101A8FFF761FFA542B4BF8C
:109130000020012002B0BDE8F08156F8040B39464A
:109140000430FFF7AFFD8442A8BF0446E9E70020E2
:10915000F0E700BF00ED00E070B50446D0E9000282
:109160000B4600EB8202824207D001461D6851F88F
:10917000046BAE4203D00846F5E7002070BD521ADA
:1091800003F0C6FB6368013B63600120F6E71FB58F
:1091900000F124030446406A01910393FEF78CF921
:1091A00001A92046FFF7D8FF18B163680BB9FFF794
:1091B00015FE03A8FFF71BFF04B010BD70B5D0E982
:1091C00004561823044603FB0656AE4215D005F19B
:1091D00010012046FFF7C0FF63680BB9FFF7FEFDE3
:1091E000E06929690368DB689847696919B1206AF1
:1091F0000368DB6898471835E7E7D4E90453182675
:1092000006FB0356AE4204D0284600F089FE18350E
:10921000F8E70023636170BD73B50446FFF7DEFD18
:1092200004F12403606A0193FEF746F92046FFF734
:10923000C5FF01A8FFF7DBFE606A08B1FEF734F94D
:10924000D4E90453182606FB0356AE4204D0284640
:1092500000F066FE1835F8E72069FEF777FC206815
:10926000FEF774FC204602B070BD00000148FFF715
:10927000D3BF00BF40E603208842F8B506460C463F
:10928000154627D9904226D2A2F114056C1AA1F1F5
:10929000140704440026AF423DD0A4B12B682360DC
:1092A000AB88A380B5F90630E380C4E90266266185
:1092B000AB68A360AE60E368EA68E260EB602369D4
:1092C0002A6922612B6105F10800FFF727FE143D92
:1092D000143CE0E71FD00027AC421CD0A6B12368A5
:1092E0003360A388B380B4F90630F380C6E902770F
:1092F0003761A368B360A760F368E268F260E36077
:10930000336922693261236104F10800FFF706FE28
:1093100014341436E0E7F8BDF8B5D0E901539D42A6
:1093200004460E4617460DDB0135002D006804DDAE
:10933000A900FEF713FC18B9F8BDFEF707FC0020E2
:109340002060A5602568626805EB86019200A2EBAB
:109350008602081D03F0DCFA45F8267063680133C5
:1093600063600120E8E737B500F124030446406A52
:1093700001930D46FEF7A0F8D4E9003103EB81001C
:1093800083421A460BD01268AA4203F10403F7D1B4
:1093900001A8FFF72CFE0025284603B030BD2A4661
:1093A0002046FFF7B9FF05460028F1D06368012B7E
:1093B00001D1FFF707FD01A8FFF719FEECE788428E
:1093C000F8B504460D46164614D9904213D2A2F1C0
:1093D0001006751AA1F110072C44B74218D01CB121
:1093E0003146204600F018FE304600F099FD103E50
:1093F000103CF2E70CD0B5420AD01CB129462046F9
:1094000000F00AFE284600F08BFD10351034F2E71C
:10941000F8BD70B50E1E054611DD3001FEF78EFB5E
:10942000044658B1D5E9001201EB0212FFF7C7FF5D
:109430002868FEF78BFB2C60AE60012070BD002415
:10944000F6E72DE9F04F914697B000230391D9F844
:1094500004100C9346229942C0E90033C0E902335C
:10946000C0E90433CDE90A330446027623DCD9E9A6
:109470000057142303FB0757AF423BD029460DA8E2
:1094800000F0CAFD0DA911A80B9E00F0C5FDDDE995
:109490000B1399421BDA0A9B0B9A03EB061603EB9C
:1094A0000212314606F11000FFF789FFEEB90B9B5F
:1094B00001330B9311E00AA8FFF7ABFF0028D6D1C8
:1094C0000AA8FFF73FFD204617B0BDE8F08F013135
:1094D0000AA8FFF79EFF0028DDD111A800F020FDAB
:1094E0000DA800F01DFD1435C6E711A9304600F0A7
:1094F00093FDDCE70026CDE90D660F9637464FF069
:10950000140ADDE90A239E4280F297803301D35882
:1095100008930BB90136F4E70AFB06F309970293A7
:109520000DAD09A908A8FFF700FB83460028F1D07C
:109530000146099A8DF81F700DF11F032846FFF7A9
:1095400073FB9DF81F800190B8F1000F66D1BDF844
:109550002430ADF84830CDE913884FF6FF73CDF8CD
:1095600044B0ADF84A30CDF85480D5E90132934289
:109570001ADB03F1010BBBF1000F4ADD0AFB0BF014
:10958000FEF7DCFA0490002845D0D5E900120AFB6A
:109590000212FFF771FE049B28680493FEF7D6FAC7
:1095A000049B2B60C5F808B0019BD5F800B06A6831
:1095B0000AFB03F30BEB030101F114000AFB02B2F7
:1095C00004910593FFF758FE0499A9B1059B119AE0
:1095D0004BF80320BDF848308B80BDF94A30CB8072
:1095E000C1E902770F61139B8B60149B1397CB60CB
:1095F000159B14970B6115976B6801336B6013A86B
:10960000FFF78CFCB8F1000F08D00DA8FFF786FC1F
:1096100056E74346C0E74FF00108F0E7019B2D688D
:109620000AFB0355089B1B782BB9D9F80030029A26
:1096300013441B7CEB80083573E721682260626865
:109640006360A3680B920C9A0C93E368A2600D9A76
:109650000D932369E2600E9A0E93636922610F9A5B
:109660000F93039B0A9162612376CEE77FB505468F
:10967000094B45F8043B04460E4601A81146FBF78A
:10968000E7FB01AA31462846FFF7DBFE01A8FAF7FF
:10969000D9FE204604B070BD2CEF0D00F0B50F468A
:1096A00087B026490C9C384616461D4603F08DF9B6
:1096B00000BBE4B129466846FFF78AFC2049242014
:1096C00002F076F8054670B1694603A8FBF7C0FBC7
:1096D00003AA31462846FFF7C9FF03A8FAF7B2FEEE
:1096E000184B2C622B606846FAF7ACFE2C462046DD
:1096F00007B0F0BD1449384603F067F9E0B9002C13
:10970000F5D029466846FFF763FC0D49242002F096
:109710004FF805460028E6D0694603A8FBF798FBFA
:1097200003AA31462846FFF7A1FF03A8FAF78AFEED
:10973000064B2B602C62D6E70024D8E7D9F60D0043
:1097400088F90D0068F70D00DDF60D0050F70D00EB
:10975000014B024A1A6070473CE60320EEF60D000A
:109760002DE9F047089DD0F8209004460E46174694
:10977000984601F00BFE81454CD02B79190704D592
:109780006A6954492046FFF740FAB8F1000F0DD03E
:109790005B212046FFF72DFA41462046FFF71AFAD3
:1097A00023684D49DB680222204698472B79DA0767
:1097B00023D5D5F808802F21404603F063F908B17E
:1097C00000F1010841462046FFF704FA2B799B0778
:1097D00008D53A212046FFF70CFAEA683F492046AF
:1097E000FFF713FA2A79236812F0040FDB6814BF1D
:1097F0003B493C490222204698472B7958071DD502
:1098000029690B461A4613F8010B60B1202808D1CC
:109810001946F7E7344800F066F90028ADD0BDE8F6
:10982000F0872828EED12368521ADB682046984733
:1098300023682E49DB6804222046984700213846D9
:10984000FEF752F801462046FFF7C4F92368254980
:10985000DB680222204698471EB131462046FFF7BA
:10986000B9F92B7913F0300F2CD023682049DB682D
:109870000222204698472B79D9060AD523681D492C
:10988000DB68072220469847AA691B492046FFF754
:10989000BCF92B799A0611D5DB0605D5236810494A
:1098A000DB6802222046984723681449DB6820467B
:1098B0000A229847E9692046FFF78CF95D21204686
:1098C000FFF797F923680E49DB6820460222BDE8BE
:1098D000F0471847F2F60D00F9F60D001FF80D00DD
:1098E000FCF60D0001F70D0068E60320FFF60D0001
:1098F00004F70D0007F70D000FF70D0012F70D002C
:1099000021F30D002DE9F04385B0D0F820900C9C98
:1099100005460F4690461E4601F038FD814505D1AB
:10992000494800F0E0F8002840F08A802B6A474A56
:1099300001924FF0000901A803938DF80890FFF7FA
:109940003CF849464046FDF7CFFF41498046012299
:1099500001A8FFF7BBF84146FFF72EF93FB13D499B
:10996000012201A8FFF7B2F83946FFF725F93EB109
:109970003949012201A8FFF7A9F83146FFF71CF980
:109980002379DF070ED5A6682F21304603F07AF839
:1099900000B1461C3149012201A8FFF797F8314672
:1099A000FFF70AF923799E0707D52D49022201A85E
:1099B000FFF78CF8E168FFF70DF82379580714D505
:1099C000266933461F4613F8012B2AB1202A01D1FC
:1099D0001E46F7E7282AF5D12249022201A8FFF7FF
:1099E00075F8BA1B3146FFF781F82379190707D5B7
:1099F0001D49012201A8FFF769F86169FEF7FCFF24
:109A00002379DA0608D5042218490DEB0200FFF786
:109A10005DF8A169FEF7DEFF23799B0607D514499F
:109A2000062201A8FFF752F8E169FFF7C5F801A87F
:109A3000FEF7ADFF286A0F4903680222DB689847EA
:109A400005B0BDE8F08300BF68E6032038F70D00DD
:109A5000CFF60D00E1F50D0037EE0D00A6ED0D007F
:109A60001DF70D0020F70D006DF40D0023F70D001C
:109A700028F70D0021F30D00002340681A46FDF77A
:109A8000FDBF406800220221FEF708B800224068AE
:109A90001146FDF7FBBF002240681146FEF706B8ED
:109AA000002340681A461946FEF708B800234068AC
:109AB0001A461946FEF70AB840680021FEF72EB88C
:109AC00040680021FEF732B84068002281F00101B1
:109AD000FEF704B840680022FEF710B80022406884
