:02000002D0002C
:1040000000400D0014CD0D00000006000D0005015C
:0840100004019A080000000001
:04401800BCBE0D001D
:1040200009480A49884208B505D0094A824202D0A7
:10403000121A07F07DFD0748074A0021121A07F0FF
:104040009FFD014808BD00BF78E2032054CC0D005D
:104050000CE3032010E30320F1E7032070B5074EC3
:10406000074C06F0E5FBA41BA4080025A54200D1DF
:1040700070BD56F8043B98470135F7E720CC0D009A
:1040800048CC0D0000F01EBB08B500F0A5FBBDE854
:10409000084006F085BB03F071BD03F06FBD03F06F
:1040A00075BD000008B5034A00210C2003F024FC74
:1040B000FEE700BF79750D000078B0FA80F0400986
:1040C00070470123037070477047006A0368DB681C
:1040D0001847000008B503F057FA034B1860034B6C
:1040E00003221A70012008BDB8E5032084E20320F2
:1040F00010B5034B0360044602F054FB204610BD8C
:1041000060C50D0010B50446FFF7F2FF20461021F0
:1041100006F0D2FC204610BD10B50A49044605F051
:1041200081FF20B1084B00221A70012010BD074901
:10413000204605F077FF0028F8D0034B01201870C7
:10414000F4E700BFD6C50D00B4E50320A8C80D00F4
:104150000A4B10B50446036004F0FAFD214604F052
:10416000F8FF06F0D5FA06F0C7FA2046044B40F8EF
:10417000043B04F0DBFE204610BD00BF48C50D0027
:1041800030C50D0010B50446FFF7E2FF204624219C
:1041900006F092FC204610BDF8B5037D05460F469B
:1041A00016468BB10368DB6883B19A88012A06D072
:1041B0009B68F9E79B684BB19A88012AFAD12BB129
:1041C0009A89BA42F6D19E732846F8BD0A49102052
:1041D00006F074FC044668B11022002107F0D0FC00
:1041E000064B23600123A3802B69A360A781A673DC
:1041F0002C61E9E72875E7E77CCA0D001000030091
:104200000EB410B58DB00FAA016852F8044B03929A
:1042100000232020CDE90403CDE900421E2004AA9A
:1042200003F07AFB0DB0BDE8104003B0704700000A
:1042300008B50A4805F0C1FC094841F2CC03C38027
:10424000084B8360002141F27203838103F0DAFBA3
:10425000054902460548FFF7D3FF08BD6CE503207A
:10426000D4E3032084038403D0BE0D003CE6032086
:1042700010B50F202DED028B06F08CFB4FF47A70F9
:1042800003F0ECFC0F2006F085FB04464FF47A7037
:1042900003F0E4FC204607F04FF82BA3D3E90023FA
:1042A00007F0B4F807F082FBDFED1F7A07EE100A83
:1042B00067EE277A17EE900A07F050F81B4B0022A2
:1042C00006F0ECFE00221A4B07F0A0F807F06EFB98
:1042D000184B186008EE100A07F040F8164B002241
:1042E00007F094F8154B002207F0BAF9144B00229E
:1042F00006F0D6FE07F05AFBFBEE047A114BB4EE43
:10430000E78AF1EE10FA18600BD4F3EE0E7AB4EEF1
:10431000E78AF1EE10FAD4BF01200020BDEC028B39
:1043200010BD0020FAE700BF000080390000E03F28
:1043300000005940C4E30320000022400000144064
:1043400000004040CCE303206666666666660A406D
:1043500010B5074C03F018F92368C01AB0F57A7F3E
:1043600004D303F011F92060012010BD0020FCE708
:1043700068E3032038B5046805467CB16368013BF7
:1043800063605BB9236820469B689847A368013B3C
:10439000A3601BB923682046DB689847284638BDD0
:1043A00070B5044686B00D461E468AB1014602A885
:1043B00005F0F5FD134902A805F01FFE294605F09A
:1043C00010FE01681048FFF71BFF02A805F051FD21
:1043D000A6B1FFF7BDFF10B903F038FBF9E7FFF70F
:1043E000B7FF0A4B2A681B788DF8003002A82168B5
:1043F0003C2303F005FE03A8FFF7BCFF012006B035
:1044000070BD00BFD2C80D003CE6032064E303206A
:1044100010B5524994B0044605F004FE00283FD080
:104420004F4B00224E4C83F82A2012212C23224687
:104430004C4802F05AFA2C2309AA4A48122102F0E9
:1044400009FA94F82A209DF84E309342464A68D1E2
:1044500013604FF48071454A454803F0AFFB45496E
:1044600001A805F051FD424905A805F04DFD0123C5
:104470001A4605A901A8FFF793FF05A805F0F9FC66
:1044800001A805F0F6FC3B4905A805F03DFD05A88F
:10449000FFF720FE05A805F0ECFC012014B010BDCC
:1044A0003549204605F0BEFD10B12D4B0122B9E77C
:1044B0003249204605F0B6FD10B1294B0222B1E782
:1044C0002F49204605F0AEFD10B1254B0322A9E788
:1044D0002C49204605F0A6FD10B1214B0422A1E78E
:1044E0002949204605F09EFD10B11D4B052299E794
:1044F0002649204605F096FD10B1194B062291E79A
:104500002349204605F08EFD10B1154B072289E79F
:104510002049204605F086FD0028BFD0104B082218
:1045200080E7136812481C4A4FF4807103F046FB81
:104530001A4901A805F0E8FC0D4905A805F0E4FCBE
:1045400001231A4605A901A8FFF72AFF05A805F0CF
:1045500090FC01A805F08DFC00209FE7D6C50D005A
:10456000BCE5032008E5032080E20320F5BE0D0032
:10457000F4E3032012BF0D00A8C80D00E9BE0D0032
:10458000FAC50D00EBBE0D00EDBE0D00EFBE0D0037
:10459000F1BE0D00F3BE0D0015BF0D0036BF0D00BE
:1045A00030B589B01E491F4C1F4D684605F0ACFC64
:1045B0001E4904A805F0A8FC01231A4604A9684670
:1045C000FFF7EEFE04A805F054FC684605F051FC28
:1045D000204602F007F9164A04230021204602F083
:1045E00084F92A4604230021204602F033F9114AB7
:1045F000114850614FF07E500023012190614FF42B
:10460000807011709370D3719080138582F82A1096
:104610002C231221204602F068F9286809B030BD29
:1046200042BF0D0008E50320E8E5032047BF0D0069
:10463000CCC50D00BCE503200000A0C070B5D0E9DA
:1046400000531426044606FB0356AE4204D0284607
:1046500005F00FFC1435F8E7206803F097FA2046C0
:1046600070BD38B503681446DD680123A8472046AD
:1046700038BD000070B50F4D0F4A002411212846A7
:104680001470FFF7EEFF0D4A092128461470FFF75A
:10469000E8FF0B4A0126102128461670FFF7E1FFBC
:1046A0003146052006F05DF921460520BDE8704041
:1046B00006F057B908E503206BE50320ACE50320BD
:1046C000ECE5032013B506F023F8364C4FF41651F1
:1046D00006F00EF805F07AFF4FF4165105F070FF62
:1046E000FFF7A6FD304A3149204603F084FB304AEB
:1046F0003049204603F07FFB2F4A3049204603F023
:104700007AFB002302222E492E4803F08FF9002164
:10471000042006F015F90321082006F011F9012103
:10472000072006F00DF90121052006F009F9012105
:10473000052006F016F90021052006F012F90121E6
:10474000062006F0FDF80321102006F0F9F80321F9
:10475000132006F0F5F80321122006F0F1F805F019
:1047600083FDF1EE047A30EE670A05F05DFD164830
:1047700002F092FB642003F071FA144802F028F86A
:10478000642003F06BFA0023009311494FF0FF33CC
:104790000122082003F01AFF02B0BDE81040FFF725
:1047A00069BF00BFCB7D0D005EBF0D00D5400D0081
:1047B0006CBF0D0011440D007ABF0D0019410D00B2
:1047C00080E203206FBF0D0090E5032008E5032081
:1047D00075460D00000000002DE9F04F2DED0C8B0B
:1047E000B04CB148AFB002F05DFC2368053B012B33
:1047F00047D805F0EBFE03681B699847002840DDA9
:10480000AA4F002304203B6003F028FA05F0DEFEE7
:1048100003685B699847FF2833D1A54D01262870AE
:1048200005F0D4FE03685B699847A8550136042E4D
:10483000F6D169782A78AB789E480A441A44D2B2F5
:104840000270E87890421CD103EB01239A4A9B48FE
:104850003B604FF4807103F0B1F9994921A805F04C
:1048600053FB964925A805F04FFB0023012225A9FB
:1048700021A8FFF795FD25A805F0FBFA21A805F072
:10488000F8FA904A1378023B9246072B00F22485EF
:10489000DFE813F008007F01F5012103A004C10443
:1048A000FE06540703F0E2F8874F002800F04C8121
:1048B0008649874E21A805F027FB864925A805F0E3
:1048C00023FB01231A4625A921A8FFF769FD25A886
:1048D00005F0CFFA21A805F0CCFA7F480423324630
:1048E000002101F0B7FFD6F80080B8F1010F40F0C9
:1048F00089807A4A7148CDF8008043464FF4807130
:1049000003F05CF9764921A805F0FEFA6B4925A869
:1049100005F0FAFA0023424625A921A8FFF740FD39
:1049200025A805F0A6FA21A805F0A3FA3368012B03
:104930003ED16C4D68482C232A46122101F08AFF93
:1049400095F82A30684A5D48082B98BF2360236891
:104950004FF4807103F032F9644921A805F0D4FACC
:10496000564925A805F0D0FA01231A4625A921A801
:10497000FFF716FD25A805F07CFA21A805F079FAC5
:104980005B4B1B78002B75D05A4921A805F0BCFA67
:10499000594925A805F0B8FA01231A4625A921A8E6
:1049A000FFF7FEFC25A805F064FA21A805F061FADE
:1049B0002368042B21D1514802F087FD4FF4FA708F
:1049C00003F04CF94D4802F05BFD04464C4921A828
:1049D000002C00F0B18005F097FA4A4925A805F0AF
:1049E00093FA0023012225A921A8FFF7D9FC25A8C5
:1049F00005F03FFA21A805F03CFA02F0C5FD386049
:104A00000323C3E0404921A805F07EFA3F4925A8C9
:104A100005F07AFA0023012225A921A8FFF7C0FC9E
:104A200025A805F026FA21A805F023FAFFF7B8FD1E
:104A300001280546306012D10346284A00904FF401
:104A400080711E4803F0BAF8254921A805F05CFAE8
:104A50001A4925A805F058FA00232A465CE72C4994
:104A600021A805F051FA2B4925A805F04DFA01239C
:104A70001A4651E7284E294D17480123324609218D
:104A800001F0E8FE012314482A46112101F0E2FE5C
:104A90003378002B46D0174921A805F035FA204974
:104AA00077E700BF80E2032090E50320FCE40320C9
:104AB000F4E4032040E3032089BF0D00F4E3032066
:104AC00099BF0D0084E20320B8E50320A2BF0D00CA
:104AD000E8E50320ABBF0D0008E50320BEBF0D00D5
:104AE000F1BF0D00BCE5032052C00D0062C00D00F7
:104AF000ECE5032079C00D0086C00D005CE50320C5
:104B0000B0C00D00C8C00D0012BF0D000EC00D00DA
:104B100036BF0D0030C00D00ACE503206BE503206F
:104B200098C00D002B78002B3FF442AF814921A89B
:104B300005F0EAF980492CE705F0E6F97F4925A858
:104B400005F0E2F923464DE702F088FF02F01CFD74
:104B50003B68C01A7A4B984240F2BE83794921A83B
:104B600005F0D2F9784925A805F0CEF901231A46B7
:104B700025A921A8FFF714FC25A805F07AF921A89A
:104B800005F077F902F000FD082338608AF800305C
:104B9000A2E36E4E02F0F8FC3268801AB0F57A7F1C
:104BA000C0F09A836A496B4F21A805F0ADF96A49B4
:104BB00025A805F0A9F901231A4625A921A8FFF780
:104BC000EFFB25A8002505F054F921A805F051F9BF
:104BD000294607203D7005F0C4FE604B604A012164
:104BE0001960002313605F4A13605F4A13605F4AD5
:104BF00013605F4A13605F4A13605F4A15805F4A23
:104C000015805F4A15805F4A13605F4A13605F4AF0
:104C100013605F4A13605F4A13605F4B1D605F4B18
:104C20001D605F4B1D602368032B07DC8B4210DC8B
:104C300053B102F0A9FC04233060A7E7053B012B28
:104C4000F7D8584B1D60F4E70720397005F089FE4E
:104C5000EFE75321544801F075F9322002F0FEFFCE
:104C60005148294601F0DEF92368032BE1D105F014
:104C7000DBFE482102464D4801F026F8D9E72368BB
:104C8000082B4AD8DFE813F0490049000900090061
:104C90009600160116011D01490025A9424801F0A0
:104CA000EBF8304BDDED2A7A93ED007A77EE877AD8
:104CB0003220C3ED007A2C4BDDED2B7A93ED007A98
:104CC00077EE877AC3ED007A284BDDED2C7A93EDF1
:104CD000007A77EE877AC3ED007A02F0BFFF23688F
:104CE000032B1AD1314801F021F8FBEE047A204B56
:104CF000B4EEE70AF1EE10FA83ED000A0DDDDFED08
:104D00002C7AB4EEE70AF1EE10FA06D5194BD3ED82
:104D1000007A37EE800A83ED000A104A1368591CA6
:104D20000A2B116040F3D88202F02EFC074B18606A
:104D300005232BE779C00D00A4C00D00CDC00D00E8
:104D4000E0930400A2BF0D00D3C00D00B8E503201E
:104D5000EEC00D00F8E4032001C10D00B0E5032012
:104D6000D0E3032070E3032080E303208CE30320DF
:104D7000B0E30320ACE3032078E3032088E30320BF
:104D800094E3032074E3032084E3032090E30320EF
:104D90006CE303207CE30320BCE30320B4E30320A3
:104DA000B8E3032004E5032020E3032010E30320FD
:104DB00000002042784802F0AFFB0028ADD0774FCA
:104DC000DFF83C82DFF83C92754C764D764E7248A7
:104DD00002943B46424649460195009602F006FB86
:104DE0006D4802F037FB06F0A7FA704B002206F080
:104DF00037FC67A3D3E9002306F052F906F0D6FD8D
:104E00006B4BB9F90020186007EE902A694BB8F98E
:104E10000020D3ED006AF8EEE77A07EE100A77EE8D
:104E2000A67AC3ED007A644B07EE902AD3ED006AB0
:104E3000B7F90020F8EEE77A77EEA67AC3ED007AAC
:104E40005E4B07EE902AD3ED006AB6F90020F8EE2B
:104E5000E77A77EEA67AC3ED007A594B07EE902AEF
:104E6000D3ED006AB5F90020F8EEE77A77EEA67A7E
:104E7000C3ED007A534B07EE902AD3ED006AB4F9E4
:104E80000020F8EEE77A77EEA67AC3ED007A4E4B73
:104E900007EE902AD3ED006AF8EEE77A77EEA67A6D
:104EA000C3ED007A494BD3ED007A37EE877A83ED74
:104EB000007A32E7464A4749136809680B44136091
:104EC0002BE7132005F066FD434B444A1860136836
:104ED0001844106021E7002221A90720219202F046
:104EE00033FDB8B9219D0DB12B6923B93C4A00218E
:104EF0000A2002F001FD0023ADF896300C23ADF836
:104F000094301DAB2693042327932B6925AA0121F6
:104F1000284698470028334BA8BF1D981860FFF714
:104F2000A7F978B1304B1B68304A13602368023B05
:104F3000052B27D8DFE813F00800080068003901C6
:104F4000390141010023EFE7294BD3ED006AF2EE6E
:104F5000047A86EEA77A83ED007A264BD3ED006AB9
:104F600086EEA77A83ED007A234BD3ED006A86EEB6
:104F7000A77A83ED007A154BD3ED006A86EEA77A07
:104F800083ED007A02F000FB1C4B18600623FDE560
:104F9000A4703D0AD74342405CE5032094E303201C
:104FA00034E503202CE5032024E503200040754070
:104FB000B0E3032074E3032084E3032090E30320A1
:104FC00020E5032028E5032030E50320ACE303209F
:104FD00004E50320FCE40320C0E30320BCE303203A
:104FE00079750D00A8E30320C4E30320C8E3032080
:104FF00070E3032080E303208CE30320B8E5032063
:1050000088E3032078E30320BD49BE4AD1ED006A5E
:10501000BD4BBE48F2EE047A86EEA77A89469046EA
:105020009B46D2ED006A90ED006A81ED007AC6EEF3
:10503000A78AD3ED006AC2ED008A86EEA79AC6EE73
:10504000276AB5EE407AC0ED006AB14883ED009A58
:1050500090ED006AC6EE276AF1EE10FAC0ED006A24
:10506000AC4890ED006AC6EE276AB0EE678AC0EDE4
:10507000006A0AD1F5EE408AF1EE10FA05D1B5EEDC
:10508000409AF1EE10FA00F0888017EE100A06F050
:1050900065F9064619EE100A0F4606F05FF902465A
:1050A0000B4606F0B3F9324604460D463B46304601
:1050B000394606F0ABF902460B462046294605F074
:1050C000EFFF41EC100B05F0C1FE55EC104B18EE54
:1050D000900A06F043F922462B4606F0C1FA41EC4D
:1050E000100B05F0F5FC8C4B51EC100B002206F078
:1050F0008DF97DA3D3E9002306F0B2FA7CA3D3E9AE
:10510000002305F0CBFF06F051FC844B1860D9F862
:10511000000080F0004006F021F90446D8F80000B5
:105120000D4606F01BF98046DBF80000894606F0C4
:1051300015F902460B4606F069F9424606460F4647
:105140004B464046494606F061F902460B4630465A
:10515000394605F0A5FF41EC100B05F077FE20461F
:1051600053EC102B294606F07BFA41EC100B05F0AE
:10517000AFFC694B51EC100B002206F047F95AA323
:10518000D3E9002306F06CFA5BA3D3E9002305F012
:1051900087FF06F00BFC624B1860624B93ED007AC0
:1051A000C7EE087AC3ED007AECE65F4B0A221B6873
:1051B00093FBF2F35D4A1360E4E65D4B5D491B68C7
:1051C0000A2293FBF2F20A604FF4204293FBF2F3BF
:1051D000594AF0E7594C02F0D7F92368C01AB0F5E4
:1051E0007A7F79D3564921A804F08EFE554925A827
:1051F00004F08AFE0023012225A921A8FFF7D0F898
:1052000025A804F036FE21A804F033FE02F0BCF914
:1052100007232060BAE42368082B2DD8DFE813F0B9
:1052200009000900AC00EB003201A101A101C80195
:10523000C801454B186806F091F8044643480D46EE
:1052400003F0FAF8424B434A1B6823EAE37310EE7B
:10525000106A52F8237005F034F9CDE90470304635
:1052600006F07CF8CDE90045CDE902013A4A3B4819
:105270004FF4807102F0A2FC394B3A4A1B68127855
:10528000042B00F3C081022B40F3C0818DF8002075
:105290003549324A3C2325A802F0B2FE26A8FFF782
:1052A00069F8324921A804F02FFE314925A804F0FD
:1052B0002BFE01231A4625A921A8FFF771F825A87E
:1052C00004F0D7FD21A804F0D4FD02F05DF91B4BDA
:1052D0001860284B08221A702FB0BDEC0C8BBDE86B
:1052E000F08F00BFAFF30080182D4454FB2109401C
:1052F0008FC2F5285C8FE23F48E17A14AE47F93F50
:1053000074E3032084E3032090E3032020E50320DB
:1053100028E5032030E50320008066406CE303208D
:105320007CE30320ACE3032004E5032000E5032035
:10533000BCE30320B4E30320B8E30320B8E5032073
:1053400010C10D001BC10D00C8E3032018E50320A8
:10535000A8E30320B0C50D002FC10D00F4E3032026
:1053600080E2032064E303202AC40D0021C10D0064
:105370005EC40D0084E20320AA4B186805F0EEFF1E
:10538000A94B044618680D4605F0E8FFA74B0646F2
:1053900018680F4605F0E2FFA54B8046186889465D
:1053A00005F0DCFF8246A3488B4603F045F8A24B8C
:1053B000A2491B688DED190A23EAE37351F82330E3
:1053C000189305F07EF8199A189B0B9010460A93D3
:1053D00005F0C4FFCDE906ABCDE90801CDE90489AC
:1053E000CDE90267CDE90045954A96484FF48071B2
:1053F00002F0E4FB40E78B4B186805F0AFFF924BDF
:10540000044618680D4605F0A9FF874B0646186844
:105410000F4605F0A3FF854B80461868894605F0C6
:105420009DFF834B824618688B4605F097FF41EC41
:10543000180B804803F000F87F4A804912688DED10
:10544000190A22EAE27251F82220189205F039F87E
:10545000199B189A0D9018460C9205F07FFF8DED60
:10546000088BCDE90A01CDE906ABCDE90489CDE988
:105470000267CDE90045754A72484FF4807102F029
:105480009DFBF9E6674B186805F068FF6E4B41EC31
:105490001D0B186805F062FF6D4B41EC1C0B186882
:1054A00005F05CFF6B4B41EC1B0B186805F056FFD9
:1054B000694B41EC1A0B186805F050FF674B41EC43
:1054C000190B186805F04AFF654B044618680D462D
:1054D00005F044FF634B064618680F4605F03EFF93
:1054E000614B80461868894605F038FF5F4B82465D
:1054F00018688B4605F032FF41EC180B4D4802F05E
:105500009BFF4D4A4D4912688DED190A22EAE2725D
:1055100051F82220189204F0D4FF199B189A179082
:105520001846169205F01AFF8DED128BCDE9140185
:10553000CDE910ABCDE90E89CDE90C67CDE90A457F
:105540008DED089B8DED06AB8DED04BB8DED02CB93
:105550008DED00DB464A3B484FF4807102F02EFB94
:105560008AE6304B186805F0F9FE424B0446314894
:105570001F680D4602F060FF2F4B304A1B6823EA7C
:10558000E37310EE106A52F8238004F09AFFCDE91D
:105590000680304605F0E2FECDE90045CDE9040184
:1055A000354A02974FF48071264802F007FB63E604
:1055B0001C4B186805F0D2FE304B1F68304B044678
:1055C0001C48D3F800800D4602F036FF1A4B1B4AE8
:1055D0001B6823EAE37310EE106A52F8239004F07C
:1055E00070FFCDE90690304605F0B8FECDE90278AF
:1055F000CDE90401CDE90045224A12484FF48071FB
:1056000002F0DCFA38E6053B012B05D98DF80020C5
:105610001D490C4A3C233EE68DF800201B49094AEF
:105620003C2338E6C8E3032070E3032080E3032033
:105630008CE3032018E50320A8E30320B0C50D0088
:1056400079C10D00F4E30320ACE30320F3C10D00A6
:1056500074E3032084E3032090E3032020E5032088
:1056600028E5032030E503206CE303207CE30320DE
:1056700081C20D00FCE4032057C30D00B4E30320F6
:10568000B8E30320B0C30D004EC40D003AC40D00B2
:10569000A84E01F079FF3268801AA74A126890423A
:1056A000FFF41AAE2368042B1FD1A44BA448012495
:1056B00021461C7001F0F8FEA14801F0E1FE05460C
:1056C000A04921A875B304F01FFC9F4925A804F048
:1056D0001BFC0023224625A921A8FEF761FE25A870
:1056E00004F0C7FB21A804F0C4FB984B98491B7831
:1056F00021A8FBB104F008FC964925A804F004FC9D
:1057000001231A4625A921A8FEF74AFE25A804F080
:10571000B0FB21A804F0ADFB01F036FF0923306097
:10572000FFF734BA04F0F0FB8B4925A804F0ECFB3A
:105730002B46CFE704F0E8FB8849DEE7834B1C7873
:10574000002C40F041818249854E864D21A804F00D
:10575000DBFB854925A804F0D7FB01231A4625A9C0
:1057600021A8FEF71DFE25A804F083FB21A804F064
:1057700080FB324611217D483470FEF772FF2A46C5
:1057800009217A482C70FEF76CFF794A774814702B
:105790001021FEF766FF774802F04EFEF0EE0E7A1B
:1057A000B4EEE70AF1EE10FA42BF734B734A1A6087
:1057B00026AB259300230122CDE92833ADF89D3097
:1057C0008DF89F3010216E4B269325A88DF8A820C8
:1057D0008DF89C20FEF7E0FC037D0746FBB1664B8D
:1057E000D3F800800368DB682BB19A88042A00F0A4
:1057F000FC809B68F8E76349102005F05FF90446D8
:10580000002800F0F0801022002106F0B9F95C4B6E
:1058100023600423A3803B69C4E902383C6125A9C5
:105820001AA804F047FC0021102005F09AF81A9BF2
:1058300003B39C88012C1DD19B895349132B1DA8B0
:1058400040F0AC8004F060FB504921A804F05CFB00
:10585000224621A923461DA8FEF7A2FD21A804F097
:1058600008FB1DA804F005FB3D4A347011213F4898
:10587000FEF7F7FE1A9BB3B19B88042B13D1424964
:105880001DA804F041FB424921A804F03DFB01237F
:105890001A4621A91DA8FEF783FD21A804F0E9FA04
:1058A0001DA804F0E6FA1A9BB3B19B880E2B13D106
:1058B00035491DA804F028FB364921A804F024FB33
:1058C00001231A4621A91DA8FEF76AFD21A804F0AC
:1058D000D0FA1DA804F0CDFA1A9B0BB19B889BB996
:1058E00029491DA804F010FB2B4921A804F00CFB4A
:1058F00001231A4621A91DA8FEF752FD21A804F094
:10590000B8FA1DA804F0B5FA01F03EFE094B186084
:105910001A9802238AF8003008B102F037F9299862
:1059200000283FF4D9AC84680C2105F0C5F8204666
:10593000F6E700BFB8E503207CE20320B4E50320CE
:105940005CE50320B0C00D00C8C00D00F8E40320E2
:105950007EC40D0075C40D00CDC00D0084C40D00C3
:105960006BE50320ACE5032093C40D0008E503209C
:10597000ECE5032018E5032078E20320E03229005B
:10598000100003007CCA0D0079C00D00A4C40D00F6
:10599000CCC40D00E7C40D0006C50D0004F0B4FA38
:1059A000134921A804F0B0FA224621A923461DA8D4
:1059B000FEF7F6FC21A804F05CFA1DA804F059FAE1
:1059C0000C4A2C70092152E70B4C01F0DDFD2368D5
:1059D000C01A0A4B1B689842FFF47EAC01F0D4FD5C
:1059E0002060FFF70DB8387519E7C3F80C8016E78B
:1059F000B8C40D00ACE50320B8E5032078E203202D
:105A00008842F8B504460D46164616D9904215D27E
:105A1000A2F11406751AA1F114072C44B7421CD048
:105A20002CB13146204604F0A0FA337C2374304672
:105A300004F01FFA143E143CF0E70ED0B5420CD02F
:105A40002CB12946204604F090FA2B7C237428467A
:105A500004F00FFA14351434F0E7F8BD2DE9F041E5
:105A60000023C0E9003383604F689F4204460E461E
:105A700023DD4FF0140808FB07F002F07FF805461D
:105A8000D8B1D4E9001208FB0212FFF7B9FF206871
:105A900002F07CF82560A760D6E9007308FB037864
:105AA000B84508D03946284604F079FA3B7C2B7477
:105AB00014371435F4E7736863602046BDE8F0815D
:105AC000F0B54A4B4A4D01248DB01C7004F0E2FE43
:105AD00000231A4643F6A64104F0E4FE04F0DAFE81
:105AE00000231A46252104F0E5FE0021204600246B
:105AF00001F04CFFCDE90044029404F009FE694630
:105B0000064603A8FFF7AAFF2F4603A906A8FFF73A
:105B1000A5FF384B47F8043B06A909A8FFF79EFFED
:105B200009AA1E21384603F06EFC09A8FEF786FD7F
:105B300006A8FEF783FD304B2B602E6203A8FEF70C
:105B40007DFD2E4B2B6004F0E3FD4FF4165104F065
:105B5000CFFD03F0FDF8294603F0E7FB6846FEF7AA
:105B60006DFD04F061FF01462548264D01F09CF8CB
:105B700004F05AFF4FF4005201462346284600F035
:105B80001DFE214B2B6043F239012048204D00F0CF
:105B9000C7F9204800F078F81F4801F00DFC2946AD
:105BA0001E4804F0B1F929461D4804F0ADF9294614
:105BB0001C4804F0A9F921461B4803F0F6FF1B4BD3
:105BC000202632461846214605F0DAFF2146467166
:105BD000174802F0E3FB2946164804F095F92946D8
:105BE000154804F091F90DB0F0BD00BF64E3032047
:105BF00038E5032030C50D0028C90D0048C50D004B
:105C000090E5032008E5032060C50D0020E3032094
:105C1000F0C80D0010E303205CE5032080E50320BD
:105C200070E5032098E303206CE50320D4E3032010
:105C300018E5032054E3032044E303207047704732
:105C400010B51021044604F037FF204610BD0000B7
:105C50000B4610B5282204460021184605F090FF97
:105C600008490B2206F019F800220121C272C16016
:105C7000A168016142620D21002241618261C2611D
:105C8000026210BDD0C50D00034A026041F6F24128
:105C90000022C0E902127047E0C50D001FB52F2396
:105CA0008DF80F300023CDE900330123C0681A4678
:105CB0000DF10F0100F0E2FA044610B10A2001F0E4
:105CC000CDFF204604B010BDF0B50446C06889B0D1
:105CD0000E46174610B1102104F0EEFE1020FEF71C
:105CE000DAF9054618B13A46314600F09CFAE5600B
:105CF0002846012100F0B3FA054690B101230026A1
:105D0000CDE90063E1680B2202A800F0B3F902A814
:105D100000F04FFA00F0F800C82805D12046FFF740
:105D2000BDFF284609B0F0BD3546FAE700B50123AE
:105D300089B0CDE900330022C168022302A800F037
:105D400099F902A800F035FA03B200EE103ABAEE63
:105D5000EC0A09B05DF804FB38B50C460546202274
:105D60000021201D05F00CFF24232360AB68636035
:105D70000D23A360002328462361FFF7D7FF0120EE
:105D800084ED050A38BD704710B52021044604F0A3
:105D900093FE204610BD00000B4610B52822044695
:105DA0000021184605F0ECFE09490B2205F075FFAD
:105DB00000220121C2720346C16060695A62054A2D
:105DC000DA61C3E90401044A9A61044A1A6210BD07
:105DD000F4C50D000AE81CC30AE81C43A3AF203D2C
:105DE00030B501238BB00025CDE90253CDE9001376
:105DF0001446D0E9022104A800F04AF92A462146B7
:105E000004A800F089F90BB030BD00B501238BB0B8
:105E10000022CDE90223CDE90013D0E9022104A834
:105E200000F036F904A800F0C4F9C0B20BB05DF878
:105E300004FB00B501238BB00022CDE9022302222E
:105E4000CDE90012D0E9022104A800F021F904A84C
:105E500000F0AFF900B20BB05DF804FB0021FFF7D2
:105E6000D4BF3221FFF7E5BF3421FFF7E2BF36216F
:105E7000FFF7DFBF0000000070B50C46054620228A
:105E80000021201D05F07CFE242323606B696360E4
:105E90000126A66001F078FB20612846FFF7E1FFAC
:105EA00005F04AFA1AA3D3E9002305F0AFFA1AA3C2
:105EB000D3E9002305F0AAFA05F078FD60612846D1
:105EC000FFF7D2FF05F038FA11A3D3E9002305F05C
:105ED0009DFA11A3D3E9002305F098FA05F066FDB9
:105EE000A0612846FFF7C3FF05F026FA08A3D3E90F
:105EF000002305F08BFA08A3D3E9002305F086FA06
:105F000005F054FDE061304670BD00BFAFF3008086
:105F1000FCA9F1D24D62703F00000040019D23407A
:105F2000074B10B503600023C0E902330123416130
:105F30004377044604F078FD2061204610BD00BF81
:105F400004C60D007FB5437F04460E46DBB1C06832
:105F500010B1102104F0B0FD1020FEF79CF80546AA
:105F600018B12269314600F05EF9E560012128464A
:105F700000F075F920B12046FFF770FFE52827D023
:105F8000002004B070BD8568C36035B1284600F0BC
:105F90009FFA3821284604F08FFD3820FEF77BF861
:105FA000054680B101230322CDE902321C4B019347
:105FB00094F91A30009394F9192094F91B3094F94C
:105FC0001C1000F005FAA560284600F08AFAD1E717
:105FD00000252A462E2120462576FFF701FF1422B0
:105FE0001D212046FFF7FCFE322221212046FFF72B
:105FF000F7FE2A4622212046FFF7F2FE2A462321F9
:106000002046FFF7EDFE07222A212046FFF7E8FE93
:10601000204608222D21FFF7E3FE0120B1E700BF53
:1060200040420F00F0B501258FB00027CDE9027581
:106030003123009301950E460446D0E902212B46F8
:1060400008A800F025F83B4608A9022204A800F0A1
:10605000CCF803232A4608A906A800F0C6F8314662
:1060600004A800F0C7F8294606A800F0C3F8267671
:106070000FB0F0BD30B50025C0E9001542819DF894
:1060800010109DF80C20456141738273037330BD7D
:1060900030B503729DF818304373BDF80C3043815E
:1060A0009DF81430837300259DF810304561C0E9D8
:1060B0000012037330BD7FB504464089ADF80C0073
:1060C000C3B220680D46164640B1637B019303AB13
:1060D0000093012300F0D2F804B070BD606800287E
:1060E000FAD0227A22B903F07F038DF80C3003E056
:1060F000022A09D0012A0AD0637B0093324603ABFF
:10610000294600F0E0FAE7E763F07F03EDE703F0EC
:106110007F0343F04003E8E7F0B40B4602B9027B8B
:10612000042A14D800F10F054361841829468442DB
:1061300009D0877BDEB227B92E701B0A0135013CDE
:10614000F5E7A673F9E72046F0BCFFF7B4BF0020DF
:10615000F0BC704730B50B4685B04189ADF80C10E6
:1061600005460068CCB240B10021CDE900216A7B30
:1061700003A900F0D5F805B030BD68680028FAD052
:10618000297A21B964F07F048DF80C4003E00229DC
:1061900009D001290AD0FF21CDE900216A7B03A99A
:1061A00000F0C3FAE7E704F07F04EDE764F03F0492
:1061B000EAE738B500F10F05027B29460446FFF7F0
:1061C000C9FF78B1227B294622440020A2420BD08D
:1061D0000302A07B20B9907B1843013A0131F5E717
:1061E0000878F9E74FF0FF3038BD10B50160027153
:1061F000437110BD70B5044600680E46FFF7D9FF25
:10620000237901229A40531E627903FA02F520EAAB
:10621000050503EA0601206891402943027BBDE899
:106220007040FFF779BF42600022027220220170A5
:10623000C260704710B5037A044653B12178606894
:1062400002F086F9606802F0A6F9B0FA80F0400921
:1062500010BD012100F003F80028EFD1F8E738B5B0
:10626000044640680D4602F041F90120207225B134
:106270002046BDE83840FFF7DDBF38BD2DE9F843C3
:10628000DDE908961F46C368154632449A42044623
:10629000884602D90020BDE8F8830178406802F002
:1062A00057F97EB9606803682A46DB68414698471B
:1062B0008542EFD16068394602F069F9B0FA80F0A2
:1062C0004009E8E7B9F1000FECD060680368324696
:1062D000DB6849469847B042DCD1E3E72DE9F0415D
:1062E0001546C268954204460E4614D801784068A7
:1062F000EAB202F018F985420DD100271FFA87F89B
:10630000454507F1010709D9606803685B6998474B
:1063100006F80800F2E70020BDE8F0810120FBE765
:1063200073B51D460023CDE900339DF81C30069E51
:106330000446FFF7A3FF40B1012332462946204619
:1063400002B0BDE87040FFF7C9BF02B070BD704732
:1063500010B51021044604F0AFFB204610BD0EB46A
:1063600003B503AB002153F8042B019303F08EFC1B
:1063700002B05DF804EB03B07047000073B504464B
:1063800008462279A36832B1A3B90B4902B0BDE82F
:10639000704003F04ABC094A267B094D0949647BD9
:1063A000012E18BF2946CDE900140749FFF7D7FF92
:1063B00002B070BD054AEFE729C60D00F0C80D0018
:1063C00025C60D0021C60D003FC60D0018C60D00E4
:1063D0002DE9F84F9DF928908173C273437480F8BA
:1063E000109004468A4616461D469DF830809DF85A
:1063F0003470DFF8D4B001F0E7F84FEA0A1A10F869
:106400000A20002A14BF5A464FF0A04202F204525A
:10641000226201F0D9F88244B9F1FF3F9AF80120D5
:10642000226312D001F0D0F84FEA091A10F80A30AE
:10643000002B14BF5B464FF0A04303F2045363618B
:1064400001F0C2F85044437863626B1C10D001F035
:10645000BBF82D011C4A435D002B08BF4FF0A04242
:1064600002F5A262E26101F0AFF828444378A3622A
:1064700001F0AAF836010025835D002B124B08BFFE
:106480004FF0A04303F20453A36101F09DF80644CA
:1064900010207378E3620B9BA36084F80C80677311
:1064A00084F83450FDF7F7FD38B1084B03600B9BBF
:1064B0000571836080F80C8047730023606023605F
:1064C0002046BDE8F88F00BF0003005064C60D00F1
:1064D00010B50446406810B103689B689847204691
:1064E00010BD38B5044690F90E00012180B204F0C9
:1064F00027FA94F90E00012180B204F032FA2568DF
:1065000035B1284603F00AFC012084F8340038BD78
:1065100094F90F00012180B204F012FA637B94F920
:106520000F00012B94BF2946012180B204F019FA13
:1065300094F91000421C09D0012180B204F000FA45
:1065400094F91000012180B204F00BFA94F91100C3
:10655000431CD9D0002180B204F0F2F9D4E7000046
:106560002DE9F04F0446006885B00D4640B1002388
:10657000009313460A4603F069FC05B0BDE8F08FAE
:10658000237BA068484FB7FBF0F7002B0B780CBFBC
:106590004FF0010B4FF0800B1BEA030F01EB0203DE
:1065A0000CBF4FF001094FF00009FFB20393039BAA
:1065B000AB42E2D095F800A05E464FF0000817B15C
:1065C000384600F0D9FF637B13F0FD0F41D194F9F9
:1065D00010305A1C0FD01AEA060114BF0123002301
:1065E0004B4508D06369606A1A6800292CD00243C1
:1065F0001A604FF00109A169E36A0A6813430B604E
:1066000017B1384600F0B8FF94F91130013306D0C5
:10661000E3691A68A36A1A4218BF46EA0808A16922
:10662000E36A0A6822EA03030B6094F9113001332C
:1066300018BF85F80080237B002B32D17600F6B29C
:10664000002EBCD10135B2E722EA00021A60894669
:10665000D1E7A169E36A0A6813430B6017B13846B2
:1066600000F08AFF94F91030013308D06369616A41
:106670001A681AEA060F14BF0A438A431A60A1690E
:10668000E36A0A6822EA03030B6094F911300133CC
:10669000CBD0E3691A68A36A1A4218BF46EA080811
:1066A000C3E77608CCE700BF20A1070007B50122A9
:1066B0008DF807100DF10701FFF752FF9DF8070055
:1066C00003B05DF804FB2DE9F041044600680E4676
:1066D00017461D4610B1616803F04AFB94F90E009D
:1066E000002180B204F03DF9069B05EB0308454507
:1066F00008D13744B7420BD016F8011B2046FFF7EC
:10670000D5FFF7E715F8011B2046FFF7CFFFEEE7AF
:1067100094F90E00012180B204F023F9206808B139
:1067200003F00DFB0120BDE8F0812DE9F0410446A6
:1067300000689DF81C800E4617461D4610B1616822
:1067400003F016FB94F90E00002180B204F009F961
:106750003744BE420AD1069BEE18AE420CD04146E9
:106760002046FFF7A3FF05F8010BF6E716F8011B1B
:106770002046FFF79BFFECE794F90E00012180B261
:1067800004F0EFF8206808B103F0D9FA0120BDE861
:10679000F08110B58368044613B10322014698477F
:1067A000204610BD704710B51021044604F084F94E
:1067B000204610BD0368C9B29B68184730B5034D29
:1067C000C0E90223C0E9005130BD00BFA4C60D00DE
:1067D000406801F08BBE10B50446006801F0EBFE86
:1067E000204610BD2DE9F0418AB004464068019072
:1067F00001F0D8FE1E22002102A8A76805F0C0F90A
:106800000026EFB123681E2FB84628BF4FF01E08A0
:10681000DD6802AA434631462046A847054658B9D6
:106820000A480B493246FDF7EBFC01A8FFF7D3FFFE
:1068300028460AB0BDE8F081A7EB08074644E0E728
:1068400001A8FFF7C8FF0125F2E700BF3CE60320DF
:1068500070C60D002DE9F7430446406801900D46CF
:1068600016461F4601F09EFEA7B1E168606841F040
:10687000500101F071FE290A6068FFF79BFF29466D
:106880006068FFF797FF6068002101F080FE48B163
:10689000002400E0012401A8FFF79DFF204603B07B
:1068A000BDE8F083202F217B6068B84628BF4FF0F9
:1068B00020080123424641F0500101F034FE04F06B
:1068C000B3F803681B6998474045E1DB06EB08090C
:1068D00004F0AAF803685B69984706F8010B4E4577
:1068E000F6D14544A7EB0807BEE72DE9F74F04466C
:1068F000406801900E4690461D4601F053FE4FF051
:106900000109B9F1000F2AD04DB3E168606841F088
:10691000500101F021FE310A6068FFF74BFF60680B
:106920003146FFF747FFA5F11E0A4746A6EB080BC5
:10693000606817F8011B0368013D9B68984755453F
:106940000BEB0706B84601D0002DF1D1606801219C
:1069500001F01DFE0028D7D04FF00009D1E701A8B3
:10696000FFF739FF484603B0BDE8F08F2DE9F0434B
:106970008BB00E4615468046406801901C4601F0DB
:1069800011FEAE4229D2264425448CB11E2C274646
:10699000D8F8003028BF1E27F61BD3F8089002AAAB
:1069A0003B4631464046ED1BC84748B9002400E04D
:1069B000012401A8FFF70FFF20460BB0BDE8F083CC
:1069C000D8F8003002AAD3F80C9029463B4640463E
:1069D000C8470028EAD0E41BD7E7E9D9002CE7D064
:1069E000D8F800301E2C274628BF1E27D3F8089061
:1069F00002AA3B4631464046C8470028D6D0D8F8C0
:106A0000003002AAD3F80C9029463B464046C847BE
:106A10000028CBD03E443D44E41BDFE740207047D4
:106A20000020704780207047FF20704770477047F4
:106A30007047704710B51421044604F03DF8204615
:106A400010BD10B50821044604F036F8204610BDEC
:106A500010B50821044604F02FF8204610BD10B5EB
:106A60001C21044604F028F8204610BD2DE9FF4102
:106A70000368DB680446984710220146684605F023
:106A80007FF8236820469B689847002507462846DC
:106A9000BD420ED27E1B2368102E28BF1026D3F8CD
:106AA00018806A46334629462046C04708B1354417
:106AB000EEE704B0BDE8F0814FF48073438140F20B
:106AC0000113C360002303827047000008B5064B22
:106AD0000360064B436040F2047303810023437458
:106AE000FFF7EAFF08BD00BF84C70D0000010203E5
:106AF00003090A2200F00F0002FB0300704708B5EB
:106B0000807AFFF7F5FF00F5FA6008BDC07A00F063
:106B10001F00FFF7EDBF007B00F03F00FFF7E8BF6D
:106B200008B5817B4A060DD501F01F00FFF7E0FF95
:106B30008B0603D50C2800D00C3008BD0C2808BFEC
:106B40000020FAE7BDE8084001F03F00FFF7D0BFA2
:106B5000C07B00F07F00FFF7CBBF007C00F07F0020
:106B6000FFF7C6BF10B58AB024220446002101A851
:106B700005F006F82046FFF7C2FFA0F26C70069001
:106B80002046FFF7C3FF013805902046FFF7C3FFFB
:106B900004902046FFF7C4FF03902046FFF7D8FF7C
:106BA00002902046FFF7D9FF019001A801F04EF8AE
:106BB0000AB010BD0A2190FBF1F292FBF1F301FB48
:106BC00013231B01DBB201FB12001843C0B2704754
:106BD000642310B5044691FBF3F000FB1310FFF79C
:106BE000E9FFA07210BD10B504460846FFF7E2FFAA
:106BF000E07210BD10B504460846FFF7DBFF237BAB
:106C000023F03F031843207310BD10B50446481C01
:106C1000FFF7D0FF637B23F007031843607310BDB9
:106C200010B504460846FFF7C5FFA07310BD10B5A8
:106C300004460846FFF7BEFFE07310BD10B50446DA
:106C40000846FFF7B7FF237C23F07F031843207427
:106C500010BD37B504466846CDE9002304F056FF61
:106C6000054641692046FFF7B3FF296920460131F7
:106C7000FFF7B9FFE9682046FFF7BCFFA969204686
:106C8000FFF7C3FFA9682046FFF7CAFF69682046DF
:106C9000FFF7CDFF29683B29A8BF3B212046FFF71E
:106CA000CDFF03B030BD0000054A0061C0E90021FE
:106CB000044A8260044AC260044A806142617047AB
:106CC000B8C70D000000010360C70D0094C70D0098
:106CD0002DE9F84F04460F469046994600260A9B38
:106CE0009E4231D26068394601F032FC08EB060161
:106CF0006068FFF75FFD6068002101F048FC054611
:106D0000D0B90A9B60689A1B202A4FF0010328BF64
:106D10002022394601F007FC09EB060B05460BEB78
:106D2000000ADA4506D0606803685B6998470BF88B
:106D3000010BF6E72E44D2E7024604490448FDF76A
:106D40005FFA2846BDE8F88F0025FAE7B8C60D00BF
:106D5000F0E503202DE9F34101EB03081E4603682B
:106D60009B6805460C461746984780450DD8203449
:106D7000686800963B46E2B26F21FFF7A9FFB0FAC0
:106D800080F0400902B0BDE8F0810020FAE72DE96B
:106D9000F34101EB03081E4603689B6804460D4659
:106DA0001746984780450CD8606800963B46EAB283
:106DB0005721FFF78DFFB0FA80F0400902B0BDE81F
:106DC000F0810020FAE77FB51E1E0CBF07230623C3
:106DD0000093144602AB0A466F21FFF779FF054680
:106DE000A8B99DF8083023749DF80930E3739DF825
:106DF0000A30A3739DF80B3063739DF80C30237336
:106E00009DF80D30E3722EB99DF80E30A37228461E
:106E100004B070BD03F066FBFFF7CCFEA072F6E78E
:106E20001FB501230A4600936F2103ABFFF750FF04
:106E300020B99DF80C0005B05DF804FB0020FAE7CE
:106E400008B50321FFF7ECFFC0F3401008BD38B5CB
:106E500000230C460A4619460546FFF7B4FF30B931
:106E6000A37A23B12846BDE83840FFF7E9BF0020E8
:106E700038BD7FB5024601A8FFF728FE01A91046DC
:106E8000FFF7E5FF28B101A8FFF76CFE07B05DF83A
:106E900004FB00200146F9E7D0B5044686B04068FF
:106EA00001F024FB03F0F0FAE8B9E37A9B071AD566
:106EB0002046FFF7DEFF06460F4656EA070312D0CC
:106EC00003F0E8F90A4B0B491B68009332463B4636
:106ED00002A803F097FA0848029A0849FDF790F9CA
:106EE00002A802F0C6FF0123237206B0D0BD00BF86
:106EF00090E2032090E60320F0E50320D2C60D00C7
:106F00002DE9F84F0646884691469A4600250A9B89
:106F10009D4229D27068414601F01AFB706809EB66
:106F20000501FFF747FC0A9B5F1B1F2F28BF1F2788
:106F30000AEB050407EB040B706814F8011B0268E8
:106F400092689047A345F7D17068012101F01FFBBB
:106F5000044638B1024605490548FDF751F9204677
:106F6000BDE8F88F3D44D2E70024F8E7E7C60D00FE
:106F7000F0E503202DE9F34101EB03081E46036809
:106F80009B6805460C461746984780450DD8203427
:106F9000686800963B46E2B26F21FFF7B1FFB0FA96
:106FA00080F0400902B0BDE8F0810020FAE71FB58B
:106FB000137C8DF80830D37B8DF80930937B8DF8E6
:106FC0000A30537B8DF80B30137B8DF80C30D37A5D
:106FD0008DF80D30937A8DF80E30072300930A4612
:106FE00002AB6F21FFF78CFF05B05DF804FB10B515
:106FF00088B0044603A80193FFF768FD019B03A82E
:10700000FFF727FE9DF81C30A27A63F07F038DF80E
:107010001C309DF819306AB143F0080303AA00211F
:1070200020468DF81930FFF7C2FFB0FA80F0400912
:1070300008B010BD03F0F703F0E70000F0B587B02B
:10704000054603F021FA0446E8B103F03AFAC717FF
:10705000024606463B462846FFF7C9FF0C4B0D4942
:107060001B68009332463B46044602A803F0CAF967
:107070000948029A0949FDF7C3F802A802F0F9FE8F
:10708000204607B0F0BD06490348FDF7B9F8F7E719
:1070900090E2032090E60320F0E5032002C70D00F4
:1070A00018C70D0037B5457A04469DB903F0ECF9D1
:1070B00080B10022002369462846CDE9002300F074
:1070C000EDFC38B1E37ADB0702D52046FFF7B6FFC7
:1070D0000123637203B030BD38B5044632256068C1
:1070E000572101F035FA6068012101F050FA08B12A
:1070F000013DF4D138BD00002DE9F04104460F46B2
:10710000164602EB0308B04520D06068572101F015
:107110001FFA39466068FFF74DFB606816F8011BDF
:1071200003689B6898476068012101F030FA0137D5
:10713000054638B1024606490648FDF761F828467B
:10714000BDE8F0812046FFF7C7FFDCE70025F6E742
:107150002DC70D00F0E50320F7B5CF181E460368D4
:1071600001929B6804460D46984787420AD8019AC7
:1071700060683346E9B2FFF7BFFFB0FA80F040091C
:1071800003B0F0BD0020FBE7014B024A1A607047D4
:10719000F0E503204EC70D002DE9F74F16469B463C
:1071A000BDF8308007468A4600F0EEF9202E3346BF
:1071B0004FF00005A8BF202381462C460193B5421D
:1071C0003AD203F031FC394601F0C2F903F02CFC4D
:1071D000036851469B68984703F026FC01F0DBF9F1
:1071E00003F022FC394601F0B3F903F01DFC721BD9
:1071F000202AA8BF2022D2B2394601F0A6F903F016
:1072000013FC03681B69984790B1B8F1000F09D1CE
:1072100003F00AFC03685B6998470BF8040001342B
:1072200064B2ECE700F0B0F9A0EB09004045EFD301
:10723000019B1D44EDB2C2E7B8F1000F09D000F088
:10724000A3F9A0EB0900404503D3B442B8BF4FF007
:10725000FF34204603B0BDE8F08F07B50093134616
:107260000122FFF799FF03B05DF804FB37B515461F
:107270001C460DF10702BDF81830FFF7EEFF9DF830
:107280000730012101FA05F21A40227003B030BD27
:1072900037B514461D460DF10702BDF81C30FFF747
:1072A000DCFF60B1012202FA05F3611B9DF80720A3
:1072B0000131013B8B401340069A0B41137003B020
:1072C00030BDF8B5074615461C460E4603F0ACFB2C
:1072D000394601F03DF903F0A7FB036831469B688E
:1072E00098472544AC4207D003F09EFB036814F88E
:1072F000011B9B689847F5E703F096FB01F04BF9FB
:10730000B0FA80F04009F8BD07B58DF807200DF1FF
:1073100007030122FFF7D5FF03B05DF804FB00006F
:107320002DE9F3411F460F4B904601240DF1070252
:107330001B8805460E46FFF790FF04FA08F252B28A
:107340009DF8074057B12243D2B2314628468DF806
:107350000720FFF7D9FF02B0BDE8F08124EA02025E
:10736000F3E700BF86E20320F7B51F46114B164630
:107370001B880DF1070204460D46FFF76EFFB8B1FA
:10738000012202FA07F3F11B9DF820200131013B95
:107390008B4002FA01F19DF80720C9B222EA0302EC
:1073A0000B401A43294620468DF80720FFF7ACFF13
:1073B00003B0F0BD86E2032068230370704707B571
:1073C00002230078009104221B21FFF7CDFF03B0B8
:1073D0005DF804FB07B502230078009104221C210C
:1073E000FFF7C2FF03B05DF804FB0000F7B51646D7
:1073F000174A1D4603460446128813F8010B0092F3
:107400000F460E223B21FFF7C7FE6278A37843EABE
:1074100002233B80E278237943EA022333806279B6
:10742000A37943EA02232B80627AA37A43EA0223F8
:10743000089A1380E27A237B43EA0223099A138095
:10744000627BA37B43EA02230A9A138003B0F0BD58
:1074500086E2032013B5094A03460446128813F84E
:10746000010B009241210222FFF796FE6378A0787B
:1074700040EA032000B202B010BD00BF86E2032044
:1074800013B5084A0346128804466B2113F8010B12
:1074900000920622FFF7EAFE6078003818BF01204C
:1074A00002B010BD86E203200B46007806226B2155
:1074B000FFF736BF07B503230078009102226B2146
:1074C000FFF752FF03B05DF804FB10B5012104463D
:1074D000FFF7F0FF20460021FFF771FF2046002153
:1074E000FFF778FF20460021BDE81040FFF7DCBF22
:1074F00013B50346074A0446128813F8010BCDE979
:10750000003206231A467521FFF7C2FE607802B0EA
:1075100010BD00BF86E2032008B5FFF7E9FFA0F128
:1075200034035842584108BD08B5024B1B685B6CD8
:10753000019308BD4802030008B5024B1B689B6C11
:10754000019308BD4802030008B5024B1B68DB6CC1
:10755000019308BD4802030008B5024B1B685B6D30
:10756000019308BD4802030008B5024B1B685B6825
:10757000019308BD1802030008B5024B1B68DB68C5
:10758000019308BD1802030008B5024B1B685B6934
:10759000019308BD1802030008B5024B1B689B6DE0
:1075A000019308BD1802030008B5024B1B685B6E0F
:1075B000019308BD1802030008B5024B1B689B6EBF
:1075C000019308BD1802030008B5024B1B681B6835
:1075D000019308BD2C02030008B5024B1B685B68D1
:1075E000019308BD2C02030008B5024B1B689B6881
:1075F000019308BD2C02030008B5024B1B68DB6831
:10760000019308BD2C02030008B5024B1B681B69DF
:10761000019308BD2C02030008B5024B1B689B694F
:10762000019308BD2C02030008B5024B1B68DB69FF
:10763000019308BD2C02030008B5024B1B681B6BAD
:10764000019308BD2C02030008B5024B1B68DB68E0
:10765000019308BD2802030008B5024B1B689B6913
:10766000019308BD2802030008B5024B1B68DB69C3
:10767000019308BD2802030008B5024B1B681B6A72
:10768000019308BD2802030008B5024B1B685B6A22
:10769000019308BD2802030008B5024B1B689B6AD2
:1076A000019308BD2802030008B5024B1B68DB6A82
:1076B000019308BD2802030008B5024B1B681B6B31
:1076C000019308BD2802030008B5024B1B685B6BE1
:1076D000019308BD2802030008B5024B1B681B6C10
:1076E000019308BD2802030008B5024B1B689B6C80
:1076F000019308BD2802030008B5024B1B68DB6C30
:10770000019308BD2802030008B5024B1B681B6DDE
:10771000019308BD2802030008B5024B1B685B6992
:10772000019308BD6402030008B5024B1B689B6807
:10773000019308BD6802030008B5024B1B68DB68B3
:10774000019308BD6802030008B5024B1B681B6863
:10775000019308BD3002030008B5024B1B68DB69CA
:10776000019308BD3002030008B5024B1B681B6A79
:10777000019308BD3002030008B5024B1B685B6A29
:10778000019308BD3002030008B5024B1B689B6AD9
:10779000019308BD3002030008B5024B1B689B6BC8
:1077A000019308BD3002030008B5024B1B68DB6B78
:1077B000019308BD3002030008B5024B1B681B6C27
:1077C000019308BD3002030008B5024B1B685B6CD7
:1077D000019308BD3002030008B5024B1B681B680B
:1077E000019308BD3C02030008B5024B1B689B686F
:1077F000019308BD3C02030008B5024B1B68DB681F
:10780000019308BD3C02030008B5024B1B681B69CD
:10781000019308BD3C02030008B5024B1B685B697D
:10782000019308BD3C02030008B5024B1B689B692D
:10783000019308BD3C02030008B5024B1B68DB69DD
:10784000019308BD3C02030008B5024B1B681B6A8C
:10785000019308BD3C02030008B5024B1B689B6AFC
:10786000019308BD3C02030008B5024B1B68DB6AAC
:10787000019308BD3C02030008B5024B1B681B685E
:10788000019308BD4C02030008B5024B1B685B68FE
:10789000019308BD4C02030008B5024B1B689B68AE
:1078A000019308BD4C02030008B5024B1B681B691D
:1078B000019308BD4C02030008B5024B1B685B69CD
:1078C000019308BD4C02030008B5024B1B689B697D
:1078D000019308BD4C02030008B5024B1B68DB692D
:1078E000019308BD4C02030008B5024B1B681B6ADC
:1078F000019308BD4C02030008B5024B1B685B6B8B
:10790000019308BD6002030008B5024B1B681B6DA4
:10791000019308BD6002030008B5024B1B685B6D54
:10792000019308BD6002030008B5024B1B68DB6EC3
:10793000019308BD6002030008B5024B1B681B6F72
:10794000019308BD6002030008B5034B1B68D3F820
:107950009830019308BD00006002030008B5024B97
:107960001B681B68019308BD2002030008B5024B89
:107970001B685B68019308BD2002030008B5024B39
:107980001B685B69019308BD2002030008B5024B28
:107990001B68DB6A019308BD2002030008B5024B97
:1079A0001B68DB6C019308BD2002030008B5024B85
:1079B0001B685B6D019308BD2002030008B5024BF4
:1079C0001B689B6D019308BD2002030008B5024BA4
:1079D0001B68DB6D019308BD2002030008B5034B53
:1079E0001B68D3F88830019308BD00002002030013
:1079F00008B5034B1B68D3F89430019308BD000011
:107A00002002030008B5034B1B68D3F8A83001938C
:107A100008BD00002002030008B5034B1B68D3F823
:107A2000AC30019308BD00002002030008B5024BF2
:107A30001B681B68019308BD4402030008B5024B94
:107A40001B685B68019308BD4402030008B5024B44
:107A50001B689B68019308BD4402030008B5024BF4
:107A60001B68DB68019308BD4402030008B5024BA4
:107A70001B685B69019308BD4402030008B5024B13
:107A80001B681B6A019308BD4402030008B5024B42
:107A90001B681B6B019308BD4402030008B5024B31
:107AA0001B685B6B019308BD4402030008B5024BE1
:107AB0001B68DB6B019308BD4402030008B5024B51
:107AC0001B685B68019308BD4002030008B5024BC8
:107AD0001B689B68019308BD4002030008B5024B78
:107AE0001B68DB68019308BD4002030008B5024B28
:107AF0001B681B69019308BD4002030008B5024BD7
:107B00001B685B69019308BD4002030008B5024B86
:107B10001B689B69019308BD4002030008B5024B36
:107B20001B68DB69019308BD4002030008B5024BE6
:107B30001B681B6A019308BD4002030008B5024B95
:107B40001B681B6B019308BD4002030008B5024B84
:107B50001B685B6B019308BD4002030008B5024B34
:107B60001B681B6C019308BD4002030008B5024B63
:107B70001B685B6C019308BD4002030008B5024B13
:107B80001B681B68019308BD1C02030008B5024B6B
:107B90001B685B68019308BD1C02030008B5024B1B
:107BA0001B689B68019308BD1C02030008B5024BCB
:107BB0001B681B69019308BD1C02030008B5024B3A
:107BC0001B68DB69019308BD1C02030008B5024B6A
:107BD0001B685B6A019308BD1C02030008B5024BD9
:107BE0001B68DB6A019308BD1C02030008B5024B49
:107BF0001B681B6B019308BD1C02030008B5024BF8
:107C00001B68DB6B019308BD1C02030008B5024B27
:107C10001B685B6C019308BD1C02030008B5024B96
:107C20001B689B6C019308BD1C02030008B5024B46
:107C30001B68DB6C019308BD1C02030008B5024BF6
:107C40001B681B6D019308BD1C02030008B5024BA5
:107C50001B685B6D019308BD1C0203000021FFF748
:107C60008DBE10B5836804460BB902F02BFFC368C4
:107C70009847A3681BB10322214620469847204617
:107C80001021BDE8104002F017BF0B68036013B16C
:107C90005A6801325A607047024800230360FFF7B8
:107CA00043BC00BFF4E50320002240681146FFF703
:107CB0001DBF002240681146FFF738BF0022406810
:107CC0001146FFF743BF40680022FFF737BF406807
:107CD000002281F00101FFF721BF002340681A460E
:107CE0001946FFF713BF002340681A461946FFF7ED
:107CF00005BF002240681146FFF7E8BE4068002239
:107D00000221FFF7EBBE002340681A46FFF7D6BEFC
:107D1000084B10B5282422461846002103F030FFF6
:107D2000054B04804FF0FF32426004225A60034A40
:107D30001A6010BD00E60320F8E50320C8C70D0057
:107D400070470020704710B51021044602F0B4FEC1
:107D5000204610BD08B5FFF7F6FF08BD30B500227C
:107D60004FF69C74026084808D888C800C688580BE
:107D700004600A6030BD10B504460068FFF706FFD6
:107D8000204610BD38B5C468F4B12378022B03D166
:107D900004F10C00FFF7EFFF656835B12846FEF7E8
:107DA000F8FC1021284602F087FEA56835B1284668
:107DB000FEF7EFFC1021284602F07EFE204614213B
:107DC000BDE8384002F078BE38BD10B588B0044632
:107DD000684602F099F8694604A802F0E0F804A8A1
:107DE000A047044604A802F044F8684602F041F8AF
:107DF000204608B010BD1FB50023CDE90201019255
:107E000010241A4669461846ADF80230ADF8004015
:107E1000FFF714FE04B010BD73B50E46044656F8C5
:107E2000043B00930D4601A83146FFF72EFF019A4F
:107E3000009B6260236001A8002301930093FCF77C
:107E400099FA3046FCF796FA2846082102F034FEEB
:107E5000204602B070BD13B50B460246D0E90001C2
:107E60006C4684E8030093E8030082E8030094E88A
:107E7000030083E8030002B010BD826810B50AB9A0
:107E800002F020FEBDE81040C368184708B500683E
:107E900000F11001FFF7F1FF08BD826810B50AB9C3
:107EA00002F010FEBDE81040C368184708B500682E
:107EB00000F11001FFF7F1FF08BD000038B5002305
:107EC0000446036010200D46FCF7E5F828B10123B5
:107ED000C0E90133024B0360C5602060204638BD15
:107EE00004C80D0038B5002383608B6804460D4636
:107EF0002BB102229847EB68E360AB68A360204691
:107F000038BD0000F0B589B004686846FFF726FF69
:107F10004FF00203D4E84F2F002A03D1C4E8413FB9
:107F20000029F7D125D104F10C0569462846FFF751
:107F300015FFBFF35B8F01236370002004F108037A
:107F4000BFF35B8F53E8006F43E80002002AF9D1CA
:107F5000BFF35B8F6EB1FFF721FD78B12946304644
:107F6000FFF78BFF3046FEF714FC1021304602F07D
:107F7000A3FD6846FFF7FFFE09B0F0BD314602A839
:107F8000FFF7B0FFE068B4F9105008B103F04EFEFF
:107F900006901020ADF81C50FCF77DF80546E8B1BE
:107FA000002787601820FCF776F8044688B1014660
:107FB000876002A8FFF74FFF049BA268A360059BA0
:107FC000049206A9E268E36004F110000592FFF74D
:107FD000C5FE084BEB60084B2C60AB6006A8FFF7B2
:107FE000CAFE02A8FEF7D5FB002229460348FFF788
:107FF000DDFCB7E78D7E0D0025810D00637C0D0053
:108000002DE9F0478AB005469DF848900C46174682
:108010009846FFF72BFD07AE824638BB4FF62E730E
:10802000059005A93046ADF81830FFF797FE1420EB
:10803000FCF731F8044648B1022303700123C0E97C
:1080400001AA437031460C30FFF788FE28462146CE
:1080500040F8044BFFF732FF3046FFF78CFE05A8CF
:10806000FFF789FE28460AB0BDE8F0870C234FF0E1
:10807000000A1420CDE908AA0793FCF70CF8014682
:1080800028B1C0E901AA80F800A080F801A004A8E6
:108090000391FFF713FF224B08930820FBF7FBFF28
:1080A000824628B1039B40F8043B04A9FFF7EDFD8D
:1080B00000965FFA89F3424639462046CDF824A05F
:1080C000FFF7DCFCB8B9039B5B7803F0FF0293B9C0
:1080D0004FF69C7305A903A80592ADF81830FFF779
:1080E00011FF05A8FFF747FE05A80999FFF794FEC1
:1080F00006A8FCF73FF9039B059304A906A8FFF720
:10810000C4FD059B069A2B606A60002306A80693AF
:108110000593FCF72FF904A8FCF72CF9A2E700BFA0
:10812000E9810D00022AF8B5054607D0032A18D0C8
:10813000012A01D10B6803600020F8BD18200E68E9
:10814000FBF7A9FF044650B13146FFF7CBFE30697B
:10815000B6F9147008B103F069FD2061A7822C60A4
:10816000EAE70468002CE7D004F11000FFF703FEF3
:108170002046FEF70EFB1821204602F09DFCDBE7AF
:1081800038B5002383608B6804460D462BB102226C
:108190009847EB68E360AB68A360204638BD022ACD
:1081A00070B5044607D0032A12D0012A01D10B680A
:1081B0000360002070BD14200E68FBF76CFF0546BD
:1081C00020B13146FFF7DCFF337C2B742560F0E7EC
:1081D0000468002CEDD02046FEF7DBFA142120467F
:1081E00002F06AFCE5E70000F0B589B004460D46F0
:1081F00001A81146FFF710FEA4B124B21DB1284614
:1082000003F014FD054601A803A90395ADF810403D
:10821000FFF778FE03A8FFF7AEFD02A8FCF7AAF867
:1082200009B0F0BD019D0123D5E84F2F002A03D1ED
:10823000C5E8413F0029F7D1EFD12B73BFF35B8F26
:108240006B702B1DBFF35B8F53E8006F43E8004258
:10825000002AF9D1BFF35B8F002EDED02046FFF756
:108260009DFB074660B105F10C013046FFF715FE96
:108270003046FEF78EFA1021304602F01DFCCCE7A6
:10828000314603A8FFF77CFF2B7B8DF81C301020B4
:10829000FBF701FF0546D0B187601420FBF7FBFE1A
:1082A000044678B18760014603A8FFF7D4FD059B1B
:1082B000A268A360069B0592E268E3609DF81C300B
:1082C00006922374064BEB60064B2C60AB6003A850
:1082D000FEF75FFA002229460348FFF767FBC7E76E
:1082E000AD7E0D009F810D00637C0D000022406873
:1082F0001146FFF71BBC002240681146FFF726BC61
:1083000040680022FFF71ABC4068002281F001019A
:10831000FFF704BC002340681A461946FFF7F6BB76
:10832000002340681A461946FFF7E8BB0022406860
:108330001146FFF7DBBB002240681146FFF7C6BBC2
:10834000406800220221FFF7C9BB002340681A469B
:10835000FFF7B4BB024B03225A60024A1A6070470F
:1083600028E6032020C80D00090941EA001107EEA4
:10837000901AB8EEE70ADFED027A80EE270A70471E
:1083800000004844006800F00DB910B504460160D3
:1083900002710AB1FFF7F6FF204610BD13B504467F
:1083A000019102F065FB019A01462046FFF7EDFFBF
:1083B000204602B010BD006800F0FDB82DE9FF4175
:1083C00004460D4617461E46FFF7DCFF36238DF8A0
:1083D00000300023206801934FF001080A2369460A
:1083E00003938DF8088000F0BAF8206803682946E6
:1083F0009B6898472068414600F0C9F8054640B19F
:108400006FF09F052046FFF7D6FF284604B0BDE871
:10841000F081022320680193694600F06DF802287C
:10842000EED1206803685B6998473870206803685C
:108430005B6998473070E5E707B500238DF8063093
:108440008DF807300DF106020DF107030221FFF749
:10845000B5FF40B99DF807109DF8060003B05DF820
:1084600004EBFFF781BFBFEE000A03B05DF804FB29
:108470007047F8B5064615460C468F18BC4206D024
:10848000336814F8011B9B6830469847F6E7284686
:10849000F8BD007C0022FFF7EFB8007C0021FFF759
:1084A000F3B8007C0021FFF7F7B8007C0021FFF74C
:1084B000FBB8007C0021FFF7FFB810B5142104467B
:1084C00002F0FAFA204610BD10B54FF47A73044654
:1084D00008460021C4E90113034B236020741146B0
:1084E000FFF7FAF8204610BD5CC80D000023007CA1
:1084F0001A461946FFF7A8B87FB500221423CDE924
:108500000122ADF804300B788DF808304B680393E6
:10851000CB680493007C0B7A059301A9FFF7F4F86C
:1085200007B05DF804FB1FB5003B8DF800104FF05D
:108530006401039118BF0123694601928DF8083048
:10854000FFF7DAFF05B05DF804FB0123FFF7EBBF8F
:10855000007C0022FFF780B8C9B2FFF7F9BF7FB5F2
:108560000023CDE901334A6803921423CA68ADF8A9
:1085700004300B7804920A7A0592007C8DF808305A
:1085800001AA1946FFF768F807B05DF804FB007C04
:108590000022FFF769B80121FFF7F9BF007C002135
:1085A000FFF792B808B50021007CFFF79DF8B0FAFC
:1085B00080F0400908BD08B50021007CFFF79CF859
:1085C000B0FA80F0400908BD004700002DE9FF41E6
:1085D00000241D460F4690460646FFF725F8A542A3
:1085E0004FF00403ADF80D408DF80C308DF80F40BE
:1085F000A2BF9DF828308DF80E3003AC07490094D7
:1086000043463A463046A8BF8DF80D50FFF704F8B0
:10861000B0FA80F0400904B0BDE8F081C9850D00D2
:10862000704710B51821044602F046FA204610BDE6
:10863000F0B5037D062B8DB00E4600F104074FF018
:10864000000412D000F1080515F8011D0A22304679
:1086500001F0FEFAAF42044419D0002CF4D02E21D0
:10866000304601F0E6FA0444EEE72F236A46394625
:108670000A208DF80040FFF74FF8684603F0F3FA40
:1086800033680246DB686946304698470446204610
:108690000DB0F0BD10B5054B0446112240F8043B67
:1086A000002103F06DFA204610BD00BF84C80D0004
:1086B0000346074A10B543F8042B01F1100251F8A4
:1086C000044B43F8044B9142F9D10A781A7010BD5B
:1086D00084C80D0010B59DF8084044EA032343EA1E
:1086E000024242EA016104234160037510BD13B5E3
:1086F000CB7800938B784A780978FFF7EBFF02B0CC
:1087000010BD00F11003012213F8101C01291846B6
:1087100008D153F8041C02EB4102013A03F11003A3
:10872000F2D17047022904BF53F8041C5218F4E731
:108730000EB4F0B588B000AF07F13405102155F83C
:10874000042B7A6004462B467818FD60FFF73EFA4A
:108750000F287A681AD900F1080323F007036E4640
:10876000ADEB030D411C2B466846FD60FFF72EFA6A
:10877000021E04DD236869469B6820469847B5467B
:108780002037BD46BDE8F04003B070470028F7D061
:10879000236802469B6807F1100120469847EFE7DF
:1087A00010B5036804469B689847A368013BA36023
:1087B0002BB923682046DB68BDE81040184710BD80
:1087C00007B503688DF807109B6801220DF10701BA
:1087D000984703B05DF804FB38B50B6803604D683B
:1087E00043689D4204460CD015B16B6801336B6041
:1087F000606828B14368013B43600BB9FFF7D0FFC5
:108800006560204638BD0B461146002210B5C0E910
:108810000022044683600BB9204610BDFFF7DCFF41
:10882000FAE78368EBB11A78032A1AD8DFE802F076
:108830000417021B0520704702685B685268D05C11
:108840002D2812D0A0F13003092B0ED974280ED098
:1088500066280CD0A0F16E0358425841704706209C
:1088600070470020704704207047032070470220A3
:10887000704710B50446FFF7D4FF02280ED0C31E80
:10888000DBB2012B14D82268A36850685B68BDE88E
:1088900010400A220021184403F0A0BA2268A368FD
:1088A00052685B68D05CA0F174035842584110BD17
:1088B0000020FCE738B50023C0E9003304460E4829
:1088C000C4E90203A9B10B78032B06D08BB9136856
:1088D00058684B68C35C6E2B07D013684D685868A6
:1088E0008B6828445B1BA060E36011462046FFF7BD
:1088F00073FF204638BD00BFF0C80D0038B5002515
:108900000B46C0E90055C0E90255C0E904550446CC
:1089100011464BB11A78012A06D103F11002DB6827
:1089200082604361FFF758FF204638BD10B54369A8
:10893000044663B18068E060013B1030A0602061B4
:10894000636113B1FFF7DDFEA060012000E018466F
:1089500010BD10B57D210446FFF732FF01232371BE
:10896000204610BD08B50379012B02D0022B04D09C
:1089700008BD2C21FFF724FFFAE73A21FAE710B5EA
:108980000446FFF7EFFF20467B21FFF719FF002386
:108990002371204610BD000013B504460191FFF776
:1089A000E1FF2368019ADB680349204698470123C9
:1089B0002046237102B010BD5FC00D0013B5044600
:1089C0000191FFF7CFFF2368019ADB680349204636
:1089D000984701232046237102B010BD97C60D00B1
:1089E0002DE9F0410D4617462221DFF8A08004460C
:1089F0002F44FFF7E5FE2946BD422A4638D015F838
:108A0000016B222E03D05C2E01D01F2EF4D82368D8
:108A1000521A9B68204698475C212046FFF7D0FEFB
:108A20000D2E0AD8072E1CD9A6F10803052B18D83D
:108A3000DFE803F00D0F11171315222E01D05C2E65
:108A40000FD131462046FFF7BBFE2946D4E762210D
:108A5000F8E77421F6E76E21F4E76621F2E7722168
:108A6000F0E723683246DB68414620469847ECE74A
:108A70008D4204D023686A1A9B68204698472221B9
:108A80002046FFF79DFEBDE8F08100BF90C80D00B5
:108A900013B50446CDE90021FFF764FF2046DDE968
:108AA0000021FFF79DFF02232046237102B010BD75
:108AB00013B50446CDE90021FFF754FF2046DDE958
:108AC0000021FFF78DFF01232046237102B010BD66
:108AD00080680368DB6818477047084611B10B6867
:108AE0005B6818477047704770477047704738B5E4
:108AF00004460D4600682E2103F07BF82368C31A54
:108B00002B6023B1037803B101302368206018463D
:108B100038BD10B50C21044601F0CEFF204610BD33
:108B200010B50421044601F0C7FF204610BD10B562
:108B30000421044601F0C0FF204610BD08B503F033
:108B400062F8B0FA80F0400908BD704710B50C46D5
:108B500001F0DEFD844210D001F038FD844205D1E1
:108B600001F034FDBDE8104001F02DBD2CB12368AB
:108B700020465B68BDE81040184710BD13B5044699
:108B80000846019103F06FF801990246204602B0B1
:108B9000BDE81040FFF78CBF13B5044608460191AD
:108BA00003F061F823680199DB680246204602B0B1
:108BB000BDE81040184707B503688DF80710DB685B
:108BC00001220DF10701984703B05DF804FB0EB4D4
:108BD00003B503AB002153F8042B006A019301F0A5
:108BE00055F802B05DF804EB03B070472DE9F74F7C
:108BF000D0E900954FF0140808FB05F50093AB1081
:108C0000184D17465D434C46002D23DD6E1008FBC2
:108C100006F004EB000A3A46BAF804B02058019175
:108C20005F4528BF5A4603F026F80199012378B919
:108C30005F4503D1009A13703546E5E78CBF0120EC
:108C400000200028F8D0AE1B0AF11404013EF3E71F
:108C5000C00FF6E7A4EB09040248A410604303B078
:108C6000BDE8F08FCDCCCCCC7FB50369067E0191F9
:108C70000BB301B3002500F10C04039503A901A86F
:108C8000FFF735FF0146B0B10DF10B03039A8DF8E4
:108C90000B502046FFF7AAFF9DF80B305BB124680C
:108CA000142303FB004000F10804B0F90630002B48
:108CB000A8BFDEB2E2E7304604B070BD10B5094C83
:108CC0002378BFF35B8FDB0709D42046FBF7F4F969
:108CD00028B12046FBF7F5F9034802F011FF0348DD
:108CE00010BD00BF34E60320E78A0D0088E20320B0
:108CF00010B5094C2378BFF35B8FDB0709D42046FE
:108D0000FBF7DAF928B12046FBF7DBF9034802F05C
:108D1000F7FE034810BD00BF38E603204B8B0D0063
:108D20008CE2032038B500250446C0E90055C0E9AF
:108D300004558560856140F8245FFEF7F5FBFFF779
:108D4000BDFFE061FFF7D4FF25732062204638BDE8
:108D500010B50A4C2378BFF35B8FDB070CD4204699
:108D6000FBF7AAF940B10648FFF7DCFF2046FBF706
:108D7000A8F9044802F0C4FE014810BD30E6032003
:108D800040E6032031920D00024A034903480023C4
:108D9000FEF7D2BDB9900D0045900D00C58F0D00B6
:108DA00000231A4619461846FEF7C6BD37B50D69A9
:108DB00051F8043B0093044601A8FEF766FF6A469B
:108DC00029462046FFF71FFD01A8FBF7D3FA2046EE
:108DD00003B030BD37B58D6851F8043B00930446AD
:108DE00001A8FEF752FF6A4629462046FFF786FD96
:108DF00001A8FBF7BFFA204603B030BD37B5CD68F8
:108E000051F8043B0093044601A8FEF73EFF6A4672
:108E100029462046FFF74EFD01A8FBF7ABFA204696
:108E200003B030BD70B58AB00D46014604A8FFF707
:108E3000D1FF144E04A8FFF779FDE8B104A96846F4
:108E4000FFF7DCFF02983146FFF778FE044610B1C9
:108E50002C1E18BF012401A8FBF78CFA002CE9D0C6
:108E600004A96846FFF7A2FF6846FFF702FD2860E5
:108E700001A8FBF77FFADDE705A8FBF77BFA0AB04C
:108E800070BD00BF96C80D0037B50C46204612498C
:108E9000154602F0B8FE48B901F03AFC4FF41651FD
:108EA00001F026FC01F034FC03B030BD0B49204634
:108EB00002F0A9FE70B94FF4165301A92846019398
:108EC000FFF7B0FF01F082FB019901F079FB01F09F
:108ED0007DFBE9E70020E7E79BC80D00A2C80D0075
:108EE00070B5D0E900531426044606FB0356AE4283
:108EF00005D005F10800FFF7F3FF1435F7E7206808
:108F0000FEF744FE204670BD70B5D0E9005304461C
:108F100005EB0316AE4204D0284600F0AAFF103538
:108F2000F8E72068FEF732FE204670BD10B5044613
:108F30000C30FFF7D5FF2046FFF7E6FF204610BDB7
:108F400010B5044B044640F8043BFFF7EFFF204602
:108F500010BD00BF30C50D0010B50446FFF7F0FF8F
:108F60002046242101F0A8FD204610BD10B5034B7A
:108F700003600446FFF7E4FF204610BD40C90D0022
:108F800010B50446FFF7F2FF2046242101F094FDBE
:108F9000204610BD0022C0E9002210B582600C6896
:108FA00004604C6844608C680A604A6084608A602F
:108FB00010BD10B5036804461868FEF7CDFA2046C8
:108FC00010BD00002DE9F04F87B0804603931C4B85
:108FD0005B68C3F30803894616466BB9FFF7B8FE12
:108FE000044600F12403406A0593FEF7ADFA237BA3
:108FF0002BB105A8FFF7DDFF07B0BDE8F08F012317
:109000002373D4E900535FFA89F905EB830AAA4573
:1090100012D055F8047B3146381DFFF725FE8145F7
:10902000F5D33B68039A0092D3F808B04A4633461A
:1090300041463846D847EAE700232373D9E700BF03
:1090400000ED00E02DE9F74F9B461A4B5B68C3F338
:1090500008038046894616466BB9FFF779FE044639
:1090600000F12403406A0193FEF76EFA237B2BB1D3
:1090700001A8FFF79EFF03B0BDE8F08F0123237323
:10908000D4E90053F6B205EB830A55450ED055F8E6
:10909000047B5946381DFFF7E7FD8642F5D33B6850
:1090A0004A46DB68414638469847EEE7002323737B
:1090B000DEE700BF00ED00E02DE9F341164B5B68F1
:1090C000C3F3080305460F461BBBFFF741FE00F143
:1090D00024030446406A0193FEF736FAD4E900639C
:1090E000462406EB8308B04509D101A8FFF761FFCC
:1090F000A542B4BF0020012002B0BDE8F08156F8BF
:10910000040B39460430FFF7AFFD8442A8BF044684
:10911000E9E70020F0E700BF00ED00E070B504468D
:10912000D0E900020B4600EB8202824207D00146E2
:109130001D6851F8046BAE4203D00846F5E70020E5
:1091400070BD521A02F002FD6368013B63600120AA
:10915000F6E71FB500F124030446406A019103932A
:10916000FEF7F2F901A92046FFF7D8FF18B16368AE
:109170000BB9FFF715FE03A8FFF71BFF04B010BDE6
:1091800070B5D0E904561823044603FB0656AE42D8
:1091900015D005F110012046FFF7C0FF63680BB939
:1091A000FFF7FEFDE06929690368DB689847696994
:1091B00019B1206A0368DB6898471835E7E7D4E9F6
:1091C0000453182606FB0356AE4204D0284600F08E
:1091D00050FE1835F8E70023636170BD73B504468F
:1091E000FFF7DEFD04F12403606A0193FEF7ACF99A
:1091F0002046FFF7C5FF01A8FFF7DBFE606A08B154
:10920000FEF79AF9D4E90453182606FB0356AE423A
:1092100004D0284600F02DFE1835F8E72069FEF747
:10922000B5FC2068FEF7B2FC204602B070BD00001D
:109230000148FFF7D3BF00BF40E603208842F8B5DE
:1092400006460C46154627D9904226D2A2F11405AF
:109250006C1AA1F1140704440026AF423DD0A4B11A
:109260002B682360AB88A380B5F90630E380C4E99E
:1092700002662661AB68A360AE60E368EA68E260FC
:10928000EB6023692A6922612B6105F10800FFF771
:1092900027FE143D143CE0E71FD00027AC421CD051
:1092A000A6B123683360A388B380B4F90630F38095
:1092B000C6E902773761A368B360A760F368E26824
:1092C000F260E360336922693261236104F10800CE
:1092D000FFF706FE14341436E0E7F8BDF8B5D0E920
:1092E00001539D4204460E4617460DDB0135002D05
:1092F000006804DDA900FEF751FC18B9F8BDFEF7BF
:1093000045FC00202060A5602568626805EB8601A9
:109310009200A2EB8602081D02F018FC45F82670A8
:109320006368013363600120E8E737B500F1240387
:109330000446406A01930D46FEF706F9D4E9003170
:1093400003EB810083421A460BD01268AA4203F154
:109350000403F7D101A8FFF72CFE0025284603B02F
:1093600030BD2A462046FFF7B9FF05460028F1D058
:109370006368012B01D1FFF707FD01A8FFF719FE74
:10938000ECE78842F8B504460D46164614D99042DB
:1093900013D2A2F11006751AA1F110072C44B7429E
:1093A00018D01CB13146204600F0DFFD304600F0F9
:1093B00060FD103E103CF2E70CD0B5420AD01CB163
:1093C0002946204600F0D1FD284600F052FD103518
:1093D0001034F2E7F8BD70B50E1E054611DD300100
:1093E000FEF7CCFB044658B1D5E9001201EB02129E
:1093F000FFF7C7FF2868FEF7C9FB2C60AE600120AD
:1094000070BD0024F6E72DE9F04F914697B0002398
:109410000391D9F804100C9346229942C0E9003315
:10942000C0E90233C0E90433CDE90A3304460276C9
:1094300023DCD9E90057142303FB0757AF423BD085
:1094400029460DA800F091FD0DA911A80B9E00F072
:109450008CFDDDE90B1399421BDA0A9B0B9A03EB97
:10946000061603EB0212314606F11000FFF789FFE2
:10947000EEB90B9B01330B9311E00AA8FFF7ABFF8A
:109480000028D6D10AA8FFF73FFD204617B0BDE857
:10949000F08F01310AA8FFF79EFF0028DDD111A847
:1094A00000F0E7FC0DA800F0E4FC1435C6E711A9B4
:1094B000304600F05AFDDCE70026CDE90D660F9638
:1094C00037464FF0140ADDE90A239E4280F2978066
:1094D0003301D35808930BB90136F4E70AFB06F3BE
:1094E000099702930DAD09A908A8FFF700FB834671
:1094F0000028F1D00146099A8DF81F700DF11F0365
:109500002846FFF773FB9DF81F800190B8F1000F0C
:1095100066D1BDF82430ADF84830CDE913884FF658
:10952000FF73CDF844B0ADF84A30CDF85480D5E99A
:10953000013293421ADB03F1010BBBF1000F4ADD4C
:109540000AFB0BF0FEF71AFB0490002845D0D5E982
:1095500000120AFB0212FFF771FE049B28680493B5
:10956000FEF714FB049B2B60C5F808B0019BD5F8EF
:1095700000B06A680AFB03F30BEB030101F114006E
:109580000AFB02B204910593FFF758FE0499A9B1B2
:10959000059B119A4BF80320BDF848308B80BDF92C
:1095A0004A30CB80C1E902770F61139B8B60149B1B
:1095B0001397CB60159B14970B6115976B6801335C
:1095C0006B6013A8FFF78CFCB8F1000F08D00DA852
:1095D000FFF786FC56E74346C0E74FF00108F0E787
:1095E000019B2D680AFB0355089B1B782BB9D9F802
:1095F0000030029A13441B7CEB80083573E7216826
:10960000226062686360A3680B920C9A0C93E36813
:10961000A2600D9A0D932369E2600E9A0E9363691E
:1096200022610F9A0F93039B0A9162612376CEE722
:109630007FB50546094B45F8043B04460E4601A894
:109640001146FCF70BFA01AA31462846FFF7DBFE6C
:1096500001A8FAF7F3FF204604B070BD30C50D0035
:10966000F0B50F4687B026490C9C384616461D4675
:1096700002F0C9FA00BBE4B129466846FFF78AFC4C
:109680002049242001F01AFA054670B1694603A862
:10969000FCF7E4F903AA31462846FFF7C9FF03A8FF
:1096A000FAF7CCFF184B2C622B606846FAF7C6FF1E
:1096B0002C46204607B0F0BD1449384602F0A3FA04
:1096C000E0B9002CF5D029466846FFF763FC0D4948
:1096D000242001F0F3F905460028E6D0694603A8E6
:1096E000FCF7BCF903AA31462846FFF7A1FF03A8FF
:1096F000FAF7A4FF064B2B602C62D6E70024D8E7CC
:10970000AAC80D007CCA0D0040C90D00AEC80D00EE
:1097100028C90D00014B024A1A6070473CE603203D
:10972000BFC80D002DE9F047089DD0F820900446F1
:109730000E461746984600F0EBFF81454CD02B793A
:10974000190704D56A6954492046FFF740FAB8F171
:10975000000F0DD05B212046FFF72DFA4146204631
:10976000FFF71AFA23684D49DB6802222046984722
:109770002B79DA0723D5D5F808802F21404602F04F
:109780009FFA08B100F1010841462046FFF704FAAC
:109790002B799B0708D53A212046FFF70CFAEA6897
:1097A0003F492046FFF713FA2A79236812F0040F85
:1097B000DB6814BF3B493C490222204698472B797D
:1097C00058071DD529690B461A4613F8010B60B1DD
:1097D000202808D11946F7E7344800F066F9002838
:1097E000ADD0BDE8F0872828EED12368521ADB6897
:1097F0002046984723682E49DB6804222046984774
:1098000000213846FEF790F801462046FFF7C4F9DC
:1098100023682549DB680222204698471EB131465D
:109820002046FFF7B9F92B7913F0300F2CD02368BD
:109830002049DB680222204698472B79D9060AD5B1
:1098400023681D49DB68072220469847AA691B49FF
:109850002046FFF7BCF92B799A0611D5DB0605D512
:1098600023681049DB680222204698472368144980
:10987000DB6820460A229847E9692046FFF78CF901
:109880005D212046FFF797F923680E49DB682046E3
:109890000222BDE8F0471847C3C80D00CAC80D0032
:1098A0005FC00D00CDC80D00D2C80D0068E60320D2
:1098B000D0C80D00D5C80D00D8C80D00E0C80D00F7
:1098C000E3C80D00EEC80D002DE9F04385B0D0F8D7
:1098D00020900C9C05460F4690461E4600F018FF4F
:1098E000814505D1494800F0E0F8002840F08A8021
:1098F0002B6A474A01924FF0000901A803938DF8A3
:109900000890FFF73CF849464046FEF70DF84149FC
:109910008046012201A8FFF7BBF84146FFF72EF968
:109920003FB13D49012201A8FFF7B2F83946FFF7E0
:1099300025F93EB13949012201A8FFF7A9F83146BE
:10994000FFF71CF92379DF070ED5A6682F213046D3
:1099500002F0B6F900B1461C3149012201A8FFF717
:1099600097F83146FFF70AF923799E0707D52D4965
:10997000022201A8FFF78CF8E168FFF70DF82379C0
:10998000580714D5266933461F4613F8012B2AB110
:10999000202A01D11E46F7E7282AF5D122490222C2
:1099A00001A8FFF775F8BA1B3146FFF781F8237954
:1099B000190707D51D49012201A8FFF769F8616958
:1099C000FEF7FCFF2379DA0608D5042218490DEBCF
:1099D0000200FFF75DF8A169FEF7DEFF23799B0621
:1099E00007D51449062201A8FFF752F8E169FFF7ED
:1099F000C5F801A8FEF7ADFF286A0F4903680222E7
:109A0000DB68984705B0BDE8F08300BF68E6032037
:109A100010C90D00A0C80D0097BF0D004CC40D006B
:109A2000F1C80D00F3C80D00F6C80D00A1C50D006A
:109A3000F9C80D00FEC80D00EEC80D0000234068F7
:109A40001A46FEF73BB8406800220221FEF746B8EE
:109A5000002240681146FEF739B8002240681146DE
:109A6000FEF744B8002340681A461946FEF746B888
:109A7000002340681A461946FEF748B8406800219E
:109A8000FEF76CB840680021FEF770B8406800220D
:109A900081F00101FEF742B840680022FEF74EB89F
:109AA000002240681146FEF751B800224068114676
:109AB000FEF73CB82DE9F043002495B016460D465C
:109AC0000746FEF7E7FD214618220EA8009402F093
:109AD00057F84023CDE90C3421466B460CAA30469A
