:02000002D0002C
:1040000000400D0038630D00000006000E000501A1
:084010000401EB0500000000B3
:04401800F45E0D0045
:10401C0009480A49884208B505D0094A824202D0AB
:10402C00121A01F0F9FE0748074A0021121A01F092
:10403C00FEFE014808BD00BF04E40320A4620D008D
:10404C0070E4032070E40320F0E7032070B501F066
:10405C009FFC074C074BE41AA40800251E46A542FA
:10406C0004D056F8253098470135F8E770BD00BFED
:10407C009C620D0068620D0000F02CB808B500F0D1
:10408C00A5F8BDE8084001F045BC00F0A3BB00F06A
:10409C00A9BB00F0A7BB0078B0FA80F040097047CC
:1040AC000123037070470EB400B58CB00DAA202309
:1040BC0052F8041B03928DE8060004930168002358
:1040CC0004AA1E20059300F0D9FA0CB05DF804EB9D
:1040DC0003B0704708B501F0D1FB4FF4165101F055
:1040EC00C1FB0121072001F0B5FC0021132001F0D8
:1040FC00B1FC00210320BDE8084001F0ABBC00007E
:10410C0010B5084C00F0BAF92368C01A40F2DB5322
:10411C00984204D900F0B2F92060012010BD0020B3
:10412C0010BD00BFD4E4032030B5044685B00D4665
:10413C00FFF7E6FFF0B1FFF7E3FF114B21681B78A7
:10414C008DF800302A683C2302A800F02DFD039C5A
:10415C009CB16368013B63607BB9236820469B6814
:10416C009847A368013BA3603BB923682046DB68F2
:10417C00984702E000F0BEFADAE7002005B030BD47
:10418C00BCE403207FB504460D461E468AB10146A9
:10419C00684601F0C7F90B49684601F002FA294656
:1041AC0001F0F3F901680848FFF77DFF684601F05C
:1041BC0050F91EB129462046FFF7B6FF012004B086
:1041CC0070BD00BFB2600D00E4E40320F0B5132015
:1041DC008BB001F050FC6423564A57490093574E5C
:1041EC00126809683060002300F024FB544D2860ED
:1041FC0001F044FB3468002C074604DA2D2101F051
:10420C00D7F8614200E021460A22384601F0DFF877
:10421C00384601F0D0F801F031FB2C68002C074631
:10422C0004DA2D2101F0C4F8614200E021460A2293
:10423C00384601F0CCF8384601F0BDF83368002B55
:10424C0076DD4049404801F078F94049404801F09A
:10425C0074F9404906A801F043F9384B3E491A68F5
:10426C0002A801F0B1F902A906A801F08EF93B49A8
:10427C0001F097F9364901F088F9394901F091F9C3
:10428C000146384801F03FF902A801F0E2F806A80F
:10429C0001F0DFF82C4902A801F044F9314906A8D5
:1042AC0001F040F901231A4606A902A8FFF76AFF9C
:1042BC0006A801F0CEF802A801F0CBF82A49224852
:1042CC0001F03BF92949224801F037F9214906A8A8
:1042DC0001F006F92A68204902A801F075F902A933
:1042EC0006A801F052F91D4901F05BF9184901F0DB
:1042FC004CF91B4901F055F901461A4801F003F934
:10430C0002A801F0A6F806A801F0A3F80E4902A82D
:10431C0001F008F9134906A801F004F906A902A84E
:10432C00FFF702FF06A801F094F802A801F091F83B
:10433C000BB0F0BD04E40320D0E4032074E40320AC
:10434C0078E40320085F0D00C0E403201F5F0D001C
:10435C008CE403203C5F0D00495F0D004C5F0D00A9
:10436C005B5F0D009CE403205E5F0D00805F0D0021
:10437C00F8B5204B204F214E214D01241C7000F02C
:10438C0085F8204600211F4C00F088F9394630464C
:10439C0001F0A6F830461C4E2A46214601F0C2FB1D
:1043AC003946304601F09CF8184F3046184E2A46D4
:1043BC00214601F0B7FB3146384601F091F83846FA
:1043CC00144F2A46214601F0ADFB3146384601F028
:1043DC0087F83846104F2A46214601F0A3FB314698
:1043EC00384601F07DF82A4621463846BDE8F840AB
:1043FC0001F098BBBCE403209D5F0D007CE403201E
:10440C0070E403205F540D00ACE40320C0E40320EF
:10441C00D0600D008CE403209CE4032008B5024B13
:10442C001B689B68019308BD4802030008B5024B4A
:10443C001B681B69019308BD4802030008B5024BB9
:10444C001B685B69019308BD4802030008B5024B69
:10445C001B685B6C019308BD4802030008B5024B56
:10446C001B689B6C019308BD4802030008B5024B06
:10447C001B685B68019308BD1802030008B5024B6A
:10448C001B685B69019308BD1802030008B5024B59
:10449C001B681B68019308BD2C02030008B5024B76
:1044AC001B685B68019308BD2C02030008B5024B26
:1044BC001B689B68019308BD2C02030008B5024BD6
:1044CC001B681B6B019308BD2C02030008B5024B43
:1044DC001B681B6A019308BD2802030008B5024B38
:1044EC001B685B6A019308BD2802030008B5024BE8
:1044FC001B689B6A019308BD2802030008B5024B98
:10450C001B68DB6A019308BD2802030008B5024B47
:10451C001B681B6B019308BD2802030008B5024BF6
:10452C001B685B6B019308BD2802030008B5024BA6
:10453C001B681B6C019308BD2802030008B5024BD5
:10454C001B685B69019308BD6402030008B5024B4C
:10455C001B689B68019308BD6802030008B5024BF9
:10456C001B68DB68019308BD6802030008B5024BA9
:10457C001B68DB69019308BD3002030008B5024BD0
:10458C001B681B6A019308BD3002030008B5024B7F
:10459C001B681B68019308BD3C02030008B5024B65
:1045AC001B68DB68019308BD3C02030008B5024B95
:1045BC001B681B69019308BD3C02030008B5024B44
:1045CC001B685B69019308BD3C02030008B5024BF4
:1045DC001B689B69019308BD3C02030008B5024BA4
:1045EC001B68DB69019308BD3C02030008B5024B54
:1045FC001B681B6A019308BD3C02030008B5024B03
:10460C001B689B6A019308BD3C02030008B5024B72
:10461C001B681B68019308BD4C02030008B5024BD4
:10462C001B685B68019308BD4C02030008B5024B84
:10463C001B681B69019308BD4C02030008B5024BB3
:10464C001B685B69019308BD4C02030008B5024B63
:10465C001B689B69019308BD4C02030008B5024B13
:10466C001B68DB69019308BD4C02030008B5024BC3
:10467C001B681B6A019308BD4C02030008B5024B72
:10468C001B685B6D019308BD6002030008B5024B0B
:10469C001B685B68019308BD2002030008B5024B40
:1046AC001B68DB6A019308BD2002030008B5024BAE
:1046BC001B68DB6C019308BD2002030008B5024B9C
:1046CC001B685B6D019308BD2002030008B5034B0A
:1046DC001B68D3F88830019308BD0000200203004A
:1046EC0008B5034B1B68D3F89430019308BD000048
:1046FC002002030008B5024B1B689B68019308BDA0
:10470C004402030008B5024B1B685B69019308BDAA
:10471C004402030008B5024B1B681B6A019308BDD9
:10472C004402030008B5024B1B68DB6B019308BD08
:10473C004402030008B5024B1B685B68019308BD7B
:10474C004002030008B5024B1B689B68019308BD2F
:10475C004002030008B5024B1B68DB68019308BDDF
:10476C004002030008B5024B1B681B69019308BD8E
:10477C004002030008B5024B1B685B69019308BD3E
:10478C004002030008B5024B1B689B69019308BDEE
:10479C004002030008B5024B1B68DB69019308BD9E
:1047AC004002030008B5024B1B681B6A019308BD4D
:1047BC004002030008B5024B1B681B6B019308BD3C
:1047CC004002030008B5024B1B685B6B019308BDEC
:1047DC004002030008B5024B1B681B68019308BD1F
:1047EC001C02030008B5024B1B685B68019308BDF3
:1047FC001C02030008B5024B1B689B68019308BDA3
:10480C001C02030008B5024B1B685B6A019308BDD0
:10481C001C02030008B5024B1B68DB6A019308BD40
:10482C001C02030008B5024B1B681B6B019308BDEF
:10483C001C0203008A4230B507D0039D441AED1ABE
:10484C006C43521A94FBF2F4E01830BD10B5836837
:10485C0004460BB901F087F9C3689847A3681BB1EC
:10486C00032221462046984720461021BDE81040DF
:10487C0001F05DB910B50446006808B1FFF7EEFD14
:10488C00204610BD10B5036804469B689847A36882
:10489C00013BA3602BB923682046DB68BDE81040C0
:1048AC00184710BD0B68036013B15A6801325A6087
:1048BC00704710B50446006828B14368013B43605B
:1048CC000BB9FFF7DFFF204610BD000010B5064CFA
:1048DC00002320462360FFF7B9FD2046034A044914
:1048EC00BDE8104001F01EB9D8E4032070E40320A9
:1048FC0081480D0070470020704710B51021044608
:10490C0001F015F9204610BD08B508B1FFF7F5FF09
:10491C0008BD10B58368044613B1032201469847BD
:10492C00204610BD0022026010B54FF69C728280AA
:10493C00B1F9044084808A8002680C6804600A60C3
:10494C0010BD10B504460068FFF74CFF204610BDA3
:10495C0038B5C468F4B12378022B03D104F10C00F0
:10496C00FFF7EFFF656835B12846FFF7D2FF10213E
:10497C00284601F0DCF8A56835B12846FFF7C9FFD9
:10498C001021284601F0D3F820461421BDE8384008
:10499C0001F0CDB838BD13B5044691E805000023ED
:1049AC004B600B602060626001A801930093FFF7DD
:1049BC0080FF204602B010BDF7B50C4602AD54F88E
:1049CC00043B45F8083D06460F4601A82146FFF773
:1049DC0069FF29463046FFF7DEFF01A8FFF769FFA4
:1049EC002046FFF766FF3846082101F0A0F8304654
:1049FC0003B0F0BD13B50B46044603C88DE80300A5
:104A0C0093E8030084E803009DE8030083E80300B7
:104A1C0002B010BD38B500230446036010200D46CB
:104A2C00FFF733FB28B1012343608360024B036023
:104A3C00C5602060204638BDA85F0D00826810B5A7
:104A4C000AB901F090F8C368BDE81040184708B5E2
:104A5C00006800F11001FFF7F1FF08BD826810B586
:104A6C000AB901F080F8C368BDE81040184708B5D2
:104A7C00006800F11001FFF7F1FF08BD38B5002305
:104A8C0083608B6804460D462BB102229847EB6875
:104A9C00E360AB68A360204638BD0000F0B589B078
:104AAC0004686846FFF73EFF00238DF808304FF08E
:104ABC000202D4E84F3F002B03D1C4E8412F002958
:104ACC00F7D102D08DF8083063E014F10C0503D057
:104ADC0069462846FFF726FFBFF35F8F01236370FB
:104AEC00002004F10803BFF35F8F53E8006F43E825
:104AFC000002002AF9D1BFF35F8F002E49D0FFF7D7
:104B0C00D5FD20B129463046FFF798FF3AE03146F3
:104B1C0002A8FFF7B3FFE068B4F9105008B101F038
:104B2C00BFF906901020ADF81C50FFF7AEFA054601
:104B3C00E8B1002787601820FFF7A7FA044688B170
:104B4C000146876002A8FFF755FF049BA268A3608B
:104B5C00059B049206A9E268E36004F1100005923B
:104B6C00FFF7E0FE0D4BEB600D4B2C60AB6006A825
:104B7C00FFF7E7FE02A8FFF7CCFE00222946094802
:104B8C00FFF79CFD3046FFF7C4FE1021304600F0C5
:104B9C00CEFF6846FFF7D5FE09B0F0BD5B4A0D00AD
:104BAC00D14C0D0059480D002DE9F04F8BB0064645
:104BBC000F46904699469DF850A0FFF7A3FD07AD10
:104BCC00834630BB4FF62E73059005A92846ADF8E9
:104BDC001830FFF7A7FE1420FFF757FA044658B118
:104BEC000223037001234370C0F804B0C0F808B06E
:104BFC0029460C30FFF796FE3046214640F8044B10
:104C0C00FFF708FF2846FFF79CFE05A8FFF799FE63
:104C1C0052E000240C2314206C60AC600793FFF767
:104C2C0034FA014618B1047044704460846004A8DE
:104C3C000391FFF7EFFE224B08930820FFF725FAAC
:104C4C00044628B1039B40F8043B04A9FFF72AFE55
:104C5C0000955FFA8AF34A46414638460994FFF7B5
:104C6C0059FD20B9039B5B7803F0FF0283B1039BD2
:104C7C00059304A906A8FFF715FE05A93046FFF712
:104C8C008AFE06A8FFF715FE04A8FFF712FE13E034
:104C9C004FF69C7305A903A80592ADF81830FFF7E1
:104CAC00FDFE05A8FFF74DFE05A80999FFF784FE48
:104CBC0006A8FFF7FEFDDAE730460BB0BDE8F08F33
:104CCC00414E0D00022AF8B5044606D0032A17D02F
:104CDC00012A22D10B6803601FE018200E68FFF731
:104CEC00D4F9054650B13146FFF7C8FE3069B6F924
:104CFC00147008B101F0D4F82861AF8225600CE083
:104D0C00046854B104F11000FFF71BFE2046FFF7B6
:104D1C0000FE1821204600F00AFF0020F8BD38B52F
:104D2C00002383608B6804460D462BB10222984702
:104D3C00EB68E360AB68A360204638BD022A70B50F
:104D4C00044606D0032A11D0012A18D10B6803603F
:104D5C0015E014200E68FFF798F9054620B131468E
:104D6C00FFF7DDFF337C2B74256008E0046834B159
:104D7C002046FFF7CEFD1421204600F0D8FE00207F
:104D8C0070BD0000F0B5002387B00C46BFF35F8FF9
:104D9C0050E8006F40E80032002AF9D1BFF35F8F72
:104DAC00002E3FD01846FFF781FC074620B1214664
:104DBC003046FFF753FE2EE0314601A8FFF7AFFF58
:104DCC0023788DF814301020FFF75FF90546D0B129
:104DDC0087601420FFF759F9044678B187600146C3
:104DEC0001A8FFF707FE039BA268A360049B039234
:104DFC00E268E3609DF81430049223740A4BEB6074
:104E0C000A4B2C60AB6001A8FFF783FD00222946FA
:104E1C000748FFF753FC3046FFF77BFD1021304667
:104E2C0000F085FE07B0F0BD7B4A0D00494D0D002A
:104E3C0059480D0030B585B004460D4668461146FC
:104E4C00FFF7BAFD7CB124B228460DB101F028F869
:104E5C00029002A96846ADF80C40FFF71FFE02A8AD
:104E6C00FFF76FFD1DE000988DF808404FF0010230
:104E7C00D0E84F3FA34203D1C0E8412F0029F7D11E
:104E8C0002D08DF808300CE010F10C014FF001034A
:104E9C0018BF0373BFF35F8F043000F8033CFFF7B8
:104EAC0071FF01A8FFF705FD05B030BD00221146CA
:104EBC004068FFF777BC002211464068FFF782BCC0
:104ECC0000224068FFF776BC002281F001014068A7
:104EDC00FFF760BC00231A4619464068FFF752BC26
:104EEC0000231A4619464068FFF744BC00221146BD
:104EFC004068FFF737BC002211464068FFF722BC20
:104F0C00002202214068FFF725BC00231A464068A6
:104F1C00FFF710BC024B03225A60024A1A6070471A
:104F2C00DCE40320C45F0D007047F8B50646154657
:104F3C000C468F18BC4206D0336814F8011B9B68D2
:104F4C0030469847F6E72846F8BD0022007CFFF76C
:104F5C00BDBA0021007CFFF7C1BA0021007CFFF72D
:104F6C00C5BA0021007CFFF7C9BA0021007CFFF70D
:104F7C00CDBA10B51421044600F0D9FD204610BD61
:104F8C0010B50446002363604FF47A73A360044B9E
:104F9C002174084623601146FFF7C8FA204610BD5D
:104FAC00F85F0D000021007CFFF7B8BA704710B510
:104FBC001821044600F0BBFD204610BDF0B5037D62
:104FCC00062B8DB00E4600F104074FF0000402D002
:104FDC0000F1080518E00CAD394605F8304D2F23CB
:104FEC002A460A20FFF7AAFA284600F074FF336815
:104FFC000246DB682946304698470FE024B12E2143
:10500C00304600F0D5F9044415F8011D0A2230464B
:10501C0000F0DDF9BD420444F0D120460DB0F0BDE6
:10502C0010B5054B0446112240F8043B002100F05A
:10503C00FEFE204610BD00BF20600D000346074A4F
:10504C0010B543F8042B01F1100251F8044B43F84E
:10505C00044B9142F9D10A781A7010BD20600D00F2
:10506C0010B59DF8084044EA032343EA024242EAA1
:10507C00016104234160037510BD37B50D788B7841
:10508C004A78C97800912946FFF7EAFF03B030BD92
:10509C00014B024A1A607047E4E403209F600D0044
:1050AC00002211464068FFF77DBB00221146406884
:1050BC00FFF788BB00224068FFF77CBB002281F021
:1050CC0001014068FFF766BB00231A4601214068C6
:1050DC00FFF758BB00231A4619464068FFF74ABB36
:1050EC00002211464068FFF73DBB00221146406884
:1050FC00FFF728BB002202214068FFF72BBB0023DF
:10510C001A464068FFF716BB38B5054688B10468E7
:10511C004CB1A3681BB103222146204698471021AD
:10512C00204600F004FD28461421BDE8384000F06C
:10513C00FEBC38BD10B103685B681847704710B5EA
:10514C0003680446BBB15868FFF768F978B923685F
:10515C005A7C12B95868FFF769F923685868FFF749
:10516C006DF920680023236028B1FFF7CDFF20687C
:10517C0008B1FFF7C9FF204610BD38B50446D0F87A
:10518C00C40108B1FEF785FFD4F8C00108B1FFF7E0
:10519C0065F9D4F8BC5135B12846FFF7D0FF04218E
:1051AC00284600F0C4FC206808B1FFF7C3FF204676
:1051BC0038BD000010B5044B044640F8083BFFF71F
:1051CC00DCFF204610BD00BF14610D0038B50E4C3D
:1051DC000E4B23600025022304F5E4706360A56088
:1051EC00C4F8C451C4F8C851FFF730F9084BC4F8DF
:1051FC00CC5184F8D05123602046064A0649BDE8BC
:10520C00384000F08FBC00BFE8E4032048610D007B
:10521C0014610D0070E40320C1510D0000231A46E7
:10522C004068FFF787BA002202214068FFF792BA64
:10523C00002211464068FFF785BA002211464068EB
:10524C00FFF790BA00231A4619464068FFF792BA46
:10525C0000231A4619464068FFF794BA002281F0E1
:10526C0001014068FFF796BA00224068FFF7A2BA26
:10527C00002211464068FFF7A5BA0022114640688B
:10528C00FFF790BA2DE9F043002495B016460D4671
:10529C000746FFF7C5FE214620220CA8009400F01B
:1052AC00C6FD40230C9321466B460CAA3046FFF7F3
:1052BC0055F90446002844D1024601216868FFF7DD
:1052CC0051FA0221804622466868FFF74BFA009E8D
:1052DC0081462146002E34D0002932D17368022B2E
:1052EC0002D00A2B09D02AE0B8F1000F27D071693F
:1052FC0038460431FFF7C1FE20E0B9F1000F1ED093
:10530C007469112201A800F092FD06238DF8143067
:10531C0001AD04F108031834186859682A4603C211
:10532C000833A3421546F7D101A906A807ADFFF72C
:10533C0085FE0FCD3C1D0FC42B6823700121F6692F
:10534C00C8E70098FFF702F9384615B0BDE8F083BE
:10535C00024B034A1A6000225A607047BCE60320D5
:10536C0048610D00F8B506460D468F180024BD4265
:10537C000CD0336815F8011B9B6830469847002801
:10538C0001DB0444F3E7002C08BF04462046F8BDBB
:10539C0070B505460C46084649B100F09CFD2B68DB
:1053AC00024621462846DB68BDE87040184770BDB0
:1053BC0003689B68184738B50D210546FFF7F8FFC1
:1053CC000A2104462846FFF7F3FF204438BD30B5C8
:1053DC008BB00B4600218DF82410012A98BF0A22AD
:1053EC000DF12304B3FBF2F505FB123303F0FF03BD
:1053FC00092B94BF30333733DBB2214604F8013923
:10540C002B46002DEED1FFF7C3FF0BB030BD10B50E
:10541C000446FFF77EFA204610BD00000348044AFC
:10542C0004490023836000F07DBB00BFC4E6032069
:10543C0070E403201B540D0010B50446017008469F
:10544C00FFF794F800236360204610BD0078FFF747
:10545C0095B810B504460068FFF7C4F9204610BD96
:10546C0010B50446006808B1FFF7BCF900232360AF
:10547C00A360636010BD38B504460D460068013169
:10548C00FFF7B8F910B184E82100012038BD10B540
:10549C000368044613B143688B4207D22046FFF7DA
:1054AC00EAFF20B1A3680BB922681370012010BD6C
:1054BC0070B50E46114604461546FFF7E8FF18B9BD
:1054CC002046FFF7CDFF09E02A463146A56020684B
:1054DC0000F0A2FC2268A3680021D154204670BDC4
:1054EC0038B50023044603604360836003730D46A4
:1054FC0039B1084600F0EFFC294602462046FFF77A
:10550C00D7FF204638BD884210B50B46044607D05D
:10551C00096819B19A68FFF7CBFF01E0FFF7A0FF0C
:10552C00204610BD10B50023044603604360836021
:10553C000373FFF7E8FF204610BD38B505460C464F
:10554C0041B1084600F0C7FC214602462846FFF749
:10555C00AFFF01E0FFF784FF284638BD70B5044665
:10556C000E4609B9002070BD6AB18368D51829466A
:10557C00FFF78DFF0028F5D02068A368314618444A
:10558C0000F086FCA560012070BD10B58A68096822
:10559C000446FFF7E3FF10B92046FFF761FF2046F2
:1055AC0010BD38B504460D4641B1084600F093FCD9
:1055BC00294602462046FFF7D1FF10B92046FFF7D7
:1055CC004FFF204638BD00000EB4FFB509AC0546B0
:1055DC0054F8047B019423463A46052102A8FFF7B0
:1055EC0011F90C4906462846FFF77AFF3146284642
:1055FC00FFF74DFF286830B123463A46711C0194E1
:10560C00FFF700F9A860284604B0BDE8F04003B0ED
:10561C00704700BFD0600D0010B50446006818B18B
:10562C00FFF7E0F80023236010BD10B50446FFF728
:10563C00F3FF204610BD000010B5094C00204FF6BA
:10564C00FF732060A080A07120816381FFF71EF89A
:10565C002046044A0449BDE8104000F063BA00BF7C
:10566C00D4E6032070E4032037560D00024B1A6871
:10567C00024B1A60704700BF08E40320E0E60320E9
:10568C0070474174704708B5007CFEF7B7FF20EAFD
:10569C00E07008BD08B5007CFEF788FF20EAE070DA
:1056AC0008BD08B5007CFEF791FF30EA200028BF4A
:1056BC004FF0FF3008BD08B5007CFEF77FFF30EAE5
:1056CC00200028BF4FF0FF3008BD007CFEF786BFDE
:1056DC0010B51421044600F02AFA204610BD70B50E
:1056EC00457C04460E4625B9007CFEF787FF002852
:1056FC0005DD3146207CBDE87040FEF74FBF2846E3
:10570C0070BD000010B504460846114600226260C8
:10571C004FF47A72A260054A2260012220746274EE
:10572C001A46FEF733FF204610BD00BFA8610D00DE
:10573C00007CFEF75BBF0000F8B5194C25684DB92D
:10574C008420FEF7A2FC064618B18422294600F0FC
:10575C006EFB2660134D2E684EB98420FEF795FC27
:10576C00074618B18422314600F061FB2F600E4FC2
:10577C00396811F0010611D13846FEF78CFC68B17E
:10578C0022682B6809483146FFF7BCFF3846FEF704
:10579C0087FC074A0749054800F0C4F90348F8BDDF
:1057AC0000E70320F8E60320FCE60320E4E60320F0
:1057BC0070E403208D560D0041747047704708B596
:1057CC000021007CFEF742FF30EA200028BF4FF09A
:1057DC00FF3008BD08B50121007CFEF737FF30EA29
:1057EC00200028BF4FF0FF3008BD08B5007CFEF745
:1057FC0025FF20EAE07008BD08B5007CFEF716FF17
:10580C0020EAE07008BD007CFEF730BF10B5142113
:10581C00044600F08CF9204610BD38B50446007CD7
:10582C000D46FEF70BFF002801DC607C28B12946F1
:10583C00207CFEF713FF20EAE07038BD10B504465B
:10584C00002363604FF47A73A360054B236001233C
:10585C000846217463741146FEF7D8FE204610BD2D
:10586C00D8610D000022007CFEF7D8BE10B51422C2
:10587C000446002100F0DBFA204610BD30B50E4D79
:10588C0087B001A8FFF7F2FF296811F0010410D1CD
:10589C002846FEF700FC60B101AA21460748FFF735
:1058AC00CDFF2846FEF7FCFB054A0649034800F0ED
:1058BC0039F9024807B030BD04E7032008E703209C
:1058CC0070E40320C9570D0008B50F4B33B1FFF737
:1058DC00D5FF03681B69984700280DDC0B4B33B1CF
:1058EC00FFF72AFF03681B699847002807DC084B61
:1058FC0043B1AFF3008008BDAFF30080EEE7AFF328
:10590C000080F4E708BD00BF0000000000000000AC
:10591C000000000008B5FFF7D7FFFEF7AFFD014B05
:10592C00186008BD30E703200248034A0349121AE5
:10593C0000F072BA00F4032004F40320A0620D00FE
:10594C0007B5002300931A466FF07701FEF7C8FEE7
:10595C0003B05DF804FB000007B543880A2B08D0A0
:10596C00502B09D1094B1B683BB103B05DF804EB1C
:10597C001847FFF7E5FF06E0002300931A466FF087
:10598C007701FEF7ADFE03B05DF804FB1CE70320C6
:10599C0038B5104C104D2368AB42104B0CBF012294
:1059AC0000221A7002D0FFF7BFFF2560FEF75EFDE4
:1059BC00044600F045FA0A4B13B12046AFF30080C1
:1059CC0000210748FEF7AEFE00210648BDE838402E
:1059DC00FEF77CBE00F403201E1C279A20E7032050
:1059EC000000000065590D0070B5184E316811F0BB
:1059FC00010504460AD13046FEF74DFB30B129466D
:105A0C001348FFF719FD3046FEF74AFB1048FFF725
:105A1C001DFD28B1A4F10B03022B01D8002070BD91
:105A2C0000F05AF8FFF7BEFA08B1012CF6D9FFF7CF
:105A3C0083FEFFF77DFE18B1A4F10903012BEDD90C
:105A4C001E2C8CBF0020012070BD00BF24E703205A
:105A5C0028E703201E2838B504460D460AD8FF292E
:105A6C0008D0FFF7C1FF28B129462046BDE83840D1
:105A7C00FEF71CBD38BD0D2810B504469CBF0E3476
:105A8C00A4B22046FFF7B0FF50B103212046FEF729
:105A9C0005FD032804D12046BDE81040FEF70EBDDD
:105AAC00002010BD70B5044614252A46094E00216D
:105ABC0000F0BDF9258020253146A56025612846DA
:105ACC0000F04FF831466060284600F04AF8E0607C
:105ADC00204670BD00620D0030B50E4D296811F0E6
:105AEC00010487B013D12846FEF7D5FA78B101A886
:105AFC00FFF7D8FF01AA21460748FFF741FA2846CD
:105B0C00FEF7CEFA054A0649034800F00BF80248A6
:105B1C0007B030BD34E7032038E7032070E40320DE
:105B2C00354F0D000B460146184600F067B9FEF7DD
:105B3C00AEBA0000024B1868BFF35F8F704700BF0E
:105B4C004CE7032010B5002814BF0446012420465E
:105B5C00FEF740FE20B9FFF7EDFF08B18047F6E7EE
:105B6C0010BDFFF7EFBF08B5FEF754FE244B1A68C3
:105B7C00D0075CBF01221A60224B1A68D1075CBFA8
:105B8C0001221A60204B1A68D2075CBF01221A60EE
:105B9C001E4B1A68D0075CBF01221A601C4B1A6896
:105BAC00D1075CBF01221A601A4B1A68D2075CBF7E
:105BBC0001221A60184B1A68D0075CBF01221A60C8
:105BCC00164B1A68D1075CBF01221A60144B1A6875
:105BDC00D2075CBF01221A60124B1A68D0075CBF57
:105BEC0001221A60104B1A68D1075CBF01221A609F
:105BFC000E4B1A68D2075CBF01221A60704700BFB7
:105C0C007CE7032078E7032074E7032070E7032088
:105C1C006CE7032068E7032064E7032060E70320B8
:105C2C005CE7032058E7032054E7032050E70320E8
:105C3C00184B1A68D1075CBF01221A60164B1A6800
:105C4C00D2075CBF01221A60144B1A68D0075CBFE4
:105C5C0001221A60124B1A68D1075CBF01221A602C
:105C6C00104B1A68D2075CBF01221A600E4B1A68DF
:105C7C00D0075CBF01221A600C4B1A68D1075CBFBD
:105C8C0001221A600A4B1A68D2075CBF01221A6003
:105C9C00704700BF9CE7032098E7032094E703209C
:105CAC0090E703208CE7032088E7032084E7032098
:105CBC0080E70320184B1A68D1075CBF01221A60D9
:105CCC00164B1A68D2075CBF01221A60144B1A6873
:105CDC00D0075CBF01221A60124B1A68D1075CBF57
:105CEC0001221A60104B1A68D2075CBF01221A609D
:105CFC000E4B1A68D0075CBF01221A600C4B1A6855
:105D0C00D1075CBF01221A600A4B1A68D2075CBF2C
:105D1C0001221A60704700BFBCE70320B8E70320DC
:105D2C00B4E70320B0E70320ACE70320A8E7032087
:105D3C00A4E70320A0E70320244B1A68D0075CBF1C
:105D4C0001221A60224B1A68D1075CBF01221A602B
:105D5C00204B1A68D2075CBF01221A601E4B1A68CE
:105D6C00D0075CBF01221A601C4B1A68D1075CBFBC
:105D7C0001221A601A4B1A68D2075CBF01221A6002
:105D8C00184B1A68D0075CBF01221A60164B1A68B0
:105D9C00D1075CBF01221A60144B1A68D2075CBF92
:105DAC0001221A60124B1A68D0075CBF01221A60DC
:105DBC00104B1A68D1075CBF01221A600E4B1A688F
:105DCC00D2075CBF01221A60704700BFECE70320CA
:105DDC00E8E70320E4E70320E0E70320DCE7032007
:105DEC00D8E70320D4E70320D0E70320CCE7032037
:105DFC00C8E70320C4E70320C0E7032010B5054C17
:105E0C0013462CB10A4601460220AFF3008010BDA8
:105E1C00204610BD0000000010B5431E0A449142FC
:105E2C0004D011F8014B03F8014FF8E710BD024400
:105E3C000346934202D003F8011BFAE770470000B7
:105E4C0038B5124B1C68A36B0546D3B91820FEF766
:105E5C00C1FC43F20E33A06303804AF6CD3343807A
:105E6C0041F2342383804EF26D63C3804DF6EC63B4
:105E7C000381052343810B23838101220023C0E985
:105E8C000423A36B00221D615A6138BD6CE403200E
:105E9C00034611F8012B03F8012B002AF9D17047A6
:105EAC00024B0146186800F003B800BF6CE40320F5
:105EBC0070B5064608460C4600F00DF8451C294600
:105ECC003046FEF7AFFC064618B12A462146FFF7CE
:105EDC00A3FF304670BD034613F8012B002AFBD1FB
:105EEC00181A0138704700001D400D0059400D0074
:105EFC0085400D0089400D00000000004761726470
:105F0C00656E2D4C6164792D4275672D30342D43AF
:105F1C006170003663556F6E7158734C6368666EB2
:105F2C003874354636557355727846353871450098
:105F3C007B202276616C7565223A20220025640054
:105F4C00222C2022666565644944223A20220022D4
:105F5C007D0047617264656E2D4C6164792D4275CC
:105F6C00672D30342D4361702D50657263656E74EE
:105F7C00616765006E38657063507343466B73627E
:105F8C0039555759746758746F65344B6A686B761A
:105F9C0000300000000000000000000001490D006E
:105FAC0007490D005D490D0015490D0003490D0011
:105FBC000000000000000000174F0D000D4F0D00F9
:105FCC00034F0D00F94E0D00ED4E0D00E14E0D008E
:105FDC00D54E0D00CD4E0D00C34E0D00B94E0D002B
:105FEC0091520D000000000000000000354F0D0024
:105FFC007F4F0D00574F0D00374F0D005F4F0D00B9
:10600C00674F0D006F4F0D00774F0D000000000023
:10601C0000000000C94F0D00B94F0D00BB4F0D0023
:10602C00626175640053657269616C0053657269D5
:10603C00616C31007479706500706172616D006320
:10604C006D6400696400686E64007374726D006640
:10605C00696C74006C766C0061646448616E646C8D
:10606C0065720072656D6F766548616E646C657201
:10607C0000656E756D48616E646C657273004A5391
:10608C004F4E53747265616D4C6F6748616E646CF2
:10609C0065720061707000253031307520005D2014
:1060AC00002C200028293A2000205B00636F6465D7
:1060BC00203D200025690064657461696C73203D86
:1060CC0020000D0A0066006C6E00666E00636F6443
:1060DC00650064657461696C006E6F6E6500747246
:1060EC0061636500696E666F007761726E00657240
:1060FC00726F720070616E696300616C6C000000FD
:10610C0000000000000000000B510D0001510D00BB
:10611C00F7500D00ED500D00E1500D00D5500D0065
:10612C00C9500D00C1500D00B7500D00AD500D0001
:10613C0091520D00000000000000000029520D00DB
:10614C0033520D003D520D0047520D0051520D00BF
:10615C005D520D0069520D0075520D007D520D00FF
:10616C0087520D0091520D005A00252B3033643AA2
:10617C00253032750025592D256D2D256454254863
:10618C003A254D3A2553257A0061736374696D6520
:10619C000000000000000000000000008D560D0003
:1061AC00DD560D00EB560D0071530D00A1560D0080
:1061BC00C3560D00AF560D00D7560D008F560D006F
:1061CC0093560D000000000000000000C9570D00A0
:1061DC0019580D0027580D0071530D0005580D006E
:1061EC00CB570D00E1570D0013580D00F7570D005C
:1061FC00C5570D000000000000000000000000006A
:10620C000000000000000000000000000000000082
:10621C000000000000000000000000000000000072
:10622C000000000000000000000000000000000062
:10623C000000000000000000000000000000000052
:10624C000000000000000000000000000000000042
:10625C000000000000000000430000007D430D0022
:10626C00D9480D00214F0D009D500D00D9510D0046
:10627C005D530D0029540D0045560D0079560D0047
:10628C00795B0D003D5C0D00C15C0D00455D0D00A2
:04629C0000000000FE
:0462A00000000000FA
:1062A4000010000095610D000000000004620D0064
:1062B40024620D0044620D00000000000000000094
:1062C400000000000000000064620D0000000000F7
:1062D40000000000000000000000000000000000BA
:1062E40000000000000000000000000000000000AA
:1062F400000000000000000000000000000000009A
:0C63040000000000000000000CE403207A
:10631000FFFFFFFF00000102030405060708090A4A
:106320000B0C0D0E0F101112131415161718191A45
:086330001B1C1D1E1F2028008C
:04633800785634124D
:04000003D000401CCD
:00000001FF
