:02000002D0002C
:1040000000400D0000830D00000006000E000501B9
:084010000401EB0500000000B3
:04401800D87C0D0043
:10401C0009480A49884208B505D0094A824202D0AB
:10402C00121A03F0F7FC0748074A0021121A03F092
:10403C0017FD014808BD00BF78E3032064820D0022
:10404C00ECE30320ECE30320F0E7032070B503F06E
:10405C00CFF8074C074BE41AA40800251E46A542CE
:10406C0004D056F8253098470135F8E770BD00BFED
:10407C0054820D0018820D0000F062B808B500F0F3
:10408C00D1F8BDE8084003F075B800F0BFBD00F0F2
:10409C00C5BD00F0C3BD000008B5034A00210C20CB
:1040AC0000F0E8FCFEE700BF01480D000078B0FA14
:1040BC0080F0400970470123037070477047006A15
:1040CC000368DB68184700000A4B10B50446036010
:1040DC0001F030FD214601F01DFF02F0FFFF02F060
:1040EC00F1FF2046044B40F8043B01F019FE20463A
:1040FC0010BD00BF0C7D0D00F47C0D0010B5044606
:10410C00FFF7E2FF2046242103F057F9204610BDAB
:10411C000EB400B58CB00DAA202352F8041B0392E8
:10412C008DE8060004930168002304AA1E20059361
:10413C0000F0A8FC0CB05DF804EB03B07047000075
:10414C0008B502F0CBFF4FF4165102F0B7FF012176
:10415C00072003F0AFF80021132003F0ABF8032085
:10416C00002103F0A7F80248BDE8084000F084BA2B
:10417C006CE4032010B5074C00F04CFB2368C01A0C
:10418C00B0F57A7F04D300F045FB2060012010BD10
:10419C00002010BD9CE4032070B5054686B00C468B
:1041AC001E468AB1014602A802F0DEFD1A4902A899
:1041BC0002F019FE214602F00AFE01681748FFF7CB
:1041CC00A7FF02A802F067FD1EB3FFF7D3FF10B9DB
:1041DC0000F0ACFCF9E7FFF7CDFF114B22681B7820
:1041EC008DF8003029683C2302A800F005FF039CE1
:1041FC007CB16368013B63605BB9236820469B68B4
:10420C009847A368013BA3601BB923682046DB6871
:10421C009847012006B070BD1E7F0D00E4E403201A
:10422C0058E4032000B52A4889B000F07FFA012831
:10423C00014602D0022803D10021072003F04BF8DD
:10424C002449254802F09BFD2449254802F097FD9E
:10425C00244904A802F066FD234B186803F078FB90
:10426C0002460B466846214902F0D0FD694604A877
:10427C0002F0ADFD1E4902F0B6FD194902F0A7FD92
:10428C001C4902F0B0FD01461B4802F05EFD684679
:10429C0002F001FD04A802F0FEFC0F49684602F092
:1042AC0063FD154904A802F05FFD01231A4604A919
:1042BC006846FFF771FF04A802F0EDFC684602F0B7
:1042CC00EAFC4FF4FA6000F0D1FC09B05DF804FB95
:1042DC006CE403201C7D0D005CE40320337D0D0099
:1042EC0028E40320507D0D00F0E303205D7D0D00DC
:1042FC00627D0D00717D0D0038E4032070B50468FB
:10430C0043681426054606FB0346A64204D0204605
:10431C0002F0C1FC1434F8E7286800F07FFC284652
:10432C0070BD8842F8B506460C46154616D9904223
:10433C0015D2A2F114056C1AA1F114070444AF4272
:10434C001CD02CB12946204602F095FC2B7C237402
:10435C00284602F0A0FC143D143CF0E70ED0AC4211
:10436C000CD02EB12146304602F085FC237C3374F0
:10437C00204602F090FC14341436F0E7F8BD2DE919
:10438C00F04100230360436083604E689E42044604
:10439C000F4624DD4FF0140808FB06F000F036FC45
:1043AC000546E0B194E8060008FB0212FFF7B9FFDE
:1043BC00206800F033FC2560A6603E687B6808FB33
:1043CC000368464509D02DB13146284602F0CCFC95
:1043DC00337C2B7414361435F3E77B68636020460A
:1043EC00BDE8F0812DE9F041454B464D8CB00127DD
:1043FC001F70002600F016FA0021384600F06AFB08
:10440C0000960196029602F069FE6946804603A862
:10441C00FFF7B5FF2C4603A906A8FFF7B0FF3A4BF0
:10442C0044F8043B06A909A8FFF7A9FF09AA1E2115
:10443C00204601F0D6FE09A8FFF760FF06A8FFF79B
:10444C005DFF324B2B60C5F8208003A8FFF756FFA9
:10445C002F4B2B6002F042FE4FF416512D4C02F004
:10446C002DFE01F067FB294601F04EFE6846FFF772
:10447C0045FF22462849284602F09AFF3146384625
:10448C00264E274F274D00F025FB112212212648DE
:10449C0000F060F83946304602F044FC3046234EBA
:1044AC002246294602F084FF3946304602F03AFC97
:1044BC001F4F30461F4E2246294602F079FF3146E7
:1044CC00384602F02FFC38461B4F2246294602F094
:1044DC006FFF3146384602F025FC3846174F22460E
:1044EC00294602F065FF3146384602F01BFC224695
:1044FC002946384602F05CFF0CB0BDE8F08100BFE5
:10450C0058E4032004E40320F47C0D007C7F0D00B0
:10451C000C7D0D00ECE30320D5400D00F4E30320EB
:10452C003E7E0D00A36C0D006CE4032048E40320D8
:10453C005CE403203C7F0D0028E4032038E40320D6
:10454C0000F070B908B500F05DF9014B186008BDBA
:10455C00A0E4032030B5002414250470456082606B
:10456C00C160046244628462C46230BD13B500232E
:10457C00044601228089054900934FF0FF3300F077
:10458C003FFF0123237002B010BD00BF51450D0049
:10459C002DE9F843DFF8DC80002405462027264669
:1045AC00C1460121A88902F085FE0021288902F06C
:1045BC0092FE0021A88902F08EFE0021A88902F04B
:1045CC0079FE00F01FF90121A861C8F800002889C4
:1045DC0002F081FEA88902F097FE0028FAD0D9F8E3
:1045EC000030AA699A423EBF9B1AF6180134013F6B
:1045FC00D7D10CB196FBF4F46B69042293FBF2F265
:10460C001A44944205DAE21A082192FBF1F213449F
:10461C006B6102F063FD154902F094FA02F05EFD45
:10462C00002C064604DA2D2102F090FA614200E0DB
:10463C0021460A22304602F0A2FA02F04FFD0C4944
:10464C0002F080FA02F04AFD6D69002D064604DA8C
:10465C002D2102F07BFA694200E029460A223046FD
:10466C0002F08DFA2046BDE8F88300BF747D0D0082
:10467C008C7D0D00A0E4032010B5012104460089B7
:10468C0002F018FE2046FFF771FF2046FFF780FF6F
:10469C0000236061E36110BD38B50446FFF778FF75
:1046AC0063692061042593FBF5F51D44A842236A38
:1046BC00D4BF00250125AB4202D000F0ABF86062FC
:1046CC00256200F0A7F8636AE26A3233984288BF29
:1046DC00A562A36ADAB91D1C18BF0125E36202F0BA
:1046EC00FDFC0E4902F02EFA012D03D102F0F6FC6E
:1046FC000B4909E0022D03D102F0F0FC094903E05B
:10470C0055B902F0EBFC084902F02FFA04E0002B3B
:10471C0014BF00250225E1E7284638BD857D0D0034
:10472C008E7D0D00957D0D009E7D0D0038B50446E7
:10473C0000F070F8E26963681344834212D2204699
:10474C00FFF7AAFF054602F0C9FC084902F0FAF986
:10475C0002F0C4FC0A22E16902F011FA00F05AF8E6
:10476C00E06100E00025284638BD00BFA47D0D00A7
:10477C0000F058B808B5024B1B689B68019308BD44
:10478C004802030008B5024B1B681B69019308BD66
:10479C004802030008B5024B1B685B69019308BD16
:1047AC004802030008B5024B1B685B6C019308BD03
:1047BC004802030008B5024B1B689B6C019308BDB3
:1047CC004802030008B5024B1B68DB6C019308BD63
:1047DC004802030008B5024B1B685B6D019308BDD2
:1047EC004802030008B5024B1B685B68019308BDC7
:1047FC001802030008B5024B1B68DB68019308BD67
:10480C001802030008B5024B1B681B69019308BD15
:10481C001802030008B5024B1B685B69019308BDC5
:10482C001802030008B5024B1B681B68019308BDF6
:10483C002C02030008B5024B1B689B68019308BD52
:10484C002C02030008B5024B1B68DB68019308BD02
:10485C002C02030008B5024B1B681B69019308BDB1
:10486C002C02030008B5024B1B685B69019308BD61
:10487C002C02030008B5024B1B689B69019308BD11
:10488C002C02030008B5024B1B68DB69019308BDC1
:10489C002C02030008B5024B1B681B6A019308BD70
:1048AC002802030008B5024B1B685B6A019308BD24
:1048BC002802030008B5024B1B689B6A019308BDD4
:1048CC002802030008B5024B1B68DB6A019308BD84
:1048DC002802030008B5024B1B681B6B019308BD33
:1048EC002802030008B5024B1B685B6B019308BDE3
:1048FC002802030008B5024B1B681B6C019308BD12
:10490C002802030008B5024B1B685B69019308BDC4
:10491C006402030008B5024B1B689B68019308BD39
:10492C006802030008B5024B1B68DB68019308BDE5
:10493C006802030008B5024B1B68DB69019308BDD4
:10494C003002030008B5024B1B681B6A019308BDBB
:10495C003002030008B5024B1B681B68019308BDAD
:10496C003C02030008B5024B1B689B68019308BD11
:10497C003C02030008B5024B1B68DB68019308BDC1
:10498C003C02030008B5024B1B681B69019308BD70
:10499C003C02030008B5024B1B685B69019308BD20
:1049AC003C02030008B5024B1B689B69019308BDD0
:1049BC003C02030008B5024B1B68DB69019308BD80
:1049CC003C02030008B5024B1B681B6A019308BD2F
:1049DC003C02030008B5024B1B689B6A019308BD9F
:1049EC003C02030008B5024B1B68DB6A019308BD4F
:1049FC003C02030008B5024B1B681B68019308BD01
:104A0C004C02030008B5024B1B685B68019308BDA0
:104A1C004C02030008B5024B1B689B68019308BD50
:104A2C004C02030008B5024B1B681B69019308BDBF
:104A3C004C02030008B5024B1B685B69019308BD6F
:104A4C004C02030008B5024B1B689B69019308BD1F
:104A5C004C02030008B5024B1B68DB69019308BDCF
:104A6C004C02030008B5024B1B681B6A019308BD7E
:104A7C004C02030008B5024B1B685B6B019308BD2D
:104A8C006002030008B5024B1B685B6D019308BD07
:104A9C006002030008B5024B1B68DB6E019308BD76
:104AAC006002030008B5024B1B681B6F019308BD25
:104ABC006002030008B5024B1B685B68019308BDDC
:104ACC002002030008B5024B1B685B69019308BD0B
:104ADC002002030008B5024B1B68DB6A019308BD7A
:104AEC002002030008B5024B1B68DB6C019308BD68
:104AFC002002030008B5024B1B685B6D019308BDD7
:104B0C002002030008B5034B1B68D3F888300193CF
:104B1C0008BD00002002030008B5034B1B68D3F846
:104B2C009430019308BD00002002030008B5024B2D
:104B3C001B689B68019308BD4402030008B5024B37
:104B4C001B685B69019308BD4402030008B5024B66
:104B5C001B681B6A019308BD4402030008B5024B95
:104B6C001B68DB6B019308BD4402030008B5024BC4
:104B7C001B685B68019308BD4002030008B5024B3B
:104B8C001B689B68019308BD4002030008B5024BEB
:104B9C001B68DB68019308BD4002030008B5024B9B
:104BAC001B681B69019308BD4002030008B5024B4A
:104BBC001B685B69019308BD4002030008B5024BFA
:104BCC001B689B69019308BD4002030008B5024BAA
:104BDC001B68DB69019308BD4002030008B5024B5A
:104BEC001B681B6A019308BD4002030008B5024B09
:104BFC001B681B6B019308BD4002030008B5024BF8
:104C0C001B685B6B019308BD4002030008B5024BA7
:104C1C001B681B68019308BD1C02030008B5024BFE
:104C2C001B685B68019308BD1C02030008B5024BAE
:104C3C001B689B68019308BD1C02030008B5024B5E
:104C4C001B685B6A019308BD1C02030008B5024B8C
:104C5C001B68DB6A019308BD1C02030008B5024BFC
:104C6C001B681B6B019308BD1C0203000021FFF79E
:104C7C0029BF10B5836804460BB902F0BAFBC368B0
:104C8C009847A3681BB1032221462046984720462B
:104C9C001021BDE8104002F090BB10B5044600682E
:104CAC0008B1FFF787FD204610BD10B50368044618
:104CBC009B689847A368013BA3602BB923682046E7
:104CCC00DB68BDE81040184710BD0B68036013B1DA
:104CDC005A6801325A60704710B50446006828B112
:104CEC004368013B43600BB9FFF7DFFF204610BD63
:104CFC0038B50C6803689C4205460CD014B1636847
:104D0C0001336360286828B14368013B43600BB9E9
:104D1C00FFF7CBFF2C60284638BD000010B5064CC1
:104D2C00002320462360FFF73DFD2046034A04493B
:104D3C00BDE8104002F03CBBA4E40320ECE30320EC
:104D4C00A74C0D0070470020704710B51021044689
:104D5C0002F033FB204610BD08B508B1FFF7F5FF94
:104D6C0008BD10B58368044613B103220146984769
:104D7C00204610BD0022026010B54FF69C72828056
:104D8C00B1F9044084808A8002680C6804600A606F
:104D9C0010BD10B504460068FFF740FF204610BD5B
:104DAC0038B5C468F4B12378022B03D104F10C009C
:104DBC00FFF7EFFF656835B12846FFF7D2FF1021EA
:104DCC00284602F0FAFAA56835B12846FFF7C9FF64
:104DDC001021284602F0F1FA20461421BDE8384093
:104DEC0002F0EBBA38BD13B5044691E80500002378
:104DFC004B600B602060626001A801930093FFF789
:104E0C006BFF204602B010BDF7B50C4602AD54F84E
:104E1C00043B45F8083D06460F4601A82146FFF71E
:104E2C0054FF29463046FFF7DEFF01A8FFF754FF79
:104E3C002046FFF751FF3846082102F0BEFA3046F3
:104E4C0003B0F0BD13B50B46044603C88DE8030050
:104E5C0093E8030084E803009DE8030083E8030063
:104E6C0002B010BD38B500230446036010200D4677
:104E7C00FFF70BF928B1012343608360024B0360F9
:104E8C00C5602060204638BDB87D0D00826810B525
:104E9C000AB902F0AEFAC368BDE81040184708B56D
:104EAC00006800F11001FFF7F1FF08BD826810B532
:104EBC000AB902F09EFAC368BDE81040184708B55D
:104ECC00006800F11001FFF7F1FF08BD38B50023B1
:104EDC0083608B6804460D462BB102229847EB6821
:104EEC00E360AB68A360204638BD0000F0B589B024
:104EFC0004686846FFF73EFF00238DF808304FF03A
:104F0C000202D4E84F3F002B03D1C4E8412F002903
:104F1C00F7D102D08DF8083063E014F10C0503D002
:104F2C0069462846FFF726FFBFF35F8F01236370A6
:104F3C00002004F10803BFF35F8F53E8006F43E8D0
:104F4C000002002AF9D1BFF35F8F002E49D0FFF782
:104F5C00C9FD20B129463046FFF798FF3AE03146AB
:104F6C0002A8FFF7B3FFE068B4F9105008B102F0E3
:104F7C00D1FD06901020ADF81C50FFF786F80546C1
:104F8C00E8B1002787601820FFF77FF8044688B146
:104F9C000146876002A8FFF755FF049BA268A36037
:104FAC00059B049206A9E268E36004F110000592E7
:104FBC00FFF7E0FE0D4BEB600D4B2C60AB6006A8D1
:104FCC00FFF7E7FE02A8FFF7CCFE002229460948AE
:104FDC00FFF790FD3046FFF7C4FE1021304602F07B
:104FEC00ECF96846FFF7D5FE09B0F0BDAB4E0D00ED
:104FFC0021510D007F4C0D002DE9F04F8BB0064672
:10500C000F46904699469DF850A0FFF797FD07ADC7
:10501C00834630BB4FF62E73059005A92846ADF894
:10502C001830FFF7A7FE1420FFF72FF8044658B1ED
:10503C000223037001234370C0F804B0C0F808B019
:10504C0029460C30FFF796FE3046214640F8044BBB
:10505C00FFF708FF2846FFF79CFE05A8FFF799FE0F
:10506C0052E000240C2314206C60AC600793FFF713
:10507C000CF8014618B1047044704460846004A8B4
:10508C000391FFF7EFFE224B08930820FEF7FDFF7C
:10509C00044628B1039B40F8043B04A9FFF715FE16
:1050AC0000955FFA8AF34A46414638460994FFF761
:1050BC004DFD20B9039B5B7803F0FF0283B1039B8A
:1050CC00059304A906A8FFF700FE05A93046FFF7D3
:1050DC008AFE06A8FFF700FE04A8FFF7FDFD13E00B
:1050EC004FF69C7305A903A80592ADF81830FFF78D
:1050FC00FDFE05A8FFF74DFE05A80999FFF784FEF4
:10510C0006A8FFF7E9FDDAE730460BB0BDE8F08FF3
:10511C0091520D00022AF8B5044606D0032A17D086
:10512C00012A22D10B6803601FE018200E68FEF7DD
:10513C00ACFF054650B13146FFF7C8FE3069B6F9F1
:10514C00147008B102F0E6FC2861AF8225600CE017
:10515C00046854B104F11000FFF71BFE2046FFF762
:10516C0000FE1821204602F028F90020F8BD38B5C1
:10517C00002383608B6804460D462BB102229847AE
:10518C00EB68E360AB68A360204638BD022A70B5BB
:10519C00044606D0032A11D0012A18D10B680360EB
:1051AC0015E014200E68FEF770FF054620B131465D
:1051BC00FFF7DDFF337C2B74256008E0046834B105
:1051CC002046FFF7CEFD1421204602F0F6F8002011
:1051DC0070BD0000F0B5002387B00C46BFF35F8FA5
:1051EC0050E8006F40E80032002AF9D1BFF35F8F1E
:1051FC00002E3FD01846FFF775FC074620B121461C
:10520C003046FFF753FE2EE0314601A8FFF7AFFF03
:10521C0023788DF814301020FEF737FF0546D0B1F7
:10522C0087601420FEF731FF044678B18760014691
:10523C0001A8FFF707FE039BA268A360049B0392DF
:10524C00E268E3609DF81430049223740A4BEB601F
:10525C000A4B2C60AB6001A8FFF783FD00222946A6
:10526C000748FFF747FC3046FFF77BFD102130461F
:10527C0002F0A3F807B0F0BDCB4E0D0099510D0014
:10528C007F4C0D0030B585B004460D46684611467E
:10529C00FFF7BAFD7CB124B228460DB102F03AFCFE
:1052AC00029002A96846ADF80C40FFF71FFE02A859
:1052BC00FFF76FFD1DE000988DF808404FF00102DC
:1052CC00D0E84F3FA34203D1C0E8412F0029F7D1CA
:1052DC0002D08DF808300CE010F10C014FF00103F6
:1052EC0018BF0373BFF35F8F043000F8033CFFF764
:1052FC0071FF01A8FFF7F0FC05B030BD002211468C
:10530C004068FFF76BBC002211464068FFF776BC83
:10531C0000224068FFF76ABC002281F0010140685E
:10532C00FFF754BC00231A4619464068FFF746BCE9
:10533C0000231A4619464068FFF738BC0022114674
:10534C004068FFF72BBC002211464068FFF716BCE3
:10535C00002202214068FFF719BC00231A4640685E
:10536C00FFF704BC024B03225A60024A1A607047D2
:10537C00A8E40320D47D0D007047F8B50646154609
:10538C000C468F18BC4206D0336814F8011B9B687E
:10539C0030469847F6E72846F8BD0022007CFFF718
:1053AC0079BA0021007CFFF77DBA0021007CFFF761
:1053BC0081BA0021007CFFF785BA0021007CFFF741
:1053CC0089BA10B51421044601F0F7FF204610BD30
:1053DC0010B50446002363604FF47A73A360044B4A
:1053EC002174084623601146FFF784FA204610BD4D
:1053FC00087E0D000021007CFFF774BA0047000006
:10540C00F0B585B01C460E4617460546FFF73AFA2E
:10541C00002084424FF0040303908DF80C30A5BF9C
:10542C009DF828308DF80E30034603AB00933246BE
:10543C003B460649A8BF8DF80D402846FFF71AFADF
:10544C00B0FA80F0400905B0F0BD00BF09540D0062
:10545C00704710B51821044601F0AFFF204610BD6F
:10546C00F0B5037D062B8DB00E4600F104074FF00E
:10547C00000402D000F1080518E00CAD394605F81F
:10548C00304D2F232A460A20FFF73CFA284602F01B
:10549C005CFB33680246DB682946304698470FE0D0
:1054AC0024B12E21304601F051FB044415F8011DA6
:1054BC000A22304601F063FBBD420444F0D1204681
:1054CC000DB0F0BD10B5054B0446112240F8043B5D
:1054DC00002102F0C5FA204610BD00BF307E0D0041
:1054EC000346074A10B543F8042B01F1100251F89A
:1054FC00044B43F8044B9142F9D10A781A7010BD51
:10550C00307E0D0010B59DF8084044EA032343EAB1
:10551C00024242EA016104234160037510BD37B5B4
:10552C000D788B784A78C97800912946FFF7EAFF05
:10553C0003B030BD00F11002012312F8101C012938
:10554C00104604D152F8041C03EB410304E0022979
:10555C0004BF52F8041C5B18013B02F11002ECD1A1
:10556C0070470EB42DE9F04187B000AF07F1340459
:10557C00054654F8046B7C6023463246102107F133
:10558C000800FFF75BFB0F2816D900F1080323F086
:10559C000703E846ADEB030D3246411C2346684633
:1055AC007C60FFF74BFB021E04DD2B6869469B6891
:1055BC0028469847C54607E030B12B6802469B68E1
:1055CC0007F10801284698471C37BD46BDE8F04155
:1055DC0003B0704713B502AB026803F8011D946861
:1055EC0019460122A04702B010BD8368FBB11A789E
:1055FC00032A1AD8DFE802F00417021D05207047B1
:10560C0002685B685268D05C2D2814D0A0F130037E
:10561C00092B10D9742810D066280ED0A0F16E0377
:10562C005842584170470620704700207047184672
:10563C00704704207047032070470220704710B554
:10564C000446FFF7D2FF02280DD016D3042814D835
:10565C002268A36850685B680A2200211844BDE8E0
:10566C00104002F029BB2268A36852685B68D05CCA
:10567C00A0F174035842584110BD002010BD10B564
:10568C00436904465BB18068E060013B1030A06068
:10569C00206163612BB1FFF74DFFA06001E018465C
:1056AC0010BD012010BD10B57D210446FFF792FFFF
:1056BC0001232371204610BD08B50379012B02D0BC
:1056CC00022B02D008BD2C2100E03A21FFF782FF0B
:1056DC0008BD10B50446FFF7EFFF20467B21FFF70E
:1056EC0079FF00232371204610BD000038B5044615
:1056FC000D46FFF7E1FF23680449DB6820462A4684
:10570C00984701232371204638BD00BF4B7E0D0006
:10571C0038B504460D46FFF7CFFF23680449DB6814
:10572C0020462A46984701232371204638BD00BFE6
:10573C004E7E0D00F8B50D461746222104462F4427
:10574C00FFF748FF2A462946BA4238D0164616F8C3
:10575C00015B222D03D05C2D01D01F2D2DD8236889
:10576C00521A9B68204698475C212046FFF732FF6F
:10577C000C2D19D007D8092D0FD00A2D12D0082DB9
:10578C0014D162210AE0222D05D05C2D03D00D2D01
:10579C000CD1722102E0294600E074212046FFF76B
:1057AC0019FF09E06E21F9E76621F7E723680A493A
:1057BC00DB682A462046984731463246C4E7914278
:1057CC0004D02368521A9D682046A84722212046FF
:1057DC00FFF700FFF8BD00BF5F7E0D0070B50446FB
:1057EC000D461646FFF768FF204632462946FFF75E
:1057FC00A1FF02232371204670BD70B504460D46EF
:10580C001646FFF759FF204632462946FFF792FF0E
:10581C0001232371204670BD10B50023044603609C
:10582C0043601048A060E360D1B10B78032B06D025
:10583C00B3B9136858684B68C35C6E2B08D01368F7
:10584C0058684B680344A3608B6849685B1AE36033
:10585C001146204651F8043B40F8043BFFF748FA48
:10586C00204610BD3C7F0D00002310B5044603609C
:10587C0043608360C3600361436171B10B78012B9A
:10588C000BD101F110038360CB684361114651F8D1
:10589C00043B40F8043BFFF72BFA204610BD0023D5
:1058AC0010B5044603604360816031B1114651F874
:1058BC00043B40F8043BFFF71BFA204610BD806800
:1058CC000368DB681847704719B10B6808465B68BA
:1058DC001847704719B10B6808465B681847704742
:1058EC0070477047704738B504460D4600682E2146
:1058FC0002F0F4F82368C31A2B6023B1037803B1C8
:10590C00013023682060184638BD10B50C210446C0
:10591C0001F053FD204610BD10B50421044601F0E2
:10592C004CFD204610BD10B50421044601F045FD88
:10593C00204610BD38B50C46054601F0CFFB84421D
:10594C000DD001F025FB844205D101F021FBBDE80F
:10595C00384001F016BB21462846FFF7BBFF38BD87
:10596C0008B502F0C5F8B0FA80F0400908BD38B5AA
:10597C00054608460C4602F0E8F821460246284641
:10598C00BDE83840FFF739BF0068FEF71BBF70B5A4
:10599C00044608460D4602F0D8F82368024629460C
:1059AC002046DB68BDE87040184713B502AB0268AF
:1059BC0003F8011DD46819460122A04702B010BD9E
:1059CC002DE9F04F4568076885B091461422554380
:1059DC000193AB10194D02925D438B463C4601235B
:1059EC00002D039323DD029B6E1003FB06F004EBEA
:1059FC0000084A46B8F804A02058D14528BF5246A2
:105A0C00594602F0AAF8039B48B9D14503D1019A33
:105A1C0013703546E4E78CBF0120002000E0C00F76
:105A2C000028F6D0AE1B08F11404013EF1E7E41B8C
:105A3C000248A410604305B0BDE8F08FCDCCCCCCAF
:105A4C00F0B585B003690191067E13B309B304AFB9
:105A5C00002347F8043D00F10C041D46394601A80B
:105A6C00FFF741FF0146A0B104AB039A03F8055DB3
:105A7C002046FFF7A5FF9DF80B3053B12368142483
:105A8C0004FB0034083434F9023C002BA8BFDEB20E
:105A9C00E4E7304605B0F0BD10B5094C2368DB07D0
:105AAC000BD42046FEF702FB38B12046FEF703FB71
:105ABC00044A0549054801F07BFC044810BD00BFB1
:105ACC00B0E40320ECE30320EF580D007CE303204B
:105ADC0010B5094C2368DB070BD42046FEF7E6FA19
:105AEC0038B12046FEF7E7FA044A0549054801F0AB
:105AFC005FFC044810BD00BFE0E40320ECE303208E
:105B0C00ED580D0078E3032038B5002504460560F8
:105B1C004560856005614561856140F8245FFEF74D
:105B2C0041FEFFF7B9FFE061FFF7D2FF257320625A
:105B3C00204638BD10B50A4C2368DB070ED420462E
:105B4C00FEF7B4FA50B10748FFF7DEFF2046FEF728
:105B5C00B2FA054A0549034801F02AFC014810BD78
:105B6C00B4E40320B8E40320ECE30320AB5F0D00A6
:105B7C000023024A02490348FEF794BF8D5E0D00D4
:105B8C001D5E0D00A55D0D0000231A461946184632
:105B9C00FEF788BF73B502AC8E6851F8043B44F82D
:105BAC00083D054601A8FFF790F8224631462846E5
:105BBC00FFF75AFE01A8FFF78FF8284602B070BD18
:105BCC0073B502AC0E6951F8043B44F8083D054628
:105BDC0001A8FFF77AF8224631462846FFF75FFE08
:105BEC0001A8FFF779F8284602B070BD73B502AC76
:105BFC00CE6851F8043B44F8083D054601A8FFF770
:105C0C0064F8224631462846FFF706FE01A8FFF746
:105C1C0063F8284602B070BD30B58BB00D46014616
:105C2C0004A8FFF7B7FF04A8FFF729FDE8B104A902
:105C3C006846FFF7DBFF0F490298FFF791FE044619
:105C4C0010B12C1C18BF012401A8FFF745F8002C3B
:105C5C00E9D004A96846FFF7B3FF6846FFF7EFFCED
:105C6C00286001A8FFF738F8DDE705A8FFF734F83E
:105C7C000BB030BD987E0D0037B50C46204613494D
:105C8C00154601F035FF40B901F028FA4FF41651D2
:105C9C0001F014FA01F022FA15E00D49204601F04A
:105CAC0027FF78B902A94FF4165341F8043D284652
:105CBC00FFF7B2FF01F06CF9019901F05FF901F007
:105CCC0067F900E0002003B030BD00BF9D7E0D00E1
:105CDC00A47E0D0070B5046843681426054606FBC7
:105CEC000346A64205D004F10800FFF7F3FF143475
:105CFC00F7E72868FEF792FF284670BD70B5046878
:105D0C004368054604EB0316A64204D0204600F077
:105D1C00C2FF1034F8E72868FEF780FF284670BDF4
:105D2C0010B504460C30FFF7D5FF2046FFF7E6FF11
:105D3C00204610BD10B5044B044640F8043BFFF759
:105D4C00EFFF204610BD00BFF47C0D0010B50446DB
:105D5C00FFF7F0FF2046242101F02FFB204610BD59
:105D6C0010B5034B03600446FFF7E4FF204610BD5B
:105D7C00887E0D0010B50446FFF7F2FF2046242163
:105D8C0001F01BFB204610BD10B5036804461868D3
:105D9C00FEF720FD204610BD2DE9F04F9B461B4B16
:105DAC005B68C3F3080385B082460E46904653BB2E
:105DBC00FFF7C0FE044624300390FFF7E5FD237B7C
:105DCC00F3B90123237325686368F6B205EB8309E5
:105DDC004D4513D055F8047B4146381DFFF730FE76
:105DEC008642F5D33B68CDF800B09B689E4638469A
:105DFC004346324651467746B847E9E700232373BA
:105E0C0003A8FFF7C1FF05B0BDE8F08F00ED00E07F
:105E1C002DE9F74F9946194B5B68C3F30803074606
:105E2C008846164633BBFFF785FE044624300190A6
:105E3C00FFF7AAFD237BD3B901232373256863687D
:105E4C005FFA86FB05EB830A55450ED055F8046BBB
:105E5C004946301DFFF7F4FD8345F5D333684246C0
:105E6C00DB68394630469847EEE70023237301A8D8
:105E7C00FFF78AFF03B0BDE8F08F00BF00ED00E034
:105E8C002DE9F341154B5B68C3F3080304468846C0
:105E9C00FBB9FFF74FFE064624300190FFF774FD67
:105EAC0096E8A000462605EB8707AF4207D101A86C
:105EBC00FFF76AFFB442B4BF002001200AE055F896
:105ECC00040B41460430FFF7BBFD8642A8BF0646D3
:105EDC00EBE7002002B0BDE8F08100BF00ED00E070
:105EEC0070B503684268044603EB82029A42184676
:105EFC000ED006680D68AE4203F10403F6D1011D05
:105F0C00521A01F092FD6368013B6360012070BD81
:105F1C00002070BD1FB50446243001910390FFF79B
:105F2C0033FD01A92046FFF7DBFF20B903A8FFF7DB
:105F3C002BFF04B010BD6368002BF7D1FFF724FED4
:105F4C00F4E770B5056943691826044606FB035649
:105F5C00AE4215D005F110012046FFF7C1FF636872
:105F6C000BB9FFF711FEE06929690368DB689847F4
:105F7C00696919B1206A0368DB6898471835E7E747
:105F8C0025696369182606FB0356B54204D02846DA
:105F9C0000F081FE1835F8E70023636170BD73B51E
:105FAC00044602ADFFF7F0FD04F1240045F8040DA2
:105FBC00FFF7EAFC2046FFF7C4FF2846FFF7E4FE94
:105FCC00606A08B1FEF7F6FB25696369182606FBC3
:105FDC000356B54204D0284600F05DFE1835F8E7AC
:105FEC002069FEF71BFE2068FEF718FE204602B063
:105FFC0070BD03680A6802600B6043684A684260BF
:10600C004B6083688A6882608B60704710B5002390
:10601C000446036043608360FFF7EBFF204610BD2E
:10602C008842F8B50446164625D9904224D2551A12
:10603C00143D2C44A1F11407A2F10C050026A5F186
:10604C0008039F4237D084B155F8083C236035F8DB
:10605C00043CA38035F9023CE380A660E66026612F
:10606C00294604F10800FFF7C4FF2846FFF732FE6B
:10607C00143C143DE3E71ED001F108050027A5F1FF
:10608C0008039E4217D084B155F8083C236035F8BC
:10609C00043CA38035F9023CE380A760E7602761EC
:1060AC00294604F10800FFF7A4FF2846FFF712FE6B
:1060BC0014341435E3E7F8BDF8B5456883689D42A0
:1060CC0004460E4617460EDB0135002D05DDA900F2
:1060DC000068FEF7ABFD20B9F8BD0068FEF79EFD29
:1060EC0000202060A5602568626805EB860105EB41
:1060FC008202521A081D01F098FC45F8267063685C
:10610C00013363600120F8BD37B5044624300D46D9
:10611C000190FFF739FC2368616803EB810083422F
:10612C001A4609D01268AA4203F10403F7D101A858
:10613C00FFF72AFE00250EE02A462046FFF7BCFF9B
:10614C0005460028F3D06368012B01D1FFF710FD41
:10615C0001A8FFF719FE284603B030BD8842F8B5F8
:10616C0006460C46154614D9904213D2A2F11005DE
:10617C006C1AA1F110070444AF4218D01CB1294687
:10618C00204600F078FD284600F085FD103D103CBF
:10619C00F2E70CD0AC420AD01EB12146304600F0DA
:1061AC006AFD204600F077FD10341036F2E7F8BD9A
:1061BC0070B50E1E05460BDD3001FEF727FD0446BB
:1061CC0070B195E8060001EB0212FFF7C7FF00E083
:1061DC0000242868FEF722FD2C60AE60012070BD03
:1061EC0070BD2DE9F04F002395B092464622036016
:1061FC0043608360C3600361436102760291DAF805
:10620C00041008939942054609930A9340F39D8024
:10621C0008A8FFF7CDFF002840F097808EE02146BC
:10622C000BA800F028FD0BA90FA8099E00F023FD78
:10623C0009990A9B9942C0F2CE80013108A8FFF758
:10624C00B7FF002840F0C7800FA800F024FD0BA872
:10625C0000F021FD1434A742E1D100260B960C96D8
:10626C000D96B146099B9E4280F2A8803301089A94
:10627C00D3580693002B00F09F8014237343CDF862
:10628C001C9001930BAC07A906A8FFF72CFB074643
:10629C00002800F0918014AB014603F8399D079A51
:1062AC002046FFF78DFB9DF817800090B8F1000F8A
:1062BC0053D1BDF81C30ADF840304FF6FF730F973B
:1062CC00ADF84230CDF84480CDF84880CDF84C8004
:1062DC006768A3689F424FDA009BD4F800B06168EE
:1062EC00142253430BEB030702FB01B207F114001A
:1062FC0039460393FFF794FEA7B1039B0F9A4BF813
:10630C000320BDF84030BB80BDF94230FB80C7F89C
:10631C000890C7F80C90C7F8109011A907F1080065
:10632C00FFF767FE63680133636011A8FFF7D2FCC7
:10633C00B8F1000F11D00BA8FFF7CCFC08A8FFF7A1
:10634C00DDFC284615B0BDE8F08FDAF80040DAF82D
:10635C000430142707FB03477DE72368009A1424B5
:10636C0004FB0234069B1B7823BBDAF80030019A3D
:10637C0013441B7CE3801DE00137002F0FDD142339
:10638C0003FB07F00393FEF741FC834678B194E8D6
:10639C000600039B03FB0212FFF742FE00E0C3461C
:1063AC002068FEF73BFCC4F800B0A76094E74FF000
:1063BC000108BAE7083466E7013653E708A928460E
:1063CC00FFF717FE0BA905F10C00FFF712FE9DF865
:1063DC0008302B76AFE7089B099A03EB061603EB04
:1063EC000212314606F11000FFF7B8FE1EB10FA9DC
:1063FC00304600F040FC099B0133099324E7000070
:10640C007FB50446094B44F8043B05460E4601A8EB
:10641C001146FDF7B4FF01AA31462046FFF7E1FE15
:10642C0001A8FDF76BFF284604B070BDF47C0D008D
:10643C00F0B50F468BB02B49109C384616461D46BE
:10644C0001F056FB28BB002C49D0294601A8FFF7C8
:10645C00DDFD2549242000F0BBFF0546B8B101A99C
:10646C0004A8FFF7D3FD04A907A8FDF788FF07AA26
:10647C0031462846FFF7C4FF07A8FDF73FFF1B4B2B
:10648C002B602C6204A8FDF739FF194B2B6001A877
:10649C001FE01849384601F02BFBF0B9FCB1294636
:1064AC0004A8FFF7B3FD1049242000F091FF054626
:1064BC0070B104A907A8FDF762FF07AA3146284668
:1064CC00FFF79EFF07A8FDF719FF084B2B602C6206
:1064DC0004A8FDF713FF284602E0002000E0204648
:1064EC000BB0F0BDF67E0D00B0800D007C7F0D0072
:1064FC00887E0D00FA7E0D00014B024A1A6070472F
:10650C00E4E403200B7F0D002DE9F047089DD0F843
:10651C00209004460E461746984600F0DFFD814554
:10652C0005D15A4800F073FA002840F0AC802B7962
:10653C001B0705D56B69564A206A002100F03FFB0A
:10654C00B8F1000F0DD05B212046FFF72EFA414623
:10655C002046FFF71CFA23684E49DB6802222046CE
:10656C0098472B79D90725D5D5F808802F21404697
:10657C0001F008FB08B100F1010841462046FFF785
:10658C0006FA2B799A0709D53A212046FFF70DFA1E
:10659C00EB68414A206A002100F011FB2B7913F0C3
:1065AC00040F236818BF3D49DB6808BF3C49022231
:1065BC00204698472B795B0718D529690A4613465C
:1065CC0013F8010B38B1202801D1194601E0282815
:1065DC0001D01A46F3E72368521ADB682046984725
:1065EC0023683049DB68042220469847002138464E
:1065FC00FEF750FA01462046FFF7C9F923682849EF
:10660C00DB680222204698471EB131462046FFF730
:10661C00BEF92B7913F0300F2DD023682249DB689B
:10662C002046022298472B79D8060BD523681F49A0
:10663C00DB68072220469847AB691D4A206A002177
:10664C0000F0BDFA2B79990611D5DA0605D5236829
:10665C001249DB6802222046984723681549DB68FB
:10666C0020460A229847E9692046FFF790F95D21F8
:10667C002046FFF79AF923680F49DB68204602226F
:10668C00BDE8F0471847BDE8F08700BFBCE6032023
:10669C000F7F0D00167F0D004B7E0D00197F0D0036
:1066AC001E7F0D001C7F0D00217F0D00247F0D002F
:1066BC002C7F0D002F7F0D003A7F0D002DE9F0434C
:1066CC0085B0D0F820800C9C06460F4691461D469E
:1066DC0000F004FD804505D14A4800F098F90028E7
:1066EC0040F08C80336A484A01924FF0000801A8B0
:1066FC0003938DF80880FEF7ECFF41464846FEF701
:10670C00C9F942498046012201A8FFF767F84146C2
:10671C00FFF72DF93FB13E49012201A8FFF75EF8C2
:10672C003946FFF724F93DB13A49012201A8FFF798
:10673C0055F82946FFF71BF92379DF070ED5A56815
:10674C002F21284601F01EFA00B1451C32490122C6
:10675C0001A8FFF743F82946FFF709F923799D07AC
:10676C0007D52E49022201A8FFF738F8E168FEF799
:10677C00BDFF2379580716D525692F463B4613F8DC
:10678C00012B3AB1202A01D11D4601E0282A01D063
:10679C001F46F3E70222224901A8FFF71FF87A1BD4
:1067AC002946FFF72AF82379190707D51D49012235
:1067BC0001A8FFF713F86169FEF7AAFF2379DA063F
:1067CC0008D5042218490DEB0200FFF707F8A16960
:1067DC00FEF78CFF23799B0607D51449062201A8E6
:1067EC00FEF7FCFFE169FFF7C2F801A8FEF75BFFBB
:1067FC00306A0F4903680222DB68984705B0BDE890
:10680C00F08300BFBCE60320707E0D00A27E0D005D
:10681C00B57E0D006E7F0D00607D0D003D7F0D007F
:10682C00407F0D00CA7E0D00437F0D00487F0D0098
:10683C003A7F0D00002211464068FEF7CFB90022C6
:10684C0011464068FEF7DAB900224068FEF7CEB96F
:10685C00002281F001014068FEF7B8B900231A4606
:10686C0001214068FEF7AAB900231A461946406870
:10687C00FEF79CB9002211464068FEF78FB9002242
:10688C0011464068FEF77AB9002202214068FEF7F3
:10689C007DB900231A464068FEF768B938B505463D
:1068AC0088B104684CB1A3681BB103222146204671
:1068BC0098471021204600F080FD28461421BDE8A1
:1068CC00384000F07ABD38BD10B103685B681847DA
:1068DC00704710B503680446BBB15868FDF74AFF12
:1068EC0078B923685A7C12B95868FDF74BFF2368B6
:1068FC005868FDF74FFF20680023236028B1FFF78D
:10690C00CDFF206808B1FFF7C9FF204610BD38B590
:10691C000446D0F8C40108B1FDF7BBFBD4F8C001A4
:10692C0008B1FDF747FFD4F8BC5135B12846FFF745
:10693C00D0FF0421284600F040FD206808B1FFF785
:10694C00C3FF204638BD000010B5044B044640F888
:10695C00083BFFF7DCFF204610BD00BFC47F0D00D5
:10696C0038B50E4C0E4B23600025022304F5E47061
:10697C006360A560C4F8C451C4F8C851FDF712FF98
:10698C00084BC4F8CC5184F8D05123602046064AF9
:10699C000649BDE8384000F00BBD00BFE8E4032019
:1069AC00F87F0D00C47F0D00ECE3032055690D004A
:1069BC0000231A464068FEF7D9B80022022140682D
:1069CC00FEF7E4B8002211464068FEF7D7B8002263
:1069DC0011464068FEF7E2B800231A461946406893
:1069EC00FEF7E4B800231A4619464068FEF7E6B8ED
:1069FC00002281F001014068FEF7E8B800224068EF
:106A0C00FEF7F4B8002211464068FEF7F7B80022F2
:106A1C0011464068FEF7E2B82DE9F043002495B02A
:106A2C0016460D460746FEF74DFD214620220CA8C2
:106A3C00009401F015F840230C9321466B460CAAE8
:106A4C003046FDF76FFF0446002844D10246012171
:106A5C006868FEF7A3F80221804622466868FEF7B4
:106A6C009DF8009E81462146002E34D0002932D15B
:106A7C007368022B02D00A2B09D02AE0B8F1000F60
:106A8C0027D0716938460431FEF749FD20E0B9F191
:106A9C00000F1ED07469112201A800F0E1FF06233B
:106AAC008DF8143001AD04F10803183418685968D6
:106ABC002A4603C20833A3421546F7D101A906A8FA
:106ACC0007ADFEF70DFD0FCD3C1D0FC42B682370D9
:106ADC000121F669C8E70098FDF71CFF384615B090
:106AEC00BDE8F083024B034A1A6000225A607047DB
:106AFC00BCE60320F87F0D00F8B506460D468F184E
:106B0C000024BD420CD0336815F8011B9B6830463D
:106B1C009847002801DB0444F3E7002C08BF044627
:106B2C002046F8BD70B505460C46084649B101F043
:106B3C000CF82B68024621462846DB68BDE87040FD
:106B4C00184770BD08B5FFF7EDFF08BD03689B68DB
:106B5C00184738B50D210546FFF7F8FF0A21044602
:106B6C002846FFF7F3FF204438BD38B50546FFF73C
:106B7C00D9FF04462846FFF7ECFF204438BD30B55A
:106B8C008BB00B4600218DF82410012A98BF0A22E5
:106B9C000DF12304B3FBF2F505FB123303F0FF03F5
:106BAC00092B94BF30333733DBB2214604F801395B
:106BBC002B46002DEED1FFF7B5FF0BB030BD0CB45A
:106BCC002DE9F04387B000AF07F13804054654F8BF
:106BDC00049B3C600E4623464A461421381DFEF7A2
:106BEC002DF8132805D8391D2846FFF79BFF0446BE
:106BFC0013E000F1080323F00703E846ADEB030DA7
:106C0C00411C23464A4668463C60FEF717F8694625
:106C1C002846FFF787FF0446C5461EB12846FFF7F6
:106C2C0098FF044420461C37BD46BDE8F04302B033
:106C3C00704710B50446FEF794F8204610BD0000CE
:106C4C000348044A04490023836000F0B1BB00BF31
:106C5C00C4E60320ECE303203F6C0D0010B50446A2
:106C6C0001700846FDF766FE00236360204610BDE8
:106C7C000078FDF767BE00230360436083600373F5
:106C8C0010B50C6804604C6844608C6884600B60C0
:106C9C004B608B6010BD10B504460068FDF7BEFF5D
:106CAC00204610BD10B50446006808B1FDF7B6FFCC
:106CBC0000232360A360636010BD38B504460D4605
:106CCC0000680131FDF7B2FF10B184E8210001200A
:106CDC0038BD10B50368044613B143688B4207D224
:106CEC002046FFF7EAFF20B1A3680BB922681370A6
:106CFC00012010BD70B50E46114604461546FFF72F
:106D0C00E8FF18B92046FFF7CDFF09E02A463146C7
:106D1C00A560206800F07EFE2268A3680021D15493
:106D2C00204670BD38B50023044603604360836081
:106D3C0003730D4639B1084600F007FF2946024699
:106D4C002046FFF7D7FF204638BD884210B50B46CA
:106D5C00044607D0096819B19A68FFF7CBFF01E028
:106D6C00FFF7A0FF204610BD10B5002304460360BA
:106D7C00436083600373FFF7E8FF204610BD38B50E
:106D8C0005460C4641B1084600F0DFFE214602469E
:106D9C002846FFF7AFFF01E0FFF784FF284638BD18
:106DAC0070B504460E4609B9002070BD6AB18368FF
:106DBC00D5182946FFF78DFF0028F5D02068A36869
:106DCC003146184400F09EFEA560012070BD10B540
:106DDC008A6809680446FFF7E3FF10B92046FFF7FD
:106DEC0061FF204610BD38B504460D4641B108463A
:106DFC0000F0ABFE294602462046FFF7D1FF10B942
:106E0C002046FFF74FFF204638BD00000EB4FFB5FB
:106E1C0009AC054654F8047B019423463A460521F7
:106E2C0002A8FDF70BFF0C4906462846FFF77AFF30
:106E3C0031462846FFF74DFF286830B123463A46C5
:106E4C00711C0194FDF7FAFEA860284604B0BDE859
:106E5C00F04003B0704700BF3C7F0D0010B50446F6
:106E6C00006818B1FDF7DAFE0023236010BD10B5E1
:106E7C000446FFF7F3FF204610BD000010B5094C87
:106E8C0000204FF6FF732060A080A07120816381E9
:106E9C00FDF710FE2046044A0449BDE8104000F0FE
:106EAC0087BA00BFD4E60320ECE303207B6E0D0011
:106EBC00024B1A68024B1A60704700BF80E3032034
:106ECC00E0E6032070474174704708B5007CFDF77D
:106EDC0081FD20EAE07008BD08B5007CFDF752FD8D
:106EEC0020EAE07008BD08B5007CFDF75BFD30EAD8
:106EFC00200028BF4FF0FF3008BD08B5007CFDF71F
:106F0C0049FD30EA200028BF4FF0FF3008BD007C5F
:106F1C00FDF750BD10B51421044600F04EFA204682
:106F2C0010BD70B5457C04460E4625B9007CFDF7B6
:106F3C0051FD002805DD3146207CBDE87040FDF791
:106F4C0019BD284670BD000010B504460846114610
:106F5C00002262604FF47A72A260054A226001221C
:106F6C00207462741A46FDF7F5FC204610BD00BF74
:106F7C0058800D000023007CFDF734BD0022FFF784
:106F8C00F9BF007CFDF7EEBC007CFDF71BBD0000DB
:106F9C00F8B5194C25684DB98420FDF776F80646EE
:106FAC0018B18422294600F05BFD2660134D2E6833
:106FBC004EB98420FDF769F8074618B18422314692
:106FCC0000F04EFD2F600E4F396811F0010611D103
:106FDC003846FDF76BF868B122682B6809483146D2
:106FEC00FFF7B2FF3846FDF766F8074A0749054830
:106FFC0000F0DEF90348F8BD00E70320F8E60320B3
:10700C00FCE60320E4E60320ECE30320D16E0D0044
:10701C0041747047704708B50021007CFDF712FDE4
:10702C0030EA200028BF4FF0FF3008BD08B5012121
:10703C00007CFDF707FD30EA200028BF4FF0FF3041
:10704C0008BD08B5007CFDF7F5FC20EAE07008BD32
:10705C0008B5007CFDF7E6FC20EAE07008BD007C7A
:10706C00FDF700BD10B51421044600F0A6F920462A
:10707C0010BD38B50446007C0D46FDF7DBFC00283E
:10708C0001DC607C28B12946207CFDF7E3FC20EA7A
:10709C00E07038BD10B50446002363604FF47A737A
:1070AC00A360054B236001230846217463741146C9
:1070BC00FDF7A0FC204610BD88800D000022007C4E
:1070CC00FDF7A0BC007CFDF7A5BC10B5142204464E
:1070DC00002100F0C5FC204610BD000030B50E4D5F
:1070EC0087B001A8FFF7F1FF296811F0010410D156
:1070FC002846FCF7DBFF60B101AA21460748FFF7E1
:10710C00C9FF2846FCF7D7FF054A0649034800F09B
:10711C004FF9024807B030BD04E7032008E703200D
:10712C00ECE3032021700D0008B50F4B33B1FFF7D2
:10713C00D5FF03681B69984700280DDC0B4B33B156
:10714C00FFF726FF03681B699847002807DC084BEC
:10715C0043B1AFF3008008BDAFF30080EEE7AFF3AF
:10716C000080F4E708BD00BF000000000000000034
:10717C000000000008B5FFF7D7FFFDF74BFB014BF4
:10718C00186008BD30E703200248034A0349121A6D
:10719C0000F040BC00F4032004F4032060820D00D6
:1071AC0007B5002300931A466FF07701FDF7B4FC86
:1071BC0003B05DF804FB000007B543880A2B08D028
:1071CC00502B09D1094B1B683BB103B05DF804EBA4
:1071DC001847FFF7E5FF06E0002300931A466FF00F
:1071EC007701FDF799FC03B05DF804FB1CE7032065
:1071FC0038B5104C104D2368AB42104B0CBF01221C
:10720C0000221A7002D0FFF7BFFF2560FDF7EAFAE3
:10721C00044600F02DFC0A4B13B12046AFF300805E
:10722C0000210748FDF79AFC00210648BDE83840CC
:10723C00FDF768BC00F403201E1C279A20E70320EE
:10724C0000000000C5710D0070B5184E316811F0CA
:10725C00010504460AD13046FCF728FF30B1294617
:10726C001348FFF7FBFC3046FCF725FF1048FFF7EF
:10727C00FFFC28B1A4F10B03022B01D8002070BD38
:10728C0000F070F8FEF7B6F808B1012CF6D9FFF74C
:10729C007FFEFFF779FE18B1A4F10903012BEDD99C
:1072AC001E2C8CBF0020012070BD00BF24E70320E2
:1072BC0028E703201E2838B504460D460AD8FF29B6
:1072CC0008D0FFF7C1FF28B129462046BDE8384059
:1072DC00FDF7B0BA38BD38B504460D46FDF7B2FA25
:1072EC00FF2810D0062804D84D2323FA00F0C3073A
:1072FC0009D42046FFF7A8FF28B129462046BDE84F
:10730C003840FDF7A7BA38BD10B50446FDF79AFA18
:10731C000438C0B2012808D92046FFF795FF20B1E8
:10732C002046BDE81040FDF79DBA002010BD0000BE
:10733C0070B5044614252A46094E002100F090FB36
:10734C00258020253146A5602561284600F04FF8A0
:10735C0031466060284600F04AF8E060204670BD77
:10736C00B0800D0030B50E4D296811F0010487B0C6
:10737C0013D12846FCF79AFE78B101A8FFF7D8FF85
:10738C0001AA21460748FEF723F82846FCF793FE8E
:10739C00054A0649034800F00BF8024807B030BD17
:1073AC0034E7032038E70320ECE3032085530D007A
:1073BC000B460146184600F01FBBFCF768BE0000E8
:1073CC00024B1868BFF35F8F704700BF4CE7032078
:1073DC0010B5002814BF044601242046FDF716FC06
:1073EC0020B9FFF7EDFF08B18047F6E710BDFFF7B6
:1073FC00EFBF08B5FDF72AFC244B1A68D0075CBF19
:10740C0001221A60224B1A68D1075CBF01221A6054
:10741C00204B1A68D2075CBF01221A601E4B1A68F7
:10742C00D0075CBF01221A601C4B1A68D1075CBFE5
:10743C0001221A601A4B1A68D2075CBF01221A602B
:10744C00184B1A68D0075CBF01221A60164B1A68D9
:10745C00D1075CBF01221A60144B1A68D2075CBFBB
:10746C0001221A60124B1A68D0075CBF01221A6005
:10747C00104B1A68D1075CBF01221A600E4B1A68B8
:10748C00D2075CBF01221A60704700BF7CE7032063
:10749C0078E7032074E7032070E703206CE70320F0
:1074AC0068E7032064E7032060E703205CE7032020
:1074BC0058E7032054E7032050E70320184B1A68C1
:1074CC00D1075CBF01221A60164B1A68D2075CBF49
:1074DC0001221A60144B1A68D0075CBF01221A6093
:1074EC00124B1A68D1075CBF01221A60104B1A6844
:1074FC00D2075CBF01221A600E4B1A68D0075CBF22
:10750C0001221A600C4B1A68D1075CBF01221A6069
:10751C000A4B1A68D2075CBF01221A60704700BF81
:10752C009CE7032098E7032094E7032090E70320CF
:10753C008CE7032088E7032084E7032080E70320FF
:10754C00184B1A68D1075CBF01221A60164B1A68D7
:10755C00D2075CBF01221A60144B1A68D0075CBFBB
:10756C0001221A60124B1A68D1075CBF01221A6003
:10757C00104B1A68D2075CBF01221A600E4B1A68B6
:10758C00D0075CBF01221A600C4B1A68D1075CBF94
:10759C0001221A600A4B1A68D2075CBF01221A60DA
:1075AC00704700BFBCE70320B8E70320B4E7032013
:1075BC00B0E70320ACE70320A8E70320A4E70320EF
:1075CC00A0E70320244B1A68D0075CBF01221A6085
:1075DC00224B1A68D1075CBF01221A60204B1A6833
:1075EC00D2075CBF01221A601E4B1A68D0075CBF21
:1075FC0001221A601C4B1A68D1075CBF01221A6069
:10760C001A4B1A68D2075CBF01221A60184B1A6811
:10761C00D0075CBF01221A60164B1A68D1075CBFF9
:10762C0001221A60144B1A68D2075CBF01221A603F
:10763C00124B1A68D0075CBF01221A60104B1A68F3
:10764C00D1075CBF01221A600E4B1A68D2075CBFCF
:10765C0001221A60704700BFECE70320E8E7032023
:10766C00E4E70320E0E70320DCE70320D8E703206E
:10767C00D4E70320D0E70320CCE70320C8E703209E
:10768C00C4E70320C0E7032081F0004102E000BF03
:10769C0083F0004330B54FEA41044FEA430594EAC6
:1076AC00050F08BF90EA020F1FBF54EA000C55EA01
:1076BC00020C7FEA645C7FEA655C00F0E2804FEAD2
:1076CC005454D4EB5555B8BF6D420CDD2C4480EAB4
:1076DC00020281EA030382EA000083EA010180EAE4
:1076EC00020281EA0303362D88BF30BD11F0004F32
:1076FC004FEA01314FF4801C4CEA113102D0404268
:10770C0061EB410113F0004F4FEA03334CEA1333A2
:10771C0002D0524263EB430394EA050F00F0A780BA
:10772C00A4F10104D5F1200E0DDB02FA0EFC22FAB5
:10773C0005F2801841F1000103FA0EF2801843FAA9
:10774C0005F359410EE0A5F120050EF1200E012A9A
:10775C0003FA0EFC28BF4CF0020C43FA05F3C018D8
:10776C0051EBE37101F0004507D54FF0000EDCF151
:10777C00000C7EEB00006EEB0101B1F5801F1BD3FA
:10778C00B1F5001F0CD349085FEA30004FEA3C0CFE
:10779C0004F101044FEA445212F5800F80F09A80F4
:1077AC00BCF1004F08BF5FEA500C50F1000041EBF8
:1077BC00045141EA050130BD5FEA4C0C404141EBFC
:1077CC00010111F4801FA4F10104E9D191F0000F23
:1077DC0004BF01460020B1FA81F308BF2033A3F1A6
:1077EC000B03B3F120020CDA0C3208DD02F1140C9D
:1077FC00C2F10C0201FA0CF021FA02F10CE002F1D8
:10780C001402D8BFC2F1200C01FA02F120FA0CFCD0
:10781C00DCBF41EA0C019040E41AA2BF01EB045119
:10782C00294330BD6FEA04041F3C1CDA0C340EDC17
:10783C0004F11404C4F1200220FA04F001FA02F35A
:10784C0040EA030021FA04F345EA030130BDC4F118
:10785C000C04C4F1200220FA02F001FA04F340EA0D
:10786C000300294630BD21FA04F0294630BD94F0BE
:10787C00000F83F4801306BF81F480110134013DA5
:10788C004EE77FEA645C18BF7FEA655C29D094EA16
:10789C00050F08BF90EA020F05D054EA000C04BF94
:1078AC001946104630BD91EA030F1EBF002100207F
:1078BC0030BD5FEA545C05D14000494128BF41F01E
:1078CC00004130BD14F580043CBF01F5801130BD82
:1078DC0001F0004545F0FE4141F470014FF000000D
:1078EC0030BD7FEA645C1ABF194610467FEA655CBE
:1078FC001CBF0B46024650EA013406BF52EA033560
:10790C0091EA030F41F4002130BD00BF90F0000F4D
:10791C0004BF0021704730B54FF4806404F1320489
:10792C004FF000054FF0000150E700BF90F0000F42
:10793C0004BF0021704730B54FF4806404F1320469
:10794C0010F0004548BF40424FF000013EE700BF39
:10795C0042004FEAE2014FEA31014FEA02701FBFC9
:10796C0012F07F4393F07F4F81F06051704792F09B
:10797C00000F14BF93F07F4F704730B54FF4607415
:10798C0001F0004521F0004120E700BF50EA010260
:10799C0008BF704730B54FF000050AE050EA01020D
:1079AC0008BF704730B511F0004502D5404261EB7D
:1079BC0041014FF4806404F132045FEA915C3FF4BE
:1079CC00DCAE4FF003025FEADC0C18BF03325FEA57
:1079DC00DC0C18BF033202EBDC02C2F1200300FA0C
:1079EC0003FC20FA02F001FA03FE40EA0E0021FA31
:1079FC0002F11444C1E600BF10B5054C13462CB17E
:107A0C000A4601460220AFF3008010BD204610BD8F
:107A1C000000000010B5431E0A44914204D011F836
:107A2C00014B03F8014FF8E710BD884210B501EB8C
:107A3C00020301D8421E0BE09842FBD28118D21AE5
:107A4C00D34204D013F8014D01F8014DF8E710BDF5
:107A5C00994204D011F8014B02F8014FF8E710BD20
:107A6C0002440346934202D003F8011BFAE7704725
:107A7C0038B5124B1C68A36B0546D3B91820FDF71B
:107A8C00C5F843F20E33A06303804AF6CD3343802E
:107A9C0041F2342383804EF26D63C3804DF6EC6368
:107AAC000381052343810B23838101220023C0E939
:107ABC000423A36B00221D615A6138BDE8E3032047
:107ACC00C9B2034610F8012B1AB19142F9D11846EC
:107ADC00704700290CBF18460020704710B50446AB
:107AEC00FFF7EEFF18B9204600F02FF8204410BD28
:107AFC0010F8012B11F8013B012A28BF9A42F7D04C
:107B0C00D01A7047034611F8012B03F8012B002AF9
:107B1C00F9D17047024B0146186800F003B800BF5A
:107B2C00E8E3032070B5064608460C4600F00DF855
:107B3C00451C29463046FDF791F8064618B12A46F1
:107B4C002146FFF767FF304670BD034613F8012B43
:107B5C00002AFBD1181A0138704730B582B1451E86
:107B6C00013915F8013F11F8014FA34206D1EC433E
:107B7C001444E04201D0002BF3D11C46181B30BD3D
:107B8C00104630BD38B503460D4641B10024294698
:107B9C001846FFF795FF30B1431C0446F7E7BDE8E4
:107BAC003840FFF78DBF204638BD00002DE9F04767
:107BBC0080464048D0F800900F463D4615F8014BE2
:107BCC0009EB0400407800F0080000F0FF0608B153
:107BDC002F46F2E72D2C03D1BD1C7C78012603E047
:107BEC002B2C04BF7C78BD1C13B1102B0AD15BE08D
:107BFC00302C57D1287800F0DF0058284DD16C7804
:107C0C0010230235002E14BF4FF0004C6FF0004CC7
:107C1C000027BCFBF3FA384603FB1ACC09EB040E25
:107C2C009EF801E01EF0040F01D0303C0BE01EF07A
:107C3C00030E1BD0BEF1010F0CBF4FF0370E4FF0EF
:107C4C00570ECEEB0404A34210DDB7F1FF3F0AD070
:107C5C00504506D801D1644503DC03FB00400127E5
:107C6C0001E04FF0FF3715F8014BD7E77B1C0CD127
:107C7C00002E4FF0220314BF4FF000406FF0004075
:107C8C00C8F800302AB9BDE8F08706B1404272B19D
:107C9C0007B1691E1160BDE8F0873024002BB1D10B
:107CAC000823AFE70A23ADE7302CA3D0AAE7BDE841
:107CBC00F08700BF84E3032013460A4601460248BE
:107CCC000068FFF773BF00BFE8E303201D400D0001
:107CDC0059400D0085400D0089400D00000000004A
:107CEC000000000000000000000000000000000088
:107CFC00A5400D00C9400D00000000000000000070
:107D0C00D5400D0009410D0015650D00CB400D004F
:107D1C0047617264656E2D4C6164792D4275672DD7
:107D2C0030342D436170003663556F6E7158734C4F
:107D3C006368666E387435463655735572784635B9
:107D4C00387145007B202276616C7565223A2022C1
:107D5C0000252E326600222C20226665656449447B
:107D6C00223A202200227D002044656C61793A621F
:107D7C006173656C696E653D0020204576656E7497
:107D8C003A0020546F756368002052656C6561730E
:107D9C006500204E6F6E6500636865636B206174CF
:107DAC00200000000000000000000000514D0D00FC
:107DBC00574D0D00AD4D0D00654D0D00534D0D0093
:107DCC00000000000000000067530D005D530D0023
:107DDC0053530D0049530D003D530D0031530D000D
:107DEC0025530D001D530D0013530D0009530D00A9
:107DFC00256A0D00000000000000000085530D00F6
:107E0C00CF530D00A7530D0087530D00AF530D003A
:107E1C00B7530D00BF530D00C7530D0000000000F9
:107E2C00000000006D540D005D540D005F540D00FA
:107E3C00302E300066616C736500747275650025B8
:107E4C006400257500252E2A6C66002567006E756A
:107E5C006C6C0075253034780000000000000000C8
:107E6C0000000000F1580D0017590D00CB580D0003
:107E7C006F550D0000000000000000006D5D0D004E
:107E8C00815D0D00C9660D00D3580D0062617564EB
:107E9C000053657269616C0053657269616C3100E5
:107EAC007479706500706172616D00636D64006956
:107EBC006400686E64007374726D0066696C7400A3
:107ECC006C766C0061646448616E646C65720072FF
:107EDC00656D6F766548616E646C657200656E7574
:107EEC006D48616E646C657273004A534F4E5374E7
:107EFC007265616D4C6F6748616E646C6572006190
:107F0C00707000253031307520005D20002C200071
:107F1C0028293A2000205B00636F6465203D200017
:107F2C0025690064657461696C73203D20000D0A3D
:107F3C00006C6E00666E00636F646500646574614E
:107F4C00696C006E6F6E6500747261636500696EBA
:107F5C00666F007761726E006572726F720070618D
:107F6C006E696300616C6C00000000000000000092
:107F7C00415D0D00595D0D0015650D00CB400D00E8
:107F8C000000000000000000EF580D0025590D0006
:107F9C003D640D00D5580D000000000000000000ED
:107FAC00ED580D0033590D00855C0D0041590D0045
:107FBC0000000000000000009F680D0095680D0097
:107FCC008B680D0081680D0075680D0069680D00E7
:107FDC005D680D0055680D004B680D0041680D0083
:107FEC00256A0D000000000000000000BD690D00B6
:107FFC00C7690D00D1690D00DB690D00E5690D0045
:10800C00F1690D00FD690D00096A0D00116A0D0082
:10801C001B6A0D00256A0D005A00252B3033643A7B
:10802C00253032750025592D256D2D256454254894
:10803C003A254D3A2553257A0061736374696D6551
:10804C00000000000000000000000000D16E0D00D8
:10805C00216F0D002F6F0D00056B0D00E56E0D00EF
:10806C00076F0D00F36E0D001B6F0D00D36E0D002E
:10807C00D76E0D00000000000000000021700D0004
:10808C0071700D007F700D00056B0D005D700D00A3
:10809C0023700D0039700D006B700D004F700D00CA
:1080AC001D700D00000020202020202020202028E2
:1080BC002828282820202020202020202020202094
:1080CC0020202020202088101010101010101010CC
:1080DC00101010101010040404040404040404040C
:1080EC00101010101010104141414141410101018B
:1080FC000101010101010101010101010101010164
:10810C000110101010101042424242424202020270
:10811C000202020202020202020202020202020233
:10812C0002101010102000000000000000000000E1
:10813C000000000000000000000000000000000033
:10814C000000000000000000000000000000000023
:10815C000000000000000000000000000000000013
:10816C000000000000000000000000000000000003
:10817C0000000000000000000000000000000000F3
:10818C0000000000000000000000000000000000E3
:10819C0000000000000000000000000000000000D3
:1081AC0000000000000000000000000000000000C3
:1081BC0000000000000000000000000000000000B3
:1081CC0000000000000000000000000000000000A3
:1081DC000000000000000000000000000000000093
:1081EC000000000000000000000000000000000083
:1081FC000000000000000000000000000000000073
:10820C00000000000000000043000000F1430D00DE
:10821C004D450D007D470D00294D0D0071530D008E
:10822C0005650D006D690D00F16A0D004D6C0D00BA
:10823C00896E0D00BD6E0D0005740D00C9740D0026
:10824C004D750D00D1750D00000000000000000000
:04825C00000000001E
:04826000000000001A
:10826400AC7F0D00947F0D0045800D00B1800D00A2
:1082740000000000B4810D00D4810D00F4810D00D4
:1082840000000000000000000000000000000000EA
:1082940014820D0000000000000000000000000037
:1082A40000000000000000000000000000000000CA
:1082B40000000000000000000000000000000000BA
:1082C40000000000000000000000000000000000AA
:0482D40088E3032018
:1082D800FFFFFFFF00000102030405060708090A63
:1082E8000B0C0D0E0F101112131415161718191A5E
:0882F8001B1C1D1E1F202800A5
:048300007856341265
:04000003D000401CCD
:00000001FF
