:02000002D0002C
:1040000000400D0058B30D00000006000D00050132
:0840100004019A080000000001
:0440180028A90D00C6
:1040200009480A49884208B505D0094A824202D0A7
:10403000121A06F0B3FA0748074A0021121A06F0CE
:10404000D5FA014808BD00BF98E303209CB20D00DB
:1040500028E4032028E40320F1E7032070B5074E8D
:10406000074C05F065FAA41BA4080025A54200D161
:1040700070BD56F8043B98470135F7E758B20D007C
:1040800084B20D0000F006BA08B500F05FFABDE892
:10409000084005F005BA02F025BB02F023BB02F090
:1040A00029BB000008B5034A00210C2002F0E0F90A
:1040B000FEE700BF41610D000078B0FA80F04009D2
:1040C00070470123037070477047006A0368DB681C
:1040D0001847000010B5034B0360044601F080F858
:1040E000204610BD34AC0D0010B50446FFF7F2FFBA
:1040F0002046102105F076FB204610BD0A4B10B576
:104100000446036003F0F0FB214603F0EEFD05F0EA
:1041100043F905F035F92046044B40F8043B03F021
:10412000D1FC204610BD00BF1CAC0D0004AC0D003E
:1041300010B50446FFF7E2FF2046242105F052FBAC
:10414000204610BDF8B5037D05460F4616468BB1D7
:104150000368DB6883B19A88012A06D09B68F9E777
:104160009B684BB19A88012AFAD12BB19A89BA423D
:10417000F6D19E732846F8BD0A49102005F034FB9D
:10418000044668B11022002106F030FA064B236085
:104190000123A3802B69A360A781A6732C61E9E7A3
:1041A0002875E7E7FCB00D00100003000EB410B551
:1041B0008DB00FAA016852F8044B0392002320200F
:1041C000CDE90403CDE900421E2004AA02F060F903
:1041D0000DB0BDE8104003B07047000008B50A48B4
:1041E00004F0B7FA094841F2CC03C380084B83605E
:1041F000002141F27203838102F0C0F905490246B1
:104200000548FFF7D3FF08BD61E5032078E40320EC
:10421000260252033CA90D0038E6032000000000EE
:1042200010B50F202DED028B05F034FA4FF47A70A3
:1042300002F0CCFA0F2005F02DFA04464FF47A7004
:1042400002F0C4FA204605F029FC2BA3D3E9002391
:1042500005F08EFC05F046FFDFED1F7A07EE100A31
:1042600067EE277A17EE900A05F02AFC1B4B002216
:1042700005F0C6FA00221A4B05F07AFC05F032FF71
:10428000184B186008EE100A05F01AFC164B0022B5
:1042900005F06EFC154B002205F094FD144B002236
:1042A00005F0B0FA05F01EFFFBEE047A114BB4EEF8
:1042B000E78AF1EE10FA18600BD4F3EE0E7AB4EE42
:1042C000E78AF1EE10FAD4BF01200020BDEC028B8A
:1042D00010BD0020FAE700BF000080390000E03F79
:1042E00000005940B8E503200000224000001440BF
:1042F00000004040BCE503206666666666660A40CC
:1043000010B5074C01F024FF2368C01AB0F57A7F7E
:1043100004D301F01DFF2060012010BD0020FCE748
:104320004CE4032030B5044685B00D46FFF7E8FFA6
:1043300010B902F037F9F9E7FFF7E2FF0E4B2A68F0
:104340001B788DF8003021683C2302A802F000FCA5
:10435000039C7CB16368013B63605BB923682046C2
:104360009B689847A368013BA3601BB9236820465C
:10437000DB68984705B030BD48E403207FB50446AC
:104380000D461E468AB10146684604F0FFFB0B4904
:10439000684604F05DFC294604F04EFC01680848BC
:1043A000FFF704FF684604F05BFB1EB12946204678
:1043B000FFF7B8FF012004B070BD00BF5DAF0D0076
:1043C00038E6032030B585B00D46002269460092DC
:1043D00002F076F8B0B9009C0CB1236923B90A4AFF
:1043E00000210A2002F044F80023ADF806300C2327
:1043F000ADF80430042303930295236901AA012137
:104400002046984705B030BD41610D0070B5D0E938
:1044100000531426044606FB0356AE4204D0284639
:1044200004F01EFB1435F8E7206802F063F920461B
:1044300070BD38B503681446DD680123A8472046DF
:1044400038BD000070B50F4D0F4A002411212846D9
:104450001470FFF7EEFF0D4A092128461470FFF78C
:10446000E8FF0B4A0126102128461670FFF7E1FFEE
:104470003146052005F0F5F821460520BDE87040DD
:1044800005F0EFB8E0E4032060E50320A4E5032095
:10449000E0E5032007B504F07FFF4FF4E13104F0BD
:1044A0006BFFFFF79BFE0021042005F0C9F80321F4
:1044B000082005F0C5F80121072005F0C1F8012109
:1044C000052005F0BDF80121052005F0CAF80021FE
:1044D000052005F0C6F80121062005F0B1F80321FA
:1044E000102005F0ADF80321132005F0A9F80021F4
:1044F000132005F0B6F801F0FDFB104B196801F030
:104500007FFC04F0F5FCF1EE047A30EE670A04F06B
:10451000CDFC0B4801F0A6F90A4800F077FE002315
:10452000009309494FF0FF330122082002F01AFEE0
:1045300003B05DF804EBFFF785BF00BF98E30320ED
:1045400088E50320E0E4032045440D002DE9F04117
:10455000994C9A4894B001F08BFA2378023B062BD1
:1045600000F2AA80DFE813F007007E00AB00D9005C
:104570006A015E03800302F025F8914E054600288B
:104580004ED090490AA804F0B6FA8F490EA804F05C
:10459000B2FA002301220EA90AA8FFF7EFFE0EA827
:1045A00004F05EFA0AA804F05BFA884B1B78C3B1EA
:1045B00087490AA804F09FFA86490EA804F09BFADE
:1045C00001231A460EA90AA8FFF7D8FE0EA804F088
:1045D00047FA0AA804F044FA01F0BAFD3060032358
:1045E00069E07D4F7D4D7E4801233A46092100F068
:1045F00017FE01237A482A46112100F011FE3B786C
:104600002BB173490AA804F076FA7649D5E72B78DE
:10461000002BE1D06E490AA804F06DFA7249CCE78C
:1046200001F0C8FF01F094FD3368C01A6F4B984247
:1046300042D964490AA804F05EFA6D490EA804F054
:104640005AFA2B4601220EA90AA8FFF797FE0EA8D8
:1046500004F006FA0AA804F003FA01F079FD3060CC
:10466000072328E0564D01F073FD2B68C01AB0F502
:104670007A7F21D35F490AA804F03DFA5E490EA86B
:1046800004F039FA002301220EA90AA8FFF776FEEA
:104690000EA804F0E5F90AA804F0E2F9574B01224C
:1046A0001A60574B00221A60564B00221A6001F024
:1046B0004FFD04232860237014B0BDE8F081102062
:1046C00004F0E8FF4E4D504A504E10602A680346F1
:1046D00013444A4A2B601368591C11603268934294
:1046E0001BDD64234A4A4B49009312680968002382
:1046F00002F060F8484B326818602B6893FBF2F3C5
:1047000007EE903A3F4BF8EEE77AC3ED007A01F0FE
:104710001FFD2B4B186005232370294D01F018FD58
:104720002A68801AB0F57A7FC6D3FFF779FD3B4E31
:1047300000283CD096ED000A02210EA804F04BFAA6
:1047400037480EA904F02DFA0EA804F089F935496E
:104750000AA804F0D0F934490EA804F0CCF90123DA
:104760001A460EA90AA8FFF709FE0EA804F078F968
:104770000AA804F075F92D4804F067F82C490AA836
:1047800004F0B9F92B490EA804F0B5F90023012271
:104790000EA90AA8FFF7F2FD0EA804F061F90AA815
:1047A00004F05EF901F0D4FC0623286083E7224977
:1047B0001B4804F0FEF9CAE7A4E3032088E50320C0
:1047C000B4E5032055A90D005EA90D00E0E5032026
:1047D00071A90D007EA90D00A4E5032060E503206A
:1047E000E0E4032090A90D009CA90D00E0930400D3
:1047F000A8A90D00C3A90D00D7A90D00ACE50320A1
:10480000B0E50320A8E5032050E40320A0E3032043
:104810009CE303205CE503209CE40320B8E503202F
:10482000C0E50320E8A90D00EEA90D0061E5032015
:10483000FFA90D000AAA0D00E6A90D0004F0ACFDC9
:10484000B84B1D68002D064680F2E5812D2104F04D
:104850003BF869420A223046B34F04F044F8304630
:1048600004F035F804F098FD3D68002D064680F20E
:10487000D4812D2104F028F869420A22304604F040
:1048800032F8304604F023F8A849A948A94DAA4EA9
:1048900004F08FF9A949AA4804F08BF9A9490EA898
:1048A00004F029F9A84B186805F00AF902460B46EE
:1048B0000AA8A64904F0E2F90AA90EA804F0BCF976
:1048C000A34904F0C5F99E4904F0B6F9A14904F0E2
:1048D000BFF90146A04804F04AF90AA804F0C0F85C
:1048E0000EA804F0BDF892490AA804F04FF99A49BD
:1048F0000EA804F04BF901231A460EA90AA8FFF7E7
:104900003DFD0EA804F0ACF80AA804F0A9F89349FC
:10491000874804F04EF99249894804F04AF98949D8
:104920000EA804F0E8F83A688E490AA804F0A6F93F
:104930000AA90EA804F080F9854904F089F9804994
:1049400004F07AF9834904F083F90146824804F0BF
:104950000EF90AA804F084F80EA804F081F874494E
:104960000AA804F013F97C490EA804F00FF90EA967
:104970000AA8FFF7D7FC0EA804F072F80AA804F002
:104980006FF80EA91820FFF71DFD0028A8BF0E988C
:1049900028600EA90720FFF715FD2B68724A002832
:1049A00023EAE373A8BF0E9852F8231030606F48D3
:1049B00004F0FFF833686E4A6E4823EAE37352F856
:1049C000231004F0F6F80EA90320FFF7FBFC0028E3
:1049D00040F02581BDF8383000EE103ABBEECC0A2D
:1049E00002210EA804F0F7F80EA9634804F0D9F8E4
:1049F0000EA804F035F8614802F0C6FA02210EA8AC
:104A000004F0E9F80EA95E4804F0CBF80EA804F013
:104A100027F85A4802F0D4FA02210EA804F0DBF875
:104A20000EA9584804F0BDF80EA804F019F856492C
:104A30000AA804F060F84D490EA804F0A7F8012375
:104A40001A460EA90AA8FFF799FC0EA804F008F868
:104A50000AA804F005F84D490AA804F04CF84549A5
:104A60000EA804F093F801231A460EA90AA8FFF72E
:104A700085FC0EA803F0F4FF0AA803F0F1FF4449F7
:104A80000AA804F038F83C490EA804F07FF8012386
:104A90001A460EA90AA8FFF771FC0EA803F0E0FF62
:104AA0000AA803F0DDFF3B490AA804F024F83449C2
:104AB0000EA804F06BF801231A460EA90AA8FFF706
:104AC0005DFC0EA803F0CCFF0AA803F0C9FF324931
:104AD0000AA804F010F82B490EA804F057F8012397
:104AE0001A460EA90AA8FFF749FC0EA803F0B8FF62
:104AF0000AA803F0B5FF29490D4804F05AF82849DF
:104B00000F4804F056F80F490EA803F0F4FF1C49B3
:104B10000EA804F091F80E4904F09AF8084904F040
:104B20008BF83FE050E403209CE403201EAA0D0014
:104B3000D0E4032084E5032074E4032035AA0D00AB
:104B4000C0E4032052AA0D00A8E503205FAA0D00CF
:104B500064AA0D0073AA0D00B0E4032076AA0D002C
:104B600098AA0D0052A90D00B0AC0D0074E5032009
:104B7000C8AC0D0064E5032064E40320F0E40320E6
:104B800038E4032028E40320B5AA0D00C3AA0D00D1
:104B9000D1AA0D00E0AA0D00EEAA0D00FAAA0D00A0
:104BA00012AB0D00A94904F053F80146A84803F0E0
:104BB000DEFF0EA803F054FFA6490AA803F0E6FFA3
:104BC000A3490EA803F0E2FF0EA90AA8FFF7AAFB6B
:104BD0000EA803F045FF0AA803F042FF9E490AA869
:104BE00003F089FF9D490EA803F085FF00230122F1
:104BF0000EA90AA8FFF7C2FB0EA803F031FF0AA80E
:104C000003F02EFF0021072004F02BFD01F0A0FA95
:104C1000934B186024E529461CE629462DE6BFEE95
:104C2000000ADDE68E4D01F093FA2B68C01A8D4B19
:104C300098427FF641AD8C490AA803F05CFF8B498E
:104C40000EA803F058FF002301220EA90AA8FFF7BF
:104C500095FB0EA803F004FF0AA803F001FF01F082
:104C600077FA0823286026E5814B1D78002D40F057
:104C700031817D49DFF820827E4F0AA803F03BFF97
:104C80007D490EA803F037FF2B4601220EA90AA882
:104C9000FFF774FB0EA803F0E3FE0AA803F0E0FEA2
:104CA00042461121754888F80050FFF7C2FB3A468A
:104CB000092172483D70FFF7BCFB714A6F481570BF
:104CC0001021FFF7B6FB0FAB01220E9313216D4BA2
:104CD0000F930EA8CDE91155ADF841508DF8435012
:104CE0008DF84C208DF84020FFF72CFA037D064606
:104CF000EBB10368DB682BB19A88042A00F00E81BF
:104D00009B68F8E76049102004F06EFD0546002816
:104D100000F002811022002105F068FC594B2B6045
:104D20000423AB803369AB60584BEB6035610EA94F
:104D300003A804F001F80021132004F092FC039B67
:104D40002BB39D88012D22D19B895149132B06A895
:104D500040F0AA8003F0CFFE4E490AA803F0CBFE34
:104D60002A4600230AA906A8FFF708FB0AA803F0B1
:104D700077FE06A803F074FE2946072004F071FCB4
:104D8000454A88F8005011213C48FFF752FB039B2D
:104D9000B3B19B88042B13D13D4906A803F0ABFEA9
:104DA0003E490AA803F0A7FE002301220AA906A88B
:104DB000FFF7E4FA0AA803F053FE06A803F050FE3A
:104DC000039BB3B19B880E2B13D1314906A803F086
:104DD00092FE33490AA803F08EFE002301220AA99D
:104DE00006A8FFF7CBFA0AA803F03AFE06A803F0DC
:104DF00037FE039B0BB19B889BB9254906A803F09E
:104E00007AFE28490AA803F076FE002301220AA9A7
:104E100006A8FFF7B3FA0AA803F022FE06A803F0DB
:104E20001FFE01F095F90E4B1860039802232370C2
:104E300008B101F05FFC129800283FF43DAC846893
:104E40000C2104F0CFFC2046F6E700BF73AA0D004A
:104E5000B0E40320D0E4032010AA0D002FAB0D0016
:104E6000B4E50320BFD40100F3AB0D0046AB0D0049
:104E700098E40320A4E5032055AB0D00E0E40320F3
:104E8000E0E5032010000300FCB00D0040771B009C
:104E900071A90D0066AB0D0060E503208EAB0D001F
:104EA000A9AB0D00C8AB0D0003F025FE1D490AA8F3
:104EB00003F021FE2A460AA9002306A8FFF75EFA9E
:104EC0000AA803F0CDFD06A803F0CAFD164A3D70FE
:104ED000092159E7154D01F03BF92B68C01A144B15
:104EE0009842FFF4E9AB13490AA803F004FE124903
:104EF0000EA803F000FE002301220EA90AA8FFF766
:104F00003DFA0EA803F0ACFD0AA803F0A9FD01F0DC
:104F10001FF92860FFF763BB307508E7074ADA60BE
:104F200005E700BF7AAB0D00A4E50320B4E503203C
:104F3000E0322900F3AB0D00E7AB0D0040771B001A
:104F40008842F8B504460D46164616D9904215D249
:104F5000A2F11406751AA1F114072C44B7421CD013
:104F60002CB13146204603F0F7FD337C23743046E4
:104F700003F076FD143E143CF0E70ED0B5420CD0A1
:104F80002CB12946204603F0E7FD2B7C23742846EC
:104F900003F066FD14351434F0E7F8BD2DE9F04157
:104FA0000023C0E9003383604F689F4204460E46E9
:104FB00023DD4FF0140808FB07F001F093FB0546D2
:104FC000D8B1D4E9001208FB0212FFF7B9FF20683C
:104FD00001F090FB2560A760D6E9007308FB037819
:104FE000B84508D03946284603F0D0FD3B7C2B74E9
:104FF00014371435F4E7736863602046BDE8F08128
:10500000F0B55A4B5A4C8DB0012000251870002184
:1050100001F078FACDE90055029504F0BDF9694632
:10502000064603A8FFF7BAFF274603A906A8FFF71D
:10503000B5FF504B47F8043B06A909A8FFF7AEFFA0
:1050400009AA1E21384602F0AAFF09A8FFF7DEF9D7
:1050500006A8FFF7DBF9484B2360266203A8FFF799
:10506000D5F9464B236004F097F94FF4165104F03C
:1050700083F902F039FC214602F023FF6846FFF76E
:10508000C5F904F087FA2B462A4643F6A64104F0F8
:1050900089FA04F07FFA2B462A46052104F08AFAA1
:1050A00004F058FB01463648364C00F0E3FA04F0B1
:1050B00051FB4FF4005201462B46204600F09CF86D
:1050C000314B236031493248324C03F014FD2F49F3
:1050D000314803F010FD2D49304803F00CFD2B49F9
:1050E0002F4803F008FD21462E4803F004FD214619
:1050F0002D4803F000FD21462C4803F0FCFC21461E
:105100002B4803F0F8FC21462A4803F0F4FC214622
:10511000294803F0F0FC2146284803F0ECFC214626
:10512000274803F0E8FC2146264803F0E4FC21462A
:10513000254803F0E0FC2946244803F002FB244BF9
:10514000202632461846294605F050FA294646716F
:10515000204801F0CBFE21461F4803F0CCFC21463D
:105160001E4803F0C8FC0DB0F0BD00BF48E40320AA
:1051700038E5032004AC0D00B0AF0D001CAC0D00F1
:1051800088E50320E0E4032034AC0D00E6A90D001F
:1051900054E403207BAF0D00A0E40320C0E503200E
:1051A000D0E5032028E5032018E50320F8E40320D8
:1051B00008E50320D0E40320C0E40320B0E403208A
:1051C00074E5032064E5032064E4032061E5032023
:1051D00078E40320F0E4032038E4032028E40320EB
:1051E000704710B51021044604F0FCFA204610BDAB
:1051F0000368C9B29B68184730B5034DC0E9022364
:10520000C0E9005130BD00BFECAC0D00406801F0BA
:105210003FBF10B50446006801F099FF204610BD5D
:105220002DE9F7430446406801900D4616461F4697
:1052300001F084FFA7B1E168606841F0500101F01E
:105240005AFF290A6068FFF7D3FF29466068FFF715
:10525000CFFF6068002101F069FF48B1002400E041
:10526000012401A8FFF7D5FF204603B0BDE8F08375
:10527000202F217B6068B84628BF4FF0200801230B
:10528000424641F0500101F020FF04F063FA036848
:105290001B6998474045E1DB06EB080904F05AFA20
:1052A00003685B69984706F8010B4E45F6D1454403
:1052B000A7EB0807BEE72DE9F74F044640680190C9
:1052C0000E4690461D4601F039FF4FF00109B9F135
:1052D000000F2AD04DB3E168606841F0500101F041
:1052E0000AFF310A6068FFF783FF60683146FFF705
:1052F0007FFFA5F11E0A4746A6EB080B606817F86A
:10530000011B0368013D9B68984755450BEB070659
:10531000B84601D0002DF1D16068012101F006FFEF
:105320000028D7D04FF00009D1E701A8FFF771FF9F
:10533000484603B0BDE8F08F2DE9F0438BB00E4630
:1053400015468046406801901C4601F0F7FEAE42CB
:1053500029D2264425448CB11E2C2746D8F800308B
:1053600028BF1E27F61BD3F8089002AA3B463146F9
:105370004046ED1BC84748B9002400E0012401A8BD
:10538000FFF747FF20460BB0BDE8F083D8F80030A8
:1053900002AAD3F80C9029463B464046C84700284D
:1053A000EAD0E41BD7E7E9D9002CE7D0D8F80030E1
:1053B0001E2C274628BF1E27D3F8089002AA3B467A
:1053C00031464046C8470028D6D0D8F8003002AA57
:1053D000D3F80C9029463B464046C8470028CBD01E
:1053E0003E443D44E41BDFE7402070470020704707
:1053F00080207047FF2070477047704770477047A4
:1054000010B51421044604F0EDF9204610BD10B586
:105410000821044604F0E6F9204610BD10B5082125
:10542000044604F0DFF9204610BD10B51C210446E7
:1054300004F0D8F9204610BD2DE9FF410368DB6870
:105440000446984710220146684605F0CFF82368C5
:1054500020469B689847002507462846BD420ED245
:105460007E1B2368102E28BF1026D3F818806A46AA
:10547000334629462046C04708B13544EEE704B01C
:10548000BDE8F0814FF48073438140F20113C360A3
:10549000002303827047000008B5064B0360064BEB
:1054A000436040F20473038100234374FFF7EAFF73
:1054B00008BD00BFCCAD0D000001020303090A22A4
:1054C00000F00F0002FB0300704708B5807AFFF779
:1054D000F5FF00F5FA6008BDC07A00F01F00FFF785
:1054E000EDBF007B00F03F00FFF7E8BF08B5817B10
:1054F0004A060DD501F01F00FFF7E0FF8B0603D52C
:105500000C2800D00C3008BD0C2808BF0020FAE79A
:10551000BDE8084001F03F00FFF7D0BFC07B00F0BE
:105520007F00FFF7CBBF007C00F07F00FFF7C6BF16
:1055300010B58AB024220446002101A805F056F8CF
:105540002046FFF7C2FFA0F26C7006902046FFF7DE
:10555000C3FF013805902046FFF7C3FF04902046A3
:10556000FFF7C4FF03902046FFF7D8FF02902046C4
:10557000FFF7D9FF019001A801F014F90AB010BD9E
:105580000A2190FBF1F292FBF1F301FB13231B01C3
:10559000DBB201FB12001843C0B27047642310B5A0
:1055A000044691FBF3F000FB1310FFF7E9FFA07234
:1055B00010BD10B504460846FFF7E2FFE07210BDCB
:1055C00010B504460846FFF7DBFF237B23F03F03BB
:1055D0001843207310BD10B50446481CFFF7D0FFD8
:1055E000637B23F007031843607310BD10B50446B6
:1055F0000846FFF7C5FFA07310BD10B50446084666
:10560000FFF7BEFFE07310BD10B504460846FFF774
:10561000B7FF237C23F07F031843207410BD37B5F8
:1056200004466846CDE9002304F0A6FF054641691B
:105630002046FFF7B3FF296920460131FFF7B9FF84
:10564000E9682046FFF7BCFFA9692046FFF7C3FFC2
:10565000A9682046FFF7CAFF69682046FFF7CDFF1B
:1056600029683B29A8BF3B212046FFF7CDFF03B0A7
:1056700030BD0000054A0061C0E90021044A826093
:10568000044AC260044A80614261704700AE0D0066
:1056900000000103A8AD0D00DCAD0D002DE9F84FB1
:1056A00004460F469046994600260A9B9E4231D2F8
:1056B0006068394601F01BFD08EB06016068FFF7E2
:1056C00097FD6068002101F031FD0546D0B90A9BC5
:1056D00060689A1B202A4FF0010328BF2022394618
:1056E00001F0F3FC09EB060B05460BEB000ADA456B
:1056F00006D0606803685B6998470BF8010BF6E712
:105700002E44D2E7024604490448FEF74FFD2846DE
:10571000BDE8F88F0025FAE700AD0D00E4E50320B1
:105720002DE9F34101EB03081E4603689B6805461B
:105730000C461746984780450DD820346868009677
:105740003B46E2B26F21FFF7A9FFB0FA80F04009B3
:1057500002B0BDE8F0810020FAE72DE9F34101EB4A
:1057600003081E4603689B6804460D461746984783
:1057700080450CD8606800963B46EAB25721FFF797
:105780008DFFB0FA80F0400902B0BDE8F081002042
:10579000FAE77FB51E1E0CBF0723062300931446AD
:1057A00002AB0A466F21FFF779FF0546A8B99DF8BD
:1057B000083023749DF80930E3739DF80A30A37311
:1057C0009DF80B3063739DF80C3023739DF80D30FA
:1057D000E3722EB99DF80E30A372284604B070BD56
:1057E00003F0C4FCFFF7CCFEA072F6E71FB501235F
:1057F0000A4600936F2103ABFFF750FF20B99DF8D5
:105800000C0005B05DF804FB0020FAE708B50321A1
:10581000FFF7ECFFC0F3401008BD38B500230C467D
:105820000A4619460546FFF7B4FF30B9A37A23B1FB
:105830002846BDE83840FFF7E9BF002038BD7FB5F6
:10584000024601A8FFF728FE01A91046FFF7E5FF71
:1058500028B101A8FFF76CFE07B05DF804FB00203B
:105860000146F9E7D0B5044686B0406801F010FC67
:1058700003F04EFCE8B9E37A9B071AD52046FFF700
:10588000DEFF06460F4656EA070312D003F046FB3A
:105890000A4B0B491B68009332463B4602A803F0B3
:1058A000F5FB0848029A0849FEF780FC02A803F0BD
:1058B000D7F80123237206B0D0BD00BFB0E30320A8
:1058C0008CE60320E4E503201AAD0D002DE9F84F26
:1058D0000646884691469A4600250A9B9D4229D253
:1058E0007068414601F003FC706809EB0501FFF7A1
:1058F0007FFC0A9B5F1B1F2F28BF1F270AEB050495
:1059000007EB040B706814F8011B0268926890475B
:10591000A345F7D17068012101F008FC044638B1B5
:10592000024605490548FEF741FC2046BDE8F88FD0
:105930003D44D2E70024F8E72FAD0D00E4E5032055
:105940002DE9F34101EB03081E4603689B680546F9
:105950000C461746984780450DD820346868009655
:105960003B46E2B26F21FFF7B1FFB0FA80F0400989
:1059700002B0BDE8F0810020FAE71FB5137C8DF876
:105980000830D37B8DF80930937B8DF80A30537B38
:105990008DF80B30137B8DF80C30D37A8DF80D30E9
:1059A000937A8DF80E30072300930A4602AB6F21DD
:1059B000FFF78CFF05B05DF804FB10B588B0044616
:1059C00003A80193FFF768FD019B03A8FFF727FEDB
:1059D0009DF81C30A27A63F07F038DF81C309DF88F
:1059E00019306AB143F0080303AA002120468DF85C
:1059F0001930FFF7C2FFB0FA80F0400908B010BDBF
:105A000003F0F703F0E70000F0B587B0054603F0B8
:105A10007FFB0446E8B103F098FBC7170246064631
:105A20003B462846FFF7C9FF0C4B0D491B68009306
:105A300032463B46044602A803F028FB0948029A76
:105A40000949FEF7B3FB02A803F00AF8204607B0A5
:105A5000F0BD06490348FEF7A9FBF7E7B0E30320D2
:105A60008CE60320E4E503204AAD0D0060AD0D0097
:105A700037B5457A04469DB903F04AFB80B1002250
:105A8000002369462846CDE9002300F0BBFD38B16C
:105A9000E37ADB0702D52046FFF7B6FF01236372E6
:105AA00003B030BD38B5044632256068572101F097
:105AB0001EFB6068012101F039FB08B1013DF4D102
:105AC00038BD00002DE9F04104460F46164602EBB2
:105AD0000308B04520D06068572101F008FB394623
:105AE0006068FFF785FB606816F8011B03689B6818
:105AF00098476068012101F019FB0137054638B16C
:105B0000024606490648FEF751FB2846BDE8F081EB
:105B10002046FFF7C7FFDCE70025F6E775AD0D006F
:105B2000E4E50320F7B5CF181E46036801929B6891
:105B300004460D46984787420AD8019A6068334662
:105B4000E9B2FFF7BFFFB0FA80F0400903B0F0BD43
:105B50000020FBE7014B024A1A607047E4E503208E
:105B600096AD0D007047012A034602D10160002066
:105B70007047022A04BFD1E90001C3E90001F6E73A
:105B800013B504461046019204F0A3FD6368019921
:105B900002461E2A03F10C0006D804F074FD01230E
:105BA00084F8353002B010BD1F2204F0ACFD6368EC
:105BB000002283F82B20F2E710B5044603F082FDA3
:105BC000A06B04F13C012C22BDE8104000F0D8BAD3
:105BD00010B442680346541001EB6200D20748BF7C
:105BE0000A591B685DF8044B48BFD3581847022A6E
:105BF00038B5044607D0032A11D0012A01D10B6819
:105C00002360002038BD0C200D68FEF744FA0346DF
:105C10000028F5D095E8070083E80700F0E7006862
:105C20000028EED00C2103F0DDFDEAE770B4036834
:105C300009685C689D681B681268661005EB640063
:105C4000E40744BFAC59E35870BC184710B58368EB
:105C5000044613B1032201469847204610BD0000B8
:105C600010B5064B044640F8203BFFF7EFFF04F168
:105C70001000FFF7EBFF204610BD00BF28AE0D005F
:105C800010B50446FFF7ECFF2046382103F0AAFDCB
:105C9000204610BD10B5034B03600446FFF7E0FF3C
:105CA000204610BD3CAE0D0010B50446FFF7F2FFD4
:105CB0002046682103F096FD204610BD30B5074A06
:105CC0000260002400220025C0E902454260826192
:105CD00082620263828680F8362030BD28AE0D00D5
:105CE00008B50346FFF7EAFF014A1A60184608BDE7
:105CF0003CAE0D0010B5064C23683BB96820FEF79A
:105D0000CAF9014608B1FFF7EBFF2160206810BD1A
:105D1000ECE5032038B5002383608B6804460D460C
:105D20002BB102229847EB68E360AB68A360204682
:105D300038BD07B5826801910AB903F059FDC368FF
:105D400001A9984703B05DF804FB13B50B46024662
:105D5000D0E900016C4684E8030093E8030082E880
:105D6000030094E8030083E8030002B010BD0000C4
:105D70001FB5D1E900230021044602910AB9D907D1
:105D800005D5CDE900230B4B03930B4B0293214622
:105D90006846FFF7DAFF029BA268A360039B0292AA
:105DA0006846E268E3600392FFF750FF204604B0C4
:105DB00010BD00BFD15B0D00675B0D0073B50446DD
:105DC00040680D4D0268AA4202D103792C2B08D0FD
:105DD0002C263246002104F009FC63681D606368CC
:105DE0001E71064B00936946002304F120000193C5
:105DF000FFF7BEFF02B070BDF2A28777295E0D00EB
:105E000070B500F13C060D4681634660044603F020
:105E100059FC284631462C2200F0AAF92046BDE85C
:105E20007040FFF7CBBF000037B541680B7B0446DD
:105E300000F1200593B183691BB10C311030FFF7DD
:105E400078FF0A4B00936946002328460193FFF729
:105E50008FFF00F07DF9206303B030BD044A69462E
:105E60002846CDE90023FFF783FFF5E7C55F0D0066
:105E70004D600D0013B5044600F0A4FB70B103F0B3
:105E800047F958B1064B00936946002304F12000FE
:105E90000193FFF76DFF00F05BF9206302B010BDC6
:105EA000A55E0D0030B5054685B000F051F92B6BAD
:105EB000C01AB0F5FA6F29D3154B16491B788DF827
:105EC0000030002285F835203C2302A800F040FE77
:105ED000039C7CB16368013B63605BB92368204627
:105EE0009B689847A368013BA3601BB923682046C1
:105EF000DB689847084B029302A9002305F12000B4
:105F00000393FFF735FF00F023F9286305B030BD98
:105F1000E8E5032008AE0D001D5F0D0073B590F895
:105F2000355004461DB34668337B00F12005DBB1D4
:105F300003F00BF9B060236820469B689847A3697B
:105F40002BB1616804F110000C31FFF7F2FE0F4B2A
:105F500000930023019369462846FFF709FF00F0EC
:105F6000F7F8206302B070BD094A0092F2E700F032
:105F7000EFF8236BC01A43F697239842F2D9044BEB
:105F80006946CDE9003504F12000E6E7C55F0D0064
:105F9000955F0D0013B5044600F0DAF8236BC01AC4
:105FA000064B984208D9064B00936946002304F13A
:105FB00020000193FFF7DCFE02B010BDDF93040068
:105FC000755E0D00F7B5044600F0C2F8236BC01AE9
:105FD00042F20F7398421ED900F0BAF894F8365086
:105FE00020635DB1184A0023CDE9002384F83630E0
:105FF000694604F12000FFF7BBFE0CE0D4E9022360
:1060000013430AD1A36A33B104F1200103220846E5
:106010009847C4E90A5503B0F0BD03F079F80028A9
:10602000F9D06368D4E902679B68F61847EBE37719
:1060300003F08BF8C117864277EB0103EBDA024BD2
:10604000CDE90035D4E700BF4D600D0030B590F8C4
:1060500034508BB004466DBB0C200495FEF71BF842
:1060600018B11A4B8460C0E90035194B02900593B2
:1060700002A9184B049306A8FFF74CFE089B83B1B6
:106080001020FEF708F8054658B106A9FFF742FEB2
:106090000023CDE900331049104801232A4600F0BF
:1060A000A1FA06A8FFF7D2FD02A8FFF7CFFD012352
:1060B00084F834300A4B069306A9002304F120002B
:1060C0000793FFF755FE0BB030BD00BF815B0D009D
:1060D0002D5C0D00EF5B0D0073690D0008AE0D0027
:1060E000755E0D00014B00221A707047E8E5032031
:1060F00008B5024B1B685B6C019308BD48020300A6
:1061000008B5024B1B689B6C019308BD4802030055
:1061100008B5024B1B68DB6C019308BD4802030005
:1061200008B5024B1B685B6D019308BD4802030074
:1061300008B5024B1B685B68019308BD1802030099
:1061400008B5024B1B68DB68019308BD1802030009
:1061500008B5024B1B685B69019308BD1802030078
:1061600008B5024B1B689B6A019308BD1802030027
:1061700008B5024B1B685B6C019308BD1802030055
:1061800008B5024B1B689B6C019308BD1802030005
:1061900008B5024B1B689B6D019308BD18020300F4
:1061A00008B5024B1B685B6E019308BD1802030023
:1061B00008B5024B1B689B6E019308BD18020300D3
:1061C00008B5024B1B685B68019308BD2C020300F5
:1061D00008B5024B1B689B68019308BD2C020300A5
:1061E00008B5024B1B68DB68019308BD2C02030055
:1061F00008B5024B1B681B69019308BD2C02030004
:1062000008B5024B1B689B69019308BD2C02030073
:1062100008B5024B1B68DB69019308BD2C02030023
:1062200008B5024B1B681B6B019308BD2C020300D1
:1062300008B5024B1B68DB68019308BD2802030008
:1062400008B5024B1B689B69019308BD2802030037
:1062500008B5024B1B68DB69019308BD28020300E7
:1062600008B5024B1B681B6A019308BD2802030096
:1062700008B5024B1B685B6A019308BD2802030046
:1062800008B5024B1B689B6A019308BD28020300F6
:1062900008B5024B1B68DB6A019308BD28020300A6
:1062A00008B5024B1B681B6B019308BD2802030055
:1062B00008B5024B1B685B6B019308BD2802030005
:1062C00008B5024B1B681B6C019308BD2802030034
:1062D00008B5024B1B689B6C019308BD28020300A4
:1062E00008B5024B1B68DB6C019308BD2802030054
:1062F00008B5024B1B681B6D019308BD2802030003
:1063000008B5024B1B685B69019308BD640203007A
:1063100008B5024B1B689B68019308BD6802030027
:1063200008B5024B1B68DB68019308BD68020300D7
:1063300008B5024B1B68DB69019308BD30020300FE
:1063400008B5024B1B681B6A019308BD30020300AD
:1063500008B5024B1B681B68019308BD3C02030093
:1063600008B5024B1B689B68019308BD3C02030003
:1063700008B5024B1B68DB68019308BD3C020300B3
:1063800008B5024B1B681B69019308BD3C02030062
:1063900008B5024B1B685B69019308BD3C02030012
:1063A00008B5024B1B689B69019308BD3C020300C2
:1063B00008B5024B1B68DB69019308BD3C02030072
:1063C00008B5024B1B681B6A019308BD3C02030021
:1063D00008B5024B1B689B6A019308BD3C02030091
:1063E00008B5024B1B68DB6A019308BD3C02030041
:1063F00008B5024B1B681B68019308BD4C020300E3
:1064000008B5024B1B685B68019308BD4C02030092
:1064100008B5024B1B689B68019308BD4C02030042
:1064200008B5024B1B681B69019308BD4C020300B1
:1064300008B5024B1B685B69019308BD4C02030061
:1064400008B5024B1B689B69019308BD4C02030011
:1064500008B5024B1B68DB69019308BD4C020300C1
:1064600008B5024B1B681B6A019308BD4C02030070
:1064700008B5024B1B685B6B019308BD600203000B
:1064800008B5024B1B681B6D019308BD6002030039
:1064900008B5024B1B685B6D019308BD60020300E9
:1064A00008B5024B1B68DB6E019308BD6002030058
:1064B00008B5024B1B681B6F019308BD6002030007
:1064C00008B5034B1B68D3F89830019308BD000052
:1064D0006002030008B5024B1B681B68019308BDEE
:1064E0002002030008B5024B1B685B68019308BDDE
:1064F0002002030008B5024B1B685B69019308BDCD
:106500002002030008B5024B1B68DB6A019308BD3B
:106510002002030008B5024B1B68DB6C019308BD29
:106520002002030008B5024B1B685B6D019308BD98
:106530002002030008B5024B1B689B6D019308BD48
:106540002002030008B5024B1B68DB6D019308BDF8
:106550002002030008B5034B1B68D3F88830019371
:1065600008BD00002002030008B5034B1B68D3F8E8
:106570009430019308BD00002002030008B5034BCE
:106580001B68D3F8A830019308BD00002002030067
:1065900008B5034B1B68D3F8AC30019308BD00006D
:1065A0002002030008B5024B1B689B68019308BDDD
:1065B0004402030008B5024B1B68DB68019308BD69
:1065C0004402030008B5024B1B685B69019308BDD8
:1065D0004402030008B5024B1B681B6A019308BD07
:1065E0004402030008B5024B1B685B6A019308BDB7
:1065F0004402030008B5024B1B681B6B019308BDE6
:106600004402030008B5024B1B685B6B019308BD95
:106610004402030008B5024B1B68DB6B019308BD05
:106620004402030008B5024B1B685B68019308BD78
:106630004002030008B5024B1B689B68019308BD2C
:106640004002030008B5024B1B68DB68019308BDDC
:106650004002030008B5024B1B681B69019308BD8B
:106660004002030008B5024B1B685B69019308BD3B
:106670004002030008B5024B1B689B69019308BDEB
:106680004002030008B5024B1B68DB69019308BD9B
:106690004002030008B5024B1B681B6A019308BD4A
:1066A0004002030008B5024B1B681B6B019308BD39
:1066B0004002030008B5024B1B685B6B019308BDE9
:1066C0004002030008B5024B1B681B6C019308BD18
:1066D0004002030008B5024B1B685B6C019308BDC8
:1066E0004002030008B5024B1B681B68019308BDFC
:1066F0001C02030008B5024B1B685B68019308BDD0
:106700001C02030008B5024B1B689B68019308BD7F
:106710001C02030008B5024B1B681B69019308BDEE
:106720001C02030008B5024B1B68DB69019308BD1E
:106730001C02030008B5024B1B685B6A019308BD8D
:106740001C02030008B5024B1B68DB6A019308BDFD
:106750001C02030008B5024B1B681B6B019308BDAC
:106760001C02030008B5024B1B685B6C019308BD5B
:106770001C02030008B5024B1B689B6C019308BD0B
:106780001C02030008B5024B1B68DB6C019308BDBB
:106790001C02030008B5024B1B681B6D019308BD6A
:1067A0001C02030008B5024B1B685B6D019308BD1A
:1067B0001C0203008A4210B507D0029C401AE41A5A
:1067C0006043521A90FBF2F0184410BD0021FFF70D
:1067D00091BE10B5836804460BB903F009F8C3688D
:1067E0009847A3681BB103222146204698472046BC
:1067F0001021BDE8104002F0F5BF10B50368044653
:106800009B689847A368013BA3602BB92368204687
:10681000DB68BDE81040184710BD0B68036013B17A
:106820005A6801325A60704710B50446006828B1B2
:106830004368013B43600BB9FFF7DFFF204610BD03
:10684000024800230360FFF753BC00BFF0E50320BC
:10685000002240681146FFF7FDBE00224068114645
:10686000FFF718BF002240681146FFF723BF4068BA
:106870000022FFF717BF4068002281F00101FFF7F7
:1068800001BF002340681A461946FFF7F3BE0023F4
:1068900040681A461946FFF7E5BE002240681146D7
:1068A000FFF7C8BE406800220221FFF7CBBE0023DD
:1068B00040681A46FFF7B6BE084B10B5282422469A
:1068C0001846002103F092FE054B04804FF0FF3282
:1068D000426004225A60034A1A6010BDFCE503209E
:1068E000F4E5032050AE0D0070470020704710B54E
:1068F0001021044602F076FF204610BD08B5FFF7D0
:10690000F6FF08BD30B500224FF69C74026084800B
:106910008D888C800C68858004600A6030BD10B55D
:1069200004460068FFF7E6FE204610BD38B5C4688F
:10693000F4B12378022B03D104F10C00FFF7EFFF31
:10694000656835B12846FFF781F91021284602F025
:1069500049FFA56835B12846FFF778F91021284688
:1069600002F040FF20461421BDE8384002F03ABF53
:1069700038BD07B5CDE9001282680AB902F038FFC8
:10698000C36801AA6946984703B05DF804FB73B574
:106990000E46044656F8043B00930D4601A83146C6
:1069A000FFF73BFF019A009B6260236001A8002370
:1069B00001930093FFF738FF3046FFF735FF284675
:1069C000082102F00FFF204602B070BD826810B5AA
:1069D0000AB902F00DFFBDE81040C368184708B5BA
:1069E000006800F11001FFF7F1FF08BD826810B5E3
:1069F0000AB902F0FDFEBDE81040C368184708B5AB
:106A0000006800F11001FFF7F1FF08BD38B5002361
:106A10000446036010200D46FDF73DFB28B101231D
:106A2000C0E90133024B0360C5602060204638BDD9
:106A30008CAE0D0038B5002383608B6804460D468C
:106A40002BB102229847EB68E360AB68A360204655
:106A500038BD0000F0B589B004686846FFF752FF02
:106A60004FF00203D4E84F2F002A03D1C4E8413F7E
:106A70000029F7D125D104F10C0569462846FFF716
:106A800041FFBFF35B8F01236370002004F1080313
:106A9000BFF35B8F53E8006F43E80002002AF9D18F
:106AA000BFF35B8F6EB1FFF735FD78B129463046F5
:106AB000FFF78CFF3046FFF7C9F81021304602F08F
:106AC00091FE6846FFF72BFF09B0F0BD314602A8E2
:106AD000FFF7B0FFE068B4F9105008B103F0DCFD37
:106AE00006901020ADF81C50FDF7D5FA0546E8B128
:106AF000002787601820FDF7CEFA044688B10146CA
:106B0000876002A8FFF721F9049BA268A360059B98
:106B1000049206A9E268E36004F110000592FFF711
:106B2000F1FE084BEB60084B2C60AB6006A8FFF74A
:106B3000F6FE02A8FFF78AF8002229460348FFF76D
:106B4000F1FCB7E7DF690D00756C0D00D3670D0030
:106B50002DE9F0478AB005469DF848900C46174647
:106B60009846FFF72FFD07AE824638BB4FF62E73CF
:106B7000059005A93046ADF81830FFF7C3FE142084
:106B8000FDF789FA044648B1022303700123C0E9E6
:106B900001AA437031460C30FFF7B4FE2846214667
:106BA00040F8044BFFF732FF3046FFF7B8FE05A868
:106BB000FFF7B5FE28460AB0BDE8F0870C234FF07A
:106BC000000A1420CDE908AA0793FDF764FA0146EC
:106BD00028B1C0E901AA80F800A080F801A004A8AB
:106BE0000391FFF713FF224B08930820FDF753FA98
:106BF000824628B1039B40F8043B04A9FFF70DFE31
:106C000000965FFA89F3424639462046CDF824A023
:106C1000FFF7E0FCB8B9039B5B7803F0FF0293B980
:106C20004FF69C7305A903A80592ADF81830FFF73D
:106C300011FF05A8FFF773FE05A80999FFF7A7FE46
:106C400006A8FFF7F1FD039B059304A906A8FFF72B
:106C5000E4FD059B069A2B606A60002306A8069354
:106C60000593FFF7E1FD04A8FFF7DEFDA2E700BFF3
:106C7000396D0D00022AF8B5054607D0032A18D051
:106C8000012A01D10B6803600020F8BD18200E68AE
:106C9000FDF701FA044650B13146FFF7CBFE3069EB
:106CA000B6F9147008B103F0F7FC2061A7822C60DC
:106CB000EAE70468002CE7D004F11000FFF72FFE8C
:106CC0002046FEF7C3FF1821204602F08BFDDBE7CC
:106CD00038B5002383608B6804460D462BB1022231
:106CE0009847EB68E360AB68A360204638BD022A92
:106CF00070B5044607D0032A12D0012A01D10B68CF
:106D00000360002070BD14200E68FDF7C4F905462D
:106D100020B13146FFF7DCFF337C2B742560F0E7B0
:106D20000468002CEDD02046FEF790FF1421204689
:106D300002F058FDE5E70000F0B589B004460D46C5
:106D400001A81146FFF723FEA4B124B21DB12846C5
:106D500003F0A2FC054601A803A90395ADF8104075
:106D6000FFF778FE03A8FFF7DAFD02A8FFF75CFD46
:106D700009B0F0BD019D0123D5E84F2F002A03D1B2
:106D8000C5E8413F0029F7D1EFD12B73BFF35B8FEB
:106D90006B702B1DBFF35B8F53E8006F43E800421D
:106DA000002AF9D1BFF35B8F002EDED02046FFF71B
:106DB000B1FB074660B105F10C013046FFF716FE46
:106DC0003046FEF743FF1021304602F00BFDCCE7C2
:106DD000314603A8FFF77CFF2B7B8DF81C30102079
:106DE000FDF759F90546D0B187601420FDF753F936
:106DF000044678B18760014603A8FEF7A6FF059B0D
:106E0000A268A360069B0592E268E3609DF81C30CF
:106E100006922374064BEB60064B2C60AB6003A814
:106E2000FEF714FF002229460348FFF77BFBC7E764
:106E3000FF690D00EF6C0D00D3670D000022406864
:106E40001146FFF727BC002240681146FFF732BC0D
:106E500040680022FFF726BC4068002281F0010153
:106E6000FFF710BC002340681A461946FFF702BC22
:106E7000002340681A461946FFF7F4BB0022406819
:106E80001146FFF7E7BB002240681146FFF7D2BB6F
:106E9000406800220221FFF7D5BB002340681A4654
:106EA000FFF7C0BB024B03225A60024A1A607047C8
:106EB00024E60320A8AE0D00090941EA001107EEFF
:106EC000901AB8EEE70ADFED027A80EE270A7047E3
:106ED00000004844006800F031B910B50446016074
:106EE00002710AB1FFF7F6FF204610BD13B5044644
:106EF000019102F053FC019A01462046FFF7EDFF95
:106F0000204602B010BD006800F021B92DE9FF4114
:106F100004460D4617461E46FFF7DCFF36238DF864
:106F200000300023206801934FF001080A236946CE
:106F300003938DF8088000F0E1F820680368294683
:106F40009B6898472068414600F0F0F8054640B13C
:106F50006FF09F052046FFF7D6FF284604B0BDE836
:106F6000F081022320680193694600F097F8022817
:106F7000EED1206803685B69984738702068036821
:106F80005B6998473070E5E707B500238DF8063058
:106F90008DF807300DF106020DF107030221FFF70E
:106FA000B5FF40B99DF807109DF8060003B05DF8E5
:106FB00004EBFFF781BFBFEE000A03B05DF804FBEE
:106FC00007B500238DF806308DF807300DF1060265
:106FD0000DF107030421FFF799FFB0B99DF80700F1
:106FE00002F05CFD0A4B002202F0C2FD03F07AF8C9
:106FF0009DF8063000EE103A07EE900AB8EEC00A8F
:1070000037EE800A03B05DF804FBBFEE000AF9E733
:107010000000703F7047F8B5064615460C468F18BD
:10702000BC4206D0336814F8011B9B683046984771
:10703000F6E72846F8BD007C0022FFF711B9007C76
:107040000021FFF715B9007C0021FFF719B9007C7A
:107050000021FFF71DB9007C0021FFF721B910B511
:107060001421044602F0BEFB204610BD10B54FF4BB
:107070007A73044608460021C4E90113034B2360D8
:1070800020741146FFF71CF9204610BDE4AE0D0038
:107090000023007C1A461946FFF7CAB87FB50022C4
:1070A0001423CDE90122ADF804300B788DF80830B7
:1070B0004B680393CB680493007C0B7A059301A97A
:1070C000FFF716F907B05DF804FB1FB5003B8DF81C
:1070D00000104FF06401039118BF0123694601922B
:1070E0008DF80830FFF7DAFF05B05DF804FB007C8F
:1070F0000022FFF7A5B8C9B2FFF7F9BF7FB500239B
:10710000CDE901334A6803921423CA68ADF804300C
:107110000B7804920A7A0592007C8DF8083001AA57
:107120001946FFF78DF807B05DF804FB007C0022DC
:10713000FFF78EB8007C0021FFF7BAB808B5002130
:10714000007CFFF7C5F8B0FA80F0400908BD08B52B
:107150000021007CFFF7C4F8B0FA80F0400908BDB8
:10716000004700002DE9FF4100241D460F469046D0
:107170000646FFF74DF8A5424FF00403ADF80D4069
:107180008DF80C308DF80F40A2BF9DF828308DF897
:107190000E3003AC0749009443463A463046A8BF38
:1071A0008DF80D50FFF72CF8B0FA80F0400904B0CC
:1071B000BDE8F08161710D00704710B518210446DB
:1071C00002F010FB204610BDF0B5037D062B8DB0FC
:1071D0000E4600F104074FF0000412D000F108053C
:1071E00015F8011D0A22304601F07DFBAF42044430
:1071F00019D0002CF4D02E21304601F065FB044458
:10720000EEE72F236A4639460A208DF80040FFF743
:1072100077F8684603F05DFA33680246DB68694632
:1072200030469847044620460DB0F0BD10B5054BDA
:107230000446112240F8043B002103F0D7F9204610
:1072400010BD00BF0CAF0D000346074A10B543F850
:10725000042B01F1100251F8044B43F8044B914206
:10726000F9D10A781A7010BD0CAF0D0010B59DF859
:10727000084044EA032343EA024242EA016104234C
:107280004160037510BD13B5CB7800938B784A78B5
:107290000978FFF7EBFF02B010BD00F110030122E7
:1072A00013F8101C0129184608D153F8041C02EBEE
:1072B0004102013A03F11003F2D17047022904BFE1
:1072C00053F8041C5218F4E70EB4F0B588B000AFC0
:1072D00007F13405102155F8042B7A6004462B463B
:1072E0007818FD60FFF726FA0F287A681AD900F19E
:1072F000080323F007036E46ADEB030D411C2B463C
:107300006846FD60FFF716FA021E04DD2368694631
:107310009B6820469847B5462037BD46BDE8F040FB
:1073200003B070470028F7D0236802469B6807F136
:10733000100120469847EFE710B5036804469B68A4
:107340009847A368013BA3602BB923682046DB68FC
:10735000BDE81040184710BD07B503688DF8071049
:107360009B6801220DF10701984703B05DF804FB0B
:1073700038B50B6803604D6843689D4204460CD0E5
:1073800015B16B6801336B60606828B14368013BDD
:1073900043600BB9FFF7D0FF6560204638BD0B4650
:1073A0001146002210B5C0E90022044683600BB9E3
:1073B000204610BDFFF7DCFFFAE78368EBB11A78CF
:1073C000032A1AD8DFE802F00417021B05207047D1
:1073D00002685B685268D05C2D2812D0A0F130039F
:1073E000092B0ED974280ED066280CD0A0F16E039C
:1073F00058425841704706207047002070470420CB
:107400007047032070470220704710B50446FFF70D
:10741000D4FF02280ED0C31EDBB2012B14D8226881
:10742000A36850685B68BDE810400A220021184438
:1074300003F00ABA2268A36852685B68D05CA0F1C6
:1074400074035842584110BD0020FCE738B50023B2
:10745000C0E9003304460E48C4E90203A9B10B7821
:10746000032B06D08BB9136858684B68C35C6E2B2E
:1074700007D013684D6858688B6828445B1BA06070
:10748000E36011462046FFF773FF204638BD00BF7A
:107490007BAF0D0038B500250B46C0E90055C0E9AB
:1074A0000255C0E90455044611464BB11A78012A29
:1074B00006D103F11002DB6882604361FFF758FFD9
:1074C000204638BD10B54369044663B18068E0606A
:1074D000013B1030A0602061636113B1FFF7DDFE56
:1074E000A060012000E0184610BD10B57D210446C3
:1074F000FFF732FF01232371204610BD08B5037941
:10750000012B02D0022B04D008BD2C21FFF724FF51
:10751000FAE73A21FAE710B50446FFF7EFFF2046F5
:107520007B21FFF719FF00232371204610BD0000C7
:1075300013B504460191FFF7E1FF2368019ADB6868
:1075400003492046984701232046237102B010BD0D
:1075500052A90D0013B504460191FFF7CFFF236830
:10756000019ADB680349204698470123204623718E
:1075700002B010BD18AF0D002DE9F0410D461746C1
:107580002221DFF8A08004462F44FFF7E5FE2946BC
:10759000BD422A4638D015F8016B222E03D05C2E4E
:1075A00001D01F2EF4D82368521A9B6820469847B2
:1075B0005C212046FFF7D0FE0D2E0AD8072E1CD9DD
:1075C000A6F10803052B18D8DFE803F00D0F1117FB
:1075D0001315222E01D05C2E0FD131462046FFF725
:1075E000BBFE2946D4E76221F8E77421F6E76E2155
:1075F000F4E76621F2E77221F0E723683246DB68A0
:10760000414620469847ECE78D4204D023686A1A29
:107610009B682046984722212046FFF79DFEBDE843
:10762000F08100BF1BAF0D0013B50446CDE900216A
:10763000FFF764FF2046DDE90021FFF79DFF0223ED
:107640002046237102B010BD13B50446CDE90021D8
:10765000FFF754FF2046DDE90021FFF78DFF0123EE
:107660002046237102B010BD80680368DB681847AC
:107670007047084611B10B685B6818477047704740
:1076800070477047704738B504460D4600682E2194
:1076900002F0E5FF2368C31A2B6023B1037803B11E
:1076A000013023682060184638BD10B50C2104460F
:1076B00002F098F8204610BD10B50421044602F0EF
:1076C00091F8204610BD10B50421044602F08AF856
:1076D000204610BD08B502F0CCFFB0FA80F040099A
:1076E00008BD704710B50C4601F056FE844210D01C
:1076F00001F0B0FD844205D101F0ACFDBDE81040C1
:1077000001F0A5BD2CB1236820465B68BDE81040A0
:10771000184710BD13B504460846019102F0D9FF81
:1077200001990246204602B0BDE81040FFF78CBF29
:1077300013B504460846019102F0CBFF2368019976
:10774000DB680246204602B0BDE81040184707B586
:1077500003688DF80710DB6801220DF107019847D7
:1077600003B05DF804FB0EB403B503AB002153F87E
:10777000042B006A019301F0D4F802B05DF804EB29
:1077800003B070472DE9F74FD0E900954FF014088A
:1077900008FB05F50093AB10184D17465D434C46AA
:1077A000002D23DD6E1008FB06F004EB000A3A46BC
:1077B000BAF804B0205801915F4528BF5A4602F03C
:1077C00090FF0199012378B95F4503D1009A1370A6
:1077D0003546E5E78CBF012000200028F8D0AE1B1D
:1077E0000AF11404013EF3E7C00FF6E7A4EB090425
:1077F0000248A410604303B0BDE8F08FCDCCCCCCE0
:107800007FB50369067E01910BB301B3002500F13A
:107810000C04039503A901A8FFF735FF0146B0B199
:107820000DF10B03039A8DF80B502046FFF7AAFFCA
:107830009DF80B305BB12468142303FB004000F17A
:107840000804B0F90630002BA8BFDEB2E2E73046EC
:1078500004B070BD10B5094C2378BFF35B8FDB0714
:1078600009D42046FCF728FC28B12046FCF729FC67
:10787000034802F07BFE034810BD00BF30E6032042
:107880007F760D00A8E3032010B5094C2378BFF3E1
:107890005B8FDB0709D42046FCF70EFC28B120469D
:1078A000FCF70FFC034802F061FE034810BD00BF67
:1078B00034E60320E3760D00ACE3032038B5002561
:1078C0000446C0E90055C0E904558560856140F86B
:1078D000245FFEF70DFCFFF7BDFFE061FFF7D4FF6B
:1078E00025732062204638BD10B50A4C2378BFF3BB
:1078F0005B8FDB070CD42046FCF7DEFB40B106486B
:10790000FFF7DCFF2046FCF7DCFB044802F02EFE0C
:10791000014810BD2CE603203CE60320C97D0D0084
:10792000024A034903480023FEF7C2BD517C0D0003
:10793000DD7B0D005D7B0D0000231A4619461846BD
:10794000FEF7B6BD37B50D6951F8043B0093044608
:1079500001A8FEF762FF6A4629462046FFF71FFD91
:1079600001A8FEF761FF204603B030BD37B58D6832
:1079700051F8043B0093044601A8FEF74EFF6A4607
:1079800029462046FFF786FD01A8FEF74DFF204659
:1079900003B030BD37B5CD6851F8043B00930446C1
:1079A00001A8FEF73AFF6A4629462046FFF74EFD3A
:1079B00001A8FEF739FF204603B030BD70B58AB08C
:1079C0000D46014604A8FFF7D1FF144E04A8FFF7A7
:1079D00079FDE8B104A96846FFF7DCFF029831465B
:1079E000FFF778FE044610B12C1E18BF012401A831
:1079F000FEF71AFF002CE9D004A96846FFF7A2FFA2
:107A00006846FFF702FD286001A8FEF70DFFDDE7DD
:107A100005A8FEF709FF0AB070BD00BF21AF0D0039
:107A200037B50C4620461249154602F022FE48B9E9
:107A300001F0B2FC4FF4165101F09EFC01F0ACFCD9
:107A400003B030BD0B49204602F013FE70B94FF46D
:107A5000165301A928460193FFF7B0FF01F0FAFB86
:107A6000019901F0F1FB01F0F5FBE9E70020E7E700
:107A700026AF0D002DAF0D0070B5D0E900531426D0
:107A8000044606FB0356AE4205D005F10800FFF799
:107A9000F3FF1435F7E72068FEF72CFE204670BD93
:107AA00070B5D0E90053044605EB0316AE4204D08E
:107AB000284600F0D5FF1035F8E72068FEF71AFEDB
:107AC000204670BD10B504460C30FFF7D5FF2046A8
:107AD000FFF7E6FF204610BD10B5044B044640F802
:107AE000043BFFF7EFFF204610BD00BF04AC0D00C4
:107AF00010B50446FFF7F0FF2046242101F072FE86
:107B0000204610BD10B5034B03600446FFF7E4FFA9
:107B1000204610BDC8AF0D0010B50446FFF7F2FFB8
:107B20002046242101F05EFE204610BD0022C0E95F
:107B3000002210B582600C6804604C6844608C6858
:107B40000A604A6084608A6010BD10B5036804460C
:107B50001868FEF7E5FA204610BD00002DE9F04F49
:107B600087B0804603931C4B5B68C3F308038946C8
:107B700016466BB9FFF7B8FE044600F12403406ACD
:107B80000593FEF7C5FA237B2BB105A8FFF7DDFFB0
:107B900007B0BDE8F08F01232373D4E900535FFAE7
:107BA00089F905EB830AAA4512D055F8047B3146C2
:107BB000381DFFF725FE8145F5D33B68039A0092F7
:107BC000D3F808B04A46334641463846D847EAE734
:107BD00000232373D9E700BF00ED00E02DE9F74F44
:107BE0009B461A4B5B68C3F30803804689461646DA
:107BF0006BB9FFF779FE044600F12403406A019354
:107C0000FEF786FA237B2BB101A8FFF79EFF03B096
:107C1000BDE8F08F01232373D4E90053F6B205EBDE
:107C2000830A55450ED055F8047B5946381DFFF799
:107C3000E7FD8642F5D33B684A46DB684146384655
:107C40009847EEE700232373DEE700BF00ED00E076
:107C50002DE9F341164B5B68C3F3080305460F4655
:107C60001BBBFFF741FE00F124030446406A019369
:107C7000FEF74EFAD4E90063462406EB8308B045CC
:107C800009D101A8FFF761FFA542B4BF0020012080
:107C900002B0BDE8F08156F8040B39460430FFF716
:107CA000AFFD8442A8BF0446E9E70020F0E700BF2B
:107CB00000ED00E070B50446D0E900020B4600EB91
:107CC0008202824207D001461D6851F8046BAE4221
:107CD00003D00846F5E7002070BD521A02F06CFC94
:107CE0006368013B63600120F6E71FB500F12403E0
:107CF0000446406A01910393FEF70AFA01A920465F
:107D0000FFF7D8FF18B163680BB9FFF715FE03A89A
:107D1000FFF71BFF04B010BD70B5D0E9045618235F
:107D2000044603FB0656AE4215D005F1100120466D
:107D3000FFF7C0FF63680BB9FFF7FEFDE069296933
:107D40000368DB689847696919B1206A0368DB68D2
:107D500098471835E7E7D4E90453182606FB03567D
:107D6000AE4204D0284600F07BFE1835F8E7002329
:107D7000636170BD73B50446FFF7DEFD04F12403B3
:107D8000606A0193FEF7C4F92046FFF7C5FF01A81A
:107D9000FFF7DBFE606A08B1FEF7B2F9D4E90453DD
:107DA000182606FB0356AE4204D0284600F058FEC3
:107DB0001835F8E72069FEF79DFC2068FEF79AFC6D
:107DC000204602B070BD00000148FFF7D3BF00BFDE
:107DD0003CE603208842F8B506460C46154627D9EE
:107DE000904226D2A2F114056C1AA1F114070444A2
:107DF0000026AF423DD0A4B12B682360AB88A3809E
:107E0000B5F90630E380C4E902662661AB68A36079
:107E1000AE60E368EA68E260EB6023692A69226188
:107E20002B6105F10800FFF727FE143D143CE0E745
:107E30001FD00027AC421CD0A6B123683360A388B2
:107E4000B380B4F90630F380C6E902773761A368DE
:107E5000B360A760F368E268F260E36033692269A7
:107E60003261236104F10800FFF706FE1434143672
:107E7000E0E7F8BDF8B5D0E901539D4204460E464F
:107E800017460DDB0135002D006804DDA900FEF763
:107E900039FC18B9F8BDFEF72DFC00202060A56064
:107EA0002568626805EB86019200A2EB8602081D38
:107EB00002F082FB45F8267063680133636001209D
:107EC000E8E737B500F124030446406A01930D4604
:107ED000FEF71EF9D4E9003103EB810083421A4614
:107EE0000BD01268AA4203F10403F7D101A8FFF7EF
:107EF0002CFE0025284603B030BD2A462046FFF759
:107F0000B9FF05460028F1D06368012B01D1FFF7C6
:107F100007FD01A8FFF719FEECE78842F8B5044613
:107F20000D46164614D9904213D2A2F11006751AC6
:107F3000A1F110072C44B74218D01CB1314620469D
:107F400000F00AFE304600F08BFD103E103CF2E7D8
:107F50000CD0B5420AD01CB12946204600F0FCFDE9
:107F6000284600F07DFD10351034F2E7F8BD70B5FD
:107F70000E1E054611DD3001FEF7B4FB044658B174
:107F8000D5E9001201EB0212FFF7C7FF2868FEF7E0
:107F9000B1FB2C60AE60012070BD0024F6E72DE936
:107FA000F04F914697B000230391D9F804100C9339
:107FB00046229942C0E90033C0E90233C0E90433E4
:107FC000CDE90A330446027623DCD9E900571423AD
:107FD00003FB0757AF423BD029460DA800F0BCFD7C
:107FE0000DA911A80B9E00F0B7FDDDE90B13994216
:107FF0001BDA0A9B0B9A03EB061603EB02123146BF
:1080000006F11000FFF789FFEEB90B9B01330B93CC
:1080100011E00AA8FFF7ABFF0028D6D10AA8FFF7A6
:108020003FFD204617B0BDE8F08F01310AA8FFF7E9
:108030009EFF0028DDD111A800F012FD0DA800F070
:108040000FFD1435C6E711A9304600F085FDDCE7C9
:108050000026CDE90D660F9637464FF0140ADDE98C
:108060000A239E4280F297803301D35808930BB9BC
:108070000136F4E70AFB06F3099702930DAD09A94F
:1080800008A8FFF700FB83460028F1D00146099AB3
:108090008DF81F700DF11F032846FFF773FB9DF845
:1080A0001F800190B8F1000F66D1BDF82430ADF803
:1080B0004830CDE913884FF6FF73CDF844B0ADF8E2
:1080C0004A30CDF85480D5E9013293421ADB03F1EE
:1080D000010BBBF1000F4ADD0AFB0BF0FEF702FBC0
:1080E0000490002845D0D5E900120AFB0212FFF7E0
:1080F00071FE049B28680493FEF7FCFA049B2B6036
:10810000C5F808B0019BD5F800B06A680AFB03F314
:108110000BEB030101F114000AFB02B20491059379
:10812000FFF758FE0499A9B1059B119A4BF803205B
:10813000BDF848308B80BDF94A30CB80C1E9027769
:108140000F61139B8B60149B1397CB60159B149747
:108150000B6115976B6801336B6013A8FFF78CFCFC
:10816000B8F1000F08D00DA8FFF786FC56E743468C
:10817000C0E74FF00108F0E7019B2D680AFB0355AB
:10818000089B1B782BB9D9F80030029A13441B7C4A
:10819000EB80083573E72168226062686360A3683A
:1081A0000B920C9A0C93E368A2600D9A0D932369CD
:1081B000E2600E9A0E93636922610F9A0F93039BFC
:1081C0000A9162612376CEE77FB50546094B45F8F3
:1081D000043B04460E4601A81146FCF7DFFE01AA47
:1081E00031462846FFF7DBFE01A8FCF70FF92046D1
:1081F00004B070BD04AC0D00F0B50F4687B0264941
:108200000C9C384616461D4602F033FA00BBE4B11A
:1082100029466846FFF78AFC2049242001F0E4FA49
:10822000054670B1694603A8FCF7B8FE03AA3146BB
:108230002846FFF7C9FF03A8FCF7E8F8184B2C62A3
:108240002B606846FCF7E2F82C46204607B0F0BDEC
:108250001449384602F00DFAE0B9002CF5D0294651
:108260006846FFF763FC0D49242001F0BDFA05467E
:108270000028E6D0694603A8FCF790FE03AA314621
:108280002846FFF7A1FF03A8FCF7C0F8064B2B60B8
:108290002C62D6E70024D8E735AF0D00FCB00D0006
:1082A000C8AF0D0039AF0D00B0AF0D00014B024A51
:1082B0001A60704738E603204AAF0D002DE9F047F9
:1082C000089DD0F8209004460E461746984601F0C7
:1082D00063F881454CD02B79190704D56A69544954
:1082E0002046FFF740FAB8F1000F0DD05B21204681
:1082F000FFF72DFA41462046FFF71AFA23684D4949
:10830000DB680222204698472B79DA0723D5D5F877
:1083100008802F21404602F009FA08B100F1010857
:1083200041462046FFF704FA2B799B0708D53A21EE
:108330002046FFF70CFAEA683F492046FFF713FA98
:108340002A79236812F0040FDB6814BF3B493C49CB
:108350000222204698472B7958071DD529690B46DC
:108360001A4613F8010B60B1202808D11946F7E727
:10837000344800F066F90028ADD0BDE8F087282821
:10838000EED12368521ADB682046984723682E49AD
:10839000DB6804222046984700213846FEF780F823
:1083A00001462046FFF7C4F923682549DB6802220D
:1083B000204698471EB131462046FFF7B9F92B7980
:1083C00013F0300F2CD023682049DB6802222046AE
:1083D00098472B79D9060AD523681D49DB680722FF
:1083E00020469847AA691B492046FFF7BCF92B791C
:1083F0009A0611D5DB0605D523681049DB680222F1
:108400002046984723681449DB6820460A2298478B
:10841000E9692046FFF78CF95D212046FFF797F9BF
:1084200023680E49DB6820460222BDE8F047184762
:108430004EAF0D0055AF0D0052A90D0058AF0D0005
:108440005DAF0D0064E603205BAF0D0060AF0D0073
:1084500063AF0D006BAF0D006EAF0D0079AF0D0077
:108460002DE9F04385B0D0F820900C9C05460F46CE
:1084700090461E4600F090FF814505D1494800F026
:10848000E0F8002840F08A802B6A474A01924FF0BA
:10849000000901A803938DF80890FFF73CF84946BE
:1084A0004046FDF7FDFF41498046012201A8FFF744
:1084B000BBF84146FFF72EF93FB13D49012201A823
:1084C000FFF7B2F83946FFF725F93EB139490122E5
:1084D00001A8FFF7A9F83146FFF71CF92379DF0758
:1084E0000ED5A6682F21304602F020F900B1461CB7
:1084F0003149012201A8FFF797F83146FFF70AF941
:1085000023799E0707D52D49022201A8FFF78CF891
:10851000E168FFF70DF82379580714D5266933462B
:108520001F4613F8012B2AB1202A01D11E46F7E776
:10853000282AF5D12249022201A8FFF775F8BA1BB3
:108540003146FFF781F82379190707D51D49012224
:1085500001A8FFF769F86169FEF7FCFF2379DA06E5
:1085600008D5042218490DEB0200FFF75DF8A16958
:10857000FEF7DEFF23799B0607D51449062201A8E2
:10858000FFF752F8E169FFF7C5F801A8FEF7ADFF64
:10859000286A0F4903680222DB68984705B0BDE8E6
:1085A000F08300BF64E6032098AF0D002BAF0D00F1
:1085B0007CAF0D009CAD0D0062AA0D007EAF0D00DA
:1085C00081AF0D009EAC0D0084AF0D0089AF0D0092
:1085D00079AF0D00002340681A46FEF723B84068C3
:1085E00000220221FEF72EB8002240681146FEF755
:1085F00021B8002240681146FEF72CB800234068DD
:108600001A461946FEF72EB8002340681A46194646
:10861000FEF730B840680021FEF754B840680021EA
:10862000FEF758B84068002281F00101FEF72AB831
:1086300040680022FEF736B8002240681146FEF777
:1086400039B8002240681146FEF724B82DE9F043FE
:10865000002495B016460D460746FEF7E7FD214675
:1086600018220EA8009401F0C1FF4023CDE90C347C
:1086700021466B460CAA3046FDF752FE0446002800
:1086800046D1024601216868FDF7E4FF02218046D9
:1086900022466868FDF7DEFF009E81462146002ED7
:1086A00036D0002934D17368022B03D00A2B0BD0AB
:1086B000F669F4E7B8F1000F04D071693846043167
:1086C000FEF7E1FD4146F3E7B9F1000F01D149465C
:1086D000EEE77469102201A801F088FF06238DF8E7
:1086E000143001AD04F108031834186859682A469B
:1086F00003C20833A3421546F7D101A906A807AD66
:10870000FEF7A2FD0FCD3C1D0FC42B682370DEE7E2
:108710000098FDF7FDFD384615B0BDE8F083000078
:10872000024B034A1A6000225A60704764E6032035
:1087300010B00D0008B501F031F8BDE80840FEF7B3
:10874000FDBC10B50446017009B1FFF7F3FF2046E8
:1087500010BD08B501F022F8FEF7ECFC18B901F0E5
:108760001DF8FEF795FC01F019F8BDE80840FEF78A
:10877000E1BC08B501F012F8BDE80840FEF7E7BC1F
:1087800010B504460068FFF7F4FF204610BD30B571
:1087900087B00D460190FFF7CDFF6B238DF80830B1
:1087A0000023012403930A2305938DF8104000F061
:1087B000F5FF02A9FEF7A2FC00F0F0FF03682946CE
:1087C0009B68984700F0EAFF2146FEF7AFFC039450
:1087D00000F0E4FF02A9FEF761FC00F0DFFF036890
:1087E0005B699847044601A8FFF7CAFFE0B207B0EB
:1087F00030BD70B586B014460D460190FFF79AFF64
:108800006B238DF808300023039301260A23059378
:108810008DF8106000F0C2FF02A9FEF76FFC00F0B7
:10882000BDFF036829469B68984700F0B7FF0368BF
:1088300021469B68984700F0B1FF3146FEF776FC71
:1088400001A8FFF79DFF06B070BD13B50446019067
:10885000FFF770FF01212046FFF799FF00F0CF00DE
:1088600040F0100201212046FFF7C3FF01A8FFF7E7
:1088700087FF012002B010BDF8B506460D468F18DF
:108880000024BD420CD0336815F8011B9B683046AC
:108890009847031E01DB1C44F3E7002C08BF1C466D
:1088A0002046F8BD13B50446084659B1019101F0C0
:1088B00010FF23680199DB680246204602B0BDE83C
:1088C0001040184702B010BD03689B68184738B5C0
:1088D0000D210546FFF7F8FF0A2104462846FFF759
:1088E000F3FF204438BD30B58BB000238DF8243021
:1088F000012A98BF0A2209AC0D46B1FBF2F101FB37
:10890000125303F0FF03092B94BF30333733DBB22C
:10891000AA4204F8013DEFD92146FFF7C3FF0BB08F
:1089200030BD2DE9F04186B000AF05460E46381D3A
:10893000142114463B60FDF7FDFE13280ED8391DA7
:108940002846FFF7AFFF04461EB12846FFF7BFFFDA
:10895000044420461837BD46BDE8F08100F1080305
:1089600023F00703E846ADEB030D2246411C3B68AC
:108970006846FDF7DFFE69462846FFF793FF044689
:10898000C546E1E7014B00229A6070476CE6032080
:1089900010B5044608462170FDF7CAFC0023636049
:1089A000204610BD2DE9F04757EC106B80460C4671
:1089B00010EE100A00220023394601F04BFB28B1CB
:1089C00007F100431F462D2304F8013B00234FF01D
:1089D00001090A22D9B2884503D902FB09F90133FA
:1089E000F8E7484601F05AF832463B4601F0C0F835
:1089F00006460F4601F012FC05468A4601F082F851
:108A000002460B463046394600F0FAFE134B002270
:108A100001F034FB10B101354AF1000A4A462846FC
:108A2000D317514601F0AEFB0123154621460A2219
:108A300000F0E9FCB8F1000F0DD0204601F049FE2E
:108A40002E23211823540A22434628460131BDE82B
:108A5000F04700F0D8BCBDE8F08700BF0000E03F61
:108A600010B504460068FDF745FE204610BD10B560
:108A70000446006808B1FDF73DFE0023C4E9013358
:108A8000236010BD38B504460D4600680131FDF77E
:108A900039FE10B1C4E90005012038BD10B50368E6
:108AA000044623B143688B4201D3012010BD204608
:108AB000FFF7E8FF0028F9D0A368002BF5D1226862
:108AC0001370F2E737B50D46114601920446FFF7E1
:108AD000E5FF019A28B92046FFF7C9FF204603B0F9
:108AE00030BDA2602946206801F058FD2268A368C5
:108AF0000021D154F2E7002313B5C0E90033044646
:108B00008360037341B10846019101F0E2FD0199D0
:108B100002462046FFF7D6FF204602B010BD38B50A
:108B2000054600680C4668B16A688B689A4207D3AC
:108B3000096801F0A8FDA368AB600023A36038BDFD
:108B4000FDF7D8FD23682B6063686B60A368AB609A
:108B50000023C4E90033F1E710B50023C0E9003376
:108B6000044683600373FFF7DAFF204610BD884296
:108B700010B5044605D00B682BB18A681946FFF77B
:108B8000A1FF204610BDFFF772FFFAE710B50023E2
:108B90000446C0E9003383600373FFF7E8FF204613
:108BA00010BD884210B5044601D0FFF7B8FF20463B
:108BB00010BD13B5044659B10846019101F089FD75
:108BC000019902462046FFF77DFF204602B010BD06
:108BD000FFF74DFFF9E730B5044600238BB0C4E939
:108BE0000033A360237310EE100ACDB200F068FFCB
:108BF00041EC100B01A92846FFF7D4FE01A920463D
:108C0000FFF7D7FF20460BB030BD70B505460E46C6
:108C100009B9002070BD6AB1846814442146FFF789
:108C20003DFF0028F5D02868AB683146184401F0B4
:108C30002AFDAC600120EDE710B58A68096804469A
:108C4000FFF7E3FF10B92046FFF711FF204610BDE4
:108C500013B5044629B92046FFF709FF204602B0A4
:108C600010BD0846019101F034FD019902462046ED
:108C7000FFF7CBFF0028EED0F0E700000EB470B590
:108C800087B00BAD044655F8042B01922B46052105
:108C900004A80395FDF74EFD0B4906462046FFF755
:108CA0002AFF31462046FFF7F9FE206830B1019ACD
:108CB00003952B46711CFDF73DFDA060204607B0D3
:108CC000BDE8704003B070477BAF0D0010B504469F
:108CD000006818B1FDF70EFD0023236010BD38B504
:108CE000B1F9043083800B460D4653F8062FC0F8C7
:108CF00006209B8843810446FFF7E8FF2B6813B1E9
:108D0000236000232B60204638BD000038B50C4698
:108D10000546FFF7DBFF44B12088FDF7E3FC286040
:108D200028B12288214601F039FC002038BD0148D5
:108D3000FCE700BFFCFEFFFFF0B52D4D0B7D0446A8
:108D40008BB00846AF1D002B38D00B681B79002B69
:108D500034D00022274B049302A904300292ADF8CC
:108D60000C208DF80E20FDF713FCDDF80E30C5F851
:108D7000063000B2BDF81230ADF80C00A8800299A0
:108D8000BB802846FFF7C2FF02A8FFF79FFF002322
:108D90002360A380A37123814FF6FF736381B5F92C
:108DA0000430A3803B68C4F80630BB88296863811F
:108DB0002046FFF7ABFF20460BB0F0BD0026202376
:108DC000CDE902360C4B00930C49334602AA3220FF
:108DD000FDF756FB074B049302A94FF6F2630448D4
:108DE00002968DF80E60ADF80C30FFF778FFCBE7F8
:108DF0007CE603200000FFFF4BB00D0044B00D00E7
:108E0000054B02221A60054B054A9A600020186043
:108E100098809871FDF766BB88E603207CE6032006
:108E20000000FFFF2DE9F041154ADFF86080D2E92C
:108E30000032C01842EB0101124AD2E90032C618D2
:108E400041EB0207D8E90023BB4208BFB2428CB015
:108E500013D003A96846CDE90067FDF793FC089B92
:108E6000094D03F26C7303AC08930FCC0FC50FCC04
:108E70000FC5C8E9006723682B600CB0BDE8F0811E
:108E8000C0E60320B8E6032094E60320C8E60320EA
:108E900008B50020FDF7AEFB28B1FDF793FB80F08D
:108EA0000100C0B208BD0120FCE70000FAEE087A1C
:108EB000B4EEE70AF1EE10FA08B511D4F2EE0C7A2E
:108EC000B4EEE70AF1EE10FA0ADCDFED067A60EEA6
:108ED000277A17EE900A01F06DF9034BC3E9000100
:108EE00008BD00BF00006145C0E60320000000008F
:108EF00008B5094BD3E9000100F00CFE04A3D3E947
:108F0000002300F05FFF01F0EDF800EE100A08BD4D
:108F1000000000000020AC40B8E303201FB502466B
:108F20000B4668460021CDE90023CDE90211FDF78B
:108F30003FF9024610B90146FDF704FB05B05DF8A4
:108F400004FB000030B504461848D0E90010521860
:108F500040EB03031648D0E90010521893B040EBE1
:108F60000303CDE9002324220DEB0200002101F0D0
:108F70003DFB002509A96846FDF704FC1622294699
:108F800003A8029501F032FB02A909A801F0C8FA72
:108F900002A801F09EFB12AB184402A900F8415C44
:108FA0002046FFF7A8FD204613B030BDC0E60320E1
:108FB000B8E603202DE9F04FA5B00746884614A86F
:108FC00011463F221D4601F09EFB002314A88DF898
:108FD0008F3001F07EFB04465DBB2A4903A801F0F7
:108FE00052FB14AE002504F1FF3BAB4536D9B14628
:108FF00005F1010A19F8013B252B17D173787A2B5B
:1090000014D103A801F065FB14AB044628181844DA
:10901000ABEB0502B11C01F0C1FA224603A93046B0
:1090200001F0BCFA14A801F054FB04464E46554624
:10903000D9E73C2195FBF1F3002BB8BF5B42B3FBB2
:10904000F1F201FB123300930F4A4FF461631021D8
:1090500003A895FBF3F3FDF765FBC2E700212E2281
:1090600008A8079101F0C2FA434614AA322107A8C2
:10907000FDF780FB07A93846FFF73DFD384625B0D0
:10908000BDE8F08F72B00D0074B00D00F0B58DB07A
:10909000CDE90023129D044615B9194B1D682DB169
:1090A000184B2846196801F0E4FA38B9DDE90023C5
:1090B0002046FFF747FF20460DB0F0BD124E009945
:1090C000124FD6E900325B18019941EB0202D7E951
:1090D00000011B1841EB0202CDE9003200212422DD
:1090E00003A801F083FA03A96846FDF74BFB326839
:1090F0003B6803A9134420462A46FFF75BFFDAE7E3
:1091000090E60320B0E30320C0E60320B8E6032086
:1091100010B50020FDF73CF80446A0B9FDF7DAF9D8
:10912000012810D12046FDF705FA60B9FFF7B0FE1F
:1091300010B9FDF737FAF9E7FFF7AAFEBDE81040CE
:109140000020FDF725B8204610BD1FB5FFF7E0FF52
:1091500010220021684601F049FA00216846FDF717
:109160001FF8009805B05DF804FB000008B5FFF794
:10917000ECFFC117FFF756FE014B586908BD00BF51
:1091800094E60320024B1A68024B1A60704700BF36
:10919000B0E3032090E603207047417470477047A6
:1091A00008B5007CFDF714F920EAE07008BD08B5A9
:1091B000007CFDF7E5F820EAE07008BD08B5007C0A
:1091C000FDF7EEF840EAE07008BD08B5007CFDF759
:1091D000DFF840EAE07008BD007CFDF7E9B837B57C
:1091E000457C04462DB1207C03B0BDE83040FDF73E
:1091F000BFB8007C0191FDF7EBF800280199F2DC83
:10920000284603B030BD10B51421044600F0EAFA38
:10921000204610BD10B54FF0000C0446084611461C
:109220004FF47A72C4E901C2044A22600122207418
:1092300062741A46FDF78CF8204610BDA4B00D00EC
:10924000007C0023FDF7CCB80022FFF7F9BF007CBB
:10925000FDF786B8F7B51A4C26684EB98420FAF7A0
:109260001AFF054618B18422314601F0BFF9256086
:10927000144D2F684FB98420FAF70DFF064618B138
:109280008422394601F0B2F92E600F4E3178BFF3D7
:109290005B8F11F0010110D130460191FAF70CFFFC
:1092A000019950B12B6822680848FFF7B3FF304698
:1092B000FAF707FF064801F059F9044803B0F0BD7A
:1092C000D4E60320D8E60320D0E60320DCE6032022
:1092D0009F910D00417470477047704708B5002199
:1092E000007CFDF7ADF840EAE07008BD08B501214B
:1092F000007CFDF7A5F840EAE07008BD08B5007CE9
:10930000FDF796F820EAE07008BD08B5007CFDF78F
:1093100087F820EAE07008BD13B50446007C01918F
:10932000FDF786F80028019901DC607C20B1207CE3
:10933000FDF78EF820EAE07002B010BD007CFDF76A
:109340008FB810B51421044600F04CFA204610BD29
:1093500010B54FF47A73044608460021C4E901139E
:10936000044B23600123207463741146FDF740F819
:10937000204610BDD4B00D00007C0022FDF740B89F
:10938000007CFDF745B810B514220446002101F019
:109390002DF9204610BD000010B50F4C88B003A871
:1093A000FFF7F1FF2178BFF35B8F11F001010FD1BF
:1093B00020460191FAF780FE019948B103AA0748B7
:1093C000FFF7C6FF2046FAF77CFE054801F0CEF80D
:1093D000024808B010BD00BFF0E60320F4E6032009
:1093E000D9920D0010B5044601F073F90138231825
:1093F0002046834206D90278197800F8011B03F849
:109400000129F6E710BD70B50C46911E22290546CC
:1094100022D820466DB1B5FBF2F602FB1655E9B233
:10942000092D94BF30315731C9B200F8011B3546C0
:10943000F0E7024623443021934202D902F8011B8F
:10944000FAE71A1A834238BF0022002383542046C9
:10945000FFF7C8FF204670BD0020FCE7014B1860F5
:10946000704700BFC0E3032008B50B4B43B1FFF7C3
:1094700093FF03681B699847002801DDAFF3008064
:10948000064B43B1FFF7E6FE03681B6998470028C7
:1094900001DDAFF3008008BD000000000000000007
:1094A00008B5FFF7E1FFFCF753FE014B186008BD5C
:1094B0001CE703200548064A064908B5121A01F0C0
:1094C0006DF8054B054A1A6008BD00BF00F4032083
:1094D00004F4032098B20D0000F403201E1C279A08
:1094E00007B5002300931A466FF07701FDF73CF8AB
:1094F00003B05DF804FB000007B543880A2B08D0D1
:10950000502B0BD1094B1B684BB103B05DF804EB3A
:109510001847FFF7E5FF03B05DF804FB0023009355
:109520001A466FF07701FDF71FF8F4E70CE7032008
:1095300010B512480021FDF715F9114B1A68114BAF
:109540009A42114B0CBF012200221A7001D0FFF782
:10955000B1FFFCF7EDFD044601F050F80B4B13B1E1
:109560002046AFF3008000210848FDF753F8BDE81E
:10957000104007480021FCF7EDBF00BF5D940D00CF
:1095800000F403201E1C279A08E7032000000000B7
:10959000F9940D0008B5024B1B681B68019308BDC8
:1095A0005C02030008B5024B1B685B68019308BDB1
:1095B0005C02030008B5024B1B689B68019308BD61
:1095C0005C020300232813B502D9002002B010BDAD
:1095D000A0F10B03022B1AD8174C2178BFF35B8F35
:1095E00011F001010BD120460191FAF765FD0199B7
:1095F00028B11248FFF7CCF92046FAF762FD0F4B6D
:109600001878FCF79DFE0028DFD10120DEE7012855
:1096100009D800F09FF80021007CFCF749FE80F09B
:109620000100C0B2D2E709380128EED8FFF712FED8
:10963000007CFCF7C5FEF2E710E7032014E70320E7
:10964000232838B504460D460AD8FF2908D0FFF76D
:10965000B9FF28B129462046BDE83840FCF7B8BD1F
:1096600038BD38B504460D46FCF7BAFDFF2810D0CA
:10967000062804D84D2323FA00F0C30709D4204656
:10968000FFF7A0FF28B129462046BDE83840FCF787
:10969000AFBD38BD0D2810B504469CBF0E34A4B232
:1096A0002046FFF78FFF50B103212046FCF788FDCD
:1096B000032804D12046BDE81040FCF7B1BD0020CE
:1096C00010BD000010B5084C2378BFF35B8FDB079B
:1096D00008D42046FAF7F0FC20B1FCF741FD204603
:1096E000FAF7EFFC014810BD20E7032024E7032030
:1096F0007047704738B50023202543801423044663
:109700000380856005610649284600F06FF804492A
:109710006060284600F06AF8E060204638BD00BF6F
:10972000FCB00D0038B500232025438014230446E7
:109730000380856005610649284600F057F8044912
:109740006060284600F052F8E060204638BD00BF57
:10975000FCB00D0030B50E4D2978BFF35B8F11F0D2
:10976000010487B011D12846FAF7A6FC68B101A818
:10977000FFF7C0FF01AA21460648FDF777FC2846FF
:10978000FAF79FFC044800F0F1FE024807B030BD34
:1097900028E7032030E70320F1960D0010B50E4CAA
:1097A0002378BFF35B8FDB0786B011D42046FAF72E
:1097B00083FC68B101A8FFF7B5FF01AA01210748A2
:1097C000FDF754FC2046FAF77CFC054800F0CEFE7D
:1097D000024806B010BD00BF2CE7032044E7032079
:1097E000F3960D00FAF75BBCFAF755BCFAF755BCD7
:1097F00008B5FCF7A7FF000081F0004102E000BFC0
:1098000083F0004330B54FEA41044FEA430594EA40
:10981000050F08BF90EA020F1FBF54EA000C55EA7B
:10982000020C7FEA645C7FEA655C00F0E2804FEA4C
:109830005454D4EB5555B8BF6D420CDD2C4480EA2E
:10984000020281EA030382EA000083EA010180EA5E
:10985000020281EA0303362D88BF30BD11F0004FAC
:109860004FEA01314FF4801C4CEA113102D04042E2
:1098700061EB410113F0004F4FEA03334CEA13331D
:1098800002D0524263EB430394EA050F00F0A78035
:10989000A4F10104D5F1200E0DDB02FA0EFC22FA30
:1098A00005F2801841F1000103FA0EF2801843FA24
:1098B00005F359410EE0A5F120050EF1200E012A15
:1098C00003FA0EFC28BF4CF0020C43FA05F3C01853
:1098D00051EBE37101F0004507D54FF0000EDCF1CC
:1098E000000C7EEB00006EEB0101B1F5801F1BD375
:1098F000B1F5001F0CD349085FEA30004FEA3C0C79
:1099000004F101044FEA445212F5800F80F09A806E
:10991000BCF1004F08BF5FEA500C50F1000041EB72
:10992000045141EA050130BD5FEA4C0C404141EB76
:109930000101013C28BFB1F5801FE9D291F0000F71
:1099400004BF01460020B1FA81F308BF2033A3F120
:109950000B03B3F120020CDA0C3208DD02F1140C17
:10996000C2F10C0201FA0CF021FA02F10CE002F152
:109970001402D8BFC2F1200C01FA02F120FA0CFC4B
:10998000DCBF41EA0C019040E41AA2BF01EB045194
:10999000294330BD6FEA04041F3C1CDA0C340EDC92
:1099A00004F11404C4F1200220FA04F001FA02F3D5
:1099B00040EA030021FA04F345EA030130BDC4F193
:1099C0000C04C4F1200220FA02F001FA04F340EA88
:1099D0000300294630BD21FA04F0294630BD94F039
:1099E000000F83F4801306BF81F480110134013D20
:1099F0004EE77FEA645C18BF7FEA655C29D094EA91
:109A0000050F08BF90EA020F05D054EA000C04BF0E
:109A10001946104630BD91EA030F1EBF00210020F9
:109A200030BD5FEA545C05D14000494128BF41F098
:109A3000004130BD14F580043CBF01F5801130BDFC
:109A400001F0004545F0FE4141F470014FF0000087
:109A500030BD7FEA645C1ABF194610467FEA655C38
:109A60001CBF0B46024650EA013406BF52EA0335DA
:109A700091EA030F41F4002130BD00BF90F0000FC8
:109A800004BF0021704730B54FF4806404F1320404
:109A90004FF000054FF0000150E700BF90F0000FBD
:109AA00004BF0021704730B54FF4806404F13204E4
:109AB00010F0004548BF40424FF000013EE700BFB4
:109AC00042004FEAE2014FEA31014FEA02701FBF44
:109AD00012F07F4393F07F4F81F06051704732F076
